{"abi":[{"type":"constructor","inputs":[{"name":"_truflationFeed","type":"address","internalType":"address"},{"name":"_pythFeed","type":"address","internalType":"address"},{"name":"_dao","type":"address","internalType":"address"},{"name":"_keeper","type":"address","internalType":"address"}],"stateMutability":"nonpayable"},{"type":"function","name":"DAO_ROLE","inputs":[],"outputs":[{"name":"","type":"bytes32","internalType":"bytes32"}],"stateMutability":"view"},{"type":"function","name":"DEFAULT_ADMIN_ROLE","inputs":[],"outputs":[{"name":"","type":"bytes32","internalType":"bytes32"}],"stateMutability":"view"},{"type":"function","name":"FREEZE_DURATION","inputs":[],"outputs":[{"name":"","type":"uint256","internalType":"uint256"}],"stateMutability":"view"},{"type":"function","name":"KEEPER_ROLE","inputs":[],"outputs":[{"name":"","type":"bytes32","internalType":"bytes32"}],"stateMutability":"view"},{"type":"function","name":"MAX_DIVERGENCE_BPS","inputs":[],"outputs":[{"name":"","type":"uint256","internalType":"uint256"}],"stateMutability":"view"},{"type":"function","name":"MAX_INFLATION_BPS","inputs":[],"outputs":[{"name":"","type":"uint256","internalType":"uint256"}],"stateMutability":"view"},{"type":"function","name":"MIN_WEIGHT","inputs":[],"outputs":[{"name":"","type":"uint256","internalType":"uint256"}],"stateMutability":"view"},{"type":"function","name":"PYTH_CPI_ID","inputs":[],"outputs":[{"name":"","type":"bytes32","internalType":"bytes32"}],"stateMutability":"view"},{"type":"function","name":"PYTH_PCE_ID","inputs":[],"outputs":[{"name":"","type":"bytes32","internalType":"bytes32"}],"stateMutability":"view"},{"type":"function","name":"STALENESS_LIMIT","inputs":[],"outputs":[{"name":"","type":"uint256","internalType":"uint256"}],"stateMutability":"view"},{"type":"function","name":"WEIGHT_TIMELOCK","inputs":[],"outputs":[{"name":"","type":"uint256","internalType":"uint256"}],"stateMutability":"view"},{"type":"function","name":"WEIGHT_TOTAL","inputs":[],"outputs":[{"name":"","type":"uint256","internalType":"uint256"}],"stateMutability":"view"},{"type":"function","name":"circuitBreakerActive","inputs":[],"outputs":[{"name":"","type":"bool","internalType":"bool"}],"stateMutability":"view"},{"type":"function","name":"circuitBreakerExpiresAt","inputs":[],"outputs":[{"name":"","type":"uint256","internalType":"uint256"}],"stateMutability":"view"},{"type":"function","name":"circuitBreakerExpiry","inputs":[],"outputs":[{"name":"","type":"uint256","internalType":"uint256"}],"stateMutability":"view"},{"type":"function","name":"emergencyClearCircuitBreaker","inputs":[],"outputs":[],"stateMutability":"nonpayable"},{"type":"function","name":"executeWeightUpdate","inputs":[],"outputs":[],"stateMutability":"nonpayable"},{"type":"function","name":"getRawRates","inputs":[],"outputs":[{"name":"truflationRate","type":"uint256","internalType":"uint256"},{"name":"pythRate","type":"uint256","internalType":"uint256"},{"name":"truflationAge","type":"uint256","internalType":"uint256"},{"name":"pythAge","type":"uint256","internalType":"uint256"}],"stateMutability":"view"},{"type":"function","name":"getRoleAdmin","inputs":[{"name":"role","type":"bytes32","internalType":"bytes32"}],"outputs":[{"name":"","type":"bytes32","internalType":"bytes32"}],"stateMutability":"view"},{"type":"function","name":"getWeightedInflation","inputs":[],"outputs":[{"name":"rate","type":"uint256","internalType":"uint256"}],"stateMutability":"view"},{"type":"function","name":"getWeights","inputs":[],"outputs":[{"name":"tw","type":"uint256","internalType":"uint256"},{"name":"pw","type":"uint256","internalType":"uint256"}],"stateMutability":"view"},{"type":"function","name":"grantRole","inputs":[{"name":"role","type":"bytes32","internalType":"bytes32"},{"name":"account","type":"address","internalType":"address"}],"outputs":[],"stateMutability":"nonpayable"},{"type":"function","name":"hasRole","inputs":[{"name":"role","type":"bytes32","internalType":"bytes32"},{"name":"account","type":"address","internalType":"address"}],"outputs":[{"name":"","type":"bool","internalType":"bool"}],"stateMutability":"view"},{"type":"function","name":"isCircuitBreakerActive","inputs":[],"outputs":[{"name":"","type":"bool","internalType":"bool"}],"stateMutability":"view"},{"type":"function","name":"lastAcceptedRateBps","inputs":[],"outputs":[{"name":"","type":"uint256","internalType":"uint256"}],"stateMutability":"view"},{"type":"function","name":"pendingPythWeight","inputs":[],"outputs":[{"name":"","type":"uint256","internalType":"uint256"}],"stateMutability":"view"},{"type":"function","name":"pendingTruflationWeight","inputs":[],"outputs":[{"name":"","type":"uint256","internalType":"uint256"}],"stateMutability":"view"},{"type":"function","name":"proposeWeightUpdate","inputs":[{"name":"newTruflationWeight","type":"uint256","internalType":"uint256"},{"name":"newPythWeight","type":"uint256","internalType":"uint256"}],"outputs":[],"stateMutability":"nonpayable"},{"type":"function","name":"pythFeed","inputs":[],"outputs":[{"name":"","type":"address","internalType":"contract IPythFeed"}],"stateMutability":"view"},{"type":"function","name":"pythWeight","inputs":[],"outputs":[{"name":"","type":"uint256","internalType":"uint256"}],"stateMutability":"view"},{"type":"function","name":"renounceRole","inputs":[{"name":"role","type":"bytes32","internalType":"bytes32"},{"name":"callerConfirmation","type":"address","internalType":"address"}],"outputs":[],"stateMutability":"nonpayable"},{"type":"function","name":"revokeRole","inputs":[{"name":"role","type":"bytes32","internalType":"bytes32"},{"name":"account","type":"address","internalType":"address"}],"outputs":[],"stateMutability":"nonpayable"},{"type":"function","name":"supportsInterface","inputs":[{"name":"interfaceId","type":"bytes4","internalType":"bytes4"}],"outputs":[{"name":"","type":"bool","internalType":"bool"}],"stateMutability":"view"},{"type":"function","name":"truflationFeed","inputs":[],"outputs":[{"name":"","type":"address","internalType":"contract ITruflationFeed"}],"stateMutability":"view"},{"type":"function","name":"truflationWeight","inputs":[],"outputs":[{"name":"","type":"uint256","internalType":"uint256"}],"stateMutability":"view"},{"type":"function","name":"validateAndUpdate","inputs":[],"outputs":[],"stateMutability":"nonpayable"},{"type":"function","name":"weightUpdateReadyAt","inputs":[],"outputs":[{"name":"","type":"uint256","internalType":"uint256"}],"stateMutability":"view"},{"type":"event","name":"CircuitBreakerTriggered","inputs":[{"name":"newRate","type":"uint256","indexed":false,"internalType":"uint256"},{"name":"lastRate","type":"uint256","indexed":false,"internalType":"uint256"},{"name":"divergence","type":"uint256","indexed":false,"internalType":"uint256"},{"name":"frozenUntil","type":"uint256","indexed":false,"internalType":"uint256"}],"anonymous":false},{"type":"event","name":"InflationUpdated","inputs":[{"name":"timestamp","type":"uint256","indexed":true,"internalType":"uint256"},{"name":"truflationRate","type":"uint256","indexed":false,"internalType":"uint256"},{"name":"pythRate","type":"uint256","indexed":false,"internalType":"uint256"},{"name":"weightedRate","type":"uint256","indexed":false,"internalType":"uint256"}],"anonymous":false},{"type":"event","name":"RoleAdminChanged","inputs":[{"name":"role","type":"bytes32","indexed":true,"internalType":"bytes32"},{"name":"previousAdminRole","type":"bytes32","indexed":true,"internalType":"bytes32"},{"name":"newAdminRole","type":"bytes32","indexed":true,"internalType":"bytes32"}],"anonymous":false},{"type":"event","name":"RoleGranted","inputs":[{"name":"role","type":"bytes32","indexed":true,"internalType":"bytes32"},{"name":"account","type":"address","indexed":true,"internalType":"address"},{"name":"sender","type":"address","indexed":true,"internalType":"address"}],"anonymous":false},{"type":"event","name":"RoleRevoked","inputs":[{"name":"role","type":"bytes32","indexed":true,"internalType":"bytes32"},{"name":"account","type":"address","indexed":true,"internalType":"address"},{"name":"sender","type":"address","indexed":true,"internalType":"address"}],"anonymous":false},{"type":"event","name":"WeightsUpdated","inputs":[{"name":"truflationWeight","type":"uint256","indexed":false,"internalType":"uint256"},{"name":"pythWeight","type":"uint256","indexed":false,"internalType":"uint256"},{"name":"effectiveAt","type":"uint256","indexed":false,"internalType":"uint256"}],"anonymous":false},{"type":"error","name":"AccessControlBadConfirmation","inputs":[]},{"type":"error","name":"AccessControlUnauthorizedAccount","inputs":[{"name":"account","type":"address","internalType":"address"},{"name":"neededRole","type":"bytes32","internalType":"bytes32"}]},{"type":"error","name":"CircuitBreakerActive","inputs":[{"name":"frozenUntil","type":"uint256","internalType":"uint256"}]},{"type":"error","name":"InvalidInflationRate","inputs":[{"name":"rate","type":"uint256","internalType":"uint256"}]},{"type":"error","name":"StalePythData","inputs":[{"name":"age","type":"uint256","internalType":"uint256"},{"name":"maxAge","type":"uint256","internalType":"uint256"}]},{"type":"error","name":"StaleTruflationData","inputs":[{"name":"age","type":"uint256","internalType":"uint256"},{"name":"maxAge","type":"uint256","internalType":"uint256"}]}],"bytecode":{"object":"0x60c06040526046600155601e600255348015610019575f5ffd5b5060405161294e38038061294e833981810160405281019061003b9190610428565b5f73ffffffffffffffffffffffffffffffffffffffff168473ffffffffffffffffffffffffffffffffffffffff16036100a9576040517f08c379a00000000000000000000000000000000000000000000000000000000081526004016100a0906104e6565b60405180910390fd5b5f73ffffffffffffffffffffffffffffffffffffffff168373ffffffffffffffffffffffffffffffffffffffff1603610117576040517f08c379a000000000000000000000000000000000000000000000000000000000815260040161010e9061054e565b60405180910390fd5b5f73ffffffffffffffffffffffffffffffffffffffff168273ffffffffffffffffffffffffffffffffffffffff1603610185576040517f08c379a000000000000000000000000000000000000000000000000000000000815260040161017c906105b6565b60405180910390fd5b8373ffffffffffffffffffffffffffffffffffffffff1660808173ffffffffffffffffffffffffffffffffffffffff16815250508273ffffffffffffffffffffffffffffffffffffffff1660a08173ffffffffffffffffffffffffffffffffffffffff16815250506101ff5f5f1b8361026b60201b60201c565b506102307f3b5d4cc60d3ec3516ee8ae083bd60934f6eb2a6c54b1229985c41bfb092b26038361026b60201b60201c565b506102617ffc8737ab85eb45125971625a9ebdb75cc78e01d5c1fa80c4c6e5203f47bc4fab8261026b60201b60201c565b50505050506105d4565b5f61027c838361036060201b60201c565b6103565760015f5f8581526020019081526020015f205f015f8473ffffffffffffffffffffffffffffffffffffffff1673ffffffffffffffffffffffffffffffffffffffff1681526020019081526020015f205f6101000a81548160ff0219169083151502179055506102f36103c360201b60201c565b73ffffffffffffffffffffffffffffffffffffffff168273ffffffffffffffffffffffffffffffffffffffff16847f2f8788117e7eff1d82e926ec794901d17c78024a50270940304540a733656f0d60405160405180910390a46001905061035a565b5f90505b92915050565b5f5f5f8481526020019081526020015f205f015f8373ffffffffffffffffffffffffffffffffffffffff1673ffffffffffffffffffffffffffffffffffffffff1681526020019081526020015f205f9054906101000a900460ff16905092915050565b5f33905090565b5f5ffd5b5f73ffffffffffffffffffffffffffffffffffffffff82169050919050565b5f6103f7826103ce565b9050919050565b610407816103ed565b8114610411575f5ffd5b50565b5f81519050610422816103fe565b92915050565b5f5f5f5f608085870312156104405761043f6103ca565b5b5f61044d87828801610414565b945050602061045e87828801610414565b935050604061046f87828801610414565b925050606061048087828801610414565b91505092959194509250565b5f82825260208201905092915050565b7f4f7261636c653a207a65726f20747275666c6174696f6e0000000000000000005f82015250565b5f6104d060178361048c565b91506104db8261049c565b602082019050919050565b5f6020820190508181035f8301526104fd816104c4565b9050919050565b7f4f7261636c653a207a65726f20707974680000000000000000000000000000005f82015250565b5f61053860118361048c565b915061054382610504565b602082019050919050565b5f6020820190508181035f8301526105658161052c565b9050919050565b7f4f7261636c653a207a65726f2064616f000000000000000000000000000000005f82015250565b5f6105a060108361048c565b91506105ab8261056c565b602082019050919050565b5f6020820190508181035f8301526105cd81610594565b9050919050565b60805160a05161234b6106035f395f8181610df701526113b701525f8181610d5801526112da015261234b5ff3fe608060405234801561000f575f5ffd5b5060043610610225575f3560e01c8063844ad3461161012e578063dbb693c9116100b6578063f3d3002a1161007a578063f3d3002a146105df578063f609844d146105fd578063f771694a1461061b578063f79d073114610639578063f7d48f341461065757610225565b8063dbb693c914610546578063df3844dd14610564578063e93fdf9a14610582578063e9c26518146105a3578063f2905377146105c157610225565b8063ab4b6d81116100fd578063ab4b6d81146104b2578063b0533084146104d0578063ca7ef348146104ee578063d547741f1461050c578063d8044ad91461052857610225565b8063844ad3461461042857806391d1485414610446578063958d104514610476578063a217fddf1461049457610225565b806332941ecb116101b15780635270ca27116101805780635270ca27146103a6578063652fefb8146103b057806369e80d2f146103ce5780637ac5d81c146103ec5780638375ede71461040a57610225565b806332941ecb14610344578063364bc15a1461036257806336568abe146103805780633c663f2c1461039c57610225565b806322a7caf5116101f857806322a7caf51461029d57806322acb867146102bb578063248a9ca3146102da5780632708448d1461030a5780632f2ff15d1461032857610225565b806301ffc9a714610229578063073a68ad146102595780631c8ac53514610275578063218b53821461027f575b5f5ffd5b610243600480360381019061023e919061162d565b610675565b6040516102509190611672565b60405180910390f35b610273600480360381019061026e91906116be565b6106ee565b005b61027d610853565b005b610287610922565b604051610294919061170b565b60405180910390f35b6102a5610927565b6040516102b2919061170b565b60405180910390f35b6102c361092d565b6040516102d1929190611724565b60405180910390f35b6102f460048036038101906102ef919061177e565b61093d565b60405161030191906117b8565b60405180910390f35b610312610959565b60405161031f91906117b8565b60405180910390f35b610342600480360381019061033d919061182b565b61097f565b005b61034c6109a1565b6040516103599190611672565b60405180910390f35b61036a6109c3565b60405161037791906117b8565b60405180910390f35b61039a6004803603810190610395919061182b565b6109e7565b005b6103a4610a62565b005b6103ae610aaf565b005b6103b8610d22565b6040516103c5919061170b565b60405180910390f35b6103d6610d28565b6040516103e3919061170b565b60405180910390f35b6103f4610d4b565b604051610401919061170b565b60405180910390f35b610412610d51565b60405161041f919061170b565b60405180910390f35b610430610d56565b60405161043d91906118c4565b60405180910390f35b610460600480360381019061045b919061182b565b610d7a565b60405161046d9190611672565b60405180910390f35b61047e610ddd565b60405161048b919061170b565b60405180910390f35b61049c610de2565b6040516104a991906117b8565b60405180910390f35b6104ba610de8565b6040516104c7919061170b565b60405180910390f35b6104d8610def565b6040516104e5919061170b565b60405180910390f35b6104f6610df5565b60405161050391906118fd565b60405180910390f35b6105266004803603810190610521919061182b565b610e19565b005b610530610e3b565b60405161053d919061170b565b60405180910390f35b61054e610fd2565b60405161055b919061170b565b60405180910390f35b61056c610fd9565b604051610579919061170b565b60405180910390f35b61058a610fdf565b60405161059a9493929190611916565b60405180910390f35b6105ab611009565b6040516105b891906117b8565b60405180910390f35b6105c961102d565b6040516105d6919061170b565b60405180910390f35b6105e7611033565b6040516105f4919061170b565b60405180910390f35b610605611039565b6040516106129190611672565b60405180910390f35b61062361104b565b604051610630919061170b565b60405180910390f35b610641611051565b60405161064e919061170b565b60405180910390f35b61065f611058565b60405161066c91906117b8565b60405180910390f35b5f7f7965db0b000000000000000000000000000000000000000000000000000000007bffffffffffffffffffffffffffffffffffffffffffffffffffffffff1916827bffffffffffffffffffffffffffffffffffffffffffffffffffffffff191614806106e757506106e68261107e565b5b9050919050565b7f3b5d4cc60d3ec3516ee8ae083bd60934f6eb2a6c54b1229985c41bfb092b2603610718816110e7565b606482846107269190611986565b14610766576040517f08c379a000000000000000000000000000000000000000000000000000000000815260040161075d90611a13565b60405180910390fd5b60148310156107aa576040517f08c379a00000000000000000000000000000000000000000000000000000000081526004016107a190611aa1565b60405180910390fd5b60148210156107ee576040517f08c379a00000000000000000000000000000000000000000000000000000000081526004016107e590611b09565b60405180910390fd5b82600681905550816007819055506202a3004261080b9190611986565b6008819055507f309a0c4067b8d1d08298519982cba6674df54ebb2f55d02a84e5fc26c510be47838360085460405161084693929190611b27565b60405180910390a1505050565b7f3b5d4cc60d3ec3516ee8ae083bd60934f6eb2a6c54b1229985c41bfb092b260361087d816110e7565b5f600854116108c1576040517f08c379a00000000000000000000000000000000000000000000000000000000081526004016108b890611ba6565b60405180910390fd5b600854421015610906576040517f08c379a00000000000000000000000000000000000000000000000000000000081526004016108fd90611c0e565b60405180910390fd5b6006546001819055506007546002819055505f60088190555050565b601481565b60045481565b5f5f600154600254915091509091565b5f5f5f8381526020019081526020015f20600101549050919050565b7f089bba8c1ad5e5ea7e8dc30d1b4f4a9a50d6c0bcd3d8f1e5a7c2b4d6e8f0a1005f1b81565b6109888261093d565b610991816110e7565b61099b83836110fb565b50505050565b5f60035f9054906101000a900460ff1680156109be575060045442105b905090565b7ffc8737ab85eb45125971625a9ebdb75cc78e01d5c1fa80c4c6e5203f47bc4fab81565b6109ef6111e4565b73ffffffffffffffffffffffffffffffffffffffff168173ffffffffffffffffffffffffffffffffffffffff1614610a53576040517f6697b23200000000000000000000000000000000000000000000000000000000815260040160405180910390fd5b610a5d82826111eb565b505050565b7f3b5d4cc60d3ec3516ee8ae083bd60934f6eb2a6c54b1229985c41bfb092b2603610a8c816110e7565b5f60035f6101000a81548160ff0219169083151502179055505f60048190555050565b7ffc8737ab85eb45125971625a9ebdb75cc78e01d5c1fa80c4c6e5203f47bc4fab610ad9816110e7565b5f5f610ae36112d4565b915091505f5f610af16113b2565b9150915062016da0831115610b3b576040517f08c379a0000000000000000000000000000000000000000000000000000000008152600401610b3290611c76565b60405180910390fd5b62016da0811115610b81576040517f08c379a0000000000000000000000000000000000000000000000000000000008152600401610b7890611cde565b60405180910390fd5b5f606460025484610b929190611cfc565b60015487610ba09190611cfc565b610baa9190611986565b610bb49190611d6a565b90506107d0811115610bfb576040517f08c379a0000000000000000000000000000000000000000000000000000000008152600401610bf290611de4565b60405180910390fd5b60035f9054906101000a900460ff168015610c1857506004544210155b15610c37575f60035f6101000a81548160ff0219169083151502179055505b5f6005541115610cd6575f610c4e8260055461154c565b90506096811115610cd457600160035f6101000a81548160ff0219169083151502179055506201518042610c829190611986565b6004819055507f666c591e952a2a959442667b42f969d270acb593ac1d3f2c0b11bda6f63fa97b8260055483600454604051610cc19493929190611916565b60405180910390a1505050505050610d1f565b505b80600581905550427ffdbad5a87b6f169c2d555efa0ff2e61ea702d35c7a7f5dda35216690d8c23d01868584604051610d1193929190611b27565b60405180910390a250505050505b50565b60055481565b5f60035f9054906101000a900460ff16610d42575f610d46565b6004545b905090565b60015481565b606481565b7f000000000000000000000000000000000000000000000000000000000000000081565b5f5f5f8481526020019081526020015f205f015f8373ffffffffffffffffffffffffffffffffffffffff1673ffffffffffffffffffffffffffffffffffffffff1681526020019081526020015f205f9054906101000a900460ff16905092915050565b609681565b5f5f1b81565b6202a30081565b6107d081565b7f000000000000000000000000000000000000000000000000000000000000000081565b610e228261093d565b610e2b816110e7565b610e3583836111eb565b50505050565b5f60035f9054906101000a900460ff1615610e9a57600454421015610e99576004546040517f645c9c8c000000000000000000000000000000000000000000000000000000008152600401610e90919061170b565b60405180910390fd5b5b5f5f610ea46112d4565b915091505f5f610eb26113b2565b9150915062016da0831115610f03578262016da06040517f62ffc454000000000000000000000000000000000000000000000000000000008152600401610efa929190611724565b60405180910390fd5b62016da0811115610f50578062016da06040517fc8a8231c000000000000000000000000000000000000000000000000000000008152600401610f47929190611724565b60405180910390fd5b606460025483610f609190611cfc565b60015486610f6e9190611cfc565b610f789190611986565b610f829190611d6a565b94506107d0851115610fcb57846040517f69b8b9a7000000000000000000000000000000000000000000000000000000008152600401610fc2919061170b565b60405180910390fd5b5050505090565b62016da081565b60025481565b5f5f5f5f610feb6112d4565b8093508195505050610ffb6113b2565b809250819450505090919293565b7f3b5d4cc60d3ec3516ee8ae083bd60934f6eb2a6c54b1229985c41bfb092b260381565b60085481565b60075481565b60035f9054906101000a900460ff1681565b60065481565b6201518081565b7f012a3b4c5d6e7f8091a2b3c4d5e6f7081920a1b2c3d4e5f6071829304a5b6c005f1b81565b5f7f01ffc9a7000000000000000000000000000000000000000000000000000000007bffffffffffffffffffffffffffffffffffffffffffffffffffffffff1916827bffffffffffffffffffffffffffffffffffffffffffffffffffffffff1916149050919050565b6110f8816110f36111e4565b61157a565b50565b5f6111068383610d7a565b6111da5760015f5f8581526020019081526020015f205f015f8473ffffffffffffffffffffffffffffffffffffffff1673ffffffffffffffffffffffffffffffffffffffff1681526020019081526020015f205f6101000a81548160ff0219169083151502179055506111776111e4565b73ffffffffffffffffffffffffffffffffffffffff168273ffffffffffffffffffffffffffffffffffffffff16847f2f8788117e7eff1d82e926ec794901d17c78024a50270940304540a733656f0d60405160405180910390a4600190506111de565b5f90505b92915050565b5f33905090565b5f6111f68383610d7a565b156112ca575f5f5f8581526020019081526020015f205f015f8473ffffffffffffffffffffffffffffffffffffffff1673ffffffffffffffffffffffffffffffffffffffff1681526020019081526020015f205f6101000a81548160ff0219169083151502179055506112676111e4565b73ffffffffffffffffffffffffffffffffffffffff168273ffffffffffffffffffffffffffffffffffffffff16847ff6391f5c32d9c69d2a47ea670b442974b53935d1edc7fd64eb21e047a839171b60405160405180910390a4600190506112ce565b5f90505b92915050565b5f5f5f5f7f000000000000000000000000000000000000000000000000000000000000000073ffffffffffffffffffffffffffffffffffffffff166309c0abff6040518163ffffffff1660e01b81526004016040805180830381865afa158015611340573d5f5f3e3d5ffd5b505050506040513d601f19601f820116820180604052508101906113649190611e49565b915091505f5f8313611376575f611378565b825b9050662386f26fc100008161138d9190611d6a565b945081421161139c575f6113a9565b81426113a89190611e87565b5b93505050509091565b5f5f5f7f000000000000000000000000000000000000000000000000000000000000000073ffffffffffffffffffffffffffffffffffffffff1663a4ae35e07f089bba8c1ad5e5ea7e8dc30d1b4f4a9a50d6c0bcd3d8f1e5a7c2b4d6e8f0a1005f1b62016da06040518363ffffffff1660e01b8152600401611435929190611eba565b608060405180830381865afa158015611450573d5f5f3e3d5ffd5b505050506040513d601f19601f82011682018060405250810190611474919061208b565b90505f5f825f015160070b1361148a575f611492565b815f015160070b5b90505f826040015190507ffffffffffffffffffffffffffffffffffffffffffffffffffffffffffffffffe8160030b126114f1576002816114d391906120b6565b600a6114df919061224f565b826114ea9190611cfc565b9450611521565b6002816114fe91906120b6565b61150790612299565b600a611513919061224f565b8261151e9190611d6a565b94505b82606001514211611532575f611543565b8260600151426115429190611e87565b5b93505050509091565b5f8183116115655782826115609190611e87565b611572565b81836115719190611e87565b5b905092915050565b6115848282610d7a565b6115c75780826040517fe2517d3f0000000000000000000000000000000000000000000000000000000081526004016115be9291906122ee565b60405180910390fd5b5050565b5f604051905090565b5f5ffd5b5f7fffffffff0000000000000000000000000000000000000000000000000000000082169050919050565b61160c816115d8565b8114611616575f5ffd5b50565b5f8135905061162781611603565b92915050565b5f60208284031215611642576116416115d4565b5b5f61164f84828501611619565b91505092915050565b5f8115159050919050565b61166c81611658565b82525050565b5f6020820190506116855f830184611663565b92915050565b5f819050919050565b61169d8161168b565b81146116a7575f5ffd5b50565b5f813590506116b881611694565b92915050565b5f5f604083850312156116d4576116d36115d4565b5b5f6116e1858286016116aa565b92505060206116f2858286016116aa565b9150509250929050565b6117058161168b565b82525050565b5f60208201905061171e5f8301846116fc565b92915050565b5f6040820190506117375f8301856116fc565b61174460208301846116fc565b9392505050565b5f819050919050565b61175d8161174b565b8114611767575f5ffd5b50565b5f8135905061177881611754565b92915050565b5f60208284031215611793576117926115d4565b5b5f6117a08482850161176a565b91505092915050565b6117b28161174b565b82525050565b5f6020820190506117cb5f8301846117a9565b92915050565b5f73ffffffffffffffffffffffffffffffffffffffff82169050919050565b5f6117fa826117d1565b9050919050565b61180a816117f0565b8114611814575f5ffd5b50565b5f8135905061182581611801565b92915050565b5f5f60408385031215611841576118406115d4565b5b5f61184e8582860161176a565b925050602061185f85828601611817565b9150509250929050565b5f819050919050565b5f61188c611887611882846117d1565b611869565b6117d1565b9050919050565b5f61189d82611872565b9050919050565b5f6118ae82611893565b9050919050565b6118be816118a4565b82525050565b5f6020820190506118d75f8301846118b5565b92915050565b5f6118e782611893565b9050919050565b6118f7816118dd565b82525050565b5f6020820190506119105f8301846118ee565b92915050565b5f6080820190506119295f8301876116fc565b61193660208301866116fc565b61194360408301856116fc565b61195060608301846116fc565b95945050505050565b7f4e487b71000000000000000000000000000000000000000000000000000000005f52601160045260245ffd5b5f6119908261168b565b915061199b8361168b565b92508282019050808211156119b3576119b2611959565b5b92915050565b5f82825260208201905092915050565b7f4f7261636c653a2077656967687473206d7573742073756d20746f20313030005f82015250565b5f6119fd601f836119b9565b9150611a08826119c9565b602082019050919050565b5f6020820190508181035f830152611a2a816119f1565b9050919050565b7f4f7261636c653a20747275666c6174696f6e2077656967687420746f6f206c6f5f8201527f7700000000000000000000000000000000000000000000000000000000000000602082015250565b5f611a8b6021836119b9565b9150611a9682611a31565b604082019050919050565b5f6020820190508181035f830152611ab881611a7f565b9050919050565b7f4f7261636c653a20707974682077656967687420746f6f206c6f7700000000005f82015250565b5f611af3601b836119b9565b9150611afe82611abf565b602082019050919050565b5f6020820190508181035f830152611b2081611ae7565b9050919050565b5f606082019050611b3a5f8301866116fc565b611b4760208301856116fc565b611b5460408301846116fc565b949350505050565b7f4f7261636c653a206e6f2070656e64696e6720757064617465000000000000005f82015250565b5f611b906019836119b9565b9150611b9b82611b5c565b602082019050919050565b5f6020820190508181035f830152611bbd81611b84565b9050919050565b7f4f7261636c653a2074696d656c6f636b206163746976650000000000000000005f82015250565b5f611bf86017836119b9565b9150611c0382611bc4565b602082019050919050565b5f6020820190508181035f830152611c2581611bec565b9050919050565b7f4f7261636c653a20747275666c6174696f6e207374616c6500000000000000005f82015250565b5f611c606018836119b9565b9150611c6b82611c2c565b602082019050919050565b5f6020820190508181035f830152611c8d81611c54565b9050919050565b7f4f7261636c653a2070797468207374616c6500000000000000000000000000005f82015250565b5f611cc86012836119b9565b9150611cd382611c94565b602082019050919050565b5f6020820190508181035f830152611cf581611cbc565b9050919050565b5f611d068261168b565b9150611d118361168b565b9250828202611d1f8161168b565b91508282048414831517611d3657611d35611959565b5b5092915050565b7f4e487b71000000000000000000000000000000000000000000000000000000005f52601260045260245ffd5b5f611d748261168b565b9150611d7f8361168b565b925082611d8f57611d8e611d3d565b5b828204905092915050565b7f4f7261636c653a207261746520636170206578636565646564000000000000005f82015250565b5f611dce6019836119b9565b9150611dd982611d9a565b602082019050919050565b5f6020820190508181035f830152611dfb81611dc2565b9050919050565b5f819050919050565b611e1481611e02565b8114611e1e575f5ffd5b50565b5f81519050611e2f81611e0b565b92915050565b5f81519050611e4381611694565b92915050565b5f5f60408385031215611e5f57611e5e6115d4565b5b5f611e6c85828601611e21565b9250506020611e7d85828601611e35565b9150509250929050565b5f611e918261168b565b9150611e9c8361168b565b9250828203905081811115611eb457611eb3611959565b5b92915050565b5f604082019050611ecd5f8301856117a9565b611eda60208301846116fc565b9392505050565b5f5ffd5b5f601f19601f8301169050919050565b7f4e487b71000000000000000000000000000000000000000000000000000000005f52604160045260245ffd5b611f2b82611ee5565b810181811067ffffffffffffffff82111715611f4a57611f49611ef5565b5b80604052505050565b5f611f5c6115cb565b9050611f688282611f22565b919050565b5f8160070b9050919050565b611f8281611f6d565b8114611f8c575f5ffd5b50565b5f81519050611f9d81611f79565b92915050565b5f67ffffffffffffffff82169050919050565b611fbf81611fa3565b8114611fc9575f5ffd5b50565b5f81519050611fda81611fb6565b92915050565b5f8160030b9050919050565b611ff581611fe0565b8114611fff575f5ffd5b50565b5f8151905061201081611fec565b92915050565b5f6080828403121561202b5761202a611ee1565b5b6120356080611f53565b90505f61204484828501611f8f565b5f83015250602061205784828501611fcc565b602083015250604061206b84828501612002565b604083015250606061207f84828501611e35565b60608301525092915050565b5f608082840312156120a05761209f6115d4565b5b5f6120ad84828501612016565b91505092915050565b5f6120c082611fe0565b91506120cb83611fe0565b925082820190507fffffffffffffffffffffffffffffffffffffffffffffffffffffffff800000008112637fffffff8213171561210b5761210a611959565b5b92915050565b5f8160011c9050919050565b5f5f8291508390505b60018511156121665780860481111561214257612141611959565b5b60018516156121515780820291505b808102905061215f85612111565b9450612126565b94509492505050565b5f8261217e5760019050612239565b8161218b575f9050612239565b81600181146121a157600281146121ab576121da565b6001915050612239565b60ff8411156121bd576121bc611959565b5b8360020a9150848211156121d4576121d3611959565b5b50612239565b5060208310610133831016604e8410600b841016171561220f5782820a90508381111561220a57612209611959565b5b612239565b61221c848484600161211d565b9250905081840481111561223357612232611959565b5b81810290505b9392505050565b5f63ffffffff82169050919050565b5f6122598261168b565b915061226483612240565b92506122917fffffffffffffffffffffffffffffffffffffffffffffffffffffffffffffffff848461216f565b905092915050565b5f6122a382611fe0565b91507fffffffffffffffffffffffffffffffffffffffffffffffffffffffff8000000082036122d5576122d4611959565b5b815f039050919050565b6122e8816117f0565b82525050565b5f6040820190506123015f8301856122df565b61230e60208301846117a9565b939250505056fea2646970667358221220f5fc1e59e969e6280df005f5b4f19c348b0413e13e09686a36ee4b791d969ffc64736f6c63430008230033","linkReferences":{}},"methodIdentifiers":{"DAO_ROLE()":"e9c26518","DEFAULT_ADMIN_ROLE()":"a217fddf","FREEZE_DURATION()":"f79d0731","KEEPER_ROLE()":"364bc15a","MAX_DIVERGENCE_BPS()":"958d1045","MAX_INFLATION_BPS()":"b0533084","MIN_WEIGHT()":"218b5382","PYTH_CPI_ID()":"2708448d","PYTH_PCE_ID()":"f7d48f34","STALENESS_LIMIT()":"dbb693c9","WEIGHT_TIMELOCK()":"ab4b6d81","WEIGHT_TOTAL()":"8375ede7","circuitBreakerActive()":"f609844d","circuitBreakerExpiresAt()":"69e80d2f","circuitBreakerExpiry()":"22a7caf5","emergencyClearCircuitBreaker()":"3c663f2c","executeWeightUpdate()":"1c8ac535","getRawRates()":"e93fdf9a","getRoleAdmin(bytes32)":"248a9ca3","getWeightedInflation()":"d8044ad9","getWeights()":"22acb867","grantRole(bytes32,address)":"2f2ff15d","hasRole(bytes32,address)":"91d14854","isCircuitBreakerActive()":"32941ecb","lastAcceptedRateBps()":"652fefb8","pendingPythWeight()":"f3d3002a","pendingTruflationWeight()":"f771694a","proposeWeightUpdate(uint256,uint256)":"073a68ad","pythFeed()":"ca7ef348","pythWeight()":"df3844dd","renounceRole(bytes32,address)":"36568abe","revokeRole(bytes32,address)":"d547741f","supportsInterface(bytes4)":"01ffc9a7","truflationFeed()":"844ad346","truflationWeight()":"7ac5d81c","validateAndUpdate()":"5270ca27","weightUpdateReadyAt()":"f2905377"},"id":67}