{"abi":[{"type":"constructor","inputs":[{"name":"_usdc","type":"address","internalType":"address"},{"name":"_maturra","type":"address","internalType":"address"},{"name":"_swapRouter","type":"address","internalType":"address"},{"name":"_dao","type":"address","internalType":"address"}],"stateMutability":"nonpayable"},{"type":"function","name":"DAO_ROLE","inputs":[],"outputs":[{"name":"","type":"bytes32","internalType":"bytes32"}],"stateMutability":"view"},{"type":"function","name":"DEFAULT_ADMIN_ROLE","inputs":[],"outputs":[{"name":"","type":"bytes32","internalType":"bytes32"}],"stateMutability":"view"},{"type":"function","name":"MIN_SWAP_AMOUNT","inputs":[],"outputs":[{"name":"","type":"uint256","internalType":"uint256"}],"stateMutability":"view"},{"type":"function","name":"POOL_FEE","inputs":[],"outputs":[{"name":"","type":"uint24","internalType":"uint24"}],"stateMutability":"view"},{"type":"function","name":"SLIPPAGE_TIMELOCK","inputs":[],"outputs":[{"name":"","type":"uint256","internalType":"uint256"}],"stateMutability":"view"},{"type":"function","name":"burnStats","inputs":[],"outputs":[{"name":"received","type":"uint256","internalType":"uint256"},{"name":"swapped","type":"uint256","internalType":"uint256"},{"name":"burned","type":"uint256","internalType":"uint256"},{"name":"executions","type":"uint256","internalType":"uint256"}],"stateMutability":"view"},{"type":"function","name":"canExecuteBurn","inputs":[],"outputs":[{"name":"","type":"bool","internalType":"bool"}],"stateMutability":"view"},{"type":"function","name":"executeBurn","inputs":[],"outputs":[{"name":"maturraBurned","type":"uint256","internalType":"uint256"}],"stateMutability":"nonpayable"},{"type":"function","name":"executeSlippageUpdate","inputs":[],"outputs":[],"stateMutability":"nonpayable"},{"type":"function","name":"getRoleAdmin","inputs":[{"name":"role","type":"bytes32","internalType":"bytes32"}],"outputs":[{"name":"","type":"bytes32","internalType":"bytes32"}],"stateMutability":"view"},{"type":"function","name":"grantRole","inputs":[{"name":"role","type":"bytes32","internalType":"bytes32"},{"name":"account","type":"address","internalType":"address"}],"outputs":[],"stateMutability":"nonpayable"},{"type":"function","name":"hasRole","inputs":[{"name":"role","type":"bytes32","internalType":"bytes32"},{"name":"account","type":"address","internalType":"address"}],"outputs":[{"name":"","type":"bool","internalType":"bool"}],"stateMutability":"view"},{"type":"function","name":"maturra","inputs":[],"outputs":[{"name":"","type":"address","internalType":"contract IMaturraToken"}],"stateMutability":"view"},{"type":"function","name":"maxSlippageBps","inputs":[],"outputs":[{"name":"","type":"uint256","internalType":"uint256"}],"stateMutability":"view"},{"type":"function","name":"notifyUsdcReceived","inputs":[{"name":"amount","type":"uint256","internalType":"uint256"}],"outputs":[],"stateMutability":"nonpayable"},{"type":"function","name":"pendingSlippageBps","inputs":[],"outputs":[{"name":"","type":"uint256","internalType":"uint256"}],"stateMutability":"view"},{"type":"function","name":"pendingUsdc","inputs":[],"outputs":[{"name":"","type":"uint256","internalType":"uint256"}],"stateMutability":"view"},{"type":"function","name":"proposeSlippageUpdate","inputs":[{"name":"newBps","type":"uint256","internalType":"uint256"}],"outputs":[],"stateMutability":"nonpayable"},{"type":"function","name":"receiveNftRoyalty","inputs":[{"name":"amount","type":"uint256","internalType":"uint256"}],"outputs":[],"stateMutability":"nonpayable"},{"type":"function","name":"receiveVaultFee","inputs":[{"name":"amount","type":"uint256","internalType":"uint256"}],"outputs":[],"stateMutability":"nonpayable"},{"type":"function","name":"renounceRole","inputs":[{"name":"role","type":"bytes32","internalType":"bytes32"},{"name":"callerConfirmation","type":"address","internalType":"address"}],"outputs":[],"stateMutability":"nonpayable"},{"type":"function","name":"revokeRole","inputs":[{"name":"role","type":"bytes32","internalType":"bytes32"},{"name":"account","type":"address","internalType":"address"}],"outputs":[],"stateMutability":"nonpayable"},{"type":"function","name":"slippageUpdateAt","inputs":[],"outputs":[{"name":"","type":"uint256","internalType":"uint256"}],"stateMutability":"view"},{"type":"function","name":"supportsInterface","inputs":[{"name":"interfaceId","type":"bytes4","internalType":"bytes4"}],"outputs":[{"name":"","type":"bool","internalType":"bool"}],"stateMutability":"view"},{"type":"function","name":"swapRouter","inputs":[],"outputs":[{"name":"","type":"address","internalType":"contract ISwapRouter"}],"stateMutability":"view"},{"type":"function","name":"totalBurnExecutions","inputs":[],"outputs":[{"name":"","type":"uint256","internalType":"uint256"}],"stateMutability":"view"},{"type":"function","name":"totalMaturraBurned","inputs":[],"outputs":[{"name":"","type":"uint256","internalType":"uint256"}],"stateMutability":"view"},{"type":"function","name":"totalUsdcReceived","inputs":[],"outputs":[{"name":"","type":"uint256","internalType":"uint256"}],"stateMutability":"view"},{"type":"function","name":"totalUsdcSwapped","inputs":[],"outputs":[{"name":"","type":"uint256","internalType":"uint256"}],"stateMutability":"view"},{"type":"function","name":"usdc","inputs":[],"outputs":[{"name":"","type":"address","internalType":"contract IERC20"}],"stateMutability":"view"},{"type":"event","name":"BurnExecuted","inputs":[{"name":"usdcSwapped","type":"uint256","indexed":false,"internalType":"uint256"},{"name":"maturraBurned","type":"uint256","indexed":false,"internalType":"uint256"},{"name":"maturraPrice","type":"uint256","indexed":false,"internalType":"uint256"},{"name":"totalBurnedAllTime","type":"uint256","indexed":false,"internalType":"uint256"}],"anonymous":false},{"type":"event","name":"RoleAdminChanged","inputs":[{"name":"role","type":"bytes32","indexed":true,"internalType":"bytes32"},{"name":"previousAdminRole","type":"bytes32","indexed":true,"internalType":"bytes32"},{"name":"newAdminRole","type":"bytes32","indexed":true,"internalType":"bytes32"}],"anonymous":false},{"type":"event","name":"RoleGranted","inputs":[{"name":"role","type":"bytes32","indexed":true,"internalType":"bytes32"},{"name":"account","type":"address","indexed":true,"internalType":"address"},{"name":"sender","type":"address","indexed":true,"internalType":"address"}],"anonymous":false},{"type":"event","name":"RoleRevoked","inputs":[{"name":"role","type":"bytes32","indexed":true,"internalType":"bytes32"},{"name":"account","type":"address","indexed":true,"internalType":"address"},{"name":"sender","type":"address","indexed":true,"internalType":"address"}],"anonymous":false},{"type":"event","name":"SlippageUpdateProposed","inputs":[{"name":"newBps","type":"uint256","indexed":false,"internalType":"uint256"},{"name":"effectiveAt","type":"uint256","indexed":false,"internalType":"uint256"}],"anonymous":false},{"type":"event","name":"SlippageUpdated","inputs":[{"name":"oldBps","type":"uint256","indexed":false,"internalType":"uint256"},{"name":"newBps","type":"uint256","indexed":false,"internalType":"uint256"}],"anonymous":false},{"type":"event","name":"UsdcReceived","inputs":[{"name":"from","type":"address","indexed":true,"internalType":"address"},{"name":"amount","type":"uint256","indexed":false,"internalType":"uint256"},{"name":"source","type":"string","indexed":false,"internalType":"string"}],"anonymous":false},{"type":"error","name":"AccessControlBadConfirmation","inputs":[]},{"type":"error","name":"AccessControlUnauthorizedAccount","inputs":[{"name":"account","type":"address","internalType":"address"},{"name":"neededRole","type":"bytes32","internalType":"bytes32"}]},{"type":"error","name":"AddressEmptyCode","inputs":[{"name":"target","type":"address","internalType":"address"}]},{"type":"error","name":"AddressInsufficientBalance","inputs":[{"name":"account","type":"address","internalType":"address"}]},{"type":"error","name":"FailedInnerCall","inputs":[]},{"type":"error","name":"InsufficientBalance","inputs":[{"name":"balance","type":"uint256","internalType":"uint256"},{"name":"minimum","type":"uint256","internalType":"uint256"}]},{"type":"error","name":"NoPendingUpdate","inputs":[]},{"type":"error","name":"ReentrancyGuardReentrantCall","inputs":[]},{"type":"error","name":"SafeERC20FailedOperation","inputs":[{"name":"token","type":"address","internalType":"address"}]},{"type":"error","name":"SlippageTimelockActive","inputs":[{"name":"readyAt","type":"uint256","internalType":"uint256"}]},{"type":"error","name":"SlippageTooHigh","inputs":[{"name":"bps","type":"uint256","internalType":"uint256"},{"name":"maximum","type":"uint256","internalType":"uint256"}]},{"type":"error","name":"SwapFailed","inputs":[]}],"bytecode":{"object":"0x60e0806040523461017c57608081611577803803809161001f82856102a7565b83398101031261017c57610032816102de565b9061003f602082016102de565b6100576060610050604085016102de565b93016102de565b6001805560c8600255926001600160a01b0316908115610262576001600160a01b031691821561021d576001600160a01b03169283156101d8576001600160a01b03811615610193575f936100c56044926020958560805260a0528260c0526100bf816102f2565b50610368565b50604051948593849263095ea7b360e01b84526004840152811960248401525af180156101885761014c575b60405161111b90816103fc82396080518181816103880152818161045b015281816106780152818161074a015281816108610152610c5f015260a0518181816102c601526108b1015260c05181818161032901526109850152f35b6020813d602011610180575b81610165602093836102a7565b8101031261017c57518015150361017c575f6100f1565b5f80fd5b3d9150610158565b6040513d5f823e3d90fd5b60405162461bcd60e51b815260206004820152601460248201527f4275726e526f757465723a207a65726f2064616f0000000000000000000000006044820152606490fd5b60405162461bcd60e51b815260206004820152601760248201527f4275726e526f757465723a207a65726f20726f757465720000000000000000006044820152606490fd5b60405162461bcd60e51b815260206004820152601860248201527f4275726e526f757465723a207a65726f206d61747572726100000000000000006044820152606490fd5b60405162461bcd60e51b815260206004820152601560248201527f4275726e526f757465723a207a65726f207573646300000000000000000000006044820152606490fd5b601f909101601f19168101906001600160401b038211908210176102ca57604052565b634e487b7160e01b5f52604160045260245ffd5b51906001600160a01b038216820361017c57565b6001600160a01b0381165f9081525f5160206115575f395f51905f52602052604090205460ff16610363576001600160a01b03165f8181525f5160206115575f395f51905f5260205260408120805460ff191660011790553391905f5160206115175f395f51905f528180a4600190565b505f90565b6001600160a01b0381165f9081525f5160206115375f395f51905f52602052604090205460ff16610363576001600160a01b03165f8181525f5160206115375f395f51905f5260205260408120805460ff191660011790553391907f3b5d4cc60d3ec3516ee8ae083bd60934f6eb2a6c54b1229985c41bfb092b2603905f5160206115175f395f51905f529080a460019056fe6080806040526004361015610012575f80fd5b5f905f3560e01c90816301ffc9a714610cd457508063113e4d8c14610c3457806313312bbd14610b9c5780631eec903514610833578063248a9ca3146108005780632f2ff15d146107d05780633054bff71461071a57806336568abe146106e157806338e36b3e146106a75780633e413bee14610662578063550376a81461064457806370a3682b146105b6578063717759f5146105985780637773222a1461057a5780638e0b0a0a1461055c57806391d148541461052057806399f34c1214610502578063a217fddf146104e6578063a40e6bda1461042e578063a709965814610410578063be5949ac14610358578063c31c9c0714610313578063c4aa7395146102f5578063ca4cd4b4146102b0578063cf51bfdd14610292578063d3f16d3414610274578063d547741f1461023b578063d869b5d4146101c2578063dd1b9c4a146101a55763e9c2651814610168575f80fd5b346101a257806003193601126101a25760206040517f3b5d4cc60d3ec3516ee8ae083bd60934f6eb2a6c54b1229985c41bfb092b26038152f35b80fd5b50346101a257806003193601126101a2576020604051610bb88152f35b50346101a25760203660031901126101a2576004356101e381600554610d6f565b60055560405190815260406020820152600f60408201526e3234b932b1ba2fba3930b739b332b960891b60608201527f5c36660b78a5730824d54178b6a796441ca524da21db743ffce5a755836955e960803392a280f35b50346101a25761027061024d36610d27565b9061026b610266825f525f602052600160405f20015490565b610e37565b611007565b5080f35b50346101a257806003193601126101a25760206040516202a3008152f35b50346101a257806003193601126101a2576020600554604051908152f35b50346101a257806003193601126101a2576040517f00000000000000000000000000000000000000000000000000000000000000006001600160a01b03168152602090f35b50346101a257806003193601126101a2576020600254604051908152f35b50346101a257806003193601126101a2576040517f00000000000000000000000000000000000000000000000000000000000000006001600160a01b03168152602090f35b50346101a25760203660031901126101a257600435610375610e6f565b610380811515610d7c565b6103ac8130337f0000000000000000000000000000000000000000000000000000000000000000610f17565b6103b881600554610d6f565b60055560405190815260406020820152600b60408201526a6e66745f726f79616c747960a81b60608201527f5c36660b78a5730824d54178b6a796441ca524da21db743ffce5a755836955e960803392a26001805580f35b50346101a257806003193601126101a2576020600754604051908152f35b50346101a257806003193601126101a2576040516370a0823160e01b8152306004820152906020826024817f00000000000000000000000000000000000000000000000000000000000000006001600160a01b03165afa9081156104da57906104a3575b602090629896806040519110158152f35b506020813d6020116104d2575b816104bd60209383610d4d565b810103126104ce5760209051610492565b5f80fd5b3d91506104b0565b604051903d90823e3d90fd5b50346101a257806003193601126101a257602090604051908152f35b50346101a257806003193601126101a2576020604051629896808152f35b50346101a257604061053136610d27565b9290815280602052209060018060a01b03165f52602052602060ff60405f2054166040519015158152f35b50346101a257806003193601126101a2576020600354604051908152f35b50346101a257806003193601126101a2576020600854604051908152f35b50346101a257806003193601126101a2576020600654604051908152f35b50346101a257806003193601126101a2576105cf610dc8565b60045480156106355780421061062357507f07af09e2b23ebab5dd29fa2271d6ca4795031f308caf26ca605f4a719ffeed61604060025460035480600255846004558460035582519182526020820152a180f35b631b08225560e31b8252600452602490fd5b6319b2c6ef60e31b8252600482fd5b50346101a257806003193601126101a2576020600454604051908152f35b50346101a257806003193601126101a2576040517f00000000000000000000000000000000000000000000000000000000000000006001600160a01b03168152602090f35b50346101a257806003193601126101a257600554600654600754600854604080519485526020850193909352918301526060820152608090f35b50346101a2576106f036610d27565b90336001600160a01b0383160361070b579061027091611007565b63334bd91960e11b8352600483fd5b50346101a25760203660031901126101a257600435610737610e6f565b610742811515610d7c565b61076e8130337f0000000000000000000000000000000000000000000000000000000000000000610f17565b61077a81600554610d6f565b6005556040519081526040602082015260096040820152687661756c745f66656560b81b60608201527f5c36660b78a5730824d54178b6a796441ca524da21db743ffce5a755836955e960803392a26001805580f35b50346101a2576102706107e236610d27565b906107fb610266825f525f602052600160405f20015490565b610e8f565b50346101a25760203660031901126101a257602061082b6004355f525f602052600160405f20015490565b604051908152f35b50346104ce575f3660031901126104ce5761084c610e6f565b6040516370a0823160e01b81523060048201527f00000000000000000000000000000000000000000000000000000000000000006001600160a01b031690602081602481855afa908115610aef575f91610b6a575b50629896808110610b51576040517f00000000000000000000000000000000000000000000000000000000000000006001600160a01b03169260e0820167ffffffffffffffff811183821017610b3d5760409081529082526020808301858152610bb88484019081523060608601908152608086018781525f60a0880181815260c0890182815297516304e45aaf60e01b815298516001600160a01b0390811660048b01529551861660248a0152935162ffffff166044890152915184166064880152516084870152905160a48601529251811660c48501529091839160e49183917f0000000000000000000000000000000000000000000000000000000000000000165af15f9181610b09575b506109c35763081ceff360e41b5f5260045ffd5b918215610afa57803b156104ce575f8091604460405180948193632770a7eb60e21b83523060048401528860248401525af18015610aef57610ada575b50610a0d81600654610d6f565b600655610a1c82600754610d6f565b806007556008545f198114610ac65760010160085564e8d4a5100082029180830464e8d4a510001481151715610ac6576c0c9f2c9cd04674edea40000000810292808404670de0b6b3a76400001490151715610ac657604080519182526020808301869052938590049082015260608101919091529092507f5cb2c40bfd8dcc76234f54a365ee263967bcaedf1d598ba2d0a022bced4ba74890608090a160018055604051908152f35b634e487b7160e01b85526011600452602485fd5b610ae79193505f90610d4d565b5f915f610a00565b6040513d5f823e3d90fd5b63081ceff360e41b5f5260045ffd5b9091506020813d602011610b35575b81610b2560209383610d4d565b810103126104ce5751905f6109af565b3d9150610b18565b634e487b7160e01b5f52604160045260245ffd5b63cf47918160e01b5f526004526298968060245260445ffd5b90506020813d602011610b94575b81610b8560209383610d4d565b810103126104ce57515f6108a1565b3d9150610b78565b346104ce5760203660031901126104ce57600435610bb8610dc8565b6101f48111610c1c57806003556202a3004201804211610c08577f3830954310a6964aa2f8590dacea51aa08632071b5cfff4c09155f15970e84a7918160409260045582519182526020820152a1005b634e487b7160e01b5f52601160045260245ffd5b633b5d56ed60e11b5f526004526101f460245260445ffd5b346104ce575f3660031901126104ce576040516370a0823160e01b81523060048201526020816024817f00000000000000000000000000000000000000000000000000000000000000006001600160a01b03165afa8015610aef575f90610ca1575b602090604051908152f35b506020813d602011610ccc575b81610cbb60209383610d4d565b810103126104ce5760209051610c96565b3d9150610cae565b346104ce5760203660031901126104ce576004359063ffffffff60e01b82168092036104ce57602091637965db0b60e01b8114908115610d16575b5015158152f35b6301ffc9a760e01b14905083610d0f565b60409060031901126104ce57600435906024356001600160a01b03811681036104ce5790565b90601f8019910116810190811067ffffffffffffffff821117610b3d57604052565b91908201809211610c0857565b15610d8357565b60405162461bcd60e51b815260206004820152601760248201527f4275726e526f757465723a207a65726f20616d6f756e740000000000000000006044820152606490fd5b335f9081527fc39f11a9300b508470eaed31f5842ba08c93181bcbe6a7fe34039aa7f2b80742602052604090205460ff1615610e0057565b63e2517d3f60e01b5f52336004527f3b5d4cc60d3ec3516ee8ae083bd60934f6eb2a6c54b1229985c41bfb092b260360245260445ffd5b5f8181526020818152604080832033845290915290205460ff1615610e595750565b63e2517d3f60e01b5f523360045260245260445ffd5b600260015414610e80576002600155565b633ee5aeb560e01b5f5260045ffd5b5f818152602081815260408083206001600160a01b038616845290915290205460ff16610f11575f818152602081815260408083206001600160a01b0395909516808452949091528120805460ff19166001179055339291907f2f8788117e7eff1d82e926ec794901d17c78024a50270940304540a733656f0d9080a4600190565b50505f90565b6040516323b872dd60e01b602082019081526001600160a01b039384166024830152939092166044830152606480830194909452928152915f918291610f5e608486610d4d565b60018060a01b031693519082855af13d15610ffb573d67ffffffffffffffff8111610b3d57610faf9160405191610f9f6020601f19601f8401160184610d4d565b82523d5f602084013e5b83611087565b8051908115159182610fd7575b5050610fc55750565b635274afe760e01b5f5260045260245ffd5b81925090602091810103126104ce57602001518015908115036104ce575f80610fbc565b610faf90606090610fa9565b5f818152602081815260408083206001600160a01b038616845290915290205460ff1615610f11575f818152602081815260408083206001600160a01b0395909516808452949091528120805460ff19169055339291907ff6391f5c32d9c69d2a47ea670b442974b53935d1edc7fd64eb21e047a839171b9080a4600190565b906110ab575080511561109c57805190602001fd5b630a12f52160e11b5f5260045ffd5b815115806110dc575b6110bc575090565b639996b31560e01b5f9081526001600160a01b0391909116600452602490fd5b50803b156110b456fea2646970667358221220136d4f496a54e78be779011b398545b4f0025dfc34a2327579f4eaa40b70a37464736f6c634300082300332f8788117e7eff1d82e926ec794901d17c78024a50270940304540a733656f0dc39f11a9300b508470eaed31f5842ba08c93181bcbe6a7fe34039aa7f2b80742ad3228b676f7d3cd4284a5443f17f1962b36e491b30a40b2405849e597ba5fb5","linkReferences":{}},"methodIdentifiers":{"DAO_ROLE()":"e9c26518","DEFAULT_ADMIN_ROLE()":"a217fddf","MIN_SWAP_AMOUNT()":"99f34c12","POOL_FEE()":"dd1b9c4a","SLIPPAGE_TIMELOCK()":"d3f16d34","burnStats()":"38e36b3e","canExecuteBurn()":"a40e6bda","executeBurn()":"1eec9035","executeSlippageUpdate()":"70a3682b","getRoleAdmin(bytes32)":"248a9ca3","grantRole(bytes32,address)":"2f2ff15d","hasRole(bytes32,address)":"91d14854","maturra()":"ca4cd4b4","maxSlippageBps()":"c4aa7395","notifyUsdcReceived(uint256)":"d869b5d4","pendingSlippageBps()":"8e0b0a0a","pendingUsdc()":"113e4d8c","proposeSlippageUpdate(uint256)":"13312bbd","receiveNftRoyalty(uint256)":"be5949ac","receiveVaultFee(uint256)":"3054bff7","renounceRole(bytes32,address)":"36568abe","revokeRole(bytes32,address)":"d547741f","slippageUpdateAt()":"550376a8","supportsInterface(bytes4)":"01ffc9a7","swapRouter()":"c31c9c07","totalBurnExecutions()":"7773222a","totalMaturraBurned()":"a7099658","totalUsdcReceived()":"cf51bfdd","totalUsdcSwapped()":"717759f5","usdc()":"3e413bee"},"id":66}