{"abi":[{"type":"constructor","inputs":[{"name":"_usdc","type":"address","internalType":"address"},{"name":"_tempo","type":"address","internalType":"address"},{"name":"_swapRouter","type":"address","internalType":"address"},{"name":"_dao","type":"address","internalType":"address"}],"stateMutability":"nonpayable"},{"type":"function","name":"DAO_ROLE","inputs":[],"outputs":[{"name":"","type":"bytes32","internalType":"bytes32"}],"stateMutability":"view"},{"type":"function","name":"DEFAULT_ADMIN_ROLE","inputs":[],"outputs":[{"name":"","type":"bytes32","internalType":"bytes32"}],"stateMutability":"view"},{"type":"function","name":"MIN_SWAP_AMOUNT","inputs":[],"outputs":[{"name":"","type":"uint256","internalType":"uint256"}],"stateMutability":"view"},{"type":"function","name":"POOL_FEE","inputs":[],"outputs":[{"name":"","type":"uint24","internalType":"uint24"}],"stateMutability":"view"},{"type":"function","name":"SLIPPAGE_TIMELOCK","inputs":[],"outputs":[{"name":"","type":"uint256","internalType":"uint256"}],"stateMutability":"view"},{"type":"function","name":"burnStats","inputs":[],"outputs":[{"name":"received","type":"uint256","internalType":"uint256"},{"name":"swapped","type":"uint256","internalType":"uint256"},{"name":"burned","type":"uint256","internalType":"uint256"},{"name":"executions","type":"uint256","internalType":"uint256"}],"stateMutability":"view"},{"type":"function","name":"canExecuteBurn","inputs":[],"outputs":[{"name":"","type":"bool","internalType":"bool"}],"stateMutability":"view"},{"type":"function","name":"executeBurn","inputs":[],"outputs":[{"name":"tempoBurned","type":"uint256","internalType":"uint256"}],"stateMutability":"nonpayable"},{"type":"function","name":"executeSlippageUpdate","inputs":[],"outputs":[],"stateMutability":"nonpayable"},{"type":"function","name":"getRoleAdmin","inputs":[{"name":"role","type":"bytes32","internalType":"bytes32"}],"outputs":[{"name":"","type":"bytes32","internalType":"bytes32"}],"stateMutability":"view"},{"type":"function","name":"grantRole","inputs":[{"name":"role","type":"bytes32","internalType":"bytes32"},{"name":"account","type":"address","internalType":"address"}],"outputs":[],"stateMutability":"nonpayable"},{"type":"function","name":"hasRole","inputs":[{"name":"role","type":"bytes32","internalType":"bytes32"},{"name":"account","type":"address","internalType":"address"}],"outputs":[{"name":"","type":"bool","internalType":"bool"}],"stateMutability":"view"},{"type":"function","name":"maxSlippageBps","inputs":[],"outputs":[{"name":"","type":"uint256","internalType":"uint256"}],"stateMutability":"view"},{"type":"function","name":"notifyUsdcReceived","inputs":[{"name":"amount","type":"uint256","internalType":"uint256"}],"outputs":[],"stateMutability":"nonpayable"},{"type":"function","name":"pendingSlippageBps","inputs":[],"outputs":[{"name":"","type":"uint256","internalType":"uint256"}],"stateMutability":"view"},{"type":"function","name":"pendingUsdc","inputs":[],"outputs":[{"name":"","type":"uint256","internalType":"uint256"}],"stateMutability":"view"},{"type":"function","name":"proposeSlippageUpdate","inputs":[{"name":"newBps","type":"uint256","internalType":"uint256"}],"outputs":[],"stateMutability":"nonpayable"},{"type":"function","name":"receiveNftRoyalty","inputs":[{"name":"amount","type":"uint256","internalType":"uint256"}],"outputs":[],"stateMutability":"nonpayable"},{"type":"function","name":"receiveVaultFee","inputs":[{"name":"amount","type":"uint256","internalType":"uint256"}],"outputs":[],"stateMutability":"nonpayable"},{"type":"function","name":"renounceRole","inputs":[{"name":"role","type":"bytes32","internalType":"bytes32"},{"name":"callerConfirmation","type":"address","internalType":"address"}],"outputs":[],"stateMutability":"nonpayable"},{"type":"function","name":"revokeRole","inputs":[{"name":"role","type":"bytes32","internalType":"bytes32"},{"name":"account","type":"address","internalType":"address"}],"outputs":[],"stateMutability":"nonpayable"},{"type":"function","name":"slippageUpdateAt","inputs":[],"outputs":[{"name":"","type":"uint256","internalType":"uint256"}],"stateMutability":"view"},{"type":"function","name":"supportsInterface","inputs":[{"name":"interfaceId","type":"bytes4","internalType":"bytes4"}],"outputs":[{"name":"","type":"bool","internalType":"bool"}],"stateMutability":"view"},{"type":"function","name":"swapRouter","inputs":[],"outputs":[{"name":"","type":"address","internalType":"contract ISwapRouter"}],"stateMutability":"view"},{"type":"function","name":"tempo","inputs":[],"outputs":[{"name":"","type":"address","internalType":"contract ITempoToken"}],"stateMutability":"view"},{"type":"function","name":"totalBurnExecutions","inputs":[],"outputs":[{"name":"","type":"uint256","internalType":"uint256"}],"stateMutability":"view"},{"type":"function","name":"totalTempoBurned","inputs":[],"outputs":[{"name":"","type":"uint256","internalType":"uint256"}],"stateMutability":"view"},{"type":"function","name":"totalUsdcReceived","inputs":[],"outputs":[{"name":"","type":"uint256","internalType":"uint256"}],"stateMutability":"view"},{"type":"function","name":"totalUsdcSwapped","inputs":[],"outputs":[{"name":"","type":"uint256","internalType":"uint256"}],"stateMutability":"view"},{"type":"function","name":"usdc","inputs":[],"outputs":[{"name":"","type":"address","internalType":"contract IERC20"}],"stateMutability":"view"},{"type":"event","name":"BurnExecuted","inputs":[{"name":"usdcSwapped","type":"uint256","indexed":false,"internalType":"uint256"},{"name":"tempoBurned","type":"uint256","indexed":false,"internalType":"uint256"},{"name":"tempoPrice","type":"uint256","indexed":false,"internalType":"uint256"},{"name":"totalBurnedAllTime","type":"uint256","indexed":false,"internalType":"uint256"}],"anonymous":false},{"type":"event","name":"RoleAdminChanged","inputs":[{"name":"role","type":"bytes32","indexed":true,"internalType":"bytes32"},{"name":"previousAdminRole","type":"bytes32","indexed":true,"internalType":"bytes32"},{"name":"newAdminRole","type":"bytes32","indexed":true,"internalType":"bytes32"}],"anonymous":false},{"type":"event","name":"RoleGranted","inputs":[{"name":"role","type":"bytes32","indexed":true,"internalType":"bytes32"},{"name":"account","type":"address","indexed":true,"internalType":"address"},{"name":"sender","type":"address","indexed":true,"internalType":"address"}],"anonymous":false},{"type":"event","name":"RoleRevoked","inputs":[{"name":"role","type":"bytes32","indexed":true,"internalType":"bytes32"},{"name":"account","type":"address","indexed":true,"internalType":"address"},{"name":"sender","type":"address","indexed":true,"internalType":"address"}],"anonymous":false},{"type":"event","name":"SlippageUpdateProposed","inputs":[{"name":"newBps","type":"uint256","indexed":false,"internalType":"uint256"},{"name":"effectiveAt","type":"uint256","indexed":false,"internalType":"uint256"}],"anonymous":false},{"type":"event","name":"SlippageUpdated","inputs":[{"name":"oldBps","type":"uint256","indexed":false,"internalType":"uint256"},{"name":"newBps","type":"uint256","indexed":false,"internalType":"uint256"}],"anonymous":false},{"type":"event","name":"UsdcReceived","inputs":[{"name":"from","type":"address","indexed":true,"internalType":"address"},{"name":"amount","type":"uint256","indexed":false,"internalType":"uint256"},{"name":"source","type":"string","indexed":false,"internalType":"string"}],"anonymous":false},{"type":"error","name":"AccessControlBadConfirmation","inputs":[]},{"type":"error","name":"AccessControlUnauthorizedAccount","inputs":[{"name":"account","type":"address","internalType":"address"},{"name":"neededRole","type":"bytes32","internalType":"bytes32"}]},{"type":"error","name":"AddressEmptyCode","inputs":[{"name":"target","type":"address","internalType":"address"}]},{"type":"error","name":"AddressInsufficientBalance","inputs":[{"name":"account","type":"address","internalType":"address"}]},{"type":"error","name":"FailedInnerCall","inputs":[]},{"type":"error","name":"InsufficientBalance","inputs":[{"name":"balance","type":"uint256","internalType":"uint256"},{"name":"minimum","type":"uint256","internalType":"uint256"}]},{"type":"error","name":"NoPendingUpdate","inputs":[]},{"type":"error","name":"ReentrancyGuardReentrantCall","inputs":[]},{"type":"error","name":"SafeERC20FailedOperation","inputs":[{"name":"token","type":"address","internalType":"address"}]},{"type":"error","name":"SlippageTimelockActive","inputs":[{"name":"readyAt","type":"uint256","internalType":"uint256"}]},{"type":"error","name":"SlippageTooHigh","inputs":[{"name":"bps","type":"uint256","internalType":"uint256"},{"name":"maximum","type":"uint256","internalType":"uint256"}]},{"type":"error","name":"SwapFailed","inputs":[]}],"bytecode":{"object":"0x60e060405260c8600255348015610014575f5ffd5b50604051612a10380380612a1083398181016040528101906100369190610537565b600180819055505f73ffffffffffffffffffffffffffffffffffffffff168473ffffffffffffffffffffffffffffffffffffffff16036100ab576040517f08c379a00000000000000000000000000000000000000000000000000000000081526004016100a2906105f5565b60405180910390fd5b5f73ffffffffffffffffffffffffffffffffffffffff168373ffffffffffffffffffffffffffffffffffffffff1603610119576040517f08c379a00000000000000000000000000000000000000000000000000000000081526004016101109061065d565b60405180910390fd5b5f73ffffffffffffffffffffffffffffffffffffffff168273ffffffffffffffffffffffffffffffffffffffff1603610187576040517f08c379a000000000000000000000000000000000000000000000000000000000815260040161017e906106c5565b60405180910390fd5b5f73ffffffffffffffffffffffffffffffffffffffff168173ffffffffffffffffffffffffffffffffffffffff16036101f5576040517f08c379a00000000000000000000000000000000000000000000000000000000081526004016101ec9061072d565b60405180910390fd5b8373ffffffffffffffffffffffffffffffffffffffff1660808173ffffffffffffffffffffffffffffffffffffffff16815250508273ffffffffffffffffffffffffffffffffffffffff1660a08173ffffffffffffffffffffffffffffffffffffffff16815250508173ffffffffffffffffffffffffffffffffffffffff1660c08173ffffffffffffffffffffffffffffffffffffffff16815250506102a35f5f1b8261037a60201b60201c565b506102d47f3b5d4cc60d3ec3516ee8ae083bd60934f6eb2a6c54b1229985c41bfb092b26038261037a60201b60201c565b508373ffffffffffffffffffffffffffffffffffffffff1663095ea7b3837fffffffffffffffffffffffffffffffffffffffffffffffffffffffffffffffff6040518363ffffffff1660e01b8152600401610330929190610772565b6020604051808303815f875af115801561034c573d5f5f3e3d5ffd5b505050506040513d601f19601f8201168201806040525081019061037091906107ce565b50505050506107f9565b5f61038b838361046f60201b60201c565b6104655760015f5f8581526020019081526020015f205f015f8473ffffffffffffffffffffffffffffffffffffffff1673ffffffffffffffffffffffffffffffffffffffff1681526020019081526020015f205f6101000a81548160ff0219169083151502179055506104026104d260201b60201c565b73ffffffffffffffffffffffffffffffffffffffff168273ffffffffffffffffffffffffffffffffffffffff16847f2f8788117e7eff1d82e926ec794901d17c78024a50270940304540a733656f0d60405160405180910390a460019050610469565b5f90505b92915050565b5f5f5f8481526020019081526020015f205f015f8373ffffffffffffffffffffffffffffffffffffffff1673ffffffffffffffffffffffffffffffffffffffff1681526020019081526020015f205f9054906101000a900460ff16905092915050565b5f33905090565b5f5ffd5b5f73ffffffffffffffffffffffffffffffffffffffff82169050919050565b5f610506826104dd565b9050919050565b610516816104fc565b8114610520575f5ffd5b50565b5f815190506105318161050d565b92915050565b5f5f5f5f6080858703121561054f5761054e6104d9565b5b5f61055c87828801610523565b945050602061056d87828801610523565b935050604061057e87828801610523565b925050606061058f87828801610523565b91505092959194509250565b5f82825260208201905092915050565b7f4275726e526f757465723a207a65726f207573646300000000000000000000005f82015250565b5f6105df60158361059b565b91506105ea826105ab565b602082019050919050565b5f6020820190508181035f83015261060c816105d3565b9050919050565b7f4275726e526f757465723a207a65726f2074656d706f000000000000000000005f82015250565b5f61064760168361059b565b915061065282610613565b602082019050919050565b5f6020820190508181035f8301526106748161063b565b9050919050565b7f4275726e526f757465723a207a65726f20726f757465720000000000000000005f82015250565b5f6106af60178361059b565b91506106ba8261067b565b602082019050919050565b5f6020820190508181035f8301526106dc816106a3565b9050919050565b7f4275726e526f757465723a207a65726f2064616f0000000000000000000000005f82015250565b5f61071760148361059b565b9150610722826106e3565b602082019050919050565b5f6020820190508181035f8301526107448161070b565b9050919050565b610754816104fc565b82525050565b5f819050919050565b61076c8161075a565b82525050565b5f6040820190506107855f83018561074b565b6107926020830184610763565b9392505050565b5f8115159050919050565b6107ad81610799565b81146107b7575f5ffd5b50565b5f815190506107c8816107a4565b92915050565b5f602082840312156107e3576107e26104d9565b5b5f6107f0848285016107ba565b91505092915050565b60805160a05160c0516121ae6108625f395f818161085b01526110ea01525f81816108de01528181610a330152610fbe01525f81816105f80152818161076f015281816108a201528181610c1301528181610d6401528181610f1f015261103201526121ae5ff3fe608060405234801561000f575f5ffd5b50600436106101d7575f3560e01c80638e0b0a0a11610102578063c31c9c07116100a0578063d547741f1161006f578063d547741f14610502578063d869b5d41461051e578063dd1b9c4a1461053a578063e9c2651814610558576101d7565b8063c31c9c071461048a578063c4aa7395146104a8578063cf51bfdd146104c6578063d3f16d34146104e4576101d7565b8063a217fddf116100dc578063a217fddf14610414578063a40e6bda14610432578063bb1d592d14610450578063be5949ac1461046e576101d7565b80638e0b0a0a146103a857806391d14854146103c657806399f34c12146103f6576101d7565b80633054bff71161017a578063550376a811610149578063550376a81461034457806370a3682b14610362578063717759f51461036c5780637773222a1461038a576101d7565b80633054bff7146102cd57806336568abe146102e957806338e36b3e146103055780633e413bee14610326576101d7565b806313312bbd116101b657806313312bbd146102475780631eec903514610263578063248a9ca3146102815780632f2ff15d146102b1576101d7565b806284ef5f146101db57806301ffc9a7146101f9578063113e4d8c14610229575b5f5ffd5b6101e3610576565b6040516101f091906117a8565b60405180910390f35b610213600480360381019061020e919061181a565b61057c565b604051610220919061185f565b60405180910390f35b6102316105f5565b60405161023e91906117a8565b60405180910390f35b610261600480360381019061025c91906118a2565b610693565b005b61026b610763565b60405161027891906117a8565b60405180910390f35b61029b60048036038101906102969190611900565b610b83565b6040516102a8919061193a565b60405180910390f35b6102cb60048036038101906102c691906119ad565b610b9f565b005b6102e760048036038101906102e291906118a2565b610bc1565b005b61030360048036038101906102fe91906119ad565b610cc9565b005b61030d610d44565b60405161031d94939291906119eb565b60405180910390f35b61032e610d62565b60405161033b9190611a89565b60405180910390f35b61034c610d86565b60405161035991906117a8565b60405180910390f35b61036a610d8c565b005b610374610e96565b60405161038191906117a8565b60405180910390f35b610392610e9c565b60405161039f91906117a8565b60405180910390f35b6103b0610ea2565b6040516103bd91906117a8565b60405180910390f35b6103e060048036038101906103db91906119ad565b610ea8565b6040516103ed919061185f565b60405180910390f35b6103fe610f0b565b60405161040b91906117a8565b60405180910390f35b61041c610f12565b604051610429919061193a565b60405180910390f35b61043a610f18565b604051610447919061185f565b60405180910390f35b610458610fbc565b6040516104659190611ac2565b60405180910390f35b610488600480360381019061048391906118a2565b610fe0565b005b6104926110e8565b60405161049f9190611afb565b60405180910390f35b6104b061110c565b6040516104bd91906117a8565b60405180910390f35b6104ce611112565b6040516104db91906117a8565b60405180910390f35b6104ec611118565b6040516104f991906117a8565b60405180910390f35b61051c600480360381019061051791906119ad565b61111f565b005b610538600480360381019061053391906118a2565b611141565b005b6105426111aa565b60405161054f9190611b31565b60405180910390f35b6105606111b0565b60405161056d919061193a565b60405180910390f35b60075481565b5f7f7965db0b000000000000000000000000000000000000000000000000000000007bffffffffffffffffffffffffffffffffffffffffffffffffffffffff1916827bffffffffffffffffffffffffffffffffffffffffffffffffffffffff191614806105ee57506105ed826111d4565b5b9050919050565b5f7f000000000000000000000000000000000000000000000000000000000000000073ffffffffffffffffffffffffffffffffffffffff166370a08231306040518263ffffffff1660e01b815260040161064f9190611b59565b602060405180830381865afa15801561066a573d5f5f3e3d5ffd5b505050506040513d601f19601f8201168201806040525081019061068e9190611b86565b905090565b7f3b5d4cc60d3ec3516ee8ae083bd60934f6eb2a6c54b1229985c41bfb092b26036106bd8161123d565b6101f482111561070857816101f46040517f76baadda0000000000000000000000000000000000000000000000000000000081526004016106ff929190611bea565b60405180910390fd5b816003819055506202a3004261071e9190611c3e565b6004819055507f3830954310a6964aa2f8590dacea51aa08632071b5cfff4c09155f15970e84a782600454604051610757929190611c71565b60405180910390a15050565b5f61076c611251565b5f7f000000000000000000000000000000000000000000000000000000000000000073ffffffffffffffffffffffffffffffffffffffff166370a08231306040518263ffffffff1660e01b81526004016107c69190611b59565b602060405180830381865afa1580156107e1573d5f5f3e3d5ffd5b505050506040513d601f19601f820116820180604052508101906108059190611b86565b9050629896808110156108545780629896806040517fcf47918100000000000000000000000000000000000000000000000000000000815260040161084b929190611c71565b60405180910390fd5b5f5f90505f7f000000000000000000000000000000000000000000000000000000000000000073ffffffffffffffffffffffffffffffffffffffff166304e45aaf6040518060e001604052807f000000000000000000000000000000000000000000000000000000000000000073ffffffffffffffffffffffffffffffffffffffff1681526020017f000000000000000000000000000000000000000000000000000000000000000073ffffffffffffffffffffffffffffffffffffffff168152602001610bb862ffffff1681526020013073ffffffffffffffffffffffffffffffffffffffff1681526020018681526020018581526020015f73ffffffffffffffffffffffffffffffffffffffff168152506040518263ffffffff1660e01b81526004016109839190611d60565b6020604051808303815f875af19250505080156109be57506040513d601f19601f820116820180604052508101906109bb9190611b86565b60015b6109f4576040517f81ceff3000000000000000000000000000000000000000000000000000000000815260040160405180910390fd5b809150505f8103610a31576040517f81ceff3000000000000000000000000000000000000000000000000000000000815260040160405180910390fd5b7f000000000000000000000000000000000000000000000000000000000000000073ffffffffffffffffffffffffffffffffffffffff16639dc29fac30836040518363ffffffff1660e01b8152600401610a8c929190611d79565b5f604051808303815f87803b158015610aa3575f5ffd5b505af1158015610ab5573d5f5f3e3d5ffd5b505050508093508260065f828254610acd9190611c3e565b925050819055508360075f828254610ae59190611c3e565b9250508190555060085f815480929190610afe90611da0565b91905055505f84670de0b6b3a764000064e8d4a5100086610b1f9190611de7565b610b299190611de7565b610b339190611e55565b90507f5cb2c40bfd8dcc76234f54a365ee263967bcaedf1d598ba2d0a022bced4ba748848683600754604051610b6c94939291906119eb565b60405180910390a150505050610b80611297565b90565b5f5f5f8381526020019081526020015f20600101549050919050565b610ba882610b83565b610bb18161123d565b610bbb83836112a0565b50505050565b610bc9611251565b5f8111610c0b576040517f08c379a0000000000000000000000000000000000000000000000000000000008152600401610c0290611edf565b60405180910390fd5b610c583330837f000000000000000000000000000000000000000000000000000000000000000073ffffffffffffffffffffffffffffffffffffffff16611389909392919063ffffffff16565b8060055f828254610c699190611c3e565b925050819055503373ffffffffffffffffffffffffffffffffffffffff167f5c36660b78a5730824d54178b6a796441ca524da21db743ffce5a755836955e982604051610cb69190611f47565b60405180910390a2610cc6611297565b50565b610cd161140b565b73ffffffffffffffffffffffffffffffffffffffff168173ffffffffffffffffffffffffffffffffffffffff1614610d35576040517f6697b23200000000000000000000000000000000000000000000000000000000815260040160405180910390fd5b610d3f8282611412565b505050565b5f5f5f5f600554600654600754600854935093509350935090919293565b7f000000000000000000000000000000000000000000000000000000000000000081565b60045481565b7f3b5d4cc60d3ec3516ee8ae083bd60934f6eb2a6c54b1229985c41bfb092b2603610db68161123d565b5f60045403610df1576040517fcd96377800000000000000000000000000000000000000000000000000000000815260040160405180910390fd5b600454421015610e3a576004546040517fd84112a8000000000000000000000000000000000000000000000000000000008152600401610e3191906117a8565b60405180910390fd5b5f60025490506003546002819055505f6004819055505f6003819055507f07af09e2b23ebab5dd29fa2271d6ca4795031f308caf26ca605f4a719ffeed6181600254604051610e8a929190611c71565b60405180910390a15050565b60065481565b60085481565b60035481565b5f5f5f8481526020019081526020015f205f015f8373ffffffffffffffffffffffffffffffffffffffff1673ffffffffffffffffffffffffffffffffffffffff1681526020019081526020015f205f9054906101000a900460ff16905092915050565b6298968081565b5f5f1b81565b5f629896807f000000000000000000000000000000000000000000000000000000000000000073ffffffffffffffffffffffffffffffffffffffff166370a08231306040518263ffffffff1660e01b8152600401610f769190611b59565b602060405180830381865afa158015610f91573d5f5f3e3d5ffd5b505050506040513d601f19601f82011682018060405250810190610fb59190611b86565b1015905090565b7f000000000000000000000000000000000000000000000000000000000000000081565b610fe8611251565b5f811161102a576040517f08c379a000000000000000000000000000000000000000000000000000000000815260040161102190611edf565b60405180910390fd5b6110773330837f000000000000000000000000000000000000000000000000000000000000000073ffffffffffffffffffffffffffffffffffffffff16611389909392919063ffffffff16565b8060055f8282546110889190611c3e565b925050819055503373ffffffffffffffffffffffffffffffffffffffff167f5c36660b78a5730824d54178b6a796441ca524da21db743ffce5a755836955e9826040516110d59190611fbd565b60405180910390a26110e5611297565b50565b7f000000000000000000000000000000000000000000000000000000000000000081565b60025481565b60055481565b6202a30081565b61112882610b83565b6111318161123d565b61113b8383611412565b50505050565b8060055f8282546111529190611c3e565b925050819055503373ffffffffffffffffffffffffffffffffffffffff167f5c36660b78a5730824d54178b6a796441ca524da21db743ffce5a755836955e98260405161119f9190612033565b60405180910390a250565b610bb881565b7f3b5d4cc60d3ec3516ee8ae083bd60934f6eb2a6c54b1229985c41bfb092b260381565b5f7f01ffc9a7000000000000000000000000000000000000000000000000000000007bffffffffffffffffffffffffffffffffffffffffffffffffffffffff1916827bffffffffffffffffffffffffffffffffffffffffffffffffffffffff1916149050919050565b61124e8161124961140b565b6114fb565b50565b60026001540361128d576040517f3ee5aeb500000000000000000000000000000000000000000000000000000000815260040160405180910390fd5b6002600181905550565b60018081905550565b5f6112ab8383610ea8565b61137f5760015f5f8581526020019081526020015f205f015f8473ffffffffffffffffffffffffffffffffffffffff1673ffffffffffffffffffffffffffffffffffffffff1681526020019081526020015f205f6101000a81548160ff02191690831515021790555061131c61140b565b73ffffffffffffffffffffffffffffffffffffffff168273ffffffffffffffffffffffffffffffffffffffff16847f2f8788117e7eff1d82e926ec794901d17c78024a50270940304540a733656f0d60405160405180910390a460019050611383565b5f90505b92915050565b611405848573ffffffffffffffffffffffffffffffffffffffff166323b872dd8686866040516024016113be9392919061205f565b604051602081830303815290604052915060e01b6020820180517bffffffffffffffffffffffffffffffffffffffffffffffffffffffff838183161783525050505061154c565b50505050565b5f33905090565b5f61141d8383610ea8565b156114f1575f5f5f8581526020019081526020015f205f015f8473ffffffffffffffffffffffffffffffffffffffff1673ffffffffffffffffffffffffffffffffffffffff1681526020019081526020015f205f6101000a81548160ff02191690831515021790555061148e61140b565b73ffffffffffffffffffffffffffffffffffffffff168273ffffffffffffffffffffffffffffffffffffffff16847ff6391f5c32d9c69d2a47ea670b442974b53935d1edc7fd64eb21e047a839171b60405160405180910390a4600190506114f5565b5f90505b92915050565b6115058282610ea8565b6115485780826040517fe2517d3f00000000000000000000000000000000000000000000000000000000815260040161153f929190612094565b60405180910390fd5b5050565b5f611576828473ffffffffffffffffffffffffffffffffffffffff166115e190919063ffffffff16565b90505f81511415801561159a57508080602001905181019061159891906120e5565b155b156115dc57826040517f5274afe70000000000000000000000000000000000000000000000000000000081526004016115d39190611b59565b60405180910390fd5b505050565b60606115ee83835f6115f6565b905092915050565b60608147101561163d57306040517fcd7860590000000000000000000000000000000000000000000000000000000081526004016116349190611b59565b60405180910390fd5b5f5f8573ffffffffffffffffffffffffffffffffffffffff1684866040516116659190612162565b5f6040518083038185875af1925050503d805f811461169f576040519150601f19603f3d011682016040523d82523d5f602084013e6116a4565b606091505b50915091506116b48683836116bf565b925050509392505050565b6060826116d4576116cf8261174c565b611744565b5f82511480156116fa57505f8473ffffffffffffffffffffffffffffffffffffffff163b145b1561173c57836040517f9996b3150000000000000000000000000000000000000000000000000000000081526004016117339190611b59565b60405180910390fd5b819050611745565b5b9392505050565b5f8151111561175e5780518082602001fd5b6040517f1425ea4200000000000000000000000000000000000000000000000000000000815260040160405180910390fd5b5f819050919050565b6117a281611790565b82525050565b5f6020820190506117bb5f830184611799565b92915050565b5f5ffd5b5f7fffffffff0000000000000000000000000000000000000000000000000000000082169050919050565b6117f9816117c5565b8114611803575f5ffd5b50565b5f81359050611814816117f0565b92915050565b5f6020828403121561182f5761182e6117c1565b5b5f61183c84828501611806565b91505092915050565b5f8115159050919050565b61185981611845565b82525050565b5f6020820190506118725f830184611850565b92915050565b61188181611790565b811461188b575f5ffd5b50565b5f8135905061189c81611878565b92915050565b5f602082840312156118b7576118b66117c1565b5b5f6118c48482850161188e565b91505092915050565b5f819050919050565b6118df816118cd565b81146118e9575f5ffd5b50565b5f813590506118fa816118d6565b92915050565b5f60208284031215611915576119146117c1565b5b5f611922848285016118ec565b91505092915050565b611934816118cd565b82525050565b5f60208201905061194d5f83018461192b565b92915050565b5f73ffffffffffffffffffffffffffffffffffffffff82169050919050565b5f61197c82611953565b9050919050565b61198c81611972565b8114611996575f5ffd5b50565b5f813590506119a781611983565b92915050565b5f5f604083850312156119c3576119c26117c1565b5b5f6119d0858286016118ec565b92505060206119e185828601611999565b9150509250929050565b5f6080820190506119fe5f830187611799565b611a0b6020830186611799565b611a186040830185611799565b611a256060830184611799565b95945050505050565b5f819050919050565b5f611a51611a4c611a4784611953565b611a2e565b611953565b9050919050565b5f611a6282611a37565b9050919050565b5f611a7382611a58565b9050919050565b611a8381611a69565b82525050565b5f602082019050611a9c5f830184611a7a565b92915050565b5f611aac82611a58565b9050919050565b611abc81611aa2565b82525050565b5f602082019050611ad55f830184611ab3565b92915050565b5f611ae582611a58565b9050919050565b611af581611adb565b82525050565b5f602082019050611b0e5f830184611aec565b92915050565b5f62ffffff82169050919050565b611b2b81611b14565b82525050565b5f602082019050611b445f830184611b22565b92915050565b611b5381611972565b82525050565b5f602082019050611b6c5f830184611b4a565b92915050565b5f81519050611b8081611878565b92915050565b5f60208284031215611b9b57611b9a6117c1565b5b5f611ba884828501611b72565b91505092915050565b5f819050919050565b5f611bd4611bcf611bca84611bb1565b611a2e565b611790565b9050919050565b611be481611bba565b82525050565b5f604082019050611bfd5f830185611799565b611c0a6020830184611bdb565b9392505050565b7f4e487b71000000000000000000000000000000000000000000000000000000005f52601160045260245ffd5b5f611c4882611790565b9150611c5383611790565b9250828201905080821115611c6b57611c6a611c11565b5b92915050565b5f604082019050611c845f830185611799565b611c916020830184611799565b9392505050565b611ca181611972565b82525050565b611cb081611b14565b82525050565b611cbf81611790565b82525050565b611cce81611953565b82525050565b60e082015f820151611ce85f850182611c98565b506020820151611cfb6020850182611c98565b506040820151611d0e6040850182611ca7565b506060820151611d216060850182611c98565b506080820151611d346080850182611cb6565b5060a0820151611d4760a0850182611cb6565b5060c0820151611d5a60c0850182611cc5565b50505050565b5f60e082019050611d735f830184611cd4565b92915050565b5f604082019050611d8c5f830185611b4a565b611d996020830184611799565b9392505050565b5f611daa82611790565b91507fffffffffffffffffffffffffffffffffffffffffffffffffffffffffffffffff8203611ddc57611ddb611c11565b5b600182019050919050565b5f611df182611790565b9150611dfc83611790565b9250828202611e0a81611790565b91508282048414831517611e2157611e20611c11565b5b5092915050565b7f4e487b71000000000000000000000000000000000000000000000000000000005f52601260045260245ffd5b5f611e5f82611790565b9150611e6a83611790565b925082611e7a57611e79611e28565b5b828204905092915050565b5f82825260208201905092915050565b7f4275726e526f757465723a207a65726f20616d6f756e740000000000000000005f82015250565b5f611ec9601783611e85565b9150611ed482611e95565b602082019050919050565b5f6020820190508181035f830152611ef681611ebd565b9050919050565b7f7661756c745f66656500000000000000000000000000000000000000000000005f82015250565b5f611f31600983611e85565b9150611f3c82611efd565b602082019050919050565b5f604082019050611f5a5f830184611799565b8181036020830152611f6b81611f25565b905092915050565b7f6e66745f726f79616c74790000000000000000000000000000000000000000005f82015250565b5f611fa7600b83611e85565b9150611fb282611f73565b602082019050919050565b5f604082019050611fd05f830184611799565b8181036020830152611fe181611f9b565b905092915050565b7f6469726563745f7472616e7366657200000000000000000000000000000000005f82015250565b5f61201d600f83611e85565b915061202882611fe9565b602082019050919050565b5f6040820190506120465f830184611799565b818103602083015261205781612011565b905092915050565b5f6060820190506120725f830186611b4a565b61207f6020830185611b4a565b61208c6040830184611799565b949350505050565b5f6040820190506120a75f830185611b4a565b6120b4602083018461192b565b9392505050565b6120c481611845565b81146120ce575f5ffd5b50565b5f815190506120df816120bb565b92915050565b5f602082840312156120fa576120f96117c1565b5b5f612107848285016120d1565b91505092915050565b5f81519050919050565b5f81905092915050565b8281835e5f83830152505050565b5f61213c82612110565b612146818561211a565b9350612156818560208601612124565b80840191505092915050565b5f61216d8284612132565b91508190509291505056fea26469706673582212209a690eae0fee508cf6b082150ad30fb84c3ebce6acc7e720704ad91135802d2164736f6c63430008230033","linkReferences":{}},"methodIdentifiers":{"DAO_ROLE()":"e9c26518","DEFAULT_ADMIN_ROLE()":"a217fddf","MIN_SWAP_AMOUNT()":"99f34c12","POOL_FEE()":"dd1b9c4a","SLIPPAGE_TIMELOCK()":"d3f16d34","burnStats()":"38e36b3e","canExecuteBurn()":"a40e6bda","executeBurn()":"1eec9035","executeSlippageUpdate()":"70a3682b","getRoleAdmin(bytes32)":"248a9ca3","grantRole(bytes32,address)":"2f2ff15d","hasRole(bytes32,address)":"91d14854","maxSlippageBps()":"c4aa7395","notifyUsdcReceived(uint256)":"d869b5d4","pendingSlippageBps()":"8e0b0a0a","pendingUsdc()":"113e4d8c","proposeSlippageUpdate(uint256)":"13312bbd","receiveNftRoyalty(uint256)":"be5949ac","receiveVaultFee(uint256)":"3054bff7","renounceRole(bytes32,address)":"36568abe","revokeRole(bytes32,address)":"d547741f","slippageUpdateAt()":"550376a8","supportsInterface(bytes4)":"01ffc9a7","swapRouter()":"c31c9c07","tempo()":"bb1d592d","totalBurnExecutions()":"7773222a","totalTempoBurned()":"0084ef5f","totalUsdcReceived()":"cf51bfdd","totalUsdcSwapped()":"717759f5","usdc()":"3e413bee"},"id":65}