{"abi":[{"type":"constructor","inputs":[{"name":"dao","type":"address","internalType":"address"},{"name":"burnRouter","type":"address","internalType":"address"},{"name":"treasury","type":"address","internalType":"address"}],"stateMutability":"nonpayable"},{"type":"function","name":"BURN_ROUTER_ROLE","inputs":[],"outputs":[{"name":"","type":"bytes32","internalType":"bytes32"}],"stateMutability":"view"},{"type":"function","name":"CLOCK_MODE","inputs":[],"outputs":[{"name":"","type":"string","internalType":"string"}],"stateMutability":"view"},{"type":"function","name":"DEFAULT_ADMIN_ROLE","inputs":[],"outputs":[{"name":"","type":"bytes32","internalType":"bytes32"}],"stateMutability":"view"},{"type":"function","name":"DOMAIN_SEPARATOR","inputs":[],"outputs":[{"name":"","type":"bytes32","internalType":"bytes32"}],"stateMutability":"view"},{"type":"function","name":"MAX_SUPPLY","inputs":[],"outputs":[{"name":"","type":"uint256","internalType":"uint256"}],"stateMutability":"view"},{"type":"function","name":"allowance","inputs":[{"name":"owner","type":"address","internalType":"address"},{"name":"spender","type":"address","internalType":"address"}],"outputs":[{"name":"","type":"uint256","internalType":"uint256"}],"stateMutability":"view"},{"type":"function","name":"approve","inputs":[{"name":"spender","type":"address","internalType":"address"},{"name":"value","type":"uint256","internalType":"uint256"}],"outputs":[{"name":"","type":"bool","internalType":"bool"}],"stateMutability":"nonpayable"},{"type":"function","name":"balanceOf","inputs":[{"name":"account","type":"address","internalType":"address"}],"outputs":[{"name":"","type":"uint256","internalType":"uint256"}],"stateMutability":"view"},{"type":"function","name":"burn","inputs":[{"name":"from","type":"address","internalType":"address"},{"name":"amount","type":"uint256","internalType":"uint256"}],"outputs":[],"stateMutability":"nonpayable"},{"type":"function","name":"burnSelf","inputs":[{"name":"amount","type":"uint256","internalType":"uint256"}],"outputs":[],"stateMutability":"nonpayable"},{"type":"function","name":"burnedBps","inputs":[],"outputs":[{"name":"","type":"uint256","internalType":"uint256"}],"stateMutability":"view"},{"type":"function","name":"checkpoints","inputs":[{"name":"account","type":"address","internalType":"address"},{"name":"pos","type":"uint32","internalType":"uint32"}],"outputs":[{"name":"","type":"tuple","internalType":"struct Checkpoints.Checkpoint208","components":[{"name":"_key","type":"uint48","internalType":"uint48"},{"name":"_value","type":"uint208","internalType":"uint208"}]}],"stateMutability":"view"},{"type":"function","name":"circulatingSupply","inputs":[],"outputs":[{"name":"","type":"uint256","internalType":"uint256"}],"stateMutability":"view"},{"type":"function","name":"clock","inputs":[],"outputs":[{"name":"","type":"uint48","internalType":"uint48"}],"stateMutability":"view"},{"type":"function","name":"decimals","inputs":[],"outputs":[{"name":"","type":"uint8","internalType":"uint8"}],"stateMutability":"view"},{"type":"function","name":"delegate","inputs":[{"name":"delegatee","type":"address","internalType":"address"}],"outputs":[],"stateMutability":"nonpayable"},{"type":"function","name":"delegateBySig","inputs":[{"name":"delegatee","type":"address","internalType":"address"},{"name":"nonce","type":"uint256","internalType":"uint256"},{"name":"expiry","type":"uint256","internalType":"uint256"},{"name":"v","type":"uint8","internalType":"uint8"},{"name":"r","type":"bytes32","internalType":"bytes32"},{"name":"s","type":"bytes32","internalType":"bytes32"}],"outputs":[],"stateMutability":"nonpayable"},{"type":"function","name":"delegates","inputs":[{"name":"account","type":"address","internalType":"address"}],"outputs":[{"name":"","type":"address","internalType":"address"}],"stateMutability":"view"},{"type":"function","name":"eip712Domain","inputs":[],"outputs":[{"name":"fields","type":"bytes1","internalType":"bytes1"},{"name":"name","type":"string","internalType":"string"},{"name":"version","type":"string","internalType":"string"},{"name":"chainId","type":"uint256","internalType":"uint256"},{"name":"verifyingContract","type":"address","internalType":"address"},{"name":"salt","type":"bytes32","internalType":"bytes32"},{"name":"extensions","type":"uint256[]","internalType":"uint256[]"}],"stateMutability":"view"},{"type":"function","name":"getPastTotalSupply","inputs":[{"name":"timepoint","type":"uint256","internalType":"uint256"}],"outputs":[{"name":"","type":"uint256","internalType":"uint256"}],"stateMutability":"view"},{"type":"function","name":"getPastVotes","inputs":[{"name":"account","type":"address","internalType":"address"},{"name":"timepoint","type":"uint256","internalType":"uint256"}],"outputs":[{"name":"","type":"uint256","internalType":"uint256"}],"stateMutability":"view"},{"type":"function","name":"getRoleAdmin","inputs":[{"name":"role","type":"bytes32","internalType":"bytes32"}],"outputs":[{"name":"","type":"bytes32","internalType":"bytes32"}],"stateMutability":"view"},{"type":"function","name":"getVotes","inputs":[{"name":"account","type":"address","internalType":"address"}],"outputs":[{"name":"","type":"uint256","internalType":"uint256"}],"stateMutability":"view"},{"type":"function","name":"grantRole","inputs":[{"name":"role","type":"bytes32","internalType":"bytes32"},{"name":"account","type":"address","internalType":"address"}],"outputs":[],"stateMutability":"nonpayable"},{"type":"function","name":"hasRole","inputs":[{"name":"role","type":"bytes32","internalType":"bytes32"},{"name":"account","type":"address","internalType":"address"}],"outputs":[{"name":"","type":"bool","internalType":"bool"}],"stateMutability":"view"},{"type":"function","name":"name","inputs":[],"outputs":[{"name":"","type":"string","internalType":"string"}],"stateMutability":"view"},{"type":"function","name":"nonces","inputs":[{"name":"owner","type":"address","internalType":"address"}],"outputs":[{"name":"","type":"uint256","internalType":"uint256"}],"stateMutability":"view"},{"type":"function","name":"numCheckpoints","inputs":[{"name":"account","type":"address","internalType":"address"}],"outputs":[{"name":"","type":"uint32","internalType":"uint32"}],"stateMutability":"view"},{"type":"function","name":"permit","inputs":[{"name":"owner","type":"address","internalType":"address"},{"name":"spender","type":"address","internalType":"address"},{"name":"value","type":"uint256","internalType":"uint256"},{"name":"deadline","type":"uint256","internalType":"uint256"},{"name":"v","type":"uint8","internalType":"uint8"},{"name":"r","type":"bytes32","internalType":"bytes32"},{"name":"s","type":"bytes32","internalType":"bytes32"}],"outputs":[],"stateMutability":"nonpayable"},{"type":"function","name":"renounceRole","inputs":[{"name":"role","type":"bytes32","internalType":"bytes32"},{"name":"callerConfirmation","type":"address","internalType":"address"}],"outputs":[],"stateMutability":"nonpayable"},{"type":"function","name":"revokeRole","inputs":[{"name":"role","type":"bytes32","internalType":"bytes32"},{"name":"account","type":"address","internalType":"address"}],"outputs":[],"stateMutability":"nonpayable"},{"type":"function","name":"selfDelegate","inputs":[],"outputs":[],"stateMutability":"nonpayable"},{"type":"function","name":"supportsInterface","inputs":[{"name":"interfaceId","type":"bytes4","internalType":"bytes4"}],"outputs":[{"name":"","type":"bool","internalType":"bool"}],"stateMutability":"view"},{"type":"function","name":"symbol","inputs":[],"outputs":[{"name":"","type":"string","internalType":"string"}],"stateMutability":"view"},{"type":"function","name":"totalBurned","inputs":[],"outputs":[{"name":"","type":"uint256","internalType":"uint256"}],"stateMutability":"view"},{"type":"function","name":"totalSupply","inputs":[],"outputs":[{"name":"","type":"uint256","internalType":"uint256"}],"stateMutability":"view"},{"type":"function","name":"transfer","inputs":[{"name":"to","type":"address","internalType":"address"},{"name":"value","type":"uint256","internalType":"uint256"}],"outputs":[{"name":"","type":"bool","internalType":"bool"}],"stateMutability":"nonpayable"},{"type":"function","name":"transferFrom","inputs":[{"name":"from","type":"address","internalType":"address"},{"name":"to","type":"address","internalType":"address"},{"name":"value","type":"uint256","internalType":"uint256"}],"outputs":[{"name":"","type":"bool","internalType":"bool"}],"stateMutability":"nonpayable"},{"type":"event","name":"Approval","inputs":[{"name":"owner","type":"address","indexed":true,"internalType":"address"},{"name":"spender","type":"address","indexed":true,"internalType":"address"},{"name":"value","type":"uint256","indexed":false,"internalType":"uint256"}],"anonymous":false},{"type":"event","name":"Burned","inputs":[{"name":"burner","type":"address","indexed":true,"internalType":"address"},{"name":"from","type":"address","indexed":true,"internalType":"address"},{"name":"amount","type":"uint256","indexed":false,"internalType":"uint256"},{"name":"totalBurned","type":"uint256","indexed":false,"internalType":"uint256"}],"anonymous":false},{"type":"event","name":"DelegateChanged","inputs":[{"name":"delegator","type":"address","indexed":true,"internalType":"address"},{"name":"fromDelegate","type":"address","indexed":true,"internalType":"address"},{"name":"toDelegate","type":"address","indexed":true,"internalType":"address"}],"anonymous":false},{"type":"event","name":"DelegateVotesChanged","inputs":[{"name":"delegate","type":"address","indexed":true,"internalType":"address"},{"name":"previousVotes","type":"uint256","indexed":false,"internalType":"uint256"},{"name":"newVotes","type":"uint256","indexed":false,"internalType":"uint256"}],"anonymous":false},{"type":"event","name":"EIP712DomainChanged","inputs":[],"anonymous":false},{"type":"event","name":"RoleAdminChanged","inputs":[{"name":"role","type":"bytes32","indexed":true,"internalType":"bytes32"},{"name":"previousAdminRole","type":"bytes32","indexed":true,"internalType":"bytes32"},{"name":"newAdminRole","type":"bytes32","indexed":true,"internalType":"bytes32"}],"anonymous":false},{"type":"event","name":"RoleGranted","inputs":[{"name":"role","type":"bytes32","indexed":true,"internalType":"bytes32"},{"name":"account","type":"address","indexed":true,"internalType":"address"},{"name":"sender","type":"address","indexed":true,"internalType":"address"}],"anonymous":false},{"type":"event","name":"RoleRevoked","inputs":[{"name":"role","type":"bytes32","indexed":true,"internalType":"bytes32"},{"name":"account","type":"address","indexed":true,"internalType":"address"},{"name":"sender","type":"address","indexed":true,"internalType":"address"}],"anonymous":false},{"type":"event","name":"Transfer","inputs":[{"name":"from","type":"address","indexed":true,"internalType":"address"},{"name":"to","type":"address","indexed":true,"internalType":"address"},{"name":"value","type":"uint256","indexed":false,"internalType":"uint256"}],"anonymous":false},{"type":"error","name":"AccessControlBadConfirmation","inputs":[]},{"type":"error","name":"AccessControlUnauthorizedAccount","inputs":[{"name":"account","type":"address","internalType":"address"},{"name":"neededRole","type":"bytes32","internalType":"bytes32"}]},{"type":"error","name":"BurnExceedsBalance","inputs":[{"name":"requested","type":"uint256","internalType":"uint256"},{"name":"balance","type":"uint256","internalType":"uint256"}]},{"type":"error","name":"CheckpointUnorderedInsertion","inputs":[]},{"type":"error","name":"ECDSAInvalidSignature","inputs":[]},{"type":"error","name":"ECDSAInvalidSignatureLength","inputs":[{"name":"length","type":"uint256","internalType":"uint256"}]},{"type":"error","name":"ECDSAInvalidSignatureS","inputs":[{"name":"s","type":"bytes32","internalType":"bytes32"}]},{"type":"error","name":"ERC20ExceededSafeSupply","inputs":[{"name":"increasedSupply","type":"uint256","internalType":"uint256"},{"name":"cap","type":"uint256","internalType":"uint256"}]},{"type":"error","name":"ERC20InsufficientAllowance","inputs":[{"name":"spender","type":"address","internalType":"address"},{"name":"allowance","type":"uint256","internalType":"uint256"},{"name":"needed","type":"uint256","internalType":"uint256"}]},{"type":"error","name":"ERC20InsufficientBalance","inputs":[{"name":"sender","type":"address","internalType":"address"},{"name":"balance","type":"uint256","internalType":"uint256"},{"name":"needed","type":"uint256","internalType":"uint256"}]},{"type":"error","name":"ERC20InvalidApprover","inputs":[{"name":"approver","type":"address","internalType":"address"}]},{"type":"error","name":"ERC20InvalidReceiver","inputs":[{"name":"receiver","type":"address","internalType":"address"}]},{"type":"error","name":"ERC20InvalidSender","inputs":[{"name":"sender","type":"address","internalType":"address"}]},{"type":"error","name":"ERC20InvalidSpender","inputs":[{"name":"spender","type":"address","internalType":"address"}]},{"type":"error","name":"ERC2612ExpiredSignature","inputs":[{"name":"deadline","type":"uint256","internalType":"uint256"}]},{"type":"error","name":"ERC2612InvalidSigner","inputs":[{"name":"signer","type":"address","internalType":"address"},{"name":"owner","type":"address","internalType":"address"}]},{"type":"error","name":"ERC5805FutureLookup","inputs":[{"name":"timepoint","type":"uint256","internalType":"uint256"},{"name":"clock","type":"uint48","internalType":"uint48"}]},{"type":"error","name":"ERC6372InconsistentClock","inputs":[]},{"type":"error","name":"InvalidAccountNonce","inputs":[{"name":"account","type":"address","internalType":"address"},{"name":"currentNonce","type":"uint256","internalType":"uint256"}]},{"type":"error","name":"InvalidShortString","inputs":[]},{"type":"error","name":"OnlyBurnRouterOrSelf","inputs":[]},{"type":"error","name":"SafeCastOverflowedUintDowncast","inputs":[{"name":"bits","type":"uint8","internalType":"uint8"},{"name":"value","type":"uint256","internalType":"uint256"}]},{"type":"error","name":"StringTooLong","inputs":[{"name":"str","type":"string","internalType":"string"}]},{"type":"error","name":"VotesExpiredSignature","inputs":[{"name":"expiry","type":"uint256","internalType":"uint256"}]},{"type":"error","name":"ZeroBurn","inputs":[]}],"bytecode":{"object":"0x610160604052348015610010575f5ffd5b50604051615f93380380615f938339818101604052810190610032919061135f565b6040518060400160405280600e81526020017f54656d706f2050726f746f636f6c000000000000000000000000000000000000815250806040518060400160405280600181526020017f31000000000000000000000000000000000000000000000000000000000000008152506040518060400160405280600e81526020017f54656d706f2050726f746f636f6c0000000000000000000000000000000000008152506040518060400160405280600581526020017f54454d504f000000000000000000000000000000000000000000000000000000815250816003908161011a91906115fd565b50806004908161012a91906115fd565b50505061014160058361038a60201b90919060201c565b610120818152505061015d60068261038a60201b90919060201c565b6101408181525050818051906020012060e08181525050808051906020012061010081815250504660a0818152505061019a6103d760201b60201c565b608081815250503073ffffffffffffffffffffffffffffffffffffffff1660c08173ffffffffffffffffffffffffffffffffffffffff16815250505050505f73ffffffffffffffffffffffffffffffffffffffff168373ffffffffffffffffffffffffffffffffffffffff1603610246576040517f08c379a000000000000000000000000000000000000000000000000000000000815260040161023d90611726565b60405180910390fd5b5f73ffffffffffffffffffffffffffffffffffffffff168273ffffffffffffffffffffffffffffffffffffffff16036102b4576040517f08c379a00000000000000000000000000000000000000000000000000000000081526004016102ab9061178e565b60405180910390fd5b5f73ffffffffffffffffffffffffffffffffffffffff168173ffffffffffffffffffffffffffffffffffffffff1603610322576040517f08c379a0000000000000000000000000000000000000000000000000000000008152600401610319906117f6565b60405180910390fd5b6103345f5f1b8461043160201b60201c565b506103657fd6b286a105142d2d672365eeaa8558a8ebfed5c8a7fee3613de22317a981b3468361043160201b60201c565b50610382816b033b2e3c9fd0803ce800000061052760201b60201c565b505050611c50565b5f6020835110156103ab576103a4836105ac60201b60201c565b90506103d1565b826103bb8361061160201b60201c565b5f0190816103c991906115fd565b5060ff5f1b90505b92915050565b5f7f8b73c3c69bb8fe3d512ecc4cf759cc79239f7b179b0ffacaa9a75d522b39400f60e05161010051463060405160200161041695949392919061184a565b60405160208183030381529060405280519060200120905090565b5f610442838361061a60201b60201c565b61051d576001600b5f8581526020019081526020015f205f015f8473ffffffffffffffffffffffffffffffffffffffff1673ffffffffffffffffffffffffffffffffffffffff1681526020019081526020015f205f6101000a81548160ff0219169083151502179055506104ba61067e60201b60201c565b73ffffffffffffffffffffffffffffffffffffffff168273ffffffffffffffffffffffffffffffffffffffff16847f2f8788117e7eff1d82e926ec794901d17c78024a50270940304540a733656f0d60405160405180910390a460019050610521565b5f90505b92915050565b5f73ffffffffffffffffffffffffffffffffffffffff168273ffffffffffffffffffffffffffffffffffffffff1603610597575f6040517fec442f0500000000000000000000000000000000000000000000000000000000815260040161058e919061189b565b60405180910390fd5b6105a85f838361068560201b60201c565b5050565b5f5f829050601f815111156105f857826040517f305a27a90000000000000000000000000000000000000000000000000000000081526004016105ef919061190a565b60405180910390fd5b80518161060490611957565b5f1c175f1b915050919050565b5f819050919050565b5f600b5f8481526020019081526020015f205f015f8373ffffffffffffffffffffffffffffffffffffffff1673ffffffffffffffffffffffffffffffffffffffff1681526020019081526020015f205f9054906101000a900460ff16905092915050565b5f33905090565b61069683838361069b60201b60201c565b505050565b6106ac83838361076160201b60201c565b5f73ffffffffffffffffffffffffffffffffffffffff168373ffffffffffffffffffffffffffffffffffffffff160361074b575f6106ee61097a60201b60201c565b90505f6106ff61098360201b60201c565b9050808211156107485781816040517f1cb15d2600000000000000000000000000000000000000000000000000000000815260040161073f9291906119bd565b60405180910390fd5b50505b61075c8383836109a660201b60201c565b505050565b5f73ffffffffffffffffffffffffffffffffffffffff168373ffffffffffffffffffffffffffffffffffffffff16036107b1578060025f8282546107a59190611a11565b9250508190555061087f565b5f5f5f8573ffffffffffffffffffffffffffffffffffffffff1673ffffffffffffffffffffffffffffffffffffffff1681526020019081526020015f205490508181101561083a578381836040517fe450d38c00000000000000000000000000000000000000000000000000000000815260040161083193929190611a44565b60405180910390fd5b8181035f5f8673ffffffffffffffffffffffffffffffffffffffff1673ffffffffffffffffffffffffffffffffffffffff1681526020019081526020015f2081905550505b5f73ffffffffffffffffffffffffffffffffffffffff168273ffffffffffffffffffffffffffffffffffffffff16036108c6578060025f8282540392505081905550610910565b805f5f8473ffffffffffffffffffffffffffffffffffffffff1673ffffffffffffffffffffffffffffffffffffffff1681526020019081526020015f205f82825401925050819055505b8173ffffffffffffffffffffffffffffffffffffffff168373ffffffffffffffffffffffffffffffffffffffff167fddf252ad1be2c89b69c2b068fc378daa952ba7f163c4a11628f55a4df523b3ef8360405161096d9190611a79565b60405180910390a3505050565b5f600254905090565b5f79ffffffffffffffffffffffffffffffffffffffffffffffffffff8016905090565b5f73ffffffffffffffffffffffffffffffffffffffff168373ffffffffffffffffffffffffffffffffffffffff1603610a0557610a02600a610a9660201b6114be176109f784610aab60201b60201c565b610b1860201b60201c565b50505b5f73ffffffffffffffffffffffffffffffffffffffff168273ffffffffffffffffffffffffffffffffffffffff1603610a6457610a61600a610b6060201b6114d317610a5684610aab60201b60201c565b610b1860201b60201c565b50505b610a91610a7684610b7560201b60201c565b610a8584610b7560201b60201c565b83610bda60201b60201c565b505050565b5f8183610aa39190611ab7565b905092915050565b5f79ffffffffffffffffffffffffffffffffffffffffffffffffffff8016821115610b105760d0826040517f6dfcc650000000000000000000000000000000000000000000000000000000008152600401610b07929190611b49565b60405180910390fd5b819050919050565b5f5f610b54610b2b610e7060201b60201c565b610b44610b3d88610e8460201b60201c565b868860201c565b87610eec60201b9092919060201c565b91509150935093915050565b5f8183610b6d9190611b70565b905092915050565b5f60085f8373ffffffffffffffffffffffffffffffffffffffff1673ffffffffffffffffffffffffffffffffffffffff1681526020019081526020015f205f9054906101000a900473ffffffffffffffffffffffffffffffffffffffff169050919050565b8173ffffffffffffffffffffffffffffffffffffffff168373ffffffffffffffffffffffffffffffffffffffff1614158015610c1557505f81115b15610e6b575f73ffffffffffffffffffffffffffffffffffffffff168373ffffffffffffffffffffffffffffffffffffffff1614610d42575f5f610cb360095f8773ffffffffffffffffffffffffffffffffffffffff1673ffffffffffffffffffffffffffffffffffffffff1681526020019081526020015f20610b6060201b6114d317610ca886610aab60201b60201c565b610b1860201b60201c565b79ffffffffffffffffffffffffffffffffffffffffffffffffffff16915079ffffffffffffffffffffffffffffffffffffffffffffffffffff1691508473ffffffffffffffffffffffffffffffffffffffff167fdec2bacdd2f05b59de34da9b523dff8be42e5e38e818c82fdb0bae774387a7248383604051610d379291906119bd565b60405180910390a250505b5f73ffffffffffffffffffffffffffffffffffffffff168273ffffffffffffffffffffffffffffffffffffffff1614610e6a575f5f610ddb60095f8673ffffffffffffffffffffffffffffffffffffffff1673ffffffffffffffffffffffffffffffffffffffff1681526020019081526020015f20610a9660201b6114be17610dd086610aab60201b60201c565b610b1860201b60201c565b79ffffffffffffffffffffffffffffffffffffffffffffffffffff16915079ffffffffffffffffffffffffffffffffffffffffffffffffffff1691508373ffffffffffffffffffffffffffffffffffffffff167fdec2bacdd2f05b59de34da9b523dff8be42e5e38e818c82fdb0bae774387a7248383604051610e5f9291906119bd565b60405180910390a250505b5b505050565b5f610e7f610f0d60201b60201c565b905090565b5f5f825f018054905090505f8114610ee257610eb4835f01600183610ea99190611bbd565b610f2260201b60201c565b5f0160069054906101000a900479ffffffffffffffffffffffffffffffffffffffffffffffffffff16610ee4565b5f5b915050919050565b5f5f610f01855f018585610f3460201b60201c565b91509150935093915050565b5f610f1d436112a860201b60201c565b905090565b5f825f528160205f2001905092915050565b5f5f5f858054905090505f8111156111c0575f610f6387600184610f589190611bbd565b610f2260201b60201c565b6040518060400160405290815f82015f9054906101000a900465ffffffffffff1665ffffffffffff1665ffffffffffff1681526020015f820160069054906101000a900479ffffffffffffffffffffffffffffffffffffffffffffffffffff1679ffffffffffffffffffffffffffffffffffffffffffffffffffff1679ffffffffffffffffffffffffffffffffffffffffffffffffffff168152505090508565ffffffffffff16815f015165ffffffffffff16111561104e576040517f2520601d00000000000000000000000000000000000000000000000000000000815260040160405180910390fd5b8565ffffffffffff16815f015165ffffffffffff16036110d657846110858860018561107a9190611bbd565b610f2260201b60201c565b5f0160066101000a81548179ffffffffffffffffffffffffffffffffffffffffffffffffffff021916908379ffffffffffffffffffffffffffffffffffffffffffffffffffff1602179055506111af565b8660405180604001604052808865ffffffffffff1681526020018779ffffffffffffffffffffffffffffffffffffffffffffffffffff16815250908060018154018082558091505060019003905f5260205f20015f909190919091505f820151815f015f6101000a81548165ffffffffffff021916908365ffffffffffff1602179055506020820151815f0160066101000a81548179ffffffffffffffffffffffffffffffffffffffffffffffffffff021916908379ffffffffffffffffffffffffffffffffffffffffffffffffffff16021790555050505b8060200151859350935050506112a0565b8560405180604001604052808765ffffffffffff1681526020018679ffffffffffffffffffffffffffffffffffffffffffffffffffff16815250908060018154018082558091505060019003905f5260205f20015f909190919091505f820151815f015f6101000a81548165ffffffffffff021916908365ffffffffffff1602179055506020820151815f0160066101000a81548179ffffffffffffffffffffffffffffffffffffffffffffffffffff021916908379ffffffffffffffffffffffffffffffffffffffffffffffffffff16021790555050505f8492509250505b935093915050565b5f65ffffffffffff80168211156112f9576030826040517f6dfcc6500000000000000000000000000000000000000000000000000000000081526004016112f0929190611c29565b60405180910390fd5b819050919050565b5f5ffd5b5f73ffffffffffffffffffffffffffffffffffffffff82169050919050565b5f61132e82611305565b9050919050565b61133e81611324565b8114611348575f5ffd5b50565b5f8151905061135981611335565b92915050565b5f5f5f6060848603121561137657611375611301565b5b5f6113838682870161134b565b93505060206113948682870161134b565b92505060406113a58682870161134b565b9150509250925092565b5f81519050919050565b7f4e487b71000000000000000000000000000000000000000000000000000000005f52604160045260245ffd5b7f4e487b71000000000000000000000000000000000000000000000000000000005f52602260045260245ffd5b5f600282049050600182168061142a57607f821691505b60208210810361143d5761143c6113e6565b5b50919050565b5f819050815f5260205f209050919050565b5f6020601f8301049050919050565b5f82821b905092915050565b5f6008830261149f7fffffffffffffffffffffffffffffffffffffffffffffffffffffffffffffffff82611464565b6114a98683611464565b95508019841693508086168417925050509392505050565b5f819050919050565b5f819050919050565b5f6114ed6114e86114e3846114c1565b6114ca565b6114c1565b9050919050565b5f819050919050565b611506836114d3565b61151a611512826114f4565b848454611470565b825550505050565b5f5f905090565b611531611522565b61153c8184846114fd565b505050565b5f5b82811015611562576115575f828401611529565b600181019050611543565b505050565b601f8211156115b557828211156115b45761158181611443565b61158a83611455565b61159385611455565b60208610156115a0575f90505b8083016115af82840382611541565b505050505b5b505050565b5f82821c905092915050565b5f6115d55f19846008026115ba565b1980831691505092915050565b5f6115ed83836115c6565b9150826002028217905092915050565b611606826113af565b67ffffffffffffffff81111561161f5761161e6113b9565b5b6116298254611413565b611634828285611567565b5f60209050601f831160018114611665575f8415611653578287015190505b61165d85826115e2565b8655506116c4565b601f19841661167386611443565b5f5b8281101561169a57848901518255600182019150602085019450602081019050611675565b868310156116b757848901516116b3601f8916826115c6565b8355505b6001600288020188555050505b505050505050565b5f82825260208201905092915050565b7f54454d504f3a207a65726f2064616f00000000000000000000000000000000005f82015250565b5f611710600f836116cc565b915061171b826116dc565b602082019050919050565b5f6020820190508181035f83015261173d81611704565b9050919050565b7f54454d504f3a207a65726f206275726e526f75746572000000000000000000005f82015250565b5f6117786016836116cc565b915061178382611744565b602082019050919050565b5f6020820190508181035f8301526117a58161176c565b9050919050565b7f54454d504f3a207a65726f2074726561737572790000000000000000000000005f82015250565b5f6117e06014836116cc565b91506117eb826117ac565b602082019050919050565b5f6020820190508181035f83015261180d816117d4565b9050919050565b5f819050919050565b61182681611814565b82525050565b611835816114c1565b82525050565b61184481611324565b82525050565b5f60a08201905061185d5f83018861181d565b61186a602083018761181d565b611877604083018661181d565b611884606083018561182c565b611891608083018461183b565b9695505050505050565b5f6020820190506118ae5f83018461183b565b92915050565b8281835e5f83830152505050565b5f601f19601f8301169050919050565b5f6118dc826113af565b6118e681856116cc565b93506118f68185602086016118b4565b6118ff816118c2565b840191505092915050565b5f6020820190508181035f83015261192281846118d2565b905092915050565b5f81519050919050565b5f819050602082019050919050565b5f61194e8251611814565b80915050919050565b5f6119618261192a565b8261196b84611934565b905061197681611943565b925060208210156119b6576119b17fffffffffffffffffffffffffffffffffffffffffffffffffffffffffffffffff83602003600802611464565b831692505b5050919050565b5f6040820190506119d05f83018561182c565b6119dd602083018461182c565b9392505050565b7f4e487b71000000000000000000000000000000000000000000000000000000005f52601160045260245ffd5b5f611a1b826114c1565b9150611a26836114c1565b9250828201905080821115611a3e57611a3d6119e4565b5b92915050565b5f606082019050611a575f83018661183b565b611a64602083018561182c565b611a71604083018461182c565b949350505050565b5f602082019050611a8c5f83018461182c565b92915050565b5f79ffffffffffffffffffffffffffffffffffffffffffffffffffff82169050919050565b5f611ac182611a92565b9150611acc83611a92565b9250828201905079ffffffffffffffffffffffffffffffffffffffffffffffffffff811115611afe57611afd6119e4565b5b92915050565b5f819050919050565b5f60ff82169050919050565b5f611b33611b2e611b2984611b04565b6114ca565b611b0d565b9050919050565b611b4381611b19565b82525050565b5f604082019050611b5c5f830185611b3a565b611b69602083018461182c565b9392505050565b5f611b7a82611a92565b9150611b8583611a92565b9250828203905079ffffffffffffffffffffffffffffffffffffffffffffffffffff811115611bb757611bb66119e4565b5b92915050565b5f611bc7826114c1565b9150611bd2836114c1565b9250828203905081811115611bea57611be96119e4565b5b92915050565b5f819050919050565b5f611c13611c0e611c0984611bf0565b6114ca565b611b0d565b9050919050565b611c2381611bf9565b82525050565b5f604082019050611c3c5f830185611c1a565b611c49602083018461182c565b9392505050565b60805160a05160c05160e0516101005161012051610140516142f2611ca15f395f611c9c01525f611c6101525f61217401525f61215301525f6117ed01525f61184301525f61186c01526142f25ff3fe608060405234801561000f575f5ffd5b5060043610610230575f3560e01c806370a082311161012e5780639dc29fac116100b6578063d505accf1161007a578063d505accf146106e2578063d547741f146106fe578063d89135cd1461071a578063dd62ed3e14610738578063f1127ed81461076857610230565b80639dc29fac14610640578063a217fddf1461065c578063a9059cbb1461067a578063b8b12a1e146106aa578063c3cda520146106c657610230565b806391d14854116100fd57806391d148541461058657806391ddadf4146105b65780639358928b146105d457806395d89b41146105f25780639ab24eb01461061057610230565b806370a08231146104d25780637ecebe001461050257806384b0196e146105325780638e539e8c1461055657610230565b806331860603116101bc5780633f0a52ff116101805780633f0a52ff1461042e5780634bf5d7e914610438578063587cde1e146104565780635c19a95c146104865780636fcfff45146104a257610230565b8063318606031461038857806332cb6b0c146103a65780633644e515146103c457806336568abe146103e25780633a46b1a8146103fe57610230565b806318160ddd1161020357806318160ddd146102d057806323b872dd146102ee578063248a9ca31461031e5780632f2ff15d1461034e578063313ce5671461036a57610230565b806301ffc9a714610234578063043db2b51461026457806306fdde0314610282578063095ea7b3146102a0575b5f5ffd5b61024e600480360381019061024991906134ad565b610798565b60405161025b91906134f2565b60405180910390f35b61026c610811565b6040516102799190613523565b60405180910390f35b61028a61083e565b60405161029791906135ac565b60405180910390f35b6102ba60048036038101906102b59190613650565b6108ce565b6040516102c791906134f2565b60405180910390f35b6102d86108f0565b6040516102e59190613523565b60405180910390f35b6103086004803603810190610303919061368e565b6108f9565b60405161031591906134f2565b60405180910390f35b61033860048036038101906103339190613711565b610927565b604051610345919061374b565b60405180910390f35b61036860048036038101906103639190613764565b610944565b005b610372610966565b60405161037f91906137bd565b60405180910390f35b61039061096e565b60405161039d919061374b565b60405180910390f35b6103ae610992565b6040516103bb9190613523565b60405180910390f35b6103cc6109a2565b6040516103d9919061374b565b60405180910390f35b6103fc60048036038101906103f79190613764565b6109b0565b005b61041860048036038101906104139190613650565b610a2b565b6040516104259190613523565b60405180910390f35b610436610b01565b005b610440610b0d565b60405161044d91906135ac565b60405180910390f35b610470600480360381019061046b91906137d6565b610ba1565b60405161047d9190613810565b60405180910390f35b6104a0600480360381019061049b91906137d6565b610c06565b005b6104bc60048036038101906104b791906137d6565b610c1f565b6040516104c99190613847565b60405180910390f35b6104ec60048036038101906104e791906137d6565b610c30565b6040516104f99190613523565b60405180910390f35b61051c600480360381019061051791906137d6565b610c75565b6040516105299190613523565b60405180910390f35b61053a610c86565b60405161054d9796959493929190613951565b60405180910390f35b610570600480360381019061056b91906139d3565b610d2b565b60405161057d9190613523565b60405180910390f35b6105a0600480360381019061059b9190613764565b610dc5565b6040516105ad91906134f2565b60405180910390f35b6105be610e29565b6040516105cb9190613a1e565b60405180910390f35b6105dc610e37565b6040516105e99190613523565b60405180910390f35b6105fa610e45565b60405161060791906135ac565b60405180910390f35b61062a600480360381019061062591906137d6565b610ed5565b6040516106379190613523565b60405180910390f35b61065a60048036038101906106559190613650565b610f3e565b005b6106646110fe565b604051610671919061374b565b60405180910390f35b610694600480360381019061068f9190613650565b611104565b6040516106a191906134f2565b60405180910390f35b6106c460048036038101906106bf91906139d3565b611126565b005b6106e060048036038101906106db9190613a61565b6111ed565b005b6106fc60048036038101906106f79190613aea565b6112b2565b005b61071860048036038101906107139190613764565b6113f7565b005b610722611419565b60405161072f9190613523565b60405180910390f35b610752600480360381019061074d9190613b87565b611422565b60405161075f9190613523565b60405180910390f35b610782600480360381019061077d9190613bef565b6114a4565b60405161078f9190613c9d565b60405180910390f35b5f7f7965db0b000000000000000000000000000000000000000000000000000000007bffffffffffffffffffffffffffffffffffffffffffffffffffffffff1916827bffffffffffffffffffffffffffffffffffffffffffffffffffffffff1916148061080a5750610809826114e8565b5b9050919050565b5f6b033b2e3c9fd0803ce8000000612710600c5461082f9190613ce3565b6108399190613d51565b905090565b60606003805461084d90613dae565b80601f016020809104026020016040519081016040528092919081815260200182805461087990613dae565b80156108c45780601f1061089b576101008083540402835291602001916108c4565b820191905f5260205f20905b8154815290600101906020018083116108a757829003601f168201915b5050505050905090565b5f5f6108d8611551565b90506108e5818585611558565b600191505092915050565b5f600254905090565b5f5f610903611551565b905061091085828561156a565b61091b8585856115fc565b60019150509392505050565b5f600b5f8381526020019081526020015f20600101549050919050565b61094d82610927565b610956816116ec565b6109608383611700565b50505050565b5f6012905090565b7fd6b286a105142d2d672365eeaa8558a8ebfed5c8a7fee3613de22317a981b34681565b6b033b2e3c9fd0803ce800000081565b5f6109ab6117ea565b905090565b6109b8611551565b73ffffffffffffffffffffffffffffffffffffffff168173ffffffffffffffffffffffffffffffffffffffff1614610a1c576040517f6697b23200000000000000000000000000000000000000000000000000000000815260040160405180910390fd5b610a2682826118a0565b505050565b5f5f610a35610e29565b90508065ffffffffffff168310610a855782816040517fecd3f81e000000000000000000000000000000000000000000000000000000008152600401610a7c929190613dde565b60405180910390fd5b610adc610a918461198a565b60095f8773ffffffffffffffffffffffffffffffffffffffff1673ffffffffffffffffffffffffffffffffffffffff1681526020019081526020015f206119e390919063ffffffff16565b79ffffffffffffffffffffffffffffffffffffffffffffffffffff1691505092915050565b610b0b3333611ad3565b565b6060610b17611be3565b65ffffffffffff16610b27610e29565b65ffffffffffff1614610b66576040517f6ff0714000000000000000000000000000000000000000000000000000000000815260040160405180910390fd5b6040518060400160405280601d81526020017f6d6f64653d626c6f636b6e756d6265722666726f6d3d64656661756c74000000815250905090565b5f60085f8373ffffffffffffffffffffffffffffffffffffffff1673ffffffffffffffffffffffffffffffffffffffff1681526020019081526020015f205f9054906101000a900473ffffffffffffffffffffffffffffffffffffffff169050919050565b5f610c0f611551565b9050610c1b8183611ad3565b5050565b5f610c2982611bf2565b9050919050565b5f5f5f8373ffffffffffffffffffffffffffffffffffffffff1673ffffffffffffffffffffffffffffffffffffffff1681526020019081526020015f20549050919050565b5f610c7f82611c47565b9050919050565b5f6060805f5f5f6060610c97611c58565b610c9f611c93565b46305f5f1b5f67ffffffffffffffff811115610cbe57610cbd613e05565b5b604051908082528060200260200182016040528015610cec5781602001602082028036833780820191505090505b507f0f00000000000000000000000000000000000000000000000000000000000000959493929190965096509650965096509650965090919293949596565b5f5f610d35610e29565b90508065ffffffffffff168310610d855782816040517fecd3f81e000000000000000000000000000000000000000000000000000000008152600401610d7c929190613dde565b60405180910390fd5b610da1610d918461198a565b600a6119e390919063ffffffff16565b79ffffffffffffffffffffffffffffffffffffffffffffffffffff16915050919050565b5f600b5f8481526020019081526020015f205f015f8373ffffffffffffffffffffffffffffffffffffffff1673ffffffffffffffffffffffffffffffffffffffff1681526020019081526020015f205f9054906101000a900460ff16905092915050565b5f610e32611be3565b905090565b5f610e406108f0565b905090565b606060048054610e5490613dae565b80601f0160208091040260200160405190810160405280929190818152602001828054610e8090613dae565b8015610ecb5780601f10610ea257610100808354040283529160200191610ecb565b820191905f5260205f20905b815481529060010190602001808311610eae57829003601f168201915b5050505050905090565b5f610f1b60095f8473ffffffffffffffffffffffffffffffffffffffff1673ffffffffffffffffffffffffffffffffffffffff1681526020019081526020015f20611cce565b79ffffffffffffffffffffffffffffffffffffffffffffffffffff169050919050565b5f610f697fd6b286a105142d2d672365eeaa8558a8ebfed5c8a7fee3613de22317a981b34633610dc5565b90505f8373ffffffffffffffffffffffffffffffffffffffff163373ffffffffffffffffffffffffffffffffffffffff1614905081158015610fa9575080155b15610fe0576040517f5d9700a600000000000000000000000000000000000000000000000000000000815260040160405180910390fd5b5f8303611019576040517f13aab74300000000000000000000000000000000000000000000000000000000815260040160405180910390fd5b5f61102385610c30565b90508381101561106c5783816040517f9b511c52000000000000000000000000000000000000000000000000000000008152600401611063929190613e32565b60405180910390fd5b6110768585611d30565b83600c5f8282546110879190613e59565b925050819055508473ffffffffffffffffffffffffffffffffffffffff163373ffffffffffffffffffffffffffffffffffffffff167f8cbfdd0f15f678ea4039ef0f30ce1494d591556082bee7c244bfd664efad36c786600c546040516110ef929190613e32565b60405180910390a35050505050565b5f5f1b81565b5f5f61110e611551565b905061111b8185856115fc565b600191505092915050565b5f810361115f576040517f13aab74300000000000000000000000000000000000000000000000000000000815260040160405180910390fd5b6111693382611d30565b80600c5f82825461117a9190613e59565b925050819055503373ffffffffffffffffffffffffffffffffffffffff163373ffffffffffffffffffffffffffffffffffffffff167f8cbfdd0f15f678ea4039ef0f30ce1494d591556082bee7c244bfd664efad36c783600c546040516111e2929190613e32565b60405180910390a350565b8342111561123257836040517f4683af0e0000000000000000000000000000000000000000000000000000000081526004016112299190613523565b60405180910390fd5b5f61129361128b7fe48329057bfd03d55e49b547132e39cffd9c1820ad7b9d4c5307691425d15adf8989896040516020016112709493929190613e8c565b60405160208183030381529060405280519060200120611daf565b858585611dc8565b905061129f8187611df6565b6112a98188611ad3565b50505050505050565b834211156112f757836040517f627913020000000000000000000000000000000000000000000000000000000081526004016112ee9190613523565b60405180910390fd5b5f7f6e71edae12b1b97f4d1f60370fef10105fa2faae0126114a169c64845d6126c98888886113258c611e4d565b8960405160200161133b96959493929190613ecf565b6040516020818303038152906040528051906020012090505f61135d82611daf565b90505f61136c82878787611dc8565b90508973ffffffffffffffffffffffffffffffffffffffff168173ffffffffffffffffffffffffffffffffffffffff16146113e057808a6040517f4b800e460000000000000000000000000000000000000000000000000000000081526004016113d7929190613f2e565b60405180910390fd5b6113eb8a8a8a611558565b50505050505050505050565b61140082610927565b611409816116ec565b61141383836118a0565b50505050565b5f600c54905090565b5f60015f8473ffffffffffffffffffffffffffffffffffffffff1673ffffffffffffffffffffffffffffffffffffffff1681526020019081526020015f205f8373ffffffffffffffffffffffffffffffffffffffff1673ffffffffffffffffffffffffffffffffffffffff1681526020019081526020015f2054905092915050565b6114ac613418565b6114b68383611ea0565b905092915050565b5f81836114cb9190613f55565b905092915050565b5f81836114e09190613fa2565b905092915050565b5f7f01ffc9a7000000000000000000000000000000000000000000000000000000007bffffffffffffffffffffffffffffffffffffffffffffffffffffffff1916827bffffffffffffffffffffffffffffffffffffffffffffffffffffffff1916149050919050565b5f33905090565b6115658383836001611eff565b505050565b5f6115758484611422565b90507fffffffffffffffffffffffffffffffffffffffffffffffffffffffffffffffff81146115f657818110156115e7578281836040517ffb8f41b20000000000000000000000000000000000000000000000000000000081526004016115de93929190613fef565b60405180910390fd5b6115f584848484035f611eff565b5b50505050565b5f73ffffffffffffffffffffffffffffffffffffffff168373ffffffffffffffffffffffffffffffffffffffff160361166c575f6040517f96c6fd1e0000000000000000000000000000000000000000000000000000000081526004016116639190613810565b60405180910390fd5b5f73ffffffffffffffffffffffffffffffffffffffff168273ffffffffffffffffffffffffffffffffffffffff16036116dc575f6040517fec442f050000000000000000000000000000000000000000000000000000000081526004016116d39190613810565b60405180910390fd5b6116e78383836120ce565b505050565b6116fd816116f8611551565b6120de565b50565b5f61170b8383610dc5565b6117e0576001600b5f8581526020019081526020015f205f015f8473ffffffffffffffffffffffffffffffffffffffff1673ffffffffffffffffffffffffffffffffffffffff1681526020019081526020015f205f6101000a81548160ff02191690831515021790555061177d611551565b73ffffffffffffffffffffffffffffffffffffffff168273ffffffffffffffffffffffffffffffffffffffff16847f2f8788117e7eff1d82e926ec794901d17c78024a50270940304540a733656f0d60405160405180910390a4600190506117e4565b5f90505b92915050565b5f7f000000000000000000000000000000000000000000000000000000000000000073ffffffffffffffffffffffffffffffffffffffff163073ffffffffffffffffffffffffffffffffffffffff1614801561186557507f000000000000000000000000000000000000000000000000000000000000000046145b15611892577f0000000000000000000000000000000000000000000000000000000000000000905061189d565b61189a61212f565b90505b90565b5f6118ab8383610dc5565b15611980575f600b5f8581526020019081526020015f205f015f8473ffffffffffffffffffffffffffffffffffffffff1673ffffffffffffffffffffffffffffffffffffffff1681526020019081526020015f205f6101000a81548160ff02191690831515021790555061191d611551565b73ffffffffffffffffffffffffffffffffffffffff168273ffffffffffffffffffffffffffffffffffffffff16847ff6391f5c32d9c69d2a47ea670b442974b53935d1edc7fd64eb21e047a839171b60405160405180910390a460019050611984565b5f90505b92915050565b5f65ffffffffffff80168211156119db576030826040517f6dfcc6500000000000000000000000000000000000000000000000000000000081526004016119d2929190614066565b60405180910390fd5b819050919050565b5f5f835f018054905090505f5f90505f8290506005831115611a67575f611a09846121c4565b84611a14919061408d565b9050611a22875f01826122ba565b5f015f9054906101000a900465ffffffffffff1665ffffffffffff168665ffffffffffff161015611a5557809150611a65565b600181611a629190613e59565b92505b505b5f611a76875f018785856122cc565b90505f8114611ac557611a97875f01600183611a92919061408d565b6122ba565b5f0160069054906101000a900479ffffffffffffffffffffffffffffffffffffffffffffffffffff16611ac7565b5f5b94505050505092915050565b5f611add83610ba1565b90508160085f8573ffffffffffffffffffffffffffffffffffffffff1673ffffffffffffffffffffffffffffffffffffffff1681526020019081526020015f205f6101000a81548173ffffffffffffffffffffffffffffffffffffffff021916908373ffffffffffffffffffffffffffffffffffffffff1602179055508173ffffffffffffffffffffffffffffffffffffffff168173ffffffffffffffffffffffffffffffffffffffff168473ffffffffffffffffffffffffffffffffffffffff167f3134e8a2e6d97e929a7e54011ea5485d7d196dd5f0ba4d4ef95803e8e3fc257f60405160405180910390a4611bde8183611bd986612341565b612352565b505050565b5f611bed4361198a565b905090565b5f611c40611c3b60095f8573ffffffffffffffffffffffffffffffffffffffff1673ffffffffffffffffffffffffffffffffffffffff1681526020019081526020015f206125c2565b6125d1565b9050919050565b5f611c5182612628565b9050919050565b6060611c8e60057f000000000000000000000000000000000000000000000000000000000000000061266e90919063ffffffff16565b905090565b6060611cc960067f000000000000000000000000000000000000000000000000000000000000000061266e90919063ffffffff16565b905090565b5f5f825f018054905090505f8114611d2657611cf8835f01600183611cf3919061408d565b6122ba565b5f0160069054906101000a900479ffffffffffffffffffffffffffffffffffffffffffffffffffff16611d28565b5f5b915050919050565b5f73ffffffffffffffffffffffffffffffffffffffff168273ffffffffffffffffffffffffffffffffffffffff1603611da0575f6040517f96c6fd1e000000000000000000000000000000000000000000000000000000008152600401611d979190613810565b60405180910390fd5b611dab825f836120ce565b5050565b5f611dc1611dbb6117ea565b8361271b565b9050919050565b5f5f5f5f611dd88888888861275b565b925092509250611de88282612842565b829350505050949350505050565b5f611e0083611e4d565b9050808214611e485782816040517f752d88c0000000000000000000000000000000000000000000000000000000008152600401611e3f9291906140c0565b60405180910390fd5b505050565b5f60075f8373ffffffffffffffffffffffffffffffffffffffff1673ffffffffffffffffffffffffffffffffffffffff1681526020019081526020015f205f815480929190600101919050559050919050565b611ea8613418565b611ef78260095f8673ffffffffffffffffffffffffffffffffffffffff1673ffffffffffffffffffffffffffffffffffffffff1681526020019081526020015f206129a490919063ffffffff16565b905092915050565b5f73ffffffffffffffffffffffffffffffffffffffff168473ffffffffffffffffffffffffffffffffffffffff1603611f6f575f6040517fe602df05000000000000000000000000000000000000000000000000000000008152600401611f669190613810565b60405180910390fd5b5f73ffffffffffffffffffffffffffffffffffffffff168373ffffffffffffffffffffffffffffffffffffffff1603611fdf575f6040517f94280d62000000000000000000000000000000000000000000000000000000008152600401611fd69190613810565b60405180910390fd5b8160015f8673ffffffffffffffffffffffffffffffffffffffff1673ffffffffffffffffffffffffffffffffffffffff1681526020019081526020015f205f8573ffffffffffffffffffffffffffffffffffffffff1673ffffffffffffffffffffffffffffffffffffffff1681526020019081526020015f208190555080156120c8578273ffffffffffffffffffffffffffffffffffffffff168473ffffffffffffffffffffffffffffffffffffffff167f8c5be1e5ebec7d5bd14f71427d1e84f3dd0314c0f7b2291e5b200ac8c7c3b925846040516120bf9190613523565b60405180910390a35b50505050565b6120d9838383612a73565b505050565b6120e88282610dc5565b61212b5780826040517fe2517d3f0000000000000000000000000000000000000000000000000000000081526004016121229291906140e7565b60405180910390fd5b5050565b5f7f8b73c3c69bb8fe3d512ecc4cf759cc79239f7b179b0ffacaa9a75d522b39400f7f00000000000000000000000000000000000000000000000000000000000000007f000000000000000000000000000000000000000000000000000000000000000046306040516020016121a995949392919061410e565b60405160208183030381529060405280519060200120905090565b5f5f82036121d4575f90506122b5565b5f60016121e084612b21565b901c6001901b905060018184816121fa576121f9613d24565b5b048201901c9050600181848161221357612212613d24565b5b048201901c9050600181848161222c5761222b613d24565b5b048201901c9050600181848161224557612244613d24565b5b048201901c9050600181848161225e5761225d613d24565b5b048201901c9050600181848161227757612276613d24565b5b048201901c905060018184816122905761228f613d24565b5b048201901c90506122b1818285816122ab576122aa613d24565b5b04612bf8565b9150505b919050565b5f825f528160205f2001905092915050565b5f5b81831015612336575f6122e18484612c10565b90508465ffffffffffff166122f687836122ba565b5f015f9054906101000a900465ffffffffffff1665ffffffffffff16111561232057809250612330565b60018161232d9190613e59565b93505b506122ce565b819050949350505050565b5f61234b82610c30565b9050919050565b8173ffffffffffffffffffffffffffffffffffffffff168373ffffffffffffffffffffffffffffffffffffffff161415801561238d57505f81115b156125bd575f73ffffffffffffffffffffffffffffffffffffffff168373ffffffffffffffffffffffffffffffffffffffff16146124a7575f5f61241860095f8773ffffffffffffffffffffffffffffffffffffffff1673ffffffffffffffffffffffffffffffffffffffff1681526020019081526020015f206114d361241386612c35565b612ca2565b79ffffffffffffffffffffffffffffffffffffffffffffffffffff16915079ffffffffffffffffffffffffffffffffffffffffffffffffffff1691508473ffffffffffffffffffffffffffffffffffffffff167fdec2bacdd2f05b59de34da9b523dff8be42e5e38e818c82fdb0bae774387a724838360405161249c929190613e32565b60405180910390a250505b5f73ffffffffffffffffffffffffffffffffffffffff168273ffffffffffffffffffffffffffffffffffffffff16146125bc575f5f61252d60095f8673ffffffffffffffffffffffffffffffffffffffff1673ffffffffffffffffffffffffffffffffffffffff1681526020019081526020015f206114be61252886612c35565b612ca2565b79ffffffffffffffffffffffffffffffffffffffffffffffffffff16915079ffffffffffffffffffffffffffffffffffffffffffffffffffff1691508373ffffffffffffffffffffffffffffffffffffffff167fdec2bacdd2f05b59de34da9b523dff8be42e5e38e818c82fdb0bae774387a72483836040516125b1929190613e32565b60405180910390a250505b5b505050565b5f815f01805490509050919050565b5f63ffffffff8016821115612620576020826040517f6dfcc650000000000000000000000000000000000000000000000000000000008152600401612617929190614198565b60405180910390fd5b819050919050565b5f60075f8373ffffffffffffffffffffffffffffffffffffffff1673ffffffffffffffffffffffffffffffffffffffff1681526020019081526020015f20549050919050565b606060ff5f1b831461268a5761268383612ce1565b9050612715565b81805461269690613dae565b80601f01602080910402602001604051908101604052809291908181526020018280546126c290613dae565b801561270d5780601f106126e45761010080835404028352916020019161270d565b820191905f5260205f20905b8154815290600101906020018083116126f057829003601f168201915b505050505090505b92915050565b5f6040517f190100000000000000000000000000000000000000000000000000000000000081528360028201528260228201526042812091505092915050565b5f5f5f7f7fffffffffffffffffffffffffffffff5d576e7357a4501ddfe92f46681b20a0845f1c1115612797575f600385925092509250612838565b5f6001888888886040515f81526020016040526040516127ba94939291906141bf565b6020604051602081039080840390855afa1580156127da573d5f5f3e3d5ffd5b5050506020604051035190505f73ffffffffffffffffffffffffffffffffffffffff168173ffffffffffffffffffffffffffffffffffffffff160361282b575f60015f5f1b93509350935050612838565b805f5f5f1b935093509350505b9450945094915050565b5f600381111561285557612854614202565b5b82600381111561286857612867614202565b5b03156129a0576001600381111561288257612881614202565b5b82600381111561289557612894614202565b5b036128cc576040517ff645eedf00000000000000000000000000000000000000000000000000000000815260040160405180910390fd5b600260038111156128e0576128df614202565b5b8260038111156128f3576128f2614202565b5b0361293757805f1c6040517ffce698f700000000000000000000000000000000000000000000000000000000815260040161292e9190613523565b60405180910390fd5b60038081111561294a57612949614202565b5b82600381111561295d5761295c614202565b5b0361299f57806040517fd78bce0c000000000000000000000000000000000000000000000000000000008152600401612996919061374b565b60405180910390fd5b5b5050565b6129ac613418565b825f018263ffffffff16815481106129c7576129c661422f565b5b905f5260205f20016040518060400160405290815f82015f9054906101000a900465ffffffffffff1665ffffffffffff1665ffffffffffff1681526020015f820160069054906101000a900479ffffffffffffffffffffffffffffffffffffffffffffffffffff1679ffffffffffffffffffffffffffffffffffffffffffffffffffff1679ffffffffffffffffffffffffffffffffffffffffffffffffffff1681525050905092915050565b612a7e838383612d53565b5f73ffffffffffffffffffffffffffffffffffffffff168373ffffffffffffffffffffffffffffffffffffffff1603612b11575f612aba6108f0565b90505f612ac5612f6c565b905080821115612b0e5781816040517f1cb15d26000000000000000000000000000000000000000000000000000000008152600401612b05929190613e32565b60405180910390fd5b50505b612b1c838383612f8f565b505050565b5f5f5f90505f608084901c1115612b4057608083901c92506080810190505b5f604084901c1115612b5a57604083901c92506040810190505b5f602084901c1115612b7457602083901c92506020810190505b5f601084901c1115612b8e57601083901c92506010810190505b5f600884901c1115612ba857600883901c92506008810190505b5f600484901c1115612bc257600483901c92506004810190505b5f600284901c1115612bdc57600283901c92506002810190505b5f600184901c1115612bef576001810190505b80915050919050565b5f818310612c065781612c08565b825b905092915050565b5f6002828418612c209190613d51565b828416612c2d9190613e59565b905092915050565b5f79ffffffffffffffffffffffffffffffffffffffffffffffffffff8016821115612c9a5760d0826040517f6dfcc650000000000000000000000000000000000000000000000000000000008152600401612c91929190614295565b60405180910390fd5b819050919050565b5f5f612cd5612caf610e29565b612cc5612cbb88611cce565b868863ffffffff16565b876130479092919063ffffffff16565b91509150935093915050565b60605f612ced83613062565b90505f602067ffffffffffffffff811115612d0b57612d0a613e05565b5b6040519080825280601f01601f191660200182016040528015612d3d5781602001600182028036833780820191505090505b5090508181528360208201528092505050919050565b5f73ffffffffffffffffffffffffffffffffffffffff168373ffffffffffffffffffffffffffffffffffffffff1603612da3578060025f828254612d979190613e59565b92505081905550612e71565b5f5f5f8573ffffffffffffffffffffffffffffffffffffffff1673ffffffffffffffffffffffffffffffffffffffff1681526020019081526020015f2054905081811015612e2c578381836040517fe450d38c000000000000000000000000000000000000000000000000000000008152600401612e2393929190613fef565b60405180910390fd5b8181035f5f8673ffffffffffffffffffffffffffffffffffffffff1673ffffffffffffffffffffffffffffffffffffffff1681526020019081526020015f2081905550505b5f73ffffffffffffffffffffffffffffffffffffffff168273ffffffffffffffffffffffffffffffffffffffff1603612eb8578060025f8282540392505081905550612f02565b805f5f8473ffffffffffffffffffffffffffffffffffffffff1673ffffffffffffffffffffffffffffffffffffffff1681526020019081526020015f205f82825401925050819055505b8173ffffffffffffffffffffffffffffffffffffffff168373ffffffffffffffffffffffffffffffffffffffff167fddf252ad1be2c89b69c2b068fc378daa952ba7f163c4a11628f55a4df523b3ef83604051612f5f9190613523565b60405180910390a3505050565b5f79ffffffffffffffffffffffffffffffffffffffffffffffffffff8016905090565b5f73ffffffffffffffffffffffffffffffffffffffff168373ffffffffffffffffffffffffffffffffffffffff1603612fdb57612fd8600a6114be612fd384612c35565b612ca2565b50505b5f73ffffffffffffffffffffffffffffffffffffffff168273ffffffffffffffffffffffffffffffffffffffff160361302757613024600a6114d361301f84612c35565b612ca2565b50505b61304261303384610ba1565b61303c84610ba1565b83612352565b505050565b5f5f613056855f0185856130b0565b91509150935093915050565b5f5f60ff835f1c169050601f8111156130a7576040517fb3512b0c00000000000000000000000000000000000000000000000000000000815260040160405180910390fd5b80915050919050565b5f5f5f858054905090505f811115613330575f6130d9876001846130d4919061408d565b6122ba565b6040518060400160405290815f82015f9054906101000a900465ffffffffffff1665ffffffffffff1665ffffffffffff1681526020015f820160069054906101000a900479ffffffffffffffffffffffffffffffffffffffffffffffffffff1679ffffffffffffffffffffffffffffffffffffffffffffffffffff1679ffffffffffffffffffffffffffffffffffffffffffffffffffff168152505090508565ffffffffffff16815f015165ffffffffffff1611156131c4576040517f2520601d00000000000000000000000000000000000000000000000000000000815260040160405180910390fd5b8565ffffffffffff16815f015165ffffffffffff160361324657846131f5886001856131f0919061408d565b6122ba565b5f0160066101000a81548179ffffffffffffffffffffffffffffffffffffffffffffffffffff021916908379ffffffffffffffffffffffffffffffffffffffffffffffffffff16021790555061331f565b8660405180604001604052808865ffffffffffff1681526020018779ffffffffffffffffffffffffffffffffffffffffffffffffffff16815250908060018154018082558091505060019003905f5260205f20015f909190919091505f820151815f015f6101000a81548165ffffffffffff021916908365ffffffffffff1602179055506020820151815f0160066101000a81548179ffffffffffffffffffffffffffffffffffffffffffffffffffff021916908379ffffffffffffffffffffffffffffffffffffffffffffffffffff16021790555050505b806020015185935093505050613410565b8560405180604001604052808765ffffffffffff1681526020018679ffffffffffffffffffffffffffffffffffffffffffffffffffff16815250908060018154018082558091505060019003905f5260205f20015f909190919091505f820151815f015f6101000a81548165ffffffffffff021916908365ffffffffffff1602179055506020820151815f0160066101000a81548179ffffffffffffffffffffffffffffffffffffffffffffffffffff021916908379ffffffffffffffffffffffffffffffffffffffffffffffffffff16021790555050505f8492509250505b935093915050565b60405180604001604052805f65ffffffffffff1681526020015f79ffffffffffffffffffffffffffffffffffffffffffffffffffff1681525090565b5f5ffd5b5f7fffffffff0000000000000000000000000000000000000000000000000000000082169050919050565b61348c81613458565b8114613496575f5ffd5b50565b5f813590506134a781613483565b92915050565b5f602082840312156134c2576134c1613454565b5b5f6134cf84828501613499565b91505092915050565b5f8115159050919050565b6134ec816134d8565b82525050565b5f6020820190506135055f8301846134e3565b92915050565b5f819050919050565b61351d8161350b565b82525050565b5f6020820190506135365f830184613514565b92915050565b5f81519050919050565b5f82825260208201905092915050565b8281835e5f83830152505050565b5f601f19601f8301169050919050565b5f61357e8261353c565b6135888185613546565b9350613598818560208601613556565b6135a181613564565b840191505092915050565b5f6020820190508181035f8301526135c48184613574565b905092915050565b5f73ffffffffffffffffffffffffffffffffffffffff82169050919050565b5f6135f5826135cc565b9050919050565b613605816135eb565b811461360f575f5ffd5b50565b5f81359050613620816135fc565b92915050565b61362f8161350b565b8114613639575f5ffd5b50565b5f8135905061364a81613626565b92915050565b5f5f6040838503121561366657613665613454565b5b5f61367385828601613612565b92505060206136848582860161363c565b9150509250929050565b5f5f5f606084860312156136a5576136a4613454565b5b5f6136b286828701613612565b93505060206136c386828701613612565b92505060406136d48682870161363c565b9150509250925092565b5f819050919050565b6136f0816136de565b81146136fa575f5ffd5b50565b5f8135905061370b816136e7565b92915050565b5f6020828403121561372657613725613454565b5b5f613733848285016136fd565b91505092915050565b613745816136de565b82525050565b5f60208201905061375e5f83018461373c565b92915050565b5f5f6040838503121561377a57613779613454565b5b5f613787858286016136fd565b925050602061379885828601613612565b9150509250929050565b5f60ff82169050919050565b6137b7816137a2565b82525050565b5f6020820190506137d05f8301846137ae565b92915050565b5f602082840312156137eb576137ea613454565b5b5f6137f884828501613612565b91505092915050565b61380a816135eb565b82525050565b5f6020820190506138235f830184613801565b92915050565b5f63ffffffff82169050919050565b61384181613829565b82525050565b5f60208201905061385a5f830184613838565b92915050565b5f7fff0000000000000000000000000000000000000000000000000000000000000082169050919050565b61389481613860565b82525050565b5f81519050919050565b5f82825260208201905092915050565b5f819050602082019050919050565b6138cc8161350b565b82525050565b5f6138dd83836138c3565b60208301905092915050565b5f602082019050919050565b5f6138ff8261389a565b61390981856138a4565b9350613914836138b4565b805f5b8381101561394457815161392b88826138d2565b9750613936836138e9565b925050600181019050613917565b5085935050505092915050565b5f60e0820190506139645f83018a61388b565b81810360208301526139768189613574565b9050818103604083015261398a8188613574565b90506139996060830187613514565b6139a66080830186613801565b6139b360a083018561373c565b81810360c08301526139c581846138f5565b905098975050505050505050565b5f602082840312156139e8576139e7613454565b5b5f6139f58482850161363c565b91505092915050565b5f65ffffffffffff82169050919050565b613a18816139fe565b82525050565b5f602082019050613a315f830184613a0f565b92915050565b613a40816137a2565b8114613a4a575f5ffd5b50565b5f81359050613a5b81613a37565b92915050565b5f5f5f5f5f5f60c08789031215613a7b57613a7a613454565b5b5f613a8889828a01613612565b9650506020613a9989828a0161363c565b9550506040613aaa89828a0161363c565b9450506060613abb89828a01613a4d565b9350506080613acc89828a016136fd565b92505060a0613add89828a016136fd565b9150509295509295509295565b5f5f5f5f5f5f5f60e0888a031215613b0557613b04613454565b5b5f613b128a828b01613612565b9750506020613b238a828b01613612565b9650506040613b348a828b0161363c565b9550506060613b458a828b0161363c565b9450506080613b568a828b01613a4d565b93505060a0613b678a828b016136fd565b92505060c0613b788a828b016136fd565b91505092959891949750929550565b5f5f60408385031215613b9d57613b9c613454565b5b5f613baa85828601613612565b9250506020613bbb85828601613612565b9150509250929050565b613bce81613829565b8114613bd8575f5ffd5b50565b5f81359050613be981613bc5565b92915050565b5f5f60408385031215613c0557613c04613454565b5b5f613c1285828601613612565b9250506020613c2385828601613bdb565b9150509250929050565b613c36816139fe565b82525050565b5f79ffffffffffffffffffffffffffffffffffffffffffffffffffff82169050919050565b613c6a81613c3c565b82525050565b604082015f820151613c845f850182613c2d565b506020820151613c976020850182613c61565b50505050565b5f604082019050613cb05f830184613c70565b92915050565b7f4e487b71000000000000000000000000000000000000000000000000000000005f52601160045260245ffd5b5f613ced8261350b565b9150613cf88361350b565b9250828202613d068161350b565b91508282048414831517613d1d57613d1c613cb6565b5b5092915050565b7f4e487b71000000000000000000000000000000000000000000000000000000005f52601260045260245ffd5b5f613d5b8261350b565b9150613d668361350b565b925082613d7657613d75613d24565b5b828204905092915050565b7f4e487b71000000000000000000000000000000000000000000000000000000005f52602260045260245ffd5b5f6002820490506001821680613dc557607f821691505b602082108103613dd857613dd7613d81565b5b50919050565b5f604082019050613df15f830185613514565b613dfe6020830184613a0f565b9392505050565b7f4e487b71000000000000000000000000000000000000000000000000000000005f52604160045260245ffd5b5f604082019050613e455f830185613514565b613e526020830184613514565b9392505050565b5f613e638261350b565b9150613e6e8361350b565b9250828201905080821115613e8657613e85613cb6565b5b92915050565b5f608082019050613e9f5f83018761373c565b613eac6020830186613801565b613eb96040830185613514565b613ec66060830184613514565b95945050505050565b5f60c082019050613ee25f83018961373c565b613eef6020830188613801565b613efc6040830187613801565b613f096060830186613514565b613f166080830185613514565b613f2360a0830184613514565b979650505050505050565b5f604082019050613f415f830185613801565b613f4e6020830184613801565b9392505050565b5f613f5f82613c3c565b9150613f6a83613c3c565b9250828201905079ffffffffffffffffffffffffffffffffffffffffffffffffffff811115613f9c57613f9b613cb6565b5b92915050565b5f613fac82613c3c565b9150613fb783613c3c565b9250828203905079ffffffffffffffffffffffffffffffffffffffffffffffffffff811115613fe957613fe8613cb6565b5b92915050565b5f6060820190506140025f830186613801565b61400f6020830185613514565b61401c6040830184613514565b949350505050565b5f819050919050565b5f819050919050565b5f61405061404b61404684614024565b61402d565b6137a2565b9050919050565b61406081614036565b82525050565b5f6040820190506140795f830185614057565b6140866020830184613514565b9392505050565b5f6140978261350b565b91506140a28361350b565b92508282039050818111156140ba576140b9613cb6565b5b92915050565b5f6040820190506140d35f830185613801565b6140e06020830184613514565b9392505050565b5f6040820190506140fa5f830185613801565b614107602083018461373c565b9392505050565b5f60a0820190506141215f83018861373c565b61412e602083018761373c565b61413b604083018661373c565b6141486060830185613514565b6141556080830184613801565b9695505050505050565b5f819050919050565b5f61418261417d6141788461415f565b61402d565b6137a2565b9050919050565b61419281614168565b82525050565b5f6040820190506141ab5f830185614189565b6141b86020830184613514565b9392505050565b5f6080820190506141d25f83018761373c565b6141df60208301866137ae565b6141ec604083018561373c565b6141f9606083018461373c565b95945050505050565b7f4e487b71000000000000000000000000000000000000000000000000000000005f52602160045260245ffd5b7f4e487b71000000000000000000000000000000000000000000000000000000005f52603260045260245ffd5b5f819050919050565b5f61427f61427a6142758461425c565b61402d565b6137a2565b9050919050565b61428f81614265565b82525050565b5f6040820190506142a85f830185614286565b6142b56020830184613514565b939250505056fea264697066735822122056823ecb561c0202797f29b048a93498f97e81d45b22270f2bc1f7e06b35a84e64736f6c63430008230033","linkReferences":{}},"methodIdentifiers":{"BURN_ROUTER_ROLE()":"31860603","CLOCK_MODE()":"4bf5d7e9","DEFAULT_ADMIN_ROLE()":"a217fddf","DOMAIN_SEPARATOR()":"3644e515","MAX_SUPPLY()":"32cb6b0c","allowance(address,address)":"dd62ed3e","approve(address,uint256)":"095ea7b3","balanceOf(address)":"70a08231","burn(address,uint256)":"9dc29fac","burnSelf(uint256)":"b8b12a1e","burnedBps()":"043db2b5","checkpoints(address,uint32)":"f1127ed8","circulatingSupply()":"9358928b","clock()":"91ddadf4","decimals()":"313ce567","delegate(address)":"5c19a95c","delegateBySig(address,uint256,uint256,uint8,bytes32,bytes32)":"c3cda520","delegates(address)":"587cde1e","eip712Domain()":"84b0196e","getPastTotalSupply(uint256)":"8e539e8c","getPastVotes(address,uint256)":"3a46b1a8","getRoleAdmin(bytes32)":"248a9ca3","getVotes(address)":"9ab24eb0","grantRole(bytes32,address)":"2f2ff15d","hasRole(bytes32,address)":"91d14854","name()":"06fdde03","nonces(address)":"7ecebe00","numCheckpoints(address)":"6fcfff45","permit(address,address,uint256,uint256,uint8,bytes32,bytes32)":"d505accf","renounceRole(bytes32,address)":"36568abe","revokeRole(bytes32,address)":"d547741f","selfDelegate()":"3f0a52ff","supportsInterface(bytes4)":"01ffc9a7","symbol()":"95d89b41","totalBurned()":"d89135cd","totalSupply()":"18160ddd","transfer(address,uint256)":"a9059cbb","transferFrom(address,address,uint256)":"23b872dd"},"id":68}