{"abi":[{"type":"constructor","inputs":[{"name":"_usdc","type":"address","internalType":"address"},{"name":"_oracle","type":"address","internalType":"address"},{"name":"_timeNFT","type":"address","internalType":"address"},{"name":"_burnRouter","type":"address","internalType":"address"},{"name":"_treasury","type":"address","internalType":"address"},{"name":"_dao","type":"address","internalType":"address"},{"name":"_guardian","type":"address","internalType":"address"}],"stateMutability":"nonpayable"},{"type":"function","name":"BPS","inputs":[],"outputs":[{"name":"","type":"uint256","internalType":"uint256"}],"stateMutability":"view"},{"type":"function","name":"DAO_ROLE","inputs":[],"outputs":[{"name":"","type":"bytes32","internalType":"bytes32"}],"stateMutability":"view"},{"type":"function","name":"DAYS_PER_YEAR","inputs":[],"outputs":[{"name":"","type":"uint256","internalType":"uint256"}],"stateMutability":"view"},{"type":"function","name":"DEFAULT_ADMIN_ROLE","inputs":[],"outputs":[{"name":"","type":"bytes32","internalType":"bytes32"}],"stateMutability":"view"},{"type":"function","name":"FEE_BURN_SPLIT","inputs":[],"outputs":[{"name":"","type":"uint256","internalType":"uint256"}],"stateMutability":"view"},{"type":"function","name":"FEE_TREASURY_SPLIT","inputs":[],"outputs":[{"name":"","type":"uint256","internalType":"uint256"}],"stateMutability":"view"},{"type":"function","name":"MAX_LOCK","inputs":[],"outputs":[{"name":"","type":"uint256","internalType":"uint256"}],"stateMutability":"view"},{"type":"function","name":"MIN_DEPOSIT","inputs":[],"outputs":[{"name":"","type":"uint256","internalType":"uint256"}],"stateMutability":"view"},{"type":"function","name":"MIN_LOCK","inputs":[],"outputs":[{"name":"","type":"uint256","internalType":"uint256"}],"stateMutability":"view"},{"type":"function","name":"PAUSER_ROLE","inputs":[],"outputs":[{"name":"","type":"bytes32","internalType":"bytes32"}],"stateMutability":"view"},{"type":"function","name":"REDEMPTION_FEE","inputs":[],"outputs":[{"name":"","type":"uint256","internalType":"uint256"}],"stateMutability":"view"},{"type":"function","name":"allowance","inputs":[{"name":"owner","type":"address","internalType":"address"},{"name":"spender","type":"address","internalType":"address"}],"outputs":[{"name":"","type":"uint256","internalType":"uint256"}],"stateMutability":"view"},{"type":"function","name":"approve","inputs":[{"name":"spender","type":"address","internalType":"address"},{"name":"value","type":"uint256","internalType":"uint256"}],"outputs":[{"name":"","type":"bool","internalType":"bool"}],"stateMutability":"nonpayable"},{"type":"function","name":"asset","inputs":[],"outputs":[{"name":"","type":"address","internalType":"address"}],"stateMutability":"view"},{"type":"function","name":"balanceOf","inputs":[{"name":"account","type":"address","internalType":"address"}],"outputs":[{"name":"","type":"uint256","internalType":"uint256"}],"stateMutability":"view"},{"type":"function","name":"burnRouter","inputs":[],"outputs":[{"name":"","type":"address","internalType":"contract IBurnRouter"}],"stateMutability":"view"},{"type":"function","name":"convertToAssets","inputs":[{"name":"shares","type":"uint256","internalType":"uint256"}],"outputs":[{"name":"","type":"uint256","internalType":"uint256"}],"stateMutability":"view"},{"type":"function","name":"convertToShares","inputs":[{"name":"assets","type":"uint256","internalType":"uint256"}],"outputs":[{"name":"","type":"uint256","internalType":"uint256"}],"stateMutability":"view"},{"type":"function","name":"decimals","inputs":[],"outputs":[{"name":"","type":"uint8","internalType":"uint8"}],"stateMutability":"view"},{"type":"function","name":"deposit","inputs":[{"name":"","type":"uint256","internalType":"uint256"},{"name":"","type":"address","internalType":"address"}],"outputs":[{"name":"","type":"uint256","internalType":"uint256"}],"stateMutability":"pure"},{"type":"function","name":"depositAndMintNFT","inputs":[{"name":"assets","type":"uint256","internalType":"uint256"},{"name":"nftRecipient","type":"address","internalType":"address"},{"name":"lockDuration","type":"uint256","internalType":"uint256"}],"outputs":[{"name":"tokenId","type":"uint256","internalType":"uint256"},{"name":"timeValue","type":"uint256","internalType":"uint256"}],"stateMutability":"nonpayable"},{"type":"function","name":"getRoleAdmin","inputs":[{"name":"role","type":"bytes32","internalType":"bytes32"}],"outputs":[{"name":"","type":"bytes32","internalType":"bytes32"}],"stateMutability":"view"},{"type":"function","name":"grantRole","inputs":[{"name":"role","type":"bytes32","internalType":"bytes32"},{"name":"account","type":"address","internalType":"address"}],"outputs":[],"stateMutability":"nonpayable"},{"type":"function","name":"hasRole","inputs":[{"name":"role","type":"bytes32","internalType":"bytes32"},{"name":"account","type":"address","internalType":"address"}],"outputs":[{"name":"","type":"bool","internalType":"bool"}],"stateMutability":"view"},{"type":"function","name":"maxDeposit","inputs":[{"name":"","type":"address","internalType":"address"}],"outputs":[{"name":"","type":"uint256","internalType":"uint256"}],"stateMutability":"view"},{"type":"function","name":"maxMint","inputs":[{"name":"","type":"address","internalType":"address"}],"outputs":[{"name":"","type":"uint256","internalType":"uint256"}],"stateMutability":"view"},{"type":"function","name":"maxRedeem","inputs":[{"name":"owner","type":"address","internalType":"address"}],"outputs":[{"name":"","type":"uint256","internalType":"uint256"}],"stateMutability":"view"},{"type":"function","name":"maxWithdraw","inputs":[{"name":"owner","type":"address","internalType":"address"}],"outputs":[{"name":"","type":"uint256","internalType":"uint256"}],"stateMutability":"view"},{"type":"function","name":"mint","inputs":[{"name":"","type":"uint256","internalType":"uint256"},{"name":"","type":"address","internalType":"address"}],"outputs":[{"name":"","type":"uint256","internalType":"uint256"}],"stateMutability":"pure"},{"type":"function","name":"name","inputs":[],"outputs":[{"name":"","type":"string","internalType":"string"}],"stateMutability":"view"},{"type":"function","name":"oracle","inputs":[],"outputs":[{"name":"","type":"address","internalType":"contract ITempoOracle"}],"stateMutability":"view"},{"type":"function","name":"pause","inputs":[],"outputs":[],"stateMutability":"nonpayable"},{"type":"function","name":"paused","inputs":[],"outputs":[{"name":"","type":"bool","internalType":"bool"}],"stateMutability":"view"},{"type":"function","name":"positionAssets","inputs":[{"name":"","type":"uint256","internalType":"uint256"}],"outputs":[{"name":"","type":"uint256","internalType":"uint256"}],"stateMutability":"view"},{"type":"function","name":"positionShares","inputs":[{"name":"","type":"uint256","internalType":"uint256"}],"outputs":[{"name":"","type":"uint256","internalType":"uint256"}],"stateMutability":"view"},{"type":"function","name":"previewDeposit","inputs":[{"name":"assets","type":"uint256","internalType":"uint256"},{"name":"lockDuration","type":"uint256","internalType":"uint256"}],"outputs":[{"name":"timeValue","type":"uint256","internalType":"uint256"},{"name":"inflationBps","type":"uint256","internalType":"uint256"}],"stateMutability":"view"},{"type":"function","name":"previewDeposit","inputs":[{"name":"assets","type":"uint256","internalType":"uint256"}],"outputs":[{"name":"","type":"uint256","internalType":"uint256"}],"stateMutability":"view"},{"type":"function","name":"previewMint","inputs":[{"name":"shares","type":"uint256","internalType":"uint256"}],"outputs":[{"name":"","type":"uint256","internalType":"uint256"}],"stateMutability":"view"},{"type":"function","name":"previewPositionValue","inputs":[{"name":"tokenId","type":"uint256","internalType":"uint256"}],"outputs":[{"name":"grossAssets","type":"uint256","internalType":"uint256"},{"name":"netAssets","type":"uint256","internalType":"uint256"},{"name":"fee","type":"uint256","internalType":"uint256"}],"stateMutability":"view"},{"type":"function","name":"previewRedeem","inputs":[{"name":"shares","type":"uint256","internalType":"uint256"}],"outputs":[{"name":"","type":"uint256","internalType":"uint256"}],"stateMutability":"view"},{"type":"function","name":"previewWithdraw","inputs":[{"name":"assets","type":"uint256","internalType":"uint256"}],"outputs":[{"name":"","type":"uint256","internalType":"uint256"}],"stateMutability":"view"},{"type":"function","name":"redeem","inputs":[{"name":"","type":"uint256","internalType":"uint256"},{"name":"","type":"address","internalType":"address"},{"name":"","type":"address","internalType":"address"}],"outputs":[{"name":"","type":"uint256","internalType":"uint256"}],"stateMutability":"pure"},{"type":"function","name":"redeemPosition","inputs":[{"name":"tokenId","type":"uint256","internalType":"uint256"}],"outputs":[{"name":"assetsOut","type":"uint256","internalType":"uint256"}],"stateMutability":"nonpayable"},{"type":"function","name":"renounceRole","inputs":[{"name":"role","type":"bytes32","internalType":"bytes32"},{"name":"callerConfirmation","type":"address","internalType":"address"}],"outputs":[],"stateMutability":"nonpayable"},{"type":"function","name":"revokeRole","inputs":[{"name":"role","type":"bytes32","internalType":"bytes32"},{"name":"account","type":"address","internalType":"address"}],"outputs":[],"stateMutability":"nonpayable"},{"type":"function","name":"setTvlCap","inputs":[{"name":"newCap","type":"uint256","internalType":"uint256"}],"outputs":[],"stateMutability":"nonpayable"},{"type":"function","name":"supportsInterface","inputs":[{"name":"interfaceId","type":"bytes4","internalType":"bytes4"}],"outputs":[{"name":"","type":"bool","internalType":"bool"}],"stateMutability":"view"},{"type":"function","name":"symbol","inputs":[],"outputs":[{"name":"","type":"string","internalType":"string"}],"stateMutability":"view"},{"type":"function","name":"timeNFT","inputs":[],"outputs":[{"name":"","type":"address","internalType":"contract ITimeNFT"}],"stateMutability":"view"},{"type":"function","name":"totalAssets","inputs":[],"outputs":[{"name":"","type":"uint256","internalType":"uint256"}],"stateMutability":"view"},{"type":"function","name":"totalDeposited","inputs":[],"outputs":[{"name":"","type":"uint128","internalType":"uint128"}],"stateMutability":"view"},{"type":"function","name":"totalFeesRouted","inputs":[],"outputs":[{"name":"","type":"uint128","internalType":"uint128"}],"stateMutability":"view"},{"type":"function","name":"totalPositions","inputs":[],"outputs":[{"name":"","type":"uint32","internalType":"uint32"}],"stateMutability":"view"},{"type":"function","name":"totalRedeemed","inputs":[],"outputs":[{"name":"","type":"uint128","internalType":"uint128"}],"stateMutability":"view"},{"type":"function","name":"totalSupply","inputs":[],"outputs":[{"name":"","type":"uint256","internalType":"uint256"}],"stateMutability":"view"},{"type":"function","name":"transfer","inputs":[{"name":"to","type":"address","internalType":"address"},{"name":"value","type":"uint256","internalType":"uint256"}],"outputs":[{"name":"","type":"bool","internalType":"bool"}],"stateMutability":"nonpayable"},{"type":"function","name":"transferFrom","inputs":[{"name":"from","type":"address","internalType":"address"},{"name":"to","type":"address","internalType":"address"},{"name":"value","type":"uint256","internalType":"uint256"}],"outputs":[{"name":"","type":"bool","internalType":"bool"}],"stateMutability":"nonpayable"},{"type":"function","name":"treasury","inputs":[],"outputs":[{"name":"","type":"address","internalType":"address"}],"stateMutability":"view"},{"type":"function","name":"tvl","inputs":[],"outputs":[{"name":"","type":"uint256","internalType":"uint256"}],"stateMutability":"view"},{"type":"function","name":"tvlCap","inputs":[],"outputs":[{"name":"","type":"uint256","internalType":"uint256"}],"stateMutability":"view"},{"type":"function","name":"unpause","inputs":[],"outputs":[],"stateMutability":"nonpayable"},{"type":"function","name":"usdc","inputs":[],"outputs":[{"name":"","type":"address","internalType":"contract IERC20"}],"stateMutability":"view"},{"type":"function","name":"utilizationBps","inputs":[],"outputs":[{"name":"","type":"uint256","internalType":"uint256"}],"stateMutability":"view"},{"type":"function","name":"withdraw","inputs":[{"name":"","type":"uint256","internalType":"uint256"},{"name":"","type":"address","internalType":"address"},{"name":"","type":"address","internalType":"address"}],"outputs":[{"name":"","type":"uint256","internalType":"uint256"}],"stateMutability":"pure"},{"type":"event","name":"Approval","inputs":[{"name":"owner","type":"address","indexed":true,"internalType":"address"},{"name":"spender","type":"address","indexed":true,"internalType":"address"},{"name":"value","type":"uint256","indexed":false,"internalType":"uint256"}],"anonymous":false},{"type":"event","name":"Deposit","inputs":[{"name":"sender","type":"address","indexed":true,"internalType":"address"},{"name":"owner","type":"address","indexed":true,"internalType":"address"},{"name":"assets","type":"uint256","indexed":false,"internalType":"uint256"},{"name":"shares","type":"uint256","indexed":false,"internalType":"uint256"}],"anonymous":false},{"type":"event","name":"Deposited","inputs":[{"name":"depositor","type":"address","indexed":true,"internalType":"address"},{"name":"nftRecipient","type":"address","indexed":true,"internalType":"address"},{"name":"tokenId","type":"uint256","indexed":false,"internalType":"uint256"},{"name":"assets","type":"uint256","indexed":false,"internalType":"uint256"},{"name":"lockDuration","type":"uint256","indexed":false,"internalType":"uint256"},{"name":"inflationBps","type":"uint256","indexed":false,"internalType":"uint256"},{"name":"timeValue","type":"uint256","indexed":false,"internalType":"uint256"},{"name":"maturesAt","type":"uint256","indexed":false,"internalType":"uint256"}],"anonymous":false},{"type":"event","name":"FeeRouted","inputs":[{"name":"burnRouterAmount","type":"uint256","indexed":false,"internalType":"uint256"},{"name":"treasuryAmount","type":"uint256","indexed":false,"internalType":"uint256"}],"anonymous":false},{"type":"event","name":"Paused","inputs":[{"name":"account","type":"address","indexed":false,"internalType":"address"}],"anonymous":false},{"type":"event","name":"Redeemed","inputs":[{"name":"redeemer","type":"address","indexed":true,"internalType":"address"},{"name":"tokenId","type":"uint256","indexed":false,"internalType":"uint256"},{"name":"assetsReturned","type":"uint256","indexed":false,"internalType":"uint256"},{"name":"feeToBurnRouter","type":"uint256","indexed":false,"internalType":"uint256"},{"name":"feeToTreasury","type":"uint256","indexed":false,"internalType":"uint256"},{"name":"yield","type":"uint256","indexed":false,"internalType":"uint256"}],"anonymous":false},{"type":"event","name":"RoleAdminChanged","inputs":[{"name":"role","type":"bytes32","indexed":true,"internalType":"bytes32"},{"name":"previousAdminRole","type":"bytes32","indexed":true,"internalType":"bytes32"},{"name":"newAdminRole","type":"bytes32","indexed":true,"internalType":"bytes32"}],"anonymous":false},{"type":"event","name":"RoleGranted","inputs":[{"name":"role","type":"bytes32","indexed":true,"internalType":"bytes32"},{"name":"account","type":"address","indexed":true,"internalType":"address"},{"name":"sender","type":"address","indexed":true,"internalType":"address"}],"anonymous":false},{"type":"event","name":"RoleRevoked","inputs":[{"name":"role","type":"bytes32","indexed":true,"internalType":"bytes32"},{"name":"account","type":"address","indexed":true,"internalType":"address"},{"name":"sender","type":"address","indexed":true,"internalType":"address"}],"anonymous":false},{"type":"event","name":"Transfer","inputs":[{"name":"from","type":"address","indexed":true,"internalType":"address"},{"name":"to","type":"address","indexed":true,"internalType":"address"},{"name":"value","type":"uint256","indexed":false,"internalType":"uint256"}],"anonymous":false},{"type":"event","name":"TvlCapUpdated","inputs":[{"name":"oldCap","type":"uint256","indexed":false,"internalType":"uint256"},{"name":"newCap","type":"uint256","indexed":false,"internalType":"uint256"}],"anonymous":false},{"type":"event","name":"Unpaused","inputs":[{"name":"account","type":"address","indexed":false,"internalType":"address"}],"anonymous":false},{"type":"event","name":"Withdraw","inputs":[{"name":"sender","type":"address","indexed":true,"internalType":"address"},{"name":"receiver","type":"address","indexed":true,"internalType":"address"},{"name":"owner","type":"address","indexed":true,"internalType":"address"},{"name":"assets","type":"uint256","indexed":false,"internalType":"uint256"},{"name":"shares","type":"uint256","indexed":false,"internalType":"uint256"}],"anonymous":false},{"type":"error","name":"AccessControlBadConfirmation","inputs":[]},{"type":"error","name":"AccessControlUnauthorizedAccount","inputs":[{"name":"account","type":"address","internalType":"address"},{"name":"neededRole","type":"bytes32","internalType":"bytes32"}]},{"type":"error","name":"AddressEmptyCode","inputs":[{"name":"target","type":"address","internalType":"address"}]},{"type":"error","name":"AddressInsufficientBalance","inputs":[{"name":"account","type":"address","internalType":"address"}]},{"type":"error","name":"DepositTooSmall","inputs":[{"name":"amount","type":"uint256","internalType":"uint256"},{"name":"min","type":"uint256","internalType":"uint256"}]},{"type":"error","name":"ERC20InsufficientAllowance","inputs":[{"name":"spender","type":"address","internalType":"address"},{"name":"allowance","type":"uint256","internalType":"uint256"},{"name":"needed","type":"uint256","internalType":"uint256"}]},{"type":"error","name":"ERC20InsufficientBalance","inputs":[{"name":"sender","type":"address","internalType":"address"},{"name":"balance","type":"uint256","internalType":"uint256"},{"name":"needed","type":"uint256","internalType":"uint256"}]},{"type":"error","name":"ERC20InvalidApprover","inputs":[{"name":"approver","type":"address","internalType":"address"}]},{"type":"error","name":"ERC20InvalidReceiver","inputs":[{"name":"receiver","type":"address","internalType":"address"}]},{"type":"error","name":"ERC20InvalidSender","inputs":[{"name":"sender","type":"address","internalType":"address"}]},{"type":"error","name":"ERC20InvalidSpender","inputs":[{"name":"spender","type":"address","internalType":"address"}]},{"type":"error","name":"ERC4626ExceededMaxDeposit","inputs":[{"name":"receiver","type":"address","internalType":"address"},{"name":"assets","type":"uint256","internalType":"uint256"},{"name":"max","type":"uint256","internalType":"uint256"}]},{"type":"error","name":"ERC4626ExceededMaxMint","inputs":[{"name":"receiver","type":"address","internalType":"address"},{"name":"shares","type":"uint256","internalType":"uint256"},{"name":"max","type":"uint256","internalType":"uint256"}]},{"type":"error","name":"ERC4626ExceededMaxRedeem","inputs":[{"name":"owner","type":"address","internalType":"address"},{"name":"shares","type":"uint256","internalType":"uint256"},{"name":"max","type":"uint256","internalType":"uint256"}]},{"type":"error","name":"ERC4626ExceededMaxWithdraw","inputs":[{"name":"owner","type":"address","internalType":"address"},{"name":"assets","type":"uint256","internalType":"uint256"},{"name":"max","type":"uint256","internalType":"uint256"}]},{"type":"error","name":"EnforcedPause","inputs":[]},{"type":"error","name":"ExpectedPause","inputs":[]},{"type":"error","name":"FailedInnerCall","inputs":[]},{"type":"error","name":"LockInvalid","inputs":[{"name":"duration","type":"uint256","internalType":"uint256"},{"name":"min","type":"uint256","internalType":"uint256"},{"name":"max","type":"uint256","internalType":"uint256"}]},{"type":"error","name":"MathOverflowedMulDiv","inputs":[]},{"type":"error","name":"NotMatured","inputs":[{"name":"tokenId","type":"uint256","internalType":"uint256"}]},{"type":"error","name":"NotNFTOwner","inputs":[{"name":"tokenId","type":"uint256","internalType":"uint256"},{"name":"caller","type":"address","internalType":"address"}]},{"type":"error","name":"OracleFrozen","inputs":[]},{"type":"error","name":"ReentrancyGuardReentrantCall","inputs":[]},{"type":"error","name":"SafeERC20FailedOperation","inputs":[{"name":"token","type":"address","internalType":"address"}]},{"type":"error","name":"TvlCapExceeded","inputs":[{"name":"newTotal","type":"uint256","internalType":"uint256"},{"name":"cap","type":"uint256","internalType":"uint256"}]},{"type":"error","name":"ZeroAssets","inputs":[]},{"type":"error","name":"ZeroShares","inputs":[{"name":"tokenId","type":"uint256","internalType":"uint256"}]}],"bytecode":{"object":"0x61016060405264746a528800600855348015610019575f5ffd5b50604051615a5e380380615a5e833981810160405281019061003b91906108a4565b866040518060400160405280601181526020017f54454d504f205661756c742053686172650000000000000000000000000000008152506040518060400160405280600681526020017f7654454d504f000000000000000000000000000000000000000000000000000081525081600390816100b79190610b8f565b5080600490816100c79190610b8f565b5050505f5f6100db836105dc60201b60201c565b91509150816100eb5760126100ed565b805b60ff1660a08160ff16815250508273ffffffffffffffffffffffffffffffffffffffff1660808173ffffffffffffffffffffffffffffffffffffffff168152505050505060016005819055505f60075f6101000a81548160ff0219169083151502179055505f73ffffffffffffffffffffffffffffffffffffffff168773ffffffffffffffffffffffffffffffffffffffff16036101c0576040517f08c379a00000000000000000000000000000000000000000000000000000000081526004016101b790610cb8565b60405180910390fd5b5f73ffffffffffffffffffffffffffffffffffffffff168673ffffffffffffffffffffffffffffffffffffffff160361022e576040517f08c379a000000000000000000000000000000000000000000000000000000000815260040161022590610d20565b60405180910390fd5b5f73ffffffffffffffffffffffffffffffffffffffff168573ffffffffffffffffffffffffffffffffffffffff160361029c576040517f08c379a000000000000000000000000000000000000000000000000000000000815260040161029390610d88565b60405180910390fd5b5f73ffffffffffffffffffffffffffffffffffffffff168473ffffffffffffffffffffffffffffffffffffffff160361030a576040517f08c379a000000000000000000000000000000000000000000000000000000000815260040161030190610df0565b60405180910390fd5b5f73ffffffffffffffffffffffffffffffffffffffff168373ffffffffffffffffffffffffffffffffffffffff1603610378576040517f08c379a000000000000000000000000000000000000000000000000000000000815260040161036f90610e58565b60405180910390fd5b5f73ffffffffffffffffffffffffffffffffffffffff168273ffffffffffffffffffffffffffffffffffffffff16036103e6576040517f08c379a00000000000000000000000000000000000000000000000000000000081526004016103dd90610ec0565b60405180910390fd5b5f73ffffffffffffffffffffffffffffffffffffffff168173ffffffffffffffffffffffffffffffffffffffff1603610454576040517f08c379a000000000000000000000000000000000000000000000000000000000815260040161044b90610f28565b60405180910390fd5b8673ffffffffffffffffffffffffffffffffffffffff166101208173ffffffffffffffffffffffffffffffffffffffff16815250508573ffffffffffffffffffffffffffffffffffffffff1660c08173ffffffffffffffffffffffffffffffffffffffff16815250508473ffffffffffffffffffffffffffffffffffffffff1660e08173ffffffffffffffffffffffffffffffffffffffff16815250508373ffffffffffffffffffffffffffffffffffffffff166101008173ffffffffffffffffffffffffffffffffffffffff16815250508273ffffffffffffffffffffffffffffffffffffffff166101408173ffffffffffffffffffffffffffffffffffffffff168152505061056d5f5f1b836106e560201b60201c565b5061059e7f3b5d4cc60d3ec3516ee8ae083bd60934f6eb2a6c54b1229985c41bfb092b2603836106e560201b60201c565b506105cf7f65d7a28e3265b37a6474929f336521b332c1681b933f6cb9f3376673440d862a826106e560201b60201c565b5050505050505050611003565b5f5f5f5f8473ffffffffffffffffffffffffffffffffffffffff1660405160240160405160208183030381529060405263313ce56760e01b6020820180517bffffffffffffffffffffffffffffffffffffffffffffffffffffffff838183161783525050505060405161064f9190610f98565b5f60405180830381855afa9150503d805f8114610687576040519150601f19603f3d011682016040523d82523d5f602084013e61068c565b606091505b50915091508180156106a057506020815110155b156106d7575f818060200190518101906106ba9190610fd8565b905060ff801681116106d557600181945094505050506106e0565b505b5f5f9350935050505b915091565b5f6106f683836107db60201b60201c565b6107d157600160065f8581526020019081526020015f205f015f8473ffffffffffffffffffffffffffffffffffffffff1673ffffffffffffffffffffffffffffffffffffffff1681526020019081526020015f205f6101000a81548160ff02191690831515021790555061076e61083f60201b60201c565b73ffffffffffffffffffffffffffffffffffffffff168273ffffffffffffffffffffffffffffffffffffffff16847f2f8788117e7eff1d82e926ec794901d17c78024a50270940304540a733656f0d60405160405180910390a4600190506107d5565b5f90505b92915050565b5f60065f8481526020019081526020015f205f015f8373ffffffffffffffffffffffffffffffffffffffff1673ffffffffffffffffffffffffffffffffffffffff1681526020019081526020015f205f9054906101000a900460ff16905092915050565b5f33905090565b5f5ffd5b5f73ffffffffffffffffffffffffffffffffffffffff82169050919050565b5f6108738261084a565b9050919050565b61088381610869565b811461088d575f5ffd5b50565b5f8151905061089e8161087a565b92915050565b5f5f5f5f5f5f5f60e0888a0312156108bf576108be610846565b5b5f6108cc8a828b01610890565b97505060206108dd8a828b01610890565b96505060406108ee8a828b01610890565b95505060606108ff8a828b01610890565b94505060806109108a828b01610890565b93505060a06109218a828b01610890565b92505060c06109328a828b01610890565b91505092959891949750929550565b5f81519050919050565b7f4e487b71000000000000000000000000000000000000000000000000000000005f52604160045260245ffd5b7f4e487b71000000000000000000000000000000000000000000000000000000005f52602260045260245ffd5b5f60028204905060018216806109bc57607f821691505b6020821081036109cf576109ce610978565b5b50919050565b5f819050815f5260205f209050919050565b5f6020601f8301049050919050565b5f82821b905092915050565b5f60088302610a317fffffffffffffffffffffffffffffffffffffffffffffffffffffffffffffffff826109f6565b610a3b86836109f6565b95508019841693508086168417925050509392505050565b5f819050919050565b5f819050919050565b5f610a7f610a7a610a7584610a53565b610a5c565b610a53565b9050919050565b5f819050919050565b610a9883610a65565b610aac610aa482610a86565b848454610a02565b825550505050565b5f5f905090565b610ac3610ab4565b610ace818484610a8f565b505050565b5f5b82811015610af457610ae95f828401610abb565b600181019050610ad5565b505050565b601f821115610b475782821115610b4657610b13816109d5565b610b1c836109e7565b610b25856109e7565b6020861015610b32575f90505b808301610b4182840382610ad3565b505050505b5b505050565b5f82821c905092915050565b5f610b675f1984600802610b4c565b1980831691505092915050565b5f610b7f8383610b58565b9150826002028217905092915050565b610b9882610941565b67ffffffffffffffff811115610bb157610bb061094b565b5b610bbb82546109a5565b610bc6828285610af9565b5f60209050601f831160018114610bf7575f8415610be5578287015190505b610bef8582610b74565b865550610c56565b601f198416610c05866109d5565b5f5b82811015610c2c57848901518255600182019150602085019450602081019050610c07565b86831015610c495784890151610c45601f891682610b58565b8355505b6001600288020188555050505b505050505050565b5f82825260208201905092915050565b7f5661756c743a207a65726f2075736463000000000000000000000000000000005f82015250565b5f610ca2601083610c5e565b9150610cad82610c6e565b602082019050919050565b5f6020820190508181035f830152610ccf81610c96565b9050919050565b7f5661756c743a207a65726f206f7261636c6500000000000000000000000000005f82015250565b5f610d0a601283610c5e565b9150610d1582610cd6565b602082019050919050565b5f6020820190508181035f830152610d3781610cfe565b9050919050565b7f5661756c743a207a65726f206e667400000000000000000000000000000000005f82015250565b5f610d72600f83610c5e565b9150610d7d82610d3e565b602082019050919050565b5f6020820190508181035f830152610d9f81610d66565b9050919050565b7f5661756c743a207a65726f206275726e526f75746572000000000000000000005f82015250565b5f610dda601683610c5e565b9150610de582610da6565b602082019050919050565b5f6020820190508181035f830152610e0781610dce565b9050919050565b7f5661756c743a207a65726f2074726561737572790000000000000000000000005f82015250565b5f610e42601483610c5e565b9150610e4d82610e0e565b602082019050919050565b5f6020820190508181035f830152610e6f81610e36565b9050919050565b7f5661756c743a207a65726f2064616f00000000000000000000000000000000005f82015250565b5f610eaa600f83610c5e565b9150610eb582610e76565b602082019050919050565b5f6020820190508181035f830152610ed781610e9e565b9050919050565b7f5661756c743a207a65726f20677561726469616e0000000000000000000000005f82015250565b5f610f12601483610c5e565b9150610f1d82610ede565b602082019050919050565b5f6020820190508181035f830152610f3f81610f06565b9050919050565b5f81519050919050565b5f81905092915050565b8281835e5f83830152505050565b5f610f7282610f46565b610f7c8185610f50565b9350610f8c818560208601610f5a565b80840191505092915050565b5f610fa38284610f68565b915081905092915050565b610fb781610a53565b8114610fc1575f5ffd5b50565b5f81519050610fd281610fae565b92915050565b5f60208284031215610fed57610fec610846565b5b5f610ffa84828501610fc4565b91505092915050565b60805160a05160c05160e05161010051610120516101405161499a6110c45f395f8181611c070152611f7601525f818161122001528181611c2901528181611c750152611e4f01525f8181611b7b0152611fa201525f81816113b5015281816115e7015281816116d90152818161184c0152818161199d015261205c01525f81816110c60152818161118b015281816120820152818161211f015261220701525f611d6801525f8181610d2101528181611e140152612c93015261499a5ff3fe608060405234801561000f575f5ffd5b50600436106103ce575f3560e01c80636e553f65116101fd578063c6846ef811610118578063e5328e06116100ab578063f35dad401161007a578063f35dad4014610ca6578063f8764cec14610cc4578063fda1fa5f14610ce2578063ff50abdc14610d00576103ce565b8063e5328e0614610c1c578063e63ab1e914610c3a578063e9c2651814610c58578063ef8b30f714610c76576103ce565b8063d905777e116100e7578063d905777e14610b82578063dd0290e214610bb2578063dd62ed3e14610bce578063e1e158a514610bfe576103ce565b8063c6846ef814610ae8578063c6e6f59214610b06578063ce96cb7714610b36578063d547741f14610b66576103ce565b806395d89b4111610190578063b3d7f6b91161015f578063b3d7f6b914610a28578063b460af9414610a58578063ba08765214610a88578063c63d75b614610ab8576103ce565b806395d89b411461099e578063975e900e146109bc578063a217fddf146109da578063a9059cbb146109f8576103ce565b80637dc0d1d0116101cc5780637dc0d1d0146109165780638456cb591461093457806391d148541461093e57806394bf804d1461096e576103ce565b80636e553f651461086757806370a0823114610897578063792f88c5146108c75780637a7af70d146108e5576103ce565b806336568abe116102ed5780634cdad5061161028057806361d027b31161024f57806361d027b3146107dd57806365a5d5f0146107fb5780636c32b2ec146108195780636d50fa0d14610837576103ce565b80634cdad5061461073f57806352547f6d1461076f5780635491af821461078d5780635c975abb146107bf576103ce565b80633f23fa1a116102bc5780633f23fa1a146106c95780633f4ba83a146106e75780633fe65da2146106f1578063402d267d1461070f576103ce565b806336568abe1461064157806338d52e0f1461065d5780633bcfe43e1461067b5780633e413bee146106ab576103ce565b80630df3d49911610365578063249d39e911610334578063249d39e9146105b95780632f2ff15d146105d75780632fefd77f146105f3578063313ce56714610623576103ce565b80630df3d4991461050a57806318160ddd1461053b57806323b872dd14610559578063248a9ca314610589576103ce565b806307a2d13a116103a157806307a2d13a1461045c578063095ea7b31461048c5780630a28a477146104bc5780630cf96129146104ec576103ce565b806301e1d114146103d257806301ffc9a7146103f057806306fdde031461042057806307832b3a1461043e575b5f5ffd5b6103da610d1e565b6040516103e79190613847565b60405180910390f35b61040a600480360381019061040591906138b9565b610dbc565b60405161041791906138fe565b60405180910390f35b610428610e35565b6040516104359190613987565b60405180910390f35b610446610ec5565b60405161045391906139d1565b60405180910390f35b61047660048036038101906104719190613a14565b610ee6565b6040516104839190613847565b60405180910390f35b6104a660048036038101906104a19190613a99565b610ef8565b6040516104b391906138fe565b60405180910390f35b6104d660048036038101906104d19190613a14565b610f1a565b6040516104e39190613847565b60405180910390f35b6104f4610f2d565b6040516105019190613847565b60405180910390f35b610524600480360381019061051f9190613ad7565b610f33565b604051610532929190613b27565b60405180910390f35b610543611541565b6040516105509190613847565b60405180910390f35b610573600480360381019061056e9190613b4e565b61154a565b60405161058091906138fe565b60405180910390f35b6105a3600480360381019061059e9190613bd1565b611578565b6040516105b09190613c0b565b60405180910390f35b6105c1611595565b6040516105ce9190613847565b60405180910390f35b6105f160048036038101906105ec9190613c24565b61159b565b005b61060d60048036038101906106089190613a14565b6115bd565b60405161061a9190613847565b60405180910390f35b61062b611d5d565b6040516106389190613c7d565b60405180910390f35b61065b60048036038101906106569190613c24565b611d96565b005b610665611e11565b6040516106729190613ca5565b60405180910390f35b61069560048036038101906106909190613a14565b611e38565b6040516106a29190613847565b60405180910390f35b6106b3611e4d565b6040516106c09190613d19565b60405180910390f35b6106d1611e71565b6040516106de9190613847565b60405180910390f35b6106ef611e77565b005b6106f9611eac565b6040516107069190613847565b60405180910390f35b61072960048036038101906107249190613d32565b611eb2565b6040516107369190613847565b60405180910390f35b61075960048036038101906107549190613a14565b611edb565b6040516107669190613847565b60405180910390f35b610777611eed565b6040516107849190613847565b60405180910390f35b6107a760048036038101906107a29190613a14565b611ef2565b6040516107b693929190613d5d565b60405180910390f35b6107c7611f5f565b6040516107d491906138fe565b60405180910390f35b6107e5611f74565b6040516107f29190613ca5565b60405180910390f35b610803611f98565b6040516108109190613847565b60405180910390f35b610821611fa0565b60405161082e9190613db2565b60405180910390f35b610851600480360381019061084c9190613a14565b611fc4565b60405161085e9190613847565b60405180910390f35b610881600480360381019061087c9190613dcb565b611fd9565b60405161088e9190613847565b60405180910390f35b6108b160048036038101906108ac9190613d32565b612015565b6040516108be9190613847565b60405180910390f35b6108cf61205a565b6040516108dc9190613e29565b60405180910390f35b6108ff60048036038101906108fa9190613e42565b61207e565b60405161090d929190613b27565b60405180910390f35b61091e612205565b60405161092b9190613ea0565b60405180910390f35b61093c612229565b005b61095860048036038101906109539190613c24565b61225e565b60405161096591906138fe565b60405180910390f35b61098860048036038101906109839190613dcb565b6122c2565b6040516109959190613847565b60405180910390f35b6109a66122fe565b6040516109b39190613987565b60405180910390f35b6109c461238e565b6040516109d19190613847565b60405180910390f35b6109e26123f9565b6040516109ef9190613c0b565b60405180910390f35b610a126004803603810190610a0d9190613a99565b6123ff565b604051610a1f91906138fe565b60405180910390f35b610a426004803603810190610a3d9190613a14565b612421565b604051610a4f9190613847565b60405180910390f35b610a726004803603810190610a6d9190613eb9565b612434565b604051610a7f9190613847565b60405180910390f35b610aa26004803603810190610a9d9190613eb9565b612470565b604051610aaf9190613847565b60405180910390f35b610ad26004803603810190610acd9190613d32565b6124ac565b604051610adf9190613847565b60405180910390f35b610af06124d5565b604051610afd9190613847565b60405180910390f35b610b206004803603810190610b1b9190613a14565b6124db565b604051610b2d9190613847565b60405180910390f35b610b506004803603810190610b4b9190613d32565b6124ed565b604051610b5d9190613847565b60405180910390f35b610b806004803603810190610b7b9190613c24565b612507565b005b610b9c6004803603810190610b979190613d32565b612529565b604051610ba99190613847565b60405180910390f35b610bcc6004803603810190610bc79190613a14565b61253a565b005b610be86004803603810190610be39190613f09565b6125af565b604051610bf59190613847565b60405180910390f35b610c06612631565b604051610c139190613847565b60405180910390f35b610c24612639565b604051610c319190613847565b60405180910390f35b610c42612647565b604051610c4f9190613c0b565b60405180910390f35b610c6061266b565b604051610c6d9190613c0b565b60405180910390f35b610c906004803603810190610c8b9190613a14565b61268f565b604051610c9d9190613847565b60405180910390f35b610cae6126a1565b604051610cbb91906139d1565b60405180910390f35b610ccc6126c3565b604051610cd99190613847565b60405180910390f35b610cea6126ca565b604051610cf79190613f65565b60405180910390f35b610d086126e0565b604051610d1591906139d1565b60405180910390f35b5f7f000000000000000000000000000000000000000000000000000000000000000073ffffffffffffffffffffffffffffffffffffffff166370a08231306040518263ffffffff1660e01b8152600401610d789190613ca5565b602060405180830381865afa158015610d93573d5f5f3e3d5ffd5b505050506040513d601f19601f82011682018060405250810190610db79190613f92565b905090565b5f7f7965db0b000000000000000000000000000000000000000000000000000000007bffffffffffffffffffffffffffffffffffffffffffffffffffffffff1916827bffffffffffffffffffffffffffffffffffffffffffffffffffffffff19161480610e2e5750610e2d82612701565b5b9050919050565b606060038054610e4490613fea565b80601f0160208091040260200160405190810160405280929190818152602001828054610e7090613fea565b8015610ebb5780601f10610e9257610100808354040283529160200191610ebb565b820191905f5260205f20905b815481529060010190602001808311610e9e57829003601f168201915b5050505050905090565b600c5f9054906101000a90046fffffffffffffffffffffffffffffffff1681565b5f610ef1825f61276a565b9050919050565b5f5f610f026127c2565b9050610f0f8185856127c9565b600191505092915050565b5f610f268260016127db565b9050919050565b6103e881565b5f5f610f3d612833565b610f45612879565b6305f5e100851015610f9457846305f5e1006040517f4a77f2fa000000000000000000000000000000000000000000000000000000008152600401610f8b929190613b27565b60405180910390fd5b62093a80831080610fa85750630784ce0083115b15610ff5578262093a80630784ce006040517f1649ad8d000000000000000000000000000000000000000000000000000000008152600401610fec93929190613d5d565b60405180910390fd5b5f73ffffffffffffffffffffffffffffffffffffffff168473ffffffffffffffffffffffffffffffffffffffff1603611063576040517f08c379a000000000000000000000000000000000000000000000000000000000815260040161105a90614064565b60405180910390fd5b5f8561106d610d1e565b61107791906140af565b90506008548111156110c457806008546040517fd2d1fcee0000000000000000000000000000000000000000000000000000000081526004016110bb929190613b27565b60405180910390fd5b7f000000000000000000000000000000000000000000000000000000000000000073ffffffffffffffffffffffffffffffffffffffff166332941ecb6040518163ffffffff1660e01b8152600401602060405180830381865afa15801561112d573d5f5f3e3d5ffd5b505050506040513d601f19601f82011682018060405250810190611151919061410c565b15611188576040517f9af506b800000000000000000000000000000000000000000000000000000000815260040160405180910390fd5b5f7f000000000000000000000000000000000000000000000000000000000000000073ffffffffffffffffffffffffffffffffffffffff1663d8044ad96040518163ffffffff1660e01b8152600401602060405180830381865afa1580156111f2573d5f5f3e3d5ffd5b505050506040513d601f19601f820116820180604052508101906112169190613f92565b90506112653330897f000000000000000000000000000000000000000000000000000000000000000073ffffffffffffffffffffffffffffffffffffffff166128ba909392919063ffffffff16565b6201518061016d6127106112799190614137565b6112839190614137565b64e8d4a5100086838a6112969190614137565b6112a09190614137565b6112aa9190614137565b6112b491906141a5565b92505f6112c1885f6127db565b90505f8103611307575f6040517fdc6d336e0000000000000000000000000000000000000000000000000000000081526004016112fe919061420e565b60405180910390fd5b611311308261293c565b87600b5f8282829054906101000a90046fffffffffffffffffffffffffffffffff1661133d9190614227565b92506101000a8154816fffffffffffffffffffffffffffffffff02191690836fffffffffffffffffffffffffffffffff1602179055506001600c60108282829054906101000a900463ffffffff16611395919061426a565b92506101000a81548163ffffffff021916908363ffffffff1602179055507f000000000000000000000000000000000000000000000000000000000000000073ffffffffffffffffffffffffffffffffffffffff1663d533a4b4888a89866fffffffffffffffffffffffffffffffff80168a116114125789611426565b6fffffffffffffffffffffffffffffffff80165b6040518663ffffffff1660e01b81526004016114469594939291906142c3565b6020604051808303815f875af1158015611462573d5f5f3e3d5ffd5b505050506040513d601f19601f820116820180604052508101906114869190613f92565b94508060095f8781526020019081526020015f208190555087600a5f8781526020019081526020015f20819055508673ffffffffffffffffffffffffffffffffffffffff163373ffffffffffffffffffffffffffffffffffffffff167f8fff91364ee3433696f550f5aba845b0e31874a0170c8b89402e5e9db1e976c2878b8a878a8d4261151491906140af565b60405161152696959493929190614314565b60405180910390a35050506115396129bb565b935093915050565b5f600254905090565b5f5f6115546127c2565b90506115618582856129c5565b61156c858585612a57565b60019150509392505050565b5f60065f8381526020019081526020015f20600101549050919050565b61271081565b6115a482611578565b6115ad81612b47565b6115b78383612b5b565b50505050565b5f6115c6612833565b6115ce612879565b3373ffffffffffffffffffffffffffffffffffffffff167f000000000000000000000000000000000000000000000000000000000000000073ffffffffffffffffffffffffffffffffffffffff16636352211e846040518263ffffffff1660e01b815260040161163e9190613847565b602060405180830381865afa158015611659573d5f5f3e3d5ffd5b505050506040513d601f19601f8201168201806040525081019061167d9190614387565b73ffffffffffffffffffffffffffffffffffffffff16146116d75781336040517fe69ff3a30000000000000000000000000000000000000000000000000000000081526004016116ce9291906143b2565b60405180910390fd5b7f000000000000000000000000000000000000000000000000000000000000000073ffffffffffffffffffffffffffffffffffffffff166363108990836040518263ffffffff1660e01b81526004016117309190613847565b602060405180830381865afa15801561174b573d5f5f3e3d5ffd5b505050506040513d601f19601f8201168201806040525081019061176f919061410c565b6117b057816040517f8cc5ab3f0000000000000000000000000000000000000000000000000000000081526004016117a79190613847565b60405180910390fd5b5f60095f8481526020019081526020015f205490505f810361180957826040517fdc6d336e0000000000000000000000000000000000000000000000000000000081526004016118009190613847565b60405180910390fd5b5f60095f8581526020019081526020015f20819055505f600a5f8581526020019081526020015f205490505f600a5f8681526020019081526020015f20819055507f000000000000000000000000000000000000000000000000000000000000000073ffffffffffffffffffffffffffffffffffffffff16637bde82f285336040518363ffffffff1660e01b81526004016118a59291906143b2565b5f604051808303815f87803b1580156118bc575f5ffd5b505af11580156118ce573d5f5f3e3d5ffd5b505050505f810361190b576040517f32d971dc00000000000000000000000000000000000000000000000000000000815260040160405180910390fd5b5f61271060328361191c9190614137565b61192691906141a5565b90505f6127106123288361193a9190614137565b61194491906141a5565b90505f6127106103e8846119589190614137565b61196291906141a5565b90505f81838561197291906143d9565b61197c91906143d9565b9050808261198a91906140af565b9150838561199891906143d9565b96505f7f000000000000000000000000000000000000000000000000000000000000000073ffffffffffffffffffffffffffffffffffffffff166399fbab888a6040518263ffffffff1660e01b81526004016119f49190613847565b60e060405180830381865afa158015611a0f573d5f5f3e3d5ffd5b505050506040513d601f19601f82011682018060405250810190611a33919061448a565b50505050505090505f816fffffffffffffffffffffffffffffffff168711611a5b575f611a7a565b816fffffffffffffffffffffffffffffffff1687611a7991906143d9565b5b9050611a893030308a8c612c45565b88600b60108282829054906101000a90046fffffffffffffffffffffffffffffffff16611ab69190614227565b92506101000a8154816fffffffffffffffffffffffffffffffff02191690836fffffffffffffffffffffffffffffffff16021790555084600c5f8282829054906101000a90046fffffffffffffffffffffffffffffffff16611b189190614227565b92506101000a8154816fffffffffffffffffffffffffffffffff02191690836fffffffffffffffffffffffffffffffff1602179055505f851115611bfa57611b5e611e11565b73ffffffffffffffffffffffffffffffffffffffff1663a9059cbb7f0000000000000000000000000000000000000000000000000000000000000000876040518363ffffffff1660e01b8152600401611bb8929190614527565b6020604051808303815f875af1158015611bd4573d5f5f3e3d5ffd5b505050506040513d601f19601f82011682018060405250810190611bf8919061410c565b505b5f841115611c6e57611c6d7f0000000000000000000000000000000000000000000000000000000000000000857f000000000000000000000000000000000000000000000000000000000000000073ffffffffffffffffffffffffffffffffffffffff16612d3e9092919063ffffffff16565b5b611cb9338a7f000000000000000000000000000000000000000000000000000000000000000073ffffffffffffffffffffffffffffffffffffffff16612d3e9092919063ffffffff16565b3373ffffffffffffffffffffffffffffffffffffffff167f09018aaedaafcf3a655b4c0e4a7c39bad2f98f367ef23f57b6d9062057db75478b8b888886604051611d0795949392919061454e565b60405180910390a27fd2bd4f70cae8beac3edd366e54e975ced25148567732bf1ccd53b566b33689a48585604051611d40929190613b27565b60405180910390a15050505050505050611d586129bb565b919050565b5f611d66612dbd565b7f0000000000000000000000000000000000000000000000000000000000000000611d91919061459f565b905090565b611d9e6127c2565b73ffffffffffffffffffffffffffffffffffffffff168173ffffffffffffffffffffffffffffffffffffffff1614611e02576040517f6697b23200000000000000000000000000000000000000000000000000000000815260040160405180910390fd5b611e0c8282612dc5565b505050565b5f7f0000000000000000000000000000000000000000000000000000000000000000905090565b6009602052805f5260405f205f915090505481565b7f000000000000000000000000000000000000000000000000000000000000000081565b60085481565b7f3b5d4cc60d3ec3516ee8ae083bd60934f6eb2a6c54b1229985c41bfb092b2603611ea181612b47565b611ea9612eaf565b50565b61232881565b5f7fffffffffffffffffffffffffffffffffffffffffffffffffffffffffffffffff9050919050565b5f611ee6825f61276a565b9050919050565b603281565b5f5f5f5f60095f8681526020019081526020015f205490505f8103611f20575f5f5f93509350935050611f58565b611f2a815f61276a565b9350612710603285611f3c9190614137565b611f4691906141a5565b91508184611f5491906143d9565b9250505b9193909250565b5f60075f9054906101000a900460ff16905090565b7f000000000000000000000000000000000000000000000000000000000000000081565b630784ce0081565b7f000000000000000000000000000000000000000000000000000000000000000081565b600a602052805f5260405f205f915090505481565b5f6040517f08c379a000000000000000000000000000000000000000000000000000000000815260040161200c9061461d565b60405180910390fd5b5f5f5f8373ffffffffffffffffffffffffffffffffffffffff1673ffffffffffffffffffffffffffffffffffffffff1681526020019081526020015f20549050919050565b7f000000000000000000000000000000000000000000000000000000000000000081565b5f5f7f000000000000000000000000000000000000000000000000000000000000000073ffffffffffffffffffffffffffffffffffffffff166332941ecb6040518163ffffffff1660e01b8152600401602060405180830381865afa1580156120e9573d5f5f3e3d5ffd5b505050506040513d601f19601f8201168201806040525081019061210d919061410c565b1561211d575f5f915091506121fe565b7f000000000000000000000000000000000000000000000000000000000000000073ffffffffffffffffffffffffffffffffffffffff1663d8044ad96040518163ffffffff1660e01b8152600401602060405180830381865afa158015612186573d5f5f3e3d5ffd5b505050506040513d601f19601f820116820180604052508101906121aa9190613f92565b90506201518061016d6127106121c09190614137565b6121ca9190614137565b64e8d4a510008483876121dd9190614137565b6121e79190614137565b6121f19190614137565b6121fb91906141a5565b91505b9250929050565b7f000000000000000000000000000000000000000000000000000000000000000081565b7f65d7a28e3265b37a6474929f336521b332c1681b933f6cb9f3376673440d862a61225381612b47565b61225b612f10565b50565b5f60065f8481526020019081526020015f205f015f8373ffffffffffffffffffffffffffffffffffffffff1673ffffffffffffffffffffffffffffffffffffffff1681526020019081526020015f205f9054906101000a900460ff16905092915050565b5f6040517f08c379a00000000000000000000000000000000000000000000000000000000081526004016122f59061461d565b60405180910390fd5b60606004805461230d90613fea565b80601f016020809104026020016040519081016040528092919081815260200182805461233990613fea565b80156123845780601f1061235b57610100808354040283529160200191612384565b820191905f5260205f20905b81548152906001019060200180831161236757829003601f168201915b5050505050905090565b5f5f600b5f9054906101000a90046fffffffffffffffffffffffffffffffff166fffffffffffffffffffffffffffffffff1690505f81036123d2575f9150506123f6565b806127106123de610d1e565b6123e89190614137565b6123f291906141a5565b9150505b90565b5f5f1b81565b5f5f6124096127c2565b9050612416818585612a57565b600191505092915050565b5f61242d82600161276a565b9050919050565b5f6040517f08c379a000000000000000000000000000000000000000000000000000000000815260040161246790614685565b60405180910390fd5b5f6040517f08c379a00000000000000000000000000000000000000000000000000000000081526004016124a390614685565b60405180910390fd5b5f7fffffffffffffffffffffffffffffffffffffffffffffffffffffffffffffffff9050919050565b61016d81565b5f6124e6825f6127db565b9050919050565b5f6125006124fa83612015565b5f61276a565b9050919050565b61251082611578565b61251981612b47565b6125238383612dc5565b50505050565b5f61253382612015565b9050919050565b7f3b5d4cc60d3ec3516ee8ae083bd60934f6eb2a6c54b1229985c41bfb092b260361256481612b47565b5f6008549050826008819055507f99349f588c3e09fa1c97ffa2c612204a17059eefdbb942bb96f020769887674781846040516125a2929190613b27565b60405180910390a1505050565b5f60015f8473ffffffffffffffffffffffffffffffffffffffff1673ffffffffffffffffffffffffffffffffffffffff1681526020019081526020015f205f8373ffffffffffffffffffffffffffffffffffffffff1673ffffffffffffffffffffffffffffffffffffffff1681526020019081526020015f2054905092915050565b6305f5e10081565b5f612642610d1e565b905090565b7f65d7a28e3265b37a6474929f336521b332c1681b933f6cb9f3376673440d862a81565b7f3b5d4cc60d3ec3516ee8ae083bd60934f6eb2a6c54b1229985c41bfb092b260381565b5f61269a825f6127db565b9050919050565b600b60109054906101000a90046fffffffffffffffffffffffffffffffff1681565b62093a8081565b600c60109054906101000a900463ffffffff1681565b600b5f9054906101000a90046fffffffffffffffffffffffffffffffff1681565b5f7f01ffc9a7000000000000000000000000000000000000000000000000000000007bffffffffffffffffffffffffffffffffffffffffffffffffffffffff1916827bffffffffffffffffffffffffffffffffffffffffffffffffffffffff1916149050919050565b5f6127ba6001612778610d1e565b61278291906140af565b61278a612dbd565b600a61279691906147d2565b61279e611541565b6127a891906140af565b8486612f72909392919063ffffffff16565b905092915050565b5f33905090565b6127d68383836001612fc7565b505050565b5f61282b6127e7612dbd565b600a6127f391906147d2565b6127fb611541565b61280591906140af565b600161280f610d1e565b61281991906140af565b8486612f72909392919063ffffffff16565b905092915050565b60026005540361286f576040517f3ee5aeb500000000000000000000000000000000000000000000000000000000815260040160405180910390fd5b6002600581905550565b612881611f5f565b156128b8576040517fd93c066500000000000000000000000000000000000000000000000000000000815260040160405180910390fd5b565b612936848573ffffffffffffffffffffffffffffffffffffffff166323b872dd8686866040516024016128ef9392919061481c565b604051602081830303815290604052915060e01b6020820180517bffffffffffffffffffffffffffffffffffffffffffffffffffffffff8381831617835250505050613196565b50505050565b5f73ffffffffffffffffffffffffffffffffffffffff168273ffffffffffffffffffffffffffffffffffffffff16036129ac575f6040517fec442f050000000000000000000000000000000000000000000000000000000081526004016129a39190613ca5565b60405180910390fd5b6129b75f838361322b565b5050565b6001600581905550565b5f6129d084846125af565b90507fffffffffffffffffffffffffffffffffffffffffffffffffffffffffffffffff8114612a515781811015612a42578281836040517ffb8f41b2000000000000000000000000000000000000000000000000000000008152600401612a3993929190614851565b60405180910390fd5b612a5084848484035f612fc7565b5b50505050565b5f73ffffffffffffffffffffffffffffffffffffffff168373ffffffffffffffffffffffffffffffffffffffff1603612ac7575f6040517f96c6fd1e000000000000000000000000000000000000000000000000000000008152600401612abe9190613ca5565b60405180910390fd5b5f73ffffffffffffffffffffffffffffffffffffffff168273ffffffffffffffffffffffffffffffffffffffff1603612b37575f6040517fec442f05000000000000000000000000000000000000000000000000000000008152600401612b2e9190613ca5565b60405180910390fd5b612b4283838361322b565b505050565b612b5881612b536127c2565b613444565b50565b5f612b66838361225e565b612c3b57600160065f8581526020019081526020015f205f015f8473ffffffffffffffffffffffffffffffffffffffff1673ffffffffffffffffffffffffffffffffffffffff1681526020019081526020015f205f6101000a81548160ff021916908315150217905550612bd86127c2565b73ffffffffffffffffffffffffffffffffffffffff168273ffffffffffffffffffffffffffffffffffffffff16847f2f8788117e7eff1d82e926ec794901d17c78024a50270940304540a733656f0d60405160405180910390a460019050612c3f565b5f90505b92915050565b8273ffffffffffffffffffffffffffffffffffffffff168573ffffffffffffffffffffffffffffffffffffffff1614612c8457612c838386836129c5565b5b612c8e8382613495565b612cb97f00000000000000000000000000000000000000000000000000000000000000008584612d3e565b8273ffffffffffffffffffffffffffffffffffffffff168473ffffffffffffffffffffffffffffffffffffffff168673ffffffffffffffffffffffffffffffffffffffff167ffbde797d201c681b91056529119e0b02407c7bb96a4a2c75c01fc9667232c8db8585604051612d2f929190613b27565b60405180910390a45050505050565b612db8838473ffffffffffffffffffffffffffffffffffffffff1663a9059cbb8585604051602401612d71929190614527565b604051602081830303815290604052915060e01b6020820180517bffffffffffffffffffffffffffffffffffffffffffffffffffffffff8381831617835250505050613196565b505050565b5f6006905090565b5f612dd0838361225e565b15612ea5575f60065f8581526020019081526020015f205f015f8473ffffffffffffffffffffffffffffffffffffffff1673ffffffffffffffffffffffffffffffffffffffff1681526020019081526020015f205f6101000a81548160ff021916908315150217905550612e426127c2565b73ffffffffffffffffffffffffffffffffffffffff168273ffffffffffffffffffffffffffffffffffffffff16847ff6391f5c32d9c69d2a47ea670b442974b53935d1edc7fd64eb21e047a839171b60405160405180910390a460019050612ea9565b5f90505b92915050565b612eb7613514565b5f60075f6101000a81548160ff0219169083151502179055507f5db9ee0a495bf2e6ff9c91a7834c1ba4fdd244a5e8aa4e537bd38aeae4b073aa612ef96127c2565b604051612f069190613ca5565b60405180910390a1565b612f18612879565b600160075f6101000a81548160ff0219169083151502179055507f62e78cea01bee320cd4e420270b5ea74000d11b0c9f74754ebdbfc544b05a258612f5b6127c2565b604051612f689190613ca5565b60405180910390a1565b5f5f612f7f868686613554565b9050612f8a83613653565b8015612fa657505f8480612fa157612fa0614178565b5b868809115b15612fbb57600181612fb891906140af565b90505b80915050949350505050565b5f73ffffffffffffffffffffffffffffffffffffffff168473ffffffffffffffffffffffffffffffffffffffff1603613037575f6040517fe602df0500000000000000000000000000000000000000000000000000000000815260040161302e9190613ca5565b60405180910390fd5b5f73ffffffffffffffffffffffffffffffffffffffff168373ffffffffffffffffffffffffffffffffffffffff16036130a7575f6040517f94280d6200000000000000000000000000000000000000000000000000000000815260040161309e9190613ca5565b60405180910390fd5b8160015f8673ffffffffffffffffffffffffffffffffffffffff1673ffffffffffffffffffffffffffffffffffffffff1681526020019081526020015f205f8573ffffffffffffffffffffffffffffffffffffffff1673ffffffffffffffffffffffffffffffffffffffff1681526020019081526020015f20819055508015613190578273ffffffffffffffffffffffffffffffffffffffff168473ffffffffffffffffffffffffffffffffffffffff167f8c5be1e5ebec7d5bd14f71427d1e84f3dd0314c0f7b2291e5b200ac8c7c3b925846040516131879190613847565b60405180910390a35b50505050565b5f6131c0828473ffffffffffffffffffffffffffffffffffffffff1661368090919063ffffffff16565b90505f8151141580156131e45750808060200190518101906131e2919061410c565b155b1561322657826040517f5274afe700000000000000000000000000000000000000000000000000000000815260040161321d9190613ca5565b60405180910390fd5b505050565b5f73ffffffffffffffffffffffffffffffffffffffff168373ffffffffffffffffffffffffffffffffffffffff160361327b578060025f82825461326f91906140af565b92505081905550613349565b5f5f5f8573ffffffffffffffffffffffffffffffffffffffff1673ffffffffffffffffffffffffffffffffffffffff1681526020019081526020015f2054905081811015613304578381836040517fe450d38c0000000000000000000000000000000000000000000000000000000081526004016132fb93929190614851565b60405180910390fd5b8181035f5f8673ffffffffffffffffffffffffffffffffffffffff1673ffffffffffffffffffffffffffffffffffffffff1681526020019081526020015f2081905550505b5f73ffffffffffffffffffffffffffffffffffffffff168273ffffffffffffffffffffffffffffffffffffffff1603613390578060025f82825403925050819055506133da565b805f5f8473ffffffffffffffffffffffffffffffffffffffff1673ffffffffffffffffffffffffffffffffffffffff1681526020019081526020015f205f82825401925050819055505b8173ffffffffffffffffffffffffffffffffffffffff168373ffffffffffffffffffffffffffffffffffffffff167fddf252ad1be2c89b69c2b068fc378daa952ba7f163c4a11628f55a4df523b3ef836040516134379190613847565b60405180910390a3505050565b61344e828261225e565b6134915780826040517fe2517d3f000000000000000000000000000000000000000000000000000000008152600401613488929190614886565b60405180910390fd5b5050565b5f73ffffffffffffffffffffffffffffffffffffffff168273ffffffffffffffffffffffffffffffffffffffff1603613505575f6040517f96c6fd1e0000000000000000000000000000000000000000000000000000000081526004016134fc9190613ca5565b60405180910390fd5b613510825f8361322b565b5050565b61351c611f5f565b613552576040517f8dfc202b00000000000000000000000000000000000000000000000000000000815260040160405180910390fd5b565b5f5f83850290505f5f19858709828110838203039150505f810361358c5783828161358257613581614178565b5b049250505061364c565b8084116135c5576040517f227bc15300000000000000000000000000000000000000000000000000000000815260040160405180910390fd5b5f8486880990508281118203915080830392505f855f038616905080860495508084049350600181825f0304019050808302841793505f600287600302189050808702600203810290508087026002038102905080870260020381029050808702600203810290508087026002038102905080870260020381029050808502955050505050505b9392505050565b5f6001600283600381111561366b5761366a6148ad565b5b61367591906148da565b60ff16149050919050565b606061368d83835f613695565b905092915050565b6060814710156136dc57306040517fcd7860590000000000000000000000000000000000000000000000000000000081526004016136d39190613ca5565b60405180910390fd5b5f5f8573ffffffffffffffffffffffffffffffffffffffff168486604051613704919061494e565b5f6040518083038185875af1925050503d805f811461373e576040519150601f19603f3d011682016040523d82523d5f602084013e613743565b606091505b509150915061375386838361375e565b925050509392505050565b6060826137735761376e826137eb565b6137e3565b5f825114801561379957505f8473ffffffffffffffffffffffffffffffffffffffff163b145b156137db57836040517f9996b3150000000000000000000000000000000000000000000000000000000081526004016137d29190613ca5565b60405180910390fd5b8190506137e4565b5b9392505050565b5f815111156137fd5780518082602001fd5b6040517f1425ea4200000000000000000000000000000000000000000000000000000000815260040160405180910390fd5b5f819050919050565b6138418161382f565b82525050565b5f60208201905061385a5f830184613838565b92915050565b5f5ffd5b5f7fffffffff0000000000000000000000000000000000000000000000000000000082169050919050565b61389881613864565b81146138a2575f5ffd5b50565b5f813590506138b38161388f565b92915050565b5f602082840312156138ce576138cd613860565b5b5f6138db848285016138a5565b91505092915050565b5f8115159050919050565b6138f8816138e4565b82525050565b5f6020820190506139115f8301846138ef565b92915050565b5f81519050919050565b5f82825260208201905092915050565b8281835e5f83830152505050565b5f601f19601f8301169050919050565b5f61395982613917565b6139638185613921565b9350613973818560208601613931565b61397c8161393f565b840191505092915050565b5f6020820190508181035f83015261399f818461394f565b905092915050565b5f6fffffffffffffffffffffffffffffffff82169050919050565b6139cb816139a7565b82525050565b5f6020820190506139e45f8301846139c2565b92915050565b6139f38161382f565b81146139fd575f5ffd5b50565b5f81359050613a0e816139ea565b92915050565b5f60208284031215613a2957613a28613860565b5b5f613a3684828501613a00565b91505092915050565b5f73ffffffffffffffffffffffffffffffffffffffff82169050919050565b5f613a6882613a3f565b9050919050565b613a7881613a5e565b8114613a82575f5ffd5b50565b5f81359050613a9381613a6f565b92915050565b5f5f60408385031215613aaf57613aae613860565b5b5f613abc85828601613a85565b9250506020613acd85828601613a00565b9150509250929050565b5f5f5f60608486031215613aee57613aed613860565b5b5f613afb86828701613a00565b9350506020613b0c86828701613a85565b9250506040613b1d86828701613a00565b9150509250925092565b5f604082019050613b3a5f830185613838565b613b476020830184613838565b9392505050565b5f5f5f60608486031215613b6557613b64613860565b5b5f613b7286828701613a85565b9350506020613b8386828701613a85565b9250506040613b9486828701613a00565b9150509250925092565b5f819050919050565b613bb081613b9e565b8114613bba575f5ffd5b50565b5f81359050613bcb81613ba7565b92915050565b5f60208284031215613be657613be5613860565b5b5f613bf384828501613bbd565b91505092915050565b613c0581613b9e565b82525050565b5f602082019050613c1e5f830184613bfc565b92915050565b5f5f60408385031215613c3a57613c39613860565b5b5f613c4785828601613bbd565b9250506020613c5885828601613a85565b9150509250929050565b5f60ff82169050919050565b613c7781613c62565b82525050565b5f602082019050613c905f830184613c6e565b92915050565b613c9f81613a5e565b82525050565b5f602082019050613cb85f830184613c96565b92915050565b5f819050919050565b5f613ce1613cdc613cd784613a3f565b613cbe565b613a3f565b9050919050565b5f613cf282613cc7565b9050919050565b5f613d0382613ce8565b9050919050565b613d1381613cf9565b82525050565b5f602082019050613d2c5f830184613d0a565b92915050565b5f60208284031215613d4757613d46613860565b5b5f613d5484828501613a85565b91505092915050565b5f606082019050613d705f830186613838565b613d7d6020830185613838565b613d8a6040830184613838565b949350505050565b5f613d9c82613ce8565b9050919050565b613dac81613d92565b82525050565b5f602082019050613dc55f830184613da3565b92915050565b5f5f60408385031215613de157613de0613860565b5b5f613dee85828601613a00565b9250506020613dff85828601613a85565b9150509250929050565b5f613e1382613ce8565b9050919050565b613e2381613e09565b82525050565b5f602082019050613e3c5f830184613e1a565b92915050565b5f5f60408385031215613e5857613e57613860565b5b5f613e6585828601613a00565b9250506020613e7685828601613a00565b9150509250929050565b5f613e8a82613ce8565b9050919050565b613e9a81613e80565b82525050565b5f602082019050613eb35f830184613e91565b92915050565b5f5f5f60608486031215613ed057613ecf613860565b5b5f613edd86828701613a00565b9350506020613eee86828701613a85565b9250506040613eff86828701613a85565b9150509250925092565b5f5f60408385031215613f1f57613f1e613860565b5b5f613f2c85828601613a85565b9250506020613f3d85828601613a85565b9150509250929050565b5f63ffffffff82169050919050565b613f5f81613f47565b82525050565b5f602082019050613f785f830184613f56565b92915050565b5f81519050613f8c816139ea565b92915050565b5f60208284031215613fa757613fa6613860565b5b5f613fb484828501613f7e565b91505092915050565b7f4e487b71000000000000000000000000000000000000000000000000000000005f52602260045260245ffd5b5f600282049050600182168061400157607f821691505b60208210810361401457614013613fbd565b5b50919050565b7f5661756c743a207a65726f20726563697069656e7400000000000000000000005f82015250565b5f61404e601583613921565b91506140598261401a565b602082019050919050565b5f6020820190508181035f83015261407b81614042565b9050919050565b7f4e487b71000000000000000000000000000000000000000000000000000000005f52601160045260245ffd5b5f6140b98261382f565b91506140c48361382f565b92508282019050808211156140dc576140db614082565b5b92915050565b6140eb816138e4565b81146140f5575f5ffd5b50565b5f81519050614106816140e2565b92915050565b5f6020828403121561412157614120613860565b5b5f61412e848285016140f8565b91505092915050565b5f6141418261382f565b915061414c8361382f565b925082820261415a8161382f565b9150828204841483151761417157614170614082565b5b5092915050565b7f4e487b71000000000000000000000000000000000000000000000000000000005f52601260045260245ffd5b5f6141af8261382f565b91506141ba8361382f565b9250826141ca576141c9614178565b5b828204905092915050565b5f819050919050565b5f6141f86141f36141ee846141d5565b613cbe565b61382f565b9050919050565b614208816141de565b82525050565b5f6020820190506142215f8301846141ff565b92915050565b5f614231826139a7565b915061423c836139a7565b925082820190506fffffffffffffffffffffffffffffffff81111561426457614263614082565b5b92915050565b5f61427482613f47565b915061427f83613f47565b9250828201905063ffffffff81111561429b5761429a614082565b5b92915050565b5f67ffffffffffffffff82169050919050565b6142bd816142a1565b82525050565b5f60a0820190506142d65f830188613c96565b6142e360208301876139c2565b6142f060408301866142b4565b6142fd6060830185613f56565b61430a60808301846139c2565b9695505050505050565b5f60c0820190506143275f830189613838565b6143346020830188613838565b6143416040830187613838565b61434e6060830186613838565b61435b6080830185613838565b61436860a0830184613838565b979650505050505050565b5f8151905061438181613a6f565b92915050565b5f6020828403121561439c5761439b613860565b5b5f6143a984828501614373565b91505092915050565b5f6040820190506143c55f830185613838565b6143d26020830184613c96565b9392505050565b5f6143e38261382f565b91506143ee8361382f565b925082820390508181111561440657614405614082565b5b92915050565b614415816139a7565b811461441f575f5ffd5b50565b5f815190506144308161440c565b92915050565b61443f816142a1565b8114614449575f5ffd5b50565b5f8151905061445a81614436565b92915050565b61446981613f47565b8114614473575f5ffd5b50565b5f8151905061448481614460565b92915050565b5f5f5f5f5f5f5f60e0888a0312156144a5576144a4613860565b5b5f6144b28a828b01614422565b97505060206144c38a828b01614422565b96505060406144d48a828b0161444c565b95505060606144e58a828b0161444c565b94505060806144f68a828b01614476565b93505060a06145078a828b01614476565b92505060c06145188a828b016140f8565b91505092959891949750929550565b5f60408201905061453a5f830185613c96565b6145476020830184613838565b9392505050565b5f60a0820190506145615f830188613838565b61456e6020830187613838565b61457b6040830186613838565b6145886060830185613838565b6145956080830184613838565b9695505050505050565b5f6145a982613c62565b91506145b483613c62565b9250828201905060ff8111156145cd576145cc614082565b5b92915050565b7f5661756c743a20757365206465706f736974416e644d696e744e4654282900005f82015250565b5f614607601e83613921565b9150614612826145d3565b602082019050919050565b5f6020820190508181035f830152614634816145fb565b9050919050565b7f5661756c743a207573652072656465656d506f736974696f6e282900000000005f82015250565b5f61466f601b83613921565b915061467a8261463b565b602082019050919050565b5f6020820190508181035f83015261469c81614663565b9050919050565b5f8160011c9050919050565b5f5f8291508390505b60018511156146f8578086048111156146d4576146d3614082565b5b60018516156146e35780820291505b80810290506146f1856146a3565b94506146b8565b94509492505050565b5f8261471057600190506147cb565b8161471d575f90506147cb565b8160018114614733576002811461473d5761476c565b60019150506147cb565b60ff84111561474f5761474e614082565b5b8360020a91508482111561476657614765614082565b5b506147cb565b5060208310610133831016604e8410600b84101617156147a15782820a90508381111561479c5761479b614082565b5b6147cb565b6147ae84848460016146af565b925090508184048111156147c5576147c4614082565b5b81810290505b9392505050565b5f6147dc8261382f565b91506147e783613c62565b92506148147fffffffffffffffffffffffffffffffffffffffffffffffffffffffffffffffff8484614701565b905092915050565b5f60608201905061482f5f830186613c96565b61483c6020830185613c96565b6148496040830184613838565b949350505050565b5f6060820190506148645f830186613c96565b6148716020830185613838565b61487e6040830184613838565b949350505050565b5f6040820190506148995f830185613c96565b6148a66020830184613bfc565b9392505050565b7f4e487b71000000000000000000000000000000000000000000000000000000005f52602160045260245ffd5b5f6148e482613c62565b91506148ef83613c62565b9250826148ff576148fe614178565b5b828206905092915050565b5f81519050919050565b5f81905092915050565b5f6149288261490a565b6149328185614914565b9350614942818560208601613931565b80840191505092915050565b5f614959828461491e565b91508190509291505056fea264697066735822122039bf55cfb36aa8957a148b01b00094094bbdc956fbaa3e10ac0c7eaa5124ef1964736f6c63430008230033","linkReferences":{}},"methodIdentifiers":{"BPS()":"249d39e9","DAO_ROLE()":"e9c26518","DAYS_PER_YEAR()":"c6846ef8","DEFAULT_ADMIN_ROLE()":"a217fddf","FEE_BURN_SPLIT()":"3fe65da2","FEE_TREASURY_SPLIT()":"0cf96129","MAX_LOCK()":"65a5d5f0","MIN_DEPOSIT()":"e1e158a5","MIN_LOCK()":"f8764cec","PAUSER_ROLE()":"e63ab1e9","REDEMPTION_FEE()":"52547f6d","allowance(address,address)":"dd62ed3e","approve(address,uint256)":"095ea7b3","asset()":"38d52e0f","balanceOf(address)":"70a08231","burnRouter()":"6c32b2ec","convertToAssets(uint256)":"07a2d13a","convertToShares(uint256)":"c6e6f592","decimals()":"313ce567","deposit(uint256,address)":"6e553f65","depositAndMintNFT(uint256,address,uint256)":"0df3d499","getRoleAdmin(bytes32)":"248a9ca3","grantRole(bytes32,address)":"2f2ff15d","hasRole(bytes32,address)":"91d14854","maxDeposit(address)":"402d267d","maxMint(address)":"c63d75b6","maxRedeem(address)":"d905777e","maxWithdraw(address)":"ce96cb77","mint(uint256,address)":"94bf804d","name()":"06fdde03","oracle()":"7dc0d1d0","pause()":"8456cb59","paused()":"5c975abb","positionAssets(uint256)":"6d50fa0d","positionShares(uint256)":"3bcfe43e","previewDeposit(uint256)":"ef8b30f7","previewDeposit(uint256,uint256)":"7a7af70d","previewMint(uint256)":"b3d7f6b9","previewPositionValue(uint256)":"5491af82","previewRedeem(uint256)":"4cdad506","previewWithdraw(uint256)":"0a28a477","redeem(uint256,address,address)":"ba087652","redeemPosition(uint256)":"2fefd77f","renounceRole(bytes32,address)":"36568abe","revokeRole(bytes32,address)":"d547741f","setTvlCap(uint256)":"dd0290e2","supportsInterface(bytes4)":"01ffc9a7","symbol()":"95d89b41","timeNFT()":"792f88c5","totalAssets()":"01e1d114","totalDeposited()":"ff50abdc","totalFeesRouted()":"07832b3a","totalPositions()":"fda1fa5f","totalRedeemed()":"f35dad40","totalSupply()":"18160ddd","transfer(address,uint256)":"a9059cbb","transferFrom(address,address,uint256)":"23b872dd","treasury()":"61d027b3","tvl()":"e5328e06","tvlCap()":"3f23fa1a","unpause()":"3f4ba83a","usdc()":"3e413bee","utilizationBps()":"975e900e","withdraw(uint256,address,address)":"b460af94"},"id":42}