{"abi":[{"type":"constructor","inputs":[{"name":"_timeNFT","type":"address","internalType":"address"},{"name":"_usdc","type":"address","internalType":"address"},{"name":"_dao","type":"address","internalType":"address"},{"name":"_guardian","type":"address","internalType":"address"}],"stateMutability":"nonpayable"},{"type":"function","name":"DAO_ROLE","inputs":[],"outputs":[{"name":"","type":"bytes32","internalType":"bytes32"}],"stateMutability":"view"},{"type":"function","name":"DEFAULT_ADMIN_ROLE","inputs":[],"outputs":[{"name":"","type":"bytes32","internalType":"bytes32"}],"stateMutability":"view"},{"type":"function","name":"PAUSER_ROLE","inputs":[],"outputs":[{"name":"","type":"bytes32","internalType":"bytes32"}],"stateMutability":"view"},{"type":"function","name":"buy","inputs":[{"name":"tokenId","type":"uint256","internalType":"uint256"}],"outputs":[],"stateMutability":"nonpayable"},{"type":"function","name":"cancel","inputs":[{"name":"tokenId","type":"uint256","internalType":"uint256"}],"outputs":[],"stateMutability":"nonpayable"},{"type":"function","name":"getActiveListings","inputs":[{"name":"offset","type":"uint256","internalType":"uint256"},{"name":"limit","type":"uint256","internalType":"uint256"}],"outputs":[{"name":"tokenIds","type":"uint256[]","internalType":"uint256[]"},{"name":"listingData","type":"tuple[]","internalType":"struct TempoMarket.Listing[]","components":[{"name":"seller","type":"address","internalType":"address"},{"name":"priceUsdc","type":"uint256","internalType":"uint256"},{"name":"listedAt","type":"uint256","internalType":"uint256"}]}],"stateMutability":"view"},{"type":"function","name":"getRoleAdmin","inputs":[{"name":"role","type":"bytes32","internalType":"bytes32"}],"outputs":[{"name":"","type":"bytes32","internalType":"bytes32"}],"stateMutability":"view"},{"type":"function","name":"grantRole","inputs":[{"name":"role","type":"bytes32","internalType":"bytes32"},{"name":"account","type":"address","internalType":"address"}],"outputs":[],"stateMutability":"nonpayable"},{"type":"function","name":"hasRole","inputs":[{"name":"role","type":"bytes32","internalType":"bytes32"},{"name":"account","type":"address","internalType":"address"}],"outputs":[{"name":"","type":"bool","internalType":"bool"}],"stateMutability":"view"},{"type":"function","name":"isListed","inputs":[{"name":"tokenId","type":"uint256","internalType":"uint256"}],"outputs":[{"name":"","type":"bool","internalType":"bool"}],"stateMutability":"view"},{"type":"function","name":"list","inputs":[{"name":"tokenId","type":"uint256","internalType":"uint256"},{"name":"priceUsdc","type":"uint256","internalType":"uint256"}],"outputs":[],"stateMutability":"nonpayable"},{"type":"function","name":"listings","inputs":[{"name":"","type":"uint256","internalType":"uint256"}],"outputs":[{"name":"seller","type":"address","internalType":"address"},{"name":"priceUsdc","type":"uint256","internalType":"uint256"},{"name":"listedAt","type":"uint256","internalType":"uint256"}],"stateMutability":"view"},{"type":"function","name":"onERC721Received","inputs":[{"name":"","type":"address","internalType":"address"},{"name":"","type":"address","internalType":"address"},{"name":"","type":"uint256","internalType":"uint256"},{"name":"","type":"bytes","internalType":"bytes"}],"outputs":[{"name":"","type":"bytes4","internalType":"bytes4"}],"stateMutability":"pure"},{"type":"function","name":"pause","inputs":[],"outputs":[],"stateMutability":"nonpayable"},{"type":"function","name":"paused","inputs":[],"outputs":[{"name":"","type":"bool","internalType":"bool"}],"stateMutability":"view"},{"type":"function","name":"renounceRole","inputs":[{"name":"role","type":"bytes32","internalType":"bytes32"},{"name":"callerConfirmation","type":"address","internalType":"address"}],"outputs":[],"stateMutability":"nonpayable"},{"type":"function","name":"revokeRole","inputs":[{"name":"role","type":"bytes32","internalType":"bytes32"},{"name":"account","type":"address","internalType":"address"}],"outputs":[],"stateMutability":"nonpayable"},{"type":"function","name":"stats","inputs":[],"outputs":[{"name":"volume","type":"uint256","internalType":"uint256"},{"name":"royalties","type":"uint256","internalType":"uint256"},{"name":"sales","type":"uint256","internalType":"uint256"},{"name":"activeListings","type":"uint256","internalType":"uint256"}],"stateMutability":"view"},{"type":"function","name":"supportsInterface","inputs":[{"name":"interfaceId","type":"bytes4","internalType":"bytes4"}],"outputs":[{"name":"","type":"bool","internalType":"bool"}],"stateMutability":"view"},{"type":"function","name":"timeNFT","inputs":[],"outputs":[{"name":"","type":"address","internalType":"contract IERC721"}],"stateMutability":"view"},{"type":"function","name":"totalRoyaltyPaid","inputs":[],"outputs":[{"name":"","type":"uint256","internalType":"uint256"}],"stateMutability":"view"},{"type":"function","name":"totalSales","inputs":[],"outputs":[{"name":"","type":"uint256","internalType":"uint256"}],"stateMutability":"view"},{"type":"function","name":"totalVolume","inputs":[],"outputs":[{"name":"","type":"uint256","internalType":"uint256"}],"stateMutability":"view"},{"type":"function","name":"unpause","inputs":[],"outputs":[],"stateMutability":"nonpayable"},{"type":"function","name":"updatePrice","inputs":[{"name":"tokenId","type":"uint256","internalType":"uint256"},{"name":"newPriceUsdc","type":"uint256","internalType":"uint256"}],"outputs":[],"stateMutability":"nonpayable"},{"type":"function","name":"usdc","inputs":[],"outputs":[{"name":"","type":"address","internalType":"contract IERC20"}],"stateMutability":"view"},{"type":"event","name":"Canceled","inputs":[{"name":"tokenId","type":"uint256","indexed":true,"internalType":"uint256"},{"name":"seller","type":"address","indexed":true,"internalType":"address"}],"anonymous":false},{"type":"event","name":"Listed","inputs":[{"name":"tokenId","type":"uint256","indexed":true,"internalType":"uint256"},{"name":"seller","type":"address","indexed":true,"internalType":"address"},{"name":"priceUsdc","type":"uint256","indexed":false,"internalType":"uint256"},{"name":"listedAt","type":"uint256","indexed":false,"internalType":"uint256"}],"anonymous":false},{"type":"event","name":"Paused","inputs":[{"name":"account","type":"address","indexed":false,"internalType":"address"}],"anonymous":false},{"type":"event","name":"PriceUpdated","inputs":[{"name":"tokenId","type":"uint256","indexed":true,"internalType":"uint256"},{"name":"oldPrice","type":"uint256","indexed":false,"internalType":"uint256"},{"name":"newPrice","type":"uint256","indexed":false,"internalType":"uint256"}],"anonymous":false},{"type":"event","name":"RoleAdminChanged","inputs":[{"name":"role","type":"bytes32","indexed":true,"internalType":"bytes32"},{"name":"previousAdminRole","type":"bytes32","indexed":true,"internalType":"bytes32"},{"name":"newAdminRole","type":"bytes32","indexed":true,"internalType":"bytes32"}],"anonymous":false},{"type":"event","name":"RoleGranted","inputs":[{"name":"role","type":"bytes32","indexed":true,"internalType":"bytes32"},{"name":"account","type":"address","indexed":true,"internalType":"address"},{"name":"sender","type":"address","indexed":true,"internalType":"address"}],"anonymous":false},{"type":"event","name":"RoleRevoked","inputs":[{"name":"role","type":"bytes32","indexed":true,"internalType":"bytes32"},{"name":"account","type":"address","indexed":true,"internalType":"address"},{"name":"sender","type":"address","indexed":true,"internalType":"address"}],"anonymous":false},{"type":"event","name":"Sold","inputs":[{"name":"tokenId","type":"uint256","indexed":true,"internalType":"uint256"},{"name":"seller","type":"address","indexed":true,"internalType":"address"},{"name":"buyer","type":"address","indexed":true,"internalType":"address"},{"name":"priceUsdc","type":"uint256","indexed":false,"internalType":"uint256"},{"name":"royaltyAmount","type":"uint256","indexed":false,"internalType":"uint256"},{"name":"sellerReceived","type":"uint256","indexed":false,"internalType":"uint256"}],"anonymous":false},{"type":"event","name":"Unpaused","inputs":[{"name":"account","type":"address","indexed":false,"internalType":"address"}],"anonymous":false},{"type":"error","name":"AccessControlBadConfirmation","inputs":[]},{"type":"error","name":"AccessControlUnauthorizedAccount","inputs":[{"name":"account","type":"address","internalType":"address"},{"name":"neededRole","type":"bytes32","internalType":"bytes32"}]},{"type":"error","name":"AddressEmptyCode","inputs":[{"name":"target","type":"address","internalType":"address"}]},{"type":"error","name":"AddressInsufficientBalance","inputs":[{"name":"account","type":"address","internalType":"address"}]},{"type":"error","name":"AlreadyListed","inputs":[{"name":"tokenId","type":"uint256","internalType":"uint256"}]},{"type":"error","name":"EnforcedPause","inputs":[]},{"type":"error","name":"ExpectedPause","inputs":[]},{"type":"error","name":"FailedInnerCall","inputs":[]},{"type":"error","name":"InsufficientAllowance","inputs":[{"name":"required","type":"uint256","internalType":"uint256"},{"name":"allowance","type":"uint256","internalType":"uint256"}]},{"type":"error","name":"NotListed","inputs":[{"name":"tokenId","type":"uint256","internalType":"uint256"}]},{"type":"error","name":"NotSeller","inputs":[{"name":"tokenId","type":"uint256","internalType":"uint256"},{"name":"caller","type":"address","internalType":"address"}]},{"type":"error","name":"ReentrancyGuardReentrantCall","inputs":[]},{"type":"error","name":"SafeERC20FailedOperation","inputs":[{"name":"token","type":"address","internalType":"address"}]},{"type":"error","name":"SelfPurchase","inputs":[]},{"type":"error","name":"ZeroPrice","inputs":[]}],"bytecode":{"object":"0x60c060405234801561000f575f5ffd5b506040516132ca3803806132ca83398181016040528101906100319190610440565b60015f819055505f60015f6101000a81548160ff0219169083151502179055505f73ffffffffffffffffffffffffffffffffffffffff168473ffffffffffffffffffffffffffffffffffffffff16036100bf576040517f08c379a00000000000000000000000000000000000000000000000000000000081526004016100b6906104fe565b60405180910390fd5b5f73ffffffffffffffffffffffffffffffffffffffff168373ffffffffffffffffffffffffffffffffffffffff160361012d576040517f08c379a000000000000000000000000000000000000000000000000000000000815260040161012490610566565b60405180910390fd5b5f73ffffffffffffffffffffffffffffffffffffffff168273ffffffffffffffffffffffffffffffffffffffff160361019b576040517f08c379a0000000000000000000000000000000000000000000000000000000008152600401610192906105ce565b60405180910390fd5b8373ffffffffffffffffffffffffffffffffffffffff1660808173ffffffffffffffffffffffffffffffffffffffff16815250508273ffffffffffffffffffffffffffffffffffffffff1660a08173ffffffffffffffffffffffffffffffffffffffff16815250506102155f5f1b8361028160201b60201c565b506102467f3b5d4cc60d3ec3516ee8ae083bd60934f6eb2a6c54b1229985c41bfb092b26038361028160201b60201c565b506102777f65d7a28e3265b37a6474929f336521b332c1681b933f6cb9f3376673440d862a8261028160201b60201c565b50505050506105ec565b5f610292838361037760201b60201c565b61036d57600160025f8581526020019081526020015f205f015f8473ffffffffffffffffffffffffffffffffffffffff1673ffffffffffffffffffffffffffffffffffffffff1681526020019081526020015f205f6101000a81548160ff02191690831515021790555061030a6103db60201b60201c565b73ffffffffffffffffffffffffffffffffffffffff168273ffffffffffffffffffffffffffffffffffffffff16847f2f8788117e7eff1d82e926ec794901d17c78024a50270940304540a733656f0d60405160405180910390a460019050610371565b5f90505b92915050565b5f60025f8481526020019081526020015f205f015f8373ffffffffffffffffffffffffffffffffffffffff1673ffffffffffffffffffffffffffffffffffffffff1681526020019081526020015f205f9054906101000a900460ff16905092915050565b5f33905090565b5f5ffd5b5f73ffffffffffffffffffffffffffffffffffffffff82169050919050565b5f61040f826103e6565b9050919050565b61041f81610405565b8114610429575f5ffd5b50565b5f8151905061043a81610416565b92915050565b5f5f5f5f60808587031215610458576104576103e2565b5b5f6104658782880161042c565b94505060206104768782880161042c565b93505060406104878782880161042c565b92505060606104988782880161042c565b91505092959194509250565b5f82825260208201905092915050565b7f4d61726b65743a207a65726f206e6674000000000000000000000000000000005f82015250565b5f6104e86010836104a4565b91506104f3826104b4565b602082019050919050565b5f6020820190508181035f830152610515816104dc565b9050919050565b7f4d61726b65743a207a65726f20757364630000000000000000000000000000005f82015250565b5f6105506011836104a4565b915061055b8261051c565b602082019050919050565b5f6020820190508181035f83015261057d81610544565b9050919050565b7f4d61726b65743a207a65726f2064616f000000000000000000000000000000005f82015250565b5f6105b86010836104a4565b91506105c382610584565b602082019050919050565b5f6020820190508181035f8301526105e5816105ac565b9050919050565b60805160a051612c7061065a5f395f81816106330152818161143b0152818161163d015281816116c9015261173001525f818161084a01528181610a0f01528181610bba01528181610e550152818161105a0152818161121a0152818161152001526117760152612c705ff3fe608060405234801561000f575f5ffd5b506004361061018c575f3560e01c8063792f88c5116100dc578063d547741f11610095578063de74e57b1161006f578063de74e57b1461044c578063e63ab1e91461047e578063e9c265181461049c578063fcce4883146104ba5761018c565b8063d547741f146103f3578063d80528ae1461040f578063d96a094a146104305761018c565b8063792f88c51461033057806382367b2d1461034e5780638456cb591461036a57806391d1485414610374578063a217fddf146103a4578063c128b231146103c25761018c565b80633f4ba83a116101495780635c975abb116101235780635c975abb146102b85780635f81a57c146102d657806362ded743146102f45780636605ff66146103125761018c565b80633f4ba83a1461027657806340e58ee51461028057806350fd73671461029c5761018c565b806301ffc9a714610190578063150b7a02146101c0578063248a9ca3146101f05780632f2ff15d1461022057806336568abe1461023c5780633e413bee14610258575b5f5ffd5b6101aa60048036038101906101a591906121b1565b6104ea565b6040516101b791906121f6565b60405180910390f35b6101da60048036038101906101d591906122fd565b610563565b6040516101e79190612390565b60405180910390f35b61020a600480360381019061020591906123dc565b610577565b6040516102179190612416565b60405180910390f35b61023a6004803603810190610235919061242f565b610594565b005b6102566004803603810190610251919061242f565b6105b6565b005b610260610631565b60405161026d91906124c8565b60405180910390f35b61027e610655565b005b61029a600480360381019061029591906124e1565b61068a565b005b6102b660048036038101906102b1919061250c565b610922565b005b6102c0610b91565b6040516102cd91906121f6565b60405180910390f35b6102de610ba6565b6040516102eb9190612559565b60405180910390f35b6102fc610bac565b6040516103099190612559565b60405180910390f35b61031a610bb2565b6040516103279190612559565b60405180910390f35b610338610bb8565b6040516103459190612592565b60405180910390f35b6103686004803603810190610363919061250c565b610bdc565b005b610372610db0565b005b61038e6004803603810190610389919061242f565b610de5565b60405161039b91906121f6565b60405180910390f35b6103ac610e49565b6040516103b99190612416565b60405180910390f35b6103dc60048036038101906103d7919061250c565b610e4f565b6040516103ea929190612759565b60405180910390f35b61040d6004803603810190610408919061242f565b6111e9565b005b61041761120b565b604051610427949392919061278e565b60405180910390f35b61044a600480360381019061044591906124e1565b6112be565b005b610466600480360381019061046191906124e1565b6118ab565b604051610475939291906127e0565b60405180910390f35b6104866118f0565b6040516104939190612416565b60405180910390f35b6104a4611914565b6040516104b19190612416565b60405180910390f35b6104d460048036038101906104cf91906124e1565b611938565b6040516104e191906121f6565b60405180910390f35b5f7f7965db0b000000000000000000000000000000000000000000000000000000007bffffffffffffffffffffffffffffffffffffffffffffffffffffffff1916827bffffffffffffffffffffffffffffffffffffffffffffffffffffffff1916148061055c575061055b826119a2565b5b9050919050565b5f63150b7a0260e01b905095945050505050565b5f60025f8381526020019081526020015f20600101549050919050565b61059d82610577565b6105a681611a0b565b6105b08383611a1f565b50505050565b6105be611b09565b73ffffffffffffffffffffffffffffffffffffffff168173ffffffffffffffffffffffffffffffffffffffff1614610622576040517f6697b23200000000000000000000000000000000000000000000000000000000815260040160405180910390fd5b61062c8282611b10565b505050565b7f000000000000000000000000000000000000000000000000000000000000000081565b7f3b5d4cc60d3ec3516ee8ae083bd60934f6eb2a6c54b1229985c41bfb092b260361067f81611a0b565b610687611bfa565b50565b610692611c5b565b5f60035f8381526020019081526020015f206040518060600160405290815f82015f9054906101000a900473ffffffffffffffffffffffffffffffffffffffff1673ffffffffffffffffffffffffffffffffffffffff1673ffffffffffffffffffffffffffffffffffffffff1681526020016001820154815260200160028201548152505090505f73ffffffffffffffffffffffffffffffffffffffff16815f015173ffffffffffffffffffffffffffffffffffffffff160361078c57816040517fd176cea00000000000000000000000000000000000000000000000000000000081526004016107839190612559565b60405180910390fd5b3373ffffffffffffffffffffffffffffffffffffffff16815f015173ffffffffffffffffffffffffffffffffffffffff16146108015781336040517f4a1233a90000000000000000000000000000000000000000000000000000000081526004016107f8929190612815565b60405180910390fd5b60035f8381526020019081526020015f205f5f82015f6101000a81549073ffffffffffffffffffffffffffffffffffffffff0219169055600182015f9055600282015f905550507f000000000000000000000000000000000000000000000000000000000000000073ffffffffffffffffffffffffffffffffffffffff166323b872dd3033856040518463ffffffff1660e01b81526004016108a59392919061283c565b5f604051808303815f87803b1580156108bc575f5ffd5b505af11580156108ce573d5f5f3e3d5ffd5b505050503373ffffffffffffffffffffffffffffffffffffffff16827fba05e869a56a216a7344a605ccad13464848815ad8bdf8d93ad788963a3cfdac60405160405180910390a35061091f611c9f565b50565b61092a611c5b565b610932611ca8565b5f810361096b576040517f4dfba02300000000000000000000000000000000000000000000000000000000815260040160405180910390fd5b5f73ffffffffffffffffffffffffffffffffffffffff1660035f8481526020019081526020015f205f015f9054906101000a900473ffffffffffffffffffffffffffffffffffffffff1673ffffffffffffffffffffffffffffffffffffffff1614610a0d57816040517f7fbcdff9000000000000000000000000000000000000000000000000000000008152600401610a049190612559565b60405180910390fd5b7f000000000000000000000000000000000000000000000000000000000000000073ffffffffffffffffffffffffffffffffffffffff166323b872dd3330856040518463ffffffff1660e01b8152600401610a6a9392919061283c565b5f604051808303815f87803b158015610a81575f5ffd5b505af1158015610a93573d5f5f3e3d5ffd5b5050505060405180606001604052803373ffffffffffffffffffffffffffffffffffffffff1681526020018281526020014281525060035f8481526020019081526020015f205f820151815f015f6101000a81548173ffffffffffffffffffffffffffffffffffffffff021916908373ffffffffffffffffffffffffffffffffffffffff16021790555060208201518160010155604082015181600201559050503373ffffffffffffffffffffffffffffffffffffffff16827f98868c46d49b200d82c273c9f28d73265826ca6567690262736450563dfff64c8342604051610b7d929190612871565b60405180910390a3610b8d611c9f565b5050565b5f60015f9054906101000a900460ff16905090565b60045481565b60055481565b60065481565b7f000000000000000000000000000000000000000000000000000000000000000081565b610be4611c5b565b5f60035f8481526020019081526020015f2090505f73ffffffffffffffffffffffffffffffffffffffff16815f015f9054906101000a900473ffffffffffffffffffffffffffffffffffffffff1673ffffffffffffffffffffffffffffffffffffffff1603610c8a57826040517fd176cea0000000000000000000000000000000000000000000000000000000008152600401610c819190612559565b60405180910390fd5b3373ffffffffffffffffffffffffffffffffffffffff16815f015f9054906101000a900473ffffffffffffffffffffffffffffffffffffffff1673ffffffffffffffffffffffffffffffffffffffff1614610d1e5782336040517f4a1233a9000000000000000000000000000000000000000000000000000000008152600401610d15929190612815565b60405180910390fd5b5f8203610d57576040517f4dfba02300000000000000000000000000000000000000000000000000000000815260040160405180910390fd5b5f81600101549050828260010181905550837f15819dd2fd9f6418b142e798d08a18d0bf06ea368f4480b7b0d3f75bd966bc488285604051610d9a929190612871565b60405180910390a25050610dac611c9f565b5050565b7f65d7a28e3265b37a6474929f336521b332c1681b933f6cb9f3376673440d862a610dda81611a0b565b610de2611ce9565b50565b5f60025f8481526020019081526020015f205f015f8373ffffffffffffffffffffffffffffffffffffffff1673ffffffffffffffffffffffffffffffffffffffff1681526020019081526020015f205f9054906101000a900460ff16905092915050565b5f5f1b81565b6060805f7f000000000000000000000000000000000000000000000000000000000000000073ffffffffffffffffffffffffffffffffffffffff166370a08231306040518263ffffffff1660e01b8152600401610eac9190612898565b602060405180830381865afa158015610ec7573d5f5f3e3d5ffd5b505050506040513d601f19601f82011682018060405250810190610eeb91906128c5565b9050808510610f9b575f67ffffffffffffffff811115610f0e57610f0d6128f0565b5b604051908082528060200260200182016040528015610f3c5781602001602082028036833780820191505090505b505f67ffffffffffffffff811115610f5757610f566128f0565b5b604051908082528060200260200182016040528015610f9057816020015b610f7d612120565b815260200190600190039081610f755790505b5092509250506111e2565b5f8582610fa8919061294a565b905084811115610fb6578490505b8067ffffffffffffffff811115610fd057610fcf6128f0565b5b604051908082528060200260200182016040528015610ffe5781602001602082028036833780820191505090505b5093508067ffffffffffffffff81111561101b5761101a6128f0565b5b60405190808252806020026020018201604052801561105457816020015b611041612120565b8152602001906001900390816110395790505b5092505f7f000000000000000000000000000000000000000000000000000000000000000090505f5f90505b828110156111dd578173ffffffffffffffffffffffffffffffffffffffff16632f745c5930838b6110b1919061297d565b6040518363ffffffff1660e01b81526004016110ce9291906129b0565b602060405180830381865afa92505050801561110857506040513d601f19601f8201168201806040525081019061110591906128c5565b60015b156111dd5780878381518110611121576111206129d7565b5b60200260200101818152505060035f8281526020019081526020015f206040518060600160405290815f82015f9054906101000a900473ffffffffffffffffffffffffffffffffffffffff1673ffffffffffffffffffffffffffffffffffffffff1673ffffffffffffffffffffffffffffffffffffffff168152602001600182015481526020016002820154815250508683815181106111c4576111c36129d7565b5b6020026020010181905250508080600101915050611080565b505050505b9250929050565b6111f282610577565b6111fb81611a0b565b6112058383611b10565b50505050565b5f5f5f5f6004546005546006547f000000000000000000000000000000000000000000000000000000000000000073ffffffffffffffffffffffffffffffffffffffff166370a08231306040518263ffffffff1660e01b81526004016112719190612898565b602060405180830381865afa15801561128c573d5f5f3e3d5ffd5b505050506040513d601f19601f820116820180604052508101906112b091906128c5565b935093509350935090919293565b6112c6611c5b565b6112ce611ca8565b5f60035f8381526020019081526020015f206040518060600160405290815f82015f9054906101000a900473ffffffffffffffffffffffffffffffffffffffff1673ffffffffffffffffffffffffffffffffffffffff1673ffffffffffffffffffffffffffffffffffffffff1681526020016001820154815260200160028201548152505090505f73ffffffffffffffffffffffffffffffffffffffff16815f015173ffffffffffffffffffffffffffffffffffffffff16036113c857816040517fd176cea00000000000000000000000000000000000000000000000000000000081526004016113bf9190612559565b60405180910390fd5b3373ffffffffffffffffffffffffffffffffffffffff16815f015173ffffffffffffffffffffffffffffffffffffffff1603611430576040517fa113a3fc00000000000000000000000000000000000000000000000000000000815260040160405180910390fd5b5f816020015190505f7f000000000000000000000000000000000000000000000000000000000000000073ffffffffffffffffffffffffffffffffffffffff1663dd62ed3e33306040518363ffffffff1660e01b8152600401611494929190612a04565b602060405180830381865afa1580156114af573d5f5f3e3d5ffd5b505050506040513d601f19601f820116820180604052508101906114d391906128c5565b90508181101561151c5781816040517f2a1b2dd8000000000000000000000000000000000000000000000000000000008152600401611513929190612871565b60405180910390fd5b5f5f7f000000000000000000000000000000000000000000000000000000000000000073ffffffffffffffffffffffffffffffffffffffff16632a55205a87866040518363ffffffff1660e01b8152600401611579929190612871565b6040805180830381865afa158015611593573d5f5f3e3d5ffd5b505050506040513d601f19601f820116820180604052508101906115b79190612a3f565b915091506014846115c89190612aaa565b8111156115df576014846115dc9190612aaa565b90505b5f81856115ec919061294a565b905060035f8881526020019081526020015f205f5f82015f6101000a81549073ffffffffffffffffffffffffffffffffffffffff0219169055600182015f9055600282015f905550506116823330877f000000000000000000000000000000000000000000000000000000000000000073ffffffffffffffffffffffffffffffffffffffff16611d4a909392919063ffffffff16565b5f821180156116bd57505f73ffffffffffffffffffffffffffffffffffffffff168373ffffffffffffffffffffffffffffffffffffffff1614155b156117265761170d83837f000000000000000000000000000000000000000000000000000000000000000073ffffffffffffffffffffffffffffffffffffffff16611dcc9092919063ffffffff16565b8160055f82825461171e919061297d565b925050819055505b611774865f0151827f000000000000000000000000000000000000000000000000000000000000000073ffffffffffffffffffffffffffffffffffffffff16611dcc9092919063ffffffff16565b7f000000000000000000000000000000000000000000000000000000000000000073ffffffffffffffffffffffffffffffffffffffff166323b872dd30338a6040518463ffffffff1660e01b81526004016117d19392919061283c565b5f604051808303815f87803b1580156117e8575f5ffd5b505af11580156117fa573d5f5f3e3d5ffd5b505050508460045f82825461180f919061297d565b9250508190555060065f81548092919061182890612ada565b91905055503373ffffffffffffffffffffffffffffffffffffffff16865f015173ffffffffffffffffffffffffffffffffffffffff16887f2938a0a3a4a7c19c3a1fe6ef25340b7acd26dfac11de87836084d42fccc1865688868660405161189293929190612b21565b60405180910390a45050505050506118a8611c9f565b50565b6003602052805f5260405f205f91509050805f015f9054906101000a900473ffffffffffffffffffffffffffffffffffffffff16908060010154908060020154905083565b7f65d7a28e3265b37a6474929f336521b332c1681b933f6cb9f3376673440d862a81565b7f3b5d4cc60d3ec3516ee8ae083bd60934f6eb2a6c54b1229985c41bfb092b260381565b5f5f73ffffffffffffffffffffffffffffffffffffffff1660035f8481526020019081526020015f205f015f9054906101000a900473ffffffffffffffffffffffffffffffffffffffff1673ffffffffffffffffffffffffffffffffffffffff1614159050919050565b5f7f01ffc9a7000000000000000000000000000000000000000000000000000000007bffffffffffffffffffffffffffffffffffffffffffffffffffffffff1916827bffffffffffffffffffffffffffffffffffffffffffffffffffffffff1916149050919050565b611a1c81611a17611b09565b611e4b565b50565b5f611a2a8383610de5565b611aff57600160025f8581526020019081526020015f205f015f8473ffffffffffffffffffffffffffffffffffffffff1673ffffffffffffffffffffffffffffffffffffffff1681526020019081526020015f205f6101000a81548160ff021916908315150217905550611a9c611b09565b73ffffffffffffffffffffffffffffffffffffffff168273ffffffffffffffffffffffffffffffffffffffff16847f2f8788117e7eff1d82e926ec794901d17c78024a50270940304540a733656f0d60405160405180910390a460019050611b03565b5f90505b92915050565b5f33905090565b5f611b1b8383610de5565b15611bf0575f60025f8581526020019081526020015f205f015f8473ffffffffffffffffffffffffffffffffffffffff1673ffffffffffffffffffffffffffffffffffffffff1681526020019081526020015f205f6101000a81548160ff021916908315150217905550611b8d611b09565b73ffffffffffffffffffffffffffffffffffffffff168273ffffffffffffffffffffffffffffffffffffffff16847ff6391f5c32d9c69d2a47ea670b442974b53935d1edc7fd64eb21e047a839171b60405160405180910390a460019050611bf4565b5f90505b92915050565b611c02611e9c565b5f60015f6101000a81548160ff0219169083151502179055507f5db9ee0a495bf2e6ff9c91a7834c1ba4fdd244a5e8aa4e537bd38aeae4b073aa611c44611b09565b604051611c519190612898565b60405180910390a1565b60025f5403611c96576040517f3ee5aeb500000000000000000000000000000000000000000000000000000000815260040160405180910390fd5b60025f81905550565b60015f81905550565b611cb0610b91565b15611ce7576040517fd93c066500000000000000000000000000000000000000000000000000000000815260040160405180910390fd5b565b611cf1611ca8565b6001805f6101000a81548160ff0219169083151502179055507f62e78cea01bee320cd4e420270b5ea74000d11b0c9f74754ebdbfc544b05a258611d33611b09565b604051611d409190612898565b60405180910390a1565b611dc6848573ffffffffffffffffffffffffffffffffffffffff166323b872dd868686604051602401611d7f9392919061283c565b604051602081830303815290604052915060e01b6020820180517bffffffffffffffffffffffffffffffffffffffffffffffffffffffff8381831617835250505050611edc565b50505050565b611e46838473ffffffffffffffffffffffffffffffffffffffff1663a9059cbb8585604051602401611dff9291906129b0565b604051602081830303815290604052915060e01b6020820180517bffffffffffffffffffffffffffffffffffffffffffffffffffffffff8381831617835250505050611edc565b505050565b611e558282610de5565b611e985780826040517fe2517d3f000000000000000000000000000000000000000000000000000000008152600401611e8f929190612b56565b60405180910390fd5b5050565b611ea4610b91565b611eda576040517f8dfc202b00000000000000000000000000000000000000000000000000000000815260040160405180910390fd5b565b5f611f06828473ffffffffffffffffffffffffffffffffffffffff16611f7190919063ffffffff16565b90505f815114158015611f2a575080806020019051810190611f289190612ba7565b155b15611f6c57826040517f5274afe7000000000000000000000000000000000000000000000000000000008152600401611f639190612898565b60405180910390fd5b505050565b6060611f7e83835f611f86565b905092915050565b606081471015611fcd57306040517fcd786059000000000000000000000000000000000000000000000000000000008152600401611fc49190612898565b60405180910390fd5b5f5f8573ffffffffffffffffffffffffffffffffffffffff168486604051611ff59190612c24565b5f6040518083038185875af1925050503d805f811461202f576040519150601f19603f3d011682016040523d82523d5f602084013e612034565b606091505b509150915061204486838361204f565b925050509392505050565b6060826120645761205f826120dc565b6120d4565b5f825114801561208a57505f8473ffffffffffffffffffffffffffffffffffffffff163b145b156120cc57836040517f9996b3150000000000000000000000000000000000000000000000000000000081526004016120c39190612898565b60405180910390fd5b8190506120d5565b5b9392505050565b5f815111156120ee5780518082602001fd5b6040517f1425ea4200000000000000000000000000000000000000000000000000000000815260040160405180910390fd5b60405180606001604052805f73ffffffffffffffffffffffffffffffffffffffff1681526020015f81526020015f81525090565b5f5ffd5b5f5ffd5b5f7fffffffff0000000000000000000000000000000000000000000000000000000082169050919050565b6121908161215c565b811461219a575f5ffd5b50565b5f813590506121ab81612187565b92915050565b5f602082840312156121c6576121c5612154565b5b5f6121d38482850161219d565b91505092915050565b5f8115159050919050565b6121f0816121dc565b82525050565b5f6020820190506122095f8301846121e7565b92915050565b5f73ffffffffffffffffffffffffffffffffffffffff82169050919050565b5f6122388261220f565b9050919050565b6122488161222e565b8114612252575f5ffd5b50565b5f813590506122638161223f565b92915050565b5f819050919050565b61227b81612269565b8114612285575f5ffd5b50565b5f8135905061229681612272565b92915050565b5f5ffd5b5f5ffd5b5f5ffd5b5f5f83601f8401126122bd576122bc61229c565b5b8235905067ffffffffffffffff8111156122da576122d96122a0565b5b6020830191508360018202830111156122f6576122f56122a4565b5b9250929050565b5f5f5f5f5f6080868803121561231657612315612154565b5b5f61232388828901612255565b955050602061233488828901612255565b945050604061234588828901612288565b935050606086013567ffffffffffffffff81111561236657612365612158565b5b612372888289016122a8565b92509250509295509295909350565b61238a8161215c565b82525050565b5f6020820190506123a35f830184612381565b92915050565b5f819050919050565b6123bb816123a9565b81146123c5575f5ffd5b50565b5f813590506123d6816123b2565b92915050565b5f602082840312156123f1576123f0612154565b5b5f6123fe848285016123c8565b91505092915050565b612410816123a9565b82525050565b5f6020820190506124295f830184612407565b92915050565b5f5f6040838503121561244557612444612154565b5b5f612452858286016123c8565b925050602061246385828601612255565b9150509250929050565b5f819050919050565b5f61249061248b6124868461220f565b61246d565b61220f565b9050919050565b5f6124a182612476565b9050919050565b5f6124b282612497565b9050919050565b6124c2816124a8565b82525050565b5f6020820190506124db5f8301846124b9565b92915050565b5f602082840312156124f6576124f5612154565b5b5f61250384828501612288565b91505092915050565b5f5f6040838503121561252257612521612154565b5b5f61252f85828601612288565b925050602061254085828601612288565b9150509250929050565b61255381612269565b82525050565b5f60208201905061256c5f83018461254a565b92915050565b5f61257c82612497565b9050919050565b61258c81612572565b82525050565b5f6020820190506125a55f830184612583565b92915050565b5f81519050919050565b5f82825260208201905092915050565b5f819050602082019050919050565b6125dd81612269565b82525050565b5f6125ee83836125d4565b60208301905092915050565b5f602082019050919050565b5f612610826125ab565b61261a81856125b5565b9350612625836125c5565b805f5b8381101561265557815161263c88826125e3565b9750612647836125fa565b925050600181019050612628565b5085935050505092915050565b5f81519050919050565b5f82825260208201905092915050565b5f819050602082019050919050565b6126948161222e565b82525050565b606082015f8201516126ae5f85018261268b565b5060208201516126c160208501826125d4565b5060408201516126d460408501826125d4565b50505050565b5f6126e5838361269a565b60608301905092915050565b5f602082019050919050565b5f61270782612662565b612711818561266c565b935061271c8361267c565b805f5b8381101561274c57815161273388826126da565b975061273e836126f1565b92505060018101905061271f565b5085935050505092915050565b5f6040820190508181035f8301526127718185612606565b9050818103602083015261278581846126fd565b90509392505050565b5f6080820190506127a15f83018761254a565b6127ae602083018661254a565b6127bb604083018561254a565b6127c8606083018461254a565b95945050505050565b6127da8161222e565b82525050565b5f6060820190506127f35f8301866127d1565b612800602083018561254a565b61280d604083018461254a565b949350505050565b5f6040820190506128285f83018561254a565b61283560208301846127d1565b9392505050565b5f60608201905061284f5f8301866127d1565b61285c60208301856127d1565b612869604083018461254a565b949350505050565b5f6040820190506128845f83018561254a565b612891602083018461254a565b9392505050565b5f6020820190506128ab5f8301846127d1565b92915050565b5f815190506128bf81612272565b92915050565b5f602082840312156128da576128d9612154565b5b5f6128e7848285016128b1565b91505092915050565b7f4e487b71000000000000000000000000000000000000000000000000000000005f52604160045260245ffd5b7f4e487b71000000000000000000000000000000000000000000000000000000005f52601160045260245ffd5b5f61295482612269565b915061295f83612269565b92508282039050818111156129775761297661291d565b5b92915050565b5f61298782612269565b915061299283612269565b92508282019050808211156129aa576129a961291d565b5b92915050565b5f6040820190506129c35f8301856127d1565b6129d0602083018461254a565b9392505050565b7f4e487b71000000000000000000000000000000000000000000000000000000005f52603260045260245ffd5b5f604082019050612a175f8301856127d1565b612a2460208301846127d1565b9392505050565b5f81519050612a398161223f565b92915050565b5f5f60408385031215612a5557612a54612154565b5b5f612a6285828601612a2b565b9250506020612a73858286016128b1565b9150509250929050565b7f4e487b71000000000000000000000000000000000000000000000000000000005f52601260045260245ffd5b5f612ab482612269565b9150612abf83612269565b925082612acf57612ace612a7d565b5b828204905092915050565b5f612ae482612269565b91507fffffffffffffffffffffffffffffffffffffffffffffffffffffffffffffffff8203612b1657612b1561291d565b5b600182019050919050565b5f606082019050612b345f83018661254a565b612b41602083018561254a565b612b4e604083018461254a565b949350505050565b5f604082019050612b695f8301856127d1565b612b766020830184612407565b9392505050565b612b86816121dc565b8114612b90575f5ffd5b50565b5f81519050612ba181612b7d565b92915050565b5f60208284031215612bbc57612bbb612154565b5b5f612bc984828501612b93565b91505092915050565b5f81519050919050565b5f81905092915050565b8281835e5f83830152505050565b5f612bfe82612bd2565b612c088185612bdc565b9350612c18818560208601612be6565b80840191505092915050565b5f612c2f8284612bf4565b91508190509291505056fea2646970667358221220f09c8762b6dad2970b27dae7aa43ddf32b8acea60561328fffc97350ad5f216064736f6c63430008230033","linkReferences":{}},"methodIdentifiers":{"DAO_ROLE()":"e9c26518","DEFAULT_ADMIN_ROLE()":"a217fddf","PAUSER_ROLE()":"e63ab1e9","buy(uint256)":"d96a094a","cancel(uint256)":"40e58ee5","getActiveListings(uint256,uint256)":"c128b231","getRoleAdmin(bytes32)":"248a9ca3","grantRole(bytes32,address)":"2f2ff15d","hasRole(bytes32,address)":"91d14854","isListed(uint256)":"fcce4883","list(uint256,uint256)":"50fd7367","listings(uint256)":"de74e57b","onERC721Received(address,address,uint256,bytes)":"150b7a02","pause()":"8456cb59","paused()":"5c975abb","renounceRole(bytes32,address)":"36568abe","revokeRole(bytes32,address)":"d547741f","stats()":"d80528ae","supportsInterface(bytes4)":"01ffc9a7","timeNFT()":"792f88c5","totalRoyaltyPaid()":"62ded743","totalSales()":"6605ff66","totalVolume()":"5f81a57c","unpause()":"3f4ba83a","updatePrice(uint256,uint256)":"82367b2d","usdc()":"3e413bee"},"id":66}