{"abi":[{"type":"constructor","inputs":[{"name":"_vault","type":"address","internalType":"address"},{"name":"_burnRouter","type":"address","internalType":"address"}],"stateMutability":"nonpayable"},{"type":"function","name":"DEFAULT_ADMIN_ROLE","inputs":[],"outputs":[{"name":"","type":"bytes32","internalType":"bytes32"}],"stateMutability":"view"},{"type":"function","name":"ROYALTY_BPS","inputs":[],"outputs":[{"name":"","type":"uint96","internalType":"uint96"}],"stateMutability":"view"},{"type":"function","name":"VAULT_ROLE","inputs":[],"outputs":[{"name":"","type":"bytes32","internalType":"bytes32"}],"stateMutability":"view"},{"type":"function","name":"approve","inputs":[{"name":"to","type":"address","internalType":"address"},{"name":"tokenId","type":"uint256","internalType":"uint256"}],"outputs":[],"stateMutability":"nonpayable"},{"type":"function","name":"balanceOf","inputs":[{"name":"owner","type":"address","internalType":"address"}],"outputs":[{"name":"","type":"uint256","internalType":"uint256"}],"stateMutability":"view"},{"type":"function","name":"daysRemaining","inputs":[{"name":"tokenId","type":"uint256","internalType":"uint256"}],"outputs":[{"name":"","type":"uint256","internalType":"uint256"}],"stateMutability":"view"},{"type":"function","name":"getApproved","inputs":[{"name":"tokenId","type":"uint256","internalType":"uint256"}],"outputs":[{"name":"","type":"address","internalType":"address"}],"stateMutability":"view"},{"type":"function","name":"getRoleAdmin","inputs":[{"name":"role","type":"bytes32","internalType":"bytes32"}],"outputs":[{"name":"","type":"bytes32","internalType":"bytes32"}],"stateMutability":"view"},{"type":"function","name":"grantRole","inputs":[{"name":"role","type":"bytes32","internalType":"bytes32"},{"name":"account","type":"address","internalType":"address"}],"outputs":[],"stateMutability":"nonpayable"},{"type":"function","name":"hasRole","inputs":[{"name":"role","type":"bytes32","internalType":"bytes32"},{"name":"account","type":"address","internalType":"address"}],"outputs":[{"name":"","type":"bool","internalType":"bool"}],"stateMutability":"view"},{"type":"function","name":"isApprovedForAll","inputs":[{"name":"owner","type":"address","internalType":"address"},{"name":"operator","type":"address","internalType":"address"}],"outputs":[{"name":"","type":"bool","internalType":"bool"}],"stateMutability":"view"},{"type":"function","name":"isMatured","inputs":[{"name":"tokenId","type":"uint256","internalType":"uint256"}],"outputs":[{"name":"","type":"bool","internalType":"bool"}],"stateMutability":"view"},{"type":"function","name":"mint","inputs":[{"name":"to","type":"address","internalType":"address"},{"name":"lockedAmount","type":"uint128","internalType":"uint128"},{"name":"lockDuration","type":"uint64","internalType":"uint64"},{"name":"inflationBps","type":"uint32","internalType":"uint32"},{"name":"timeValue","type":"uint128","internalType":"uint128"}],"outputs":[{"name":"tokenId","type":"uint256","internalType":"uint256"}],"stateMutability":"nonpayable"},{"type":"function","name":"name","inputs":[],"outputs":[{"name":"","type":"string","internalType":"string"}],"stateMutability":"view"},{"type":"function","name":"ownerOf","inputs":[{"name":"tokenId","type":"uint256","internalType":"uint256"}],"outputs":[{"name":"","type":"address","internalType":"address"}],"stateMutability":"view"},{"type":"function","name":"positions","inputs":[{"name":"","type":"uint256","internalType":"uint256"}],"outputs":[{"name":"lockedAmount","type":"uint128","internalType":"uint128"},{"name":"timeValue","type":"uint128","internalType":"uint128"},{"name":"lockDuration","type":"uint64","internalType":"uint64"},{"name":"maturesAt","type":"uint64","internalType":"uint64"},{"name":"inflationBps","type":"uint32","internalType":"uint32"},{"name":"mintedAt","type":"uint32","internalType":"uint32"},{"name":"redeemed","type":"bool","internalType":"bool"}],"stateMutability":"view"},{"type":"function","name":"positionsOf","inputs":[{"name":"owner","type":"address","internalType":"address"}],"outputs":[{"name":"","type":"uint256[]","internalType":"uint256[]"}],"stateMutability":"view"},{"type":"function","name":"redeem","inputs":[{"name":"tokenId","type":"uint256","internalType":"uint256"},{"name":"owner","type":"address","internalType":"address"}],"outputs":[],"stateMutability":"nonpayable"},{"type":"function","name":"renounceRole","inputs":[{"name":"role","type":"bytes32","internalType":"bytes32"},{"name":"callerConfirmation","type":"address","internalType":"address"}],"outputs":[],"stateMutability":"nonpayable"},{"type":"function","name":"revokeRole","inputs":[{"name":"role","type":"bytes32","internalType":"bytes32"},{"name":"account","type":"address","internalType":"address"}],"outputs":[],"stateMutability":"nonpayable"},{"type":"function","name":"royaltyInfo","inputs":[{"name":"tokenId","type":"uint256","internalType":"uint256"},{"name":"salePrice","type":"uint256","internalType":"uint256"}],"outputs":[{"name":"","type":"address","internalType":"address"},{"name":"","type":"uint256","internalType":"uint256"}],"stateMutability":"view"},{"type":"function","name":"safeTransferFrom","inputs":[{"name":"from","type":"address","internalType":"address"},{"name":"to","type":"address","internalType":"address"},{"name":"tokenId","type":"uint256","internalType":"uint256"}],"outputs":[],"stateMutability":"nonpayable"},{"type":"function","name":"safeTransferFrom","inputs":[{"name":"from","type":"address","internalType":"address"},{"name":"to","type":"address","internalType":"address"},{"name":"tokenId","type":"uint256","internalType":"uint256"},{"name":"data","type":"bytes","internalType":"bytes"}],"outputs":[],"stateMutability":"nonpayable"},{"type":"function","name":"setApprovalForAll","inputs":[{"name":"operator","type":"address","internalType":"address"},{"name":"approved","type":"bool","internalType":"bool"}],"outputs":[],"stateMutability":"nonpayable"},{"type":"function","name":"supportsInterface","inputs":[{"name":"interfaceId","type":"bytes4","internalType":"bytes4"}],"outputs":[{"name":"","type":"bool","internalType":"bool"}],"stateMutability":"view"},{"type":"function","name":"symbol","inputs":[],"outputs":[{"name":"","type":"string","internalType":"string"}],"stateMutability":"view"},{"type":"function","name":"tokenByIndex","inputs":[{"name":"index","type":"uint256","internalType":"uint256"}],"outputs":[{"name":"","type":"uint256","internalType":"uint256"}],"stateMutability":"view"},{"type":"function","name":"tokenOfOwnerByIndex","inputs":[{"name":"owner","type":"address","internalType":"address"},{"name":"index","type":"uint256","internalType":"uint256"}],"outputs":[{"name":"","type":"uint256","internalType":"uint256"}],"stateMutability":"view"},{"type":"function","name":"tokenURI","inputs":[{"name":"tokenId","type":"uint256","internalType":"uint256"}],"outputs":[{"name":"","type":"string","internalType":"string"}],"stateMutability":"view"},{"type":"function","name":"totalMinted","inputs":[],"outputs":[{"name":"","type":"uint256","internalType":"uint256"}],"stateMutability":"view"},{"type":"function","name":"totalRedeemed","inputs":[],"outputs":[{"name":"","type":"uint256","internalType":"uint256"}],"stateMutability":"view"},{"type":"function","name":"totalSupply","inputs":[],"outputs":[{"name":"","type":"uint256","internalType":"uint256"}],"stateMutability":"view"},{"type":"function","name":"transferFrom","inputs":[{"name":"from","type":"address","internalType":"address"},{"name":"to","type":"address","internalType":"address"},{"name":"tokenId","type":"uint256","internalType":"uint256"}],"outputs":[],"stateMutability":"nonpayable"},{"type":"event","name":"Approval","inputs":[{"name":"owner","type":"address","indexed":true,"internalType":"address"},{"name":"approved","type":"address","indexed":true,"internalType":"address"},{"name":"tokenId","type":"uint256","indexed":true,"internalType":"uint256"}],"anonymous":false},{"type":"event","name":"ApprovalForAll","inputs":[{"name":"owner","type":"address","indexed":true,"internalType":"address"},{"name":"operator","type":"address","indexed":true,"internalType":"address"},{"name":"approved","type":"bool","indexed":false,"internalType":"bool"}],"anonymous":false},{"type":"event","name":"PositionMinted","inputs":[{"name":"tokenId","type":"uint256","indexed":true,"internalType":"uint256"},{"name":"to","type":"address","indexed":true,"internalType":"address"},{"name":"lockedAmount","type":"uint128","indexed":false,"internalType":"uint128"},{"name":"lockDuration","type":"uint64","indexed":false,"internalType":"uint64"},{"name":"inflationBps","type":"uint32","indexed":false,"internalType":"uint32"},{"name":"timeValue","type":"uint128","indexed":false,"internalType":"uint128"},{"name":"maturesAt","type":"uint64","indexed":false,"internalType":"uint64"}],"anonymous":false},{"type":"event","name":"PositionRedeemed","inputs":[{"name":"tokenId","type":"uint256","indexed":true,"internalType":"uint256"},{"name":"by","type":"address","indexed":true,"internalType":"address"}],"anonymous":false},{"type":"event","name":"RoleAdminChanged","inputs":[{"name":"role","type":"bytes32","indexed":true,"internalType":"bytes32"},{"name":"previousAdminRole","type":"bytes32","indexed":true,"internalType":"bytes32"},{"name":"newAdminRole","type":"bytes32","indexed":true,"internalType":"bytes32"}],"anonymous":false},{"type":"event","name":"RoleGranted","inputs":[{"name":"role","type":"bytes32","indexed":true,"internalType":"bytes32"},{"name":"account","type":"address","indexed":true,"internalType":"address"},{"name":"sender","type":"address","indexed":true,"internalType":"address"}],"anonymous":false},{"type":"event","name":"RoleRevoked","inputs":[{"name":"role","type":"bytes32","indexed":true,"internalType":"bytes32"},{"name":"account","type":"address","indexed":true,"internalType":"address"},{"name":"sender","type":"address","indexed":true,"internalType":"address"}],"anonymous":false},{"type":"event","name":"Transfer","inputs":[{"name":"from","type":"address","indexed":true,"internalType":"address"},{"name":"to","type":"address","indexed":true,"internalType":"address"},{"name":"tokenId","type":"uint256","indexed":true,"internalType":"uint256"}],"anonymous":false},{"type":"error","name":"AccessControlBadConfirmation","inputs":[]},{"type":"error","name":"AccessControlUnauthorizedAccount","inputs":[{"name":"account","type":"address","internalType":"address"},{"name":"neededRole","type":"bytes32","internalType":"bytes32"}]},{"type":"error","name":"AlreadyRedeemed","inputs":[{"name":"tokenId","type":"uint256","internalType":"uint256"}]},{"type":"error","name":"ERC2981InvalidDefaultRoyalty","inputs":[{"name":"numerator","type":"uint256","internalType":"uint256"},{"name":"denominator","type":"uint256","internalType":"uint256"}]},{"type":"error","name":"ERC2981InvalidDefaultRoyaltyReceiver","inputs":[{"name":"receiver","type":"address","internalType":"address"}]},{"type":"error","name":"ERC2981InvalidTokenRoyalty","inputs":[{"name":"tokenId","type":"uint256","internalType":"uint256"},{"name":"numerator","type":"uint256","internalType":"uint256"},{"name":"denominator","type":"uint256","internalType":"uint256"}]},{"type":"error","name":"ERC2981InvalidTokenRoyaltyReceiver","inputs":[{"name":"tokenId","type":"uint256","internalType":"uint256"},{"name":"receiver","type":"address","internalType":"address"}]},{"type":"error","name":"ERC721EnumerableForbiddenBatchMint","inputs":[]},{"type":"error","name":"ERC721IncorrectOwner","inputs":[{"name":"sender","type":"address","internalType":"address"},{"name":"tokenId","type":"uint256","internalType":"uint256"},{"name":"owner","type":"address","internalType":"address"}]},{"type":"error","name":"ERC721InsufficientApproval","inputs":[{"name":"operator","type":"address","internalType":"address"},{"name":"tokenId","type":"uint256","internalType":"uint256"}]},{"type":"error","name":"ERC721InvalidApprover","inputs":[{"name":"approver","type":"address","internalType":"address"}]},{"type":"error","name":"ERC721InvalidOperator","inputs":[{"name":"operator","type":"address","internalType":"address"}]},{"type":"error","name":"ERC721InvalidOwner","inputs":[{"name":"owner","type":"address","internalType":"address"}]},{"type":"error","name":"ERC721InvalidReceiver","inputs":[{"name":"receiver","type":"address","internalType":"address"}]},{"type":"error","name":"ERC721InvalidSender","inputs":[{"name":"sender","type":"address","internalType":"address"}]},{"type":"error","name":"ERC721NonexistentToken","inputs":[{"name":"tokenId","type":"uint256","internalType":"uint256"}]},{"type":"error","name":"ERC721OutOfBoundsIndex","inputs":[{"name":"owner","type":"address","internalType":"address"},{"name":"index","type":"uint256","internalType":"uint256"}]},{"type":"error","name":"NotMatured","inputs":[{"name":"tokenId","type":"uint256","internalType":"uint256"},{"name":"maturesAt","type":"uint256","internalType":"uint256"},{"name":"currentTime","type":"uint256","internalType":"uint256"}]},{"type":"error","name":"OnlyVault","inputs":[]},{"type":"error","name":"TransferToZero","inputs":[]},{"type":"error","name":"ZeroAmount","inputs":[]}],"bytecode":{"object":"0x60806040523461044757613e876040813803918261001c8161044b565b9384928339810103126104475761003e602061003783610470565b9201610470565b610048604061044b565b91601583527f4d4154555252412054696d6520506f736974696f6e0000000000000000000000602084015261007d604061044b565b60058152647454494d4560d81b602082015283519092906001600160401b0381116101cc575f54600181811c9116801561043d575b602082101461034657601f81116103d0575b50602094601f821160011461036f579481929394955f92610364575b50508160011b915f199060031b1c1916175f555b82516001600160401b0381116101cc57600154600181811c9116801561035a575b602082101461034657601f81116102d8575b506020601f821160011461027557819293945f9261026a575b50508160011b915f199060031b1c1916176001555b6001600e556001600160a01b03821615610225576001600160a01b03169081156101e0578061018661018c92610484565b506104fa565b50604080519081016001600160401b038111828210176101cc576064916020916040528381520152601960a21b17600a55604051613899908161058e8239f35b634e487b7160e01b5f52604160045260245ffd5b60405162461bcd60e51b815260206004820152601860248201527f54696d654e46543a207a65726f206275726e526f7574657200000000000000006044820152606490fd5b60405162461bcd60e51b815260206004820152601360248201527f54696d654e46543a207a65726f207661756c74000000000000000000000000006044820152606490fd5b015190505f80610140565b601f1982169060015f52805f20915f5b8181106102c0575095836001959697106102a8575b505050811b01600155610155565b01515f1960f88460031b161c191690555f808061029a565b9192602060018192868b015181550194019201610285565b818111156101275760015f52601f820160051c7fb10e2d527612073b26eecdfd717e6a320cf44b4afac2b0732d9fcbe2b7fa0cf66020841061033e575b81601f9101920160051c03905f5b828110610331575050610127565b5f82820155600101610323565b5f9150610315565b634e487b7160e01b5f52602260045260245ffd5b90607f1690610115565b015190505f806100e0565b601f198216955f8052805f20915f5b8881106103b8575083600195969798106103a0575b505050811b015f556100f4565b01515f1960f88460031b161c191690555f8080610393565b9192602060018192868501518155019401920161037e565b818111156100c4575f8052601f820160051c7f290decd9548b62a8d60345a988386fc84ba6bc95484008f6362f93160ef3e56360208410610435575b81601f9101920160051c03905f5b8281106104285750506100c4565b5f8282015560010161041a565b5f915061040c565b90607f16906100b2565b5f80fd5b6040519190601f01601f191682016001600160401b038111838210176101cc57604052565b51906001600160a01b038216820361044757565b6001600160a01b0381165f9081525f516020613e475f395f51905f52602052604090205460ff166104f5576001600160a01b03165f8181525f516020613e475f395f51905f5260205260408120805460ff191660011790553391905f516020613e275f395f51905f528180a4600190565b505f90565b6001600160a01b0381165f9081525f516020613e675f395f51905f52602052604090205460ff166104f5576001600160a01b03165f8181525f516020613e675f395f51905f5260205260408120805460ff191660011790553391907f31e0210044b4f6757ce6aa31f9c6e8d4896d24a755014887391a926c5224d959905f516020613e275f395f51905f529080a460019056fe6080806040526004361015610012575f80fd5b5f905f3560e01c90816301ffc9a714612c245750806306fdde0314612b6c578063081812fc14612b30578063095ea7b314612a4657806317c9769c14612a2857806318160ddd14612a0b57806323b872dd146129f4578063248a9ca3146129c95780632a55205a146129145780632f2ff15d146128d65780632f745c59146128af57806336568abe1461286b57806342842e0e1461283c57806349c657db146128215780634f6ccce7146127d3578063631089901461276f5780636352211e1461273f57806370a08231146127145780637bde82f21461238657806391d148541461233d57806395d89b411461223557806398c4f1ac146121fb57806399fbab881461216d578063a217fddf14612153578063a22cb465146120b8578063a2309ff81461209b578063b88d4fde14612007578063c87b56dd1461087f578063d533a4b414610324578063d547741f146102dc578063e985e9c514610284578063f35dad40146102665763f867d46b14610189575f80fd5b34610263576020366003190112610263576101a2612d01565b6101ab8161312c565b6101b481613189565b906101c26040519283612d9d565b8082526101ce81613189565b602083019390601f1901368537845b8281106102295750505090604051928392602084019060208552518091526040840192915b818110610210575050500390f35b8251845285945060209384019390920191600101610202565b61023381836130b2565b845182101561024f57600582901b8501602001526001016101dd565b634e487b7160e01b87526032600452602487fd5b80fd5b50346102635780600319360112610263576020601054604051908152f35b50346102635760403660031901126102635760406102a0612d01565b916102a9612d17565b9260018060a01b031681526005602052209060018060a01b03165f52602052602060ff60405f2054166040519015158152f35b5034610263576040366003190112610263576103206004356102fc612d17565b9061031b610316825f52600c602052600160405f20015490565b613231565b6132f7565b5080f35b346107205760a03660031901126107205761033d612d01565b6024356001600160801b03811680910361072057604435906001600160401b038216809203610720576064359063ffffffff821680920361072057608435916001600160801b038316809303610720576103956131c2565b811561087057600e54926103a88461315d565b600e55846001600160401b03421601916001600160401b03831161077957604051926103d384612d67565b8484526020840183815260408501918883526001600160401b0360608701911695868252608081018581526001600160401b03600160a084019363ffffffff4216855260c08101965f88528d5f52600d6020526001600160801b0360405f20925116906001600160801b0319905160801b1617815501955116926fffffffffffffffff00000000000000008654915160401b169163ffffffff60801b905160801b169263ffffffff60a01b905160a01b169363ffffffff60a01b19916001600160601b0360a01b161716171717825551151581549060ff60c01b9060c01b169060ff60c01b19161790556104c8600f5461315d565b600f556020956040516104db8882612d9d565b5f81526001600160a01b03891698891561085d575f88815260028a5260409020546001600160a01b03168015801591908261082c575b8c5f5260038c5260405f20600181540190558a5f5260028c5260405f208d6001600160601b0360a01b8254161790558a8d837fddf252ad1be2c89b69c2b068fc378daa952ba7f163c4a11628f55a4df523b3ef5f80a4156107a1576008548a5f5260098c528060405f2055600160401b81101561078d578a61059c8260016105b49401600855613100565b90919082549060031b91821b915f19901b1916179055565b8b810361073e575b5061072b573b610614575b509385937f655ccd25608748852815cd0e93f756c74b61e98520c0bf426561b7dac5576f539360a0938a976040519485528a850152604084015260608301526080820152a3604051908152f35b8761064d9160405180938192630a85bd0160e11b83523360048401525f60248401528b6044840152608060648401526084830190612cdd565b03815f8d5af15f91816106e7575b506106ae5788883d156106a7573d61067281612dbe565b906106806040519283612d9d565b81523d5f8383013e5b805191826106a45783633250574960e11b5f5260045260245ffd5b01fd5b6060610689565b969795966001600160e01b03191663757a42ff60e11b016106d4579496959460a06105c7565b85633250574960e11b5f5260045260245ffd5b9091508881813d8311610724575b6106ff8183612d9d565b8101031261072057516001600160e01b03198116810361072057908a61065b565b5f80fd5b503d6106f5565b6339e3563760e11b5f525f60045260245ffd5b6107478361312c565b5f198101908111610779578c5f5260068c5260405f20815f528c528a60405f20558a5f5260078c5260405f20556105bc565b634e487b7160e01b5f52601160045260245ffd5b634e487b7160e01b5f52604160045260245ffd5b808c146105b4576107b18161312c565b8a5f5260078c5260405f20548181036107ee575b508a5f5260078c525f6040812055815f5260068c5260405f20905f528b525f60408120556105b4565b825f5260068d5260405f20825f528d528c600660405f205491855f52528d60405f2090835f52528060405f20555f5260078d5260405f20558d6107c5565b5f8b81526004602052604080822080546001600160a01b031916905583825260038e52902080545f19019055610511565b633250574960e11b5f525f60045260245ffd5b631f2a200560e01b5f5260045ffd5b346107205760203660031901126107205760043561089c816131a0565b50805f52600d60205260405f20604051906108b682612d67565b60018154916001600160801b0383168452602084019260801c83520154604083016001600160401b03821681526001600160401b038260401c16906060850191808352608086019063ffffffff8560801c16825263ffffffff8560a01c1660a088015260ff60c088019560c01c1615158086525f14611f1657506040805161093e8282612d9d565b6008815267149151115153515160c21b60208201529061096081519182612d9d565b60078152662338453845393360c81b6020820152905b602061098b6001600160801b038a511661377c565b9263ffffffff855116926109fa60016109b963ffffffff60646109b182828b0416613634565b980616613842565b85604051968792818085019a8051918291018c5e840190601760f91b83830152805192839101602183015e01015f838201520301601f198101855284612d9d565b610a0d6001600160801b038b511661380c565b91610a178d613634565b94610a30620151806001600160401b038b511604613634565b906001600160401b038b5116956001600160401b036301e187e08804166107b201956001600160401b03871161077957610a9f6001600160401b0380610a976201518082622820a8818f82826301e187e0610a8d9306160461316b565b169e06160461316b565b169816613634565b97600a811015611f0757610ae86021610ab9602093613634565b604051938491600360fc1b828401528051918291018484015e81015f838201520301601f198101835282612d9d565b965b600a811015611ef857610b036021610ab9602093613634565b965b604051978891602083019a805160208192018d5e830160208101602d60f81b905281516020819301602183015e0160200160018101602d60f81b905281516020819301600283015e01600101600181015f905203600101601f1981018852610b6d9088612d9d565b604080517f3c73766720786d6c6e733d22687474703a2f2f7777772e77332e6f72672f32306020808301919091527f30302f737667222077696474683d2234303022206865696768743d2234303022928201929092527f2076696577426f783d223020302034303020343030223e0000000000000000006060820152651e3232b3399f60d11b60778201527f3c6c696e6561724772616469656e742069643d226267222078313d2230252220607d8201527f79313d223025222078323d2231303025222079323d2231303025223e00000000609d8201527f3c73746f70206f66667365743d22302522207374796c653d2273746f702d636f60b982018190526d3637b91d1198209820982091179f60911b60d98301527f3c73746f70206f66667365743d223130302522207374796c653d2273746f702d60e783018190526f31b7b637b91d1198a198a198a291179f60811b610107840152701e17b634b732b0b923b930b234b2b73a1f60791b61011784018190527f3c6c696e6561724772616469656e742069643d22676c6f77222078313d2230256101288501527f222079313d223025222078323d2231303025222079323d223025223e000000006101488501526101648401929092527f6c6f723a233030423836423b73746f702d6f7061636974793a30222f3e0000006101848401527f3c73746f70206f66667365743d2235302522207374796c653d2273746f702d636101a18401527f6f6c6f723a233030423836423b73746f702d6f7061636974793a302e36222f3e6101c18401526101e18301527f636f6c6f723a233030423836423b73746f702d6f7061636974793a30222f3e00610201830152610220820152661e17b232b3399f60c91b6102318201527f3c726563742077696474683d2234303022206865696768743d223430302220666102388201527f696c6c3d2275726c2823626729222072783d223136222f3e00000000000000006102588201527f3c7265637420783d22302220793d2230222077696474683d22343030222068656102708201527f696768743d2232222066696c6c3d2275726c2823676c6f7729222072783d22316102908201526211179f60e91b6102b08201527f3c7465787420783d2232342220793d2234342220666f6e742d66616d696c793d6102b38201527f226d6f6e6f73706163652220666f6e742d73697a653d2232302220666f6e742d6102d38201527f7765696768743d22626f6c64222066696c6c3d2223303042383642223e4d41546102f38201526a2aa929209e17ba32bc3a1f60a91b6103138201527f3c7465787420783d223130302220793d2234342220666f6e742d66616d696c7961031e8201527f3d226d6f6e6f73706163652220666f6e742d73697a653d223131222066696c6c61033e82018190527f3d222333413341334322206c65747465722d73706163696e673d2232223e505261035e8301526c27aa27a1a7a61e17ba32bc3a1f60991b61037e8301527f3c7465787420783d223337362220793d2234342220666f6e742d66616d696c7961038b8301526103ab8201527f3d22233341334133432220746578742d616e63686f723d22656e64223e2300006103cb8201528a51909b8c9b90928291016103e98d015e661e17ba32bc3a1f60c91b6103e9918c01918201527f3c6c696e652078313d223234222079313d223630222078323d223337362220796103f08201527f323d22363022207374726f6b653d222332413241324122207374726f6b652d776104108201526b34b23a341e9118171a91179f60a11b6104308201527f3c7465787420783d2232342220793d223130342220666f6e742d66616d696c7961043c8201527f3d226d6f6e6f73706163652220666f6e742d73697a653d223130222066696c6c61045c8201527f3d222338453845393322206c65747465722d73706163696e673d2231223e4c4f61047c8201526a21a5a2a21e17ba32bc3a1f60a91b61049c8201527f3c7465787420783d2232342220793d223132382220666f6e742d66616d696c796104a78201527f3d22417269616c2c73616e732d73657269662220666f6e742d73697a653d22336104c78201527f322220666f6e742d7765696768743d22626f6c64222066696c6c3d22234635466104e7820152650d518dc88f8960d21b610507820152815191829060200161050d83015e661e17ba32bc3a1f60c91b61050d92909101918201527f3c7465787420783d2232342220793d223134382220666f6e742d66616d696c796105148201527f3d226d6f6e6f73706163652220666f6e742d73697a653d223130222066696c6c6105348201819052751e911199a099a099a1911f2aa9a2219e17ba32bc3a1f60511b6105548301527f3c7465787420783d2232342220793d223139322220666f6e742d66616d696c7961056a83015261058a8201527f3d222338453845393322206c65747465722d73706163696e673d2231223e4d416105aa820152742a2aa92920a920a6102b20a62aa29e17ba32bc3a1f60591b6105ca8201527f3c7465787420783d2232342220793d223231342220666f6e742d66616d696c796105df8201527f3d22417269616c2c73616e732d73657269662220666f6e742d73697a653d22326105ff8201527f322220666f6e742d7765696768743d22626f6c64222066696c6c3d222330304261061f820152641c1b21111f60d91b61063f8201528151916103e9820191839160200190610644015e6b102a24a6a29e17ba32bc3a1f60a11b61025b92909101918201527f3c7265637420783d2232342220793d22323430222077696474683d22313638226102678201527f206865696768743d223536222072783d2238222066696c6c3d222331433143316102878201527f4522207374726f6b653d222332413241324122207374726f6b652d77696474686102a7820152671e9118171a91179f60c11b6102c78201527f3c7465787420783d2233362220793d223236302220666f6e742d66616d696c796102cf8201527f3d226d6f6e6f73706163652220666f6e742d73697a653d2239222066696c6c3d6102ef8201527f2223384538453933223e494e464c4154494f4e20524154453c2f746578743e0061030f8201527f3c7465787420783d2233362220793d223238302220666f6e742d66616d696c7961032e8201527f3d22417269616c2c73616e732d73657269662220666f6e742d73697a653d223161034e8201527f362220666f6e742d7765696768743d22626f6c64222066696c6c3d222346354661036e820152641aa31b911f60d91b61038e820152905191610124820191839190610393015e67129e17ba32bc3a1f60c11b61026f92909101918201527f3c7265637420783d223230382220793d22323430222077696474683d223136386102778201527f22206865696768743d223536222072783d2238222066696c6c3d2223314331436102978201527f314522207374726f6b653d222332413241324122207374726f6b652d776964746102b782015268341e9118171a91179f60b91b6102d78201527f3c7465787420783d223232302220793d223236302220666f6e742d66616d696c6102e08201527f793d226d6f6e6f73706163652220666f6e742d73697a653d2239222066696c6c6103008201527f3d2223384538453933223e4c4f434b204455524154494f4e3c2f746578743e006103208201527f3c7465787420783d223232302220793d223238302220666f6e742d66616d696c61033f8201527f793d22417269616c2c73616e732d73657269662220666f6e742d73697a653d2261035f8201527f31362220666f6e742d7765696768743d22626f6c64222066696c6c3d2223463561037f82015265231aa31b911f60d11b61039f8201528151916101378201918391602001906103a5015e6b102220aca99e17ba32bc3a1f60a11b61026e92909101918201527f3c7265637420783d2232342220793d22333136222077696474683d223335322261027a8201527f206865696768743d223434222072783d2238222066696c6c3d2223304130413061029a8201527f4122207374726f6b653d222332413241324122207374726f6b652d77696474686102ba820152671e9118171a91179f60c11b6102da8201527f3c636972636c652063783d223434222063793d223333382220723d22352220666102e28201526434b6361e9160d91b610302820152815160208301929161013881019082908590610307015e0161013601906211179f60e91b6099830152609c82017f3c7465787420783d2235382220793d223334332220666f6e742d66616d696c79905260bc82017f3d226d6f6e6f73706163652220666f6e742d73697a653d2231312220666f6e7490527416bbb2b4b3b43a1e913137b63211103334b6361e9160591b60dc83015251809260f183015e0160990161111f60f11b605882015281516020819301605a83015e661e17ba32bc3a1f60c91b605a92909101918201527f3c7465787420783d2232342220793d223339302220666f6e742d66616d696c7960618201527f3d226d6f6e6f73706163652220666f6e742d73697a653d2239222066696c6c3d60818201527f2223334133413343223e6d6174757272612e66696e616e63653c2f746578743e60a18201527f3c7465787420783d223337362220793d223339302220666f6e742d66616d696c60c18201527f793d226d6f6e6f73706163652220666f6e742d73697a653d2239222066696c6c60e18201527f3d22233341334133432220746578742d616e63686f723d22656e64223e00000061010182015267026a0aa2aa922a9960c51b61011e8201529051916058820191839190610126015e0160020160cc8101661e17ba32bc3a1f60c91b905260d38101651e17b9bb339f60d11b90520360cc0160121981018252600d016119819082612d9d565b61198a906134e2565b94604051978860208101977f646174613a696d6167652f7376672b786d6c3b6261736536342c000000000000895280516020819201603a84015e8101603a81015f905203603a01601f1981018a526119e2908a612d9d565b6119eb90613634565b96516001600160801b03166119ff9061377c565b90516001600160801b0316611a139061380c565b915163ffffffff16611a2490613634565b92516001600160401b0316620151809004611a3e90613634565b9380516001600160401b0316611a5390613634565b955115611e9b5750604051611a69604082612d9d565b600881526714995919595b595960c21b6020820152955b60405198899860208a017f7b226e616d65223a224d41545552524120506f736974696f6e20230000000000905280516020819201603b8c015e61088b60f21b603b918b01918201527f226465736372697074696f6e223a2241204d4154555252412050726f746f636f603d8201527f6c2074696d6520706f736974696f6e2e2054686973204e465420726570726573605d8201527f656e7473206c6f636b65642055534443206361706974616c2077686f73652072607d8201527f65616c206d61747572726172616c2076616c756520686173206265656e20636f609d8201527f6d707574656420616761696e7374206c69766520696e666c6174696f6e20646160bd8201527f74612e2054686520686f6c6465722063616e2072656465656d2074686520756e60dd8201527f6465726c79696e672055534443206174206d617475726974792e222c0000000060fd820152681134b6b0b3b2911d1160b91b610119820152905191829061012283015e01603b0161088b60f21b60e78201526d2261747472696275746573223a5b60901b60e982015260f781017f7b2274726169745f74797065223a224c6f636b65642055534443222c2276616c9052643ab2911d1160d91b6101178201528151602081930161011c83015e0160e70162089f4b60ea1b6035820152603881017f7b2274726169745f74797065223a224d61747572726172616c2056616c75652290526916113b30b63ab2911d1160b11b605882015281516020819301606283015e0160350162089f4b60ea1b602d820152603081017f7b2274726169745f74797065223a22496e666c6174696f6e205261746520284290526c2829949116113b30b63ab2911d60991b605082015281516020819301605d83015e01602d0160308101611f4b60f21b9052603281017f7b2274726169745f74797065223a224c6f636b204475726174696f6e2028646190526c3cb9949116113b30b63ab2911d60991b605282015281516020819301605f83015e01603001602f8101611f4b60f21b9052603181017f7b2274726169745f74797065223a224d617475726573204174222c2276616c7590526232911d60e91b605182015281516020819301605483015e01602f0160258101611f4b60f21b9052602781017f7b2274726169745f74797065223a22537461747573222c2276616c7565223a22905281516020819301604783015e61227d60f01b91016047810191909152615d7d60f01b604982015203602b81018252611e2290604b0182612d9d565b611e2b906134e2565b6040518091602082017f646174613a6170706c69636174696f6e2f6a736f6e3b6261736536342c000000905280516020819201603d84015e8101603d81015f905203603d01601f1981018252611e819082612d9d565b60405180916020825260208201611e9791612cdd565b0390f35b516001600160401b03164210611ed257604051611eb9604082612d9d565b6005815264526561647960d81b60208201525b95611a80565b604051611ee0604082612d9d565b6006815265131bd8dad95960d21b6020820152611ecc565b611f0190613634565b96610b05565b611f1090613634565b96610aea565b426001600160401b031690808210611f7b57505060408051611f388282612d9d565b600f81526e524541445920544f2052454445454d60881b602082015290611f6181519182612d9d565b6007815266046666088626a760cb1b602082015290610976565b036001600160401b03811161077957611fdf600a6020611fab6001600160401b0362015180818497160416613634565b6040519481869251918291018484015e8101690811105654c81311519560b21b838201520301601519810184520182612d9d565b604051611fed604082612d9d565b60078152661198209c1a232360c91b602082015290610976565b3461072057608036600319011261072057612020612d01565b612028612d17565b90604435606435926001600160401b03841161072057366023850112156107205783600401359261205884612dbe565b936120666040519586612d9d565b8085523660248288010111610720576020815f92602461209999018389013786010152612094838383612e1a565b61337b565b005b34610720575f366003190112610720576020600f54604051908152f35b34610720576040366003190112610720576120d1612d01565b60243590811515809203610720576001600160a01b031690811561214057335f52600560205260405f20825f5260205260405f2060ff1981541660ff83161790556040519081527f17307eab39ab6107e8899845ad3d59bd9653f200f220920489ca2b5937696c3160203392a3005b50630b61174360e31b5f5260045260245ffd5b34610720575f3660031901126107205760206040515f8152f35b34610720576020366003190112610720576004355f52600d60205260e060405f2060ff60018254920154604051926001600160801b038116845260801c60208401526001600160401b03811660408401526001600160401b038160401c16606084015263ffffffff8160801c16608084015263ffffffff8160a01c1660a084015260c01c16151560c0820152f35b34610720575f3660031901126107205760206040517f31e0210044b4f6757ce6aa31f9c6e8d4896d24a755014887391a926c5224d9598152f35b34610720575f366003190112610720576040515f6001548060011c90600181168015612333575b60208310811461231f578285529081156122fb575060011461229d575b611e978361228981850382612d9d565b604051918291602083526020830190612cdd565b91905060015f527fb10e2d527612073b26eecdfd717e6a320cf44b4afac2b0732d9fcbe2b7fa0cf6915f905b8082106122e157509091508101602001612289612279565b9192600181602092548385880101520191019092916122c9565b60ff191660208086019190915291151560051b840190910191506122899050612279565b634e487b7160e01b5f52602260045260245ffd5b91607f169161225c565b3461072057604036600319011261072057612356612d17565b6004355f52600c60205260405f209060018060a01b03165f52602052602060ff60405f2054166040519015158152f35b34610720576040366003190112610720576004356123a2612d17565b906123ab6131c2565b805f52600d60205260ff600160405f20015460c01c1661270257805f52600d6020526001600160401b03600160405f20015460401c1642106126cc576123f0816131a0565b6001600160a01b039283169216829003612692575f818152600d60205260409020600101805460ff60c01b1916600160c01b1790556010546124319061315d565b601055335f9081527f3a98aa3d94c0782ff7ca10c421a926220a2d2baa80161747231a90b2b8f913b4602052604090205460ff1615612683575f818152600260205260409020546001600160a01b0316801590811580612650575b5f84815260026020526040812080546001600160a01b03191690558490837fddf252ad1be2c89b69c2b068fc378daa952ba7f163c4a11628f55a4df523b3ef8280a482156125cf5750600854835f5260096020528060405f2055600160401b81101561078d578361059c8260016125069401600855613100565b6008545f19810190811161077957835f52600960205261252a60405f205491613100565b90549060031b1c61253e8161059c84613100565b5f52600960205260405f2055825f5260096020525f604081205560085480156125bb575f190161256d81613100565b8154905f199060031b1b19169055600855506125a9577f4a6ead20891c031e5f4f01b04e1be004378cce17267e742f13d3c82269dc7f205f80a3005b637e27328960e01b5f5260045260245ffd5b634e487b7160e01b5f52603160045260245ffd5b15612506576125dd8161312c565b835f52600760205260405f205481810361261e575b50835f5260076020525f6040812055815f52600660205260405f20905f526020525f6040812055612506565b5f83815260066020908152604080832085845282528083205484845281842081905583526007909152902055856125f2565b5f84815260046020526040902080546001600160a01b0319169055815f52600360205260405f205f19815401905561248c565b63a38ca3d960e01b5f5260045ffd5b60405162461bcd60e51b81526020600482015260126024820152712a34b6b2a7232a1d103737ba1037bbb732b960711b6044820152606490fd5b805f52600d6020526001600160401b03600160405f20015460401c16906316a6f6d960e01b5f526004526024524260445260645ffd5b63d36d946d60e01b5f5260045260245ffd5b34610720576020366003190112610720576020612737612732612d01565b61312c565b604051908152f35b3461072057602036600319011261072057602061275d6004356131a0565b6040516001600160a01b039091168152f35b3461072057602036600319011261072057600435805f52600d6020526001600160401b03600160405f20015460401c16421015806127b5575b6020906040519015158152f35b505f52600d602052602060ff600160405f20015460c01c16156127a8565b346107205760203660031901126107205760043560085481101561280b576127fc602091613100565b90549060031b1c604051908152f35b63295f44f760e21b5f525f60045260245260445ffd5b34610720575f36600319011261072057602060405160648152f35b346107205761209961284d36612d2d565b906040519261285d602085612d9d565b5f8452612094838383612e1a565b3461072057604036600319011261072057612884612d17565b336001600160a01b038216036128a057612099906004356132f7565b63334bd91960e11b5f5260045ffd5b346107205760403660031901126107205760206127376128cd612d01565b602435906130b2565b34610720576040366003190112610720576120996004356128f5612d17565b9061290f610316825f52600c602052600160405f20015490565b61326b565b34610720576040366003190112610720576024356004355f52600b60205260405f206040519061294382612d82565b546001600160a01b03811680835260a09190911c6020830152156129a0575b6001600160601b03602082015116918281029281840414901517156107795751604080516001600160a01b0390921682526127109092046020820152f35b506040516129ad81612d82565b600a546001600160a01b038116825260a01c6020820152612962565b346107205760203660031901126107205760206127376004355f52600c602052600160405f20015490565b3461072057612099612a0536612d2d565b91612e1a565b34610720575f366003190112610720576020600854604051908152f35b34610720576020366003190112610720576020612737600435612dd9565b3461072057604036600319011261072057612a5f612d01565b602435612a6b816131a0565b33151580612b1d575b80612af0575b612add5781906001600160a01b0384811691167f8c5be1e5ebec7d5bd14f71427d1e84f3dd0314c0f7b2291e5b200ac8c7c3b9255f80a45f90815260046020526040902080546001600160a01b0319166001600160a01b03909216919091179055005b63a9fbf51f60e01b5f523360045260245ffd5b506001600160a01b0381165f90815260056020908152604080832033845290915290205460ff1615612a7a565b506001600160a01b038116331415612a74565b3461072057602036600319011261072057600435612b4d816131a0565b505f526004602052602060018060a01b0360405f205416604051908152f35b34610720575f366003190112610720576040515f5f548060011c90600181168015612c1a575b60208310811461231f578285529081156122fb5750600114612bbe57611e978361228981850382612d9d565b5f8080527f290decd9548b62a8d60345a988386fc84ba6bc95484008f6362f93160ef3e563939250905b808210612c0057509091508101602001612289612279565b919260018160209254838588010152019101909291612be8565b91607f1691612b92565b34610720576020366003190112610720576004359063ffffffff60e01b821680920361072057602091637965db0b60e01b8114908115612c66575b5015158152f35b63152a902d60e11b811491508115612c80575b5083612c5f565b63780e9d6360e01b811491508115612c9a575b5083612c79565b6380ac58cd60e01b811491508115612ccc575b8115612cbb575b5083612c93565b6301ffc9a760e01b14905083612cb4565b635b5e139f60e01b81149150612cad565b805180835260209291819084018484015e5f828201840152601f01601f1916010190565b600435906001600160a01b038216820361072057565b602435906001600160a01b038216820361072057565b6060906003190112610720576004356001600160a01b038116810361072057906024356001600160a01b0381168103610720579060443590565b60e081019081106001600160401b0382111761078d57604052565b604081019081106001600160401b0382111761078d57604052565b90601f801991011681019081106001600160401b0382111761078d57604052565b6001600160401b03811161078d57601f01601f191660200190565b5f52600d6020526001600160401b03600160405f20015460401c168015612e155780421015612e15574281039081116107795762015180900490565b505f90565b9091906001600160a01b038316801561085d575f838152600260205260409020546001600160a01b03169333151580613022575b5084158015612fef575b825f52600360205260405f2060018154019055845f52600260205260405f20836001600160601b0360a01b8254161790558483877fddf252ad1be2c89b69c2b068fc378daa952ba7f163c4a11628f55a4df523b3ef5f80a415612f5d57600854845f5260096020528060405f2055600160401b81101561078d578461059c826001612ee69401600855613100565b818503612f1d575b50506001600160a01b0316808303612f0557505050565b6364283d7b60e01b5f5260045260245260445260645ffd5b612f269061312c565b5f19810191908211610779575f52600660205260405f20815f526020528260405f2055825f52600760205260405f20555f80612eee565b848214612ee657612f6d8561312c565b845f52600760205260405f2054818103612fae575b50845f5260076020525f6040812055855f52600660205260405f20905f526020525f6040812055612ee6565b865f52600660205260405f20825f5260205260405f2054875f52600660205260405f20825f526020528060405f20555f52600760205260405f20555f612f82565b5f85815260046020526040902080546001600160a01b0319169055855f52600360205260405f205f198154019055612e58565b80613061575b15613033575f612e4e565b838561304b57637e27328960e01b5f5260045260245ffd5b63177e802f60e01b5f523360045260245260445ffd5b503385148015613090575b8061302857505f848152600460205260409020546001600160a01b03163314613028565b505f85815260056020908152604080832033845290915290205460ff1661306c565b6130bb8161312c565b8210156130e35760018060a01b03165f52600660205260405f20905f5260205260405f205490565b63295f44f760e21b5f5260018060a01b031660045260245260445ffd5b6008548110156131185760085f5260205f2001905f90565b634e487b7160e01b5f52603260045260245ffd5b6001600160a01b0316801561314a575f52600360205260405f205490565b6322718ad960e21b5f525f60045260245ffd5b5f1981146107795760010190565b6001600160401b036001911601906001600160401b03821161077957565b6001600160401b03811161078d5760051b60200190565b5f818152600260205260409020546001600160a01b03169081156125a9575090565b335f9081527f3a98aa3d94c0782ff7ca10c421a926220a2d2baa80161747231a90b2b8f913b4602052604090205460ff16156131fa57565b63e2517d3f60e01b5f52336004527f31e0210044b4f6757ce6aa31f9c6e8d4896d24a755014887391a926c5224d95960245260445ffd5b5f818152600c6020908152604080832033845290915290205460ff16156132555750565b63e2517d3f60e01b5f523360045260245260445ffd5b5f818152600c602090815260408083206001600160a01b038616845290915290205460ff166132f1575f818152600c602090815260408083206001600160a01b0395909516808452949091528120805460ff19166001179055339291907f2f8788117e7eff1d82e926ec794901d17c78024a50270940304540a733656f0d9080a4600190565b50505f90565b5f818152600c602090815260408083206001600160a01b038616845290915290205460ff16156132f1575f818152600c602090815260408083206001600160a01b0395909516808452949091528120805460ff19169055339291907ff6391f5c32d9c69d2a47ea670b442974b53935d1edc7fd64eb21e047a839171b9080a4600190565b9291813b61338a575b50505050565b604051630a85bd0160e11b81523360048201526001600160a01b03948516602482015260448101919091526080606482015292169190602090829081906133d5906084830190612cdd565b03815f865af15f918161346b575b5061343857503d15613431573d6133f981612dbe565b906134076040519283612d9d565b81523d5f602083013e5b8051908161342c5782633250574960e11b5f5260045260245ffd5b602001fd5b6060613411565b6001600160e01b03191663757a42ff60e11b0161345957505f808080613384565b633250574960e11b5f5260045260245ffd5b9091506020813d6020116134a8575b8161348760209383612d9d565b8101031261072057516001600160e01b03198116810361072057905f6133e3565b3d915061347a565b906134ba82612dbe565b6134c76040519182612d9d565b82815280926134d8601f1991612dbe565b0190602036910137565b9081511561361e57604051916134f9606084612d9d565b604083527f4142434445464748494a4b4c4d4e4f505152535455565758595a61626364656660208401527f6768696a6b6c6d6e6f707172737475767778797a303132333435363738392b2f604084015280516002810180911161077957600390046001600160fe1b0381168103610779576135769060021b6134b0565b90602082019080815182019560208701908151925f83525b8881106135d057505060039394959650525106806001146135be576002146135b4575090565b603d905f19015390565b50603d90815f19820153600119015390565b600360049199969901986001603f8b5182828260121c16870101518453828282600c1c16870101518385015382828260061c168701015160028501531684010151600382015301949761358e565b905060405161362e602082612d9d565b5f815290565b805f9172184f03e93ff9f4daa797ed6e38ed64bf6a1f0160401b821015613759575b806d04ee2d6d415b85acef8100000000600a92101561373e575b662386f26fc1000081101561372a575b6305f5e100811015613719575b61271081101561370a575b60648110156136fc575b10156136f1575b600a60216136b9600185016134b0565b938401015b5f1901916f181899199a1a9b1b9c1cb0b131b232b360811b8282061a83530480156136ec57600a90916136be565b505090565b6001909101906136a9565b6064600291049301926136a2565b61271060049104930192613698565b6305f5e1006008910493019261368d565b662386f26fc1000060109104930192613680565b6d04ee2d6d415b85acef810000000060209104930192613670565b506040915072184f03e93ff9f4daa797ed6e38ed64bf6a1f0160401b8104613656565b6001600160801b03166001600160801b0361271081620f42408181860416940616041690811561380257600160209283806137c26137bc6137ff96613634565b93613842565b6040519684889551918291018487015e840190601760f91b83830152805192839101602183015e01015f838201520301601f198101835282612d9d565b90565b6137ff9150613634565b6137ff60016001600160801b036020931683806137c2662386f26fc10000670de0b6b3a764000061383e818704613634565b9506045b600a8110613853576137ff90613634565b6137ff6021610ab960209361363456fea26469706673582212209c758c6b87c0c928b2a8e8ebf2c665d97b166967a434fa419fadc2036cd27fcc64736f6c634300082300332f8788117e7eff1d82e926ec794901d17c78024a50270940304540a733656f0d13649b2456f1b42fef0f0040b3aaeabcd21a76a0f3f5defd4f583839455116e83a98aa3d94c0782ff7ca10c421a926220a2d2baa80161747231a90b2b8f913b4","linkReferences":{}},"methodIdentifiers":{"DEFAULT_ADMIN_ROLE()":"a217fddf","ROYALTY_BPS()":"49c657db","VAULT_ROLE()":"98c4f1ac","approve(address,uint256)":"095ea7b3","balanceOf(address)":"70a08231","daysRemaining(uint256)":"17c9769c","getApproved(uint256)":"081812fc","getRoleAdmin(bytes32)":"248a9ca3","grantRole(bytes32,address)":"2f2ff15d","hasRole(bytes32,address)":"91d14854","isApprovedForAll(address,address)":"e985e9c5","isMatured(uint256)":"63108990","mint(address,uint128,uint64,uint32,uint128)":"d533a4b4","name()":"06fdde03","ownerOf(uint256)":"6352211e","positions(uint256)":"99fbab88","positionsOf(address)":"f867d46b","redeem(uint256,address)":"7bde82f2","renounceRole(bytes32,address)":"36568abe","revokeRole(bytes32,address)":"d547741f","royaltyInfo(uint256,uint256)":"2a55205a","safeTransferFrom(address,address,uint256)":"42842e0e","safeTransferFrom(address,address,uint256,bytes)":"b88d4fde","setApprovalForAll(address,bool)":"a22cb465","supportsInterface(bytes4)":"01ffc9a7","symbol()":"95d89b41","tokenByIndex(uint256)":"4f6ccce7","tokenOfOwnerByIndex(address,uint256)":"2f745c59","tokenURI(uint256)":"c87b56dd","totalMinted()":"a2309ff8","totalRedeemed()":"f35dad40","totalSupply()":"18160ddd","transferFrom(address,address,uint256)":"23b872dd"},"id":71}