{"abi":[{"type":"constructor","inputs":[{"name":"_vault","type":"address","internalType":"address"},{"name":"_burnRouter","type":"address","internalType":"address"}],"stateMutability":"nonpayable"},{"type":"function","name":"DEFAULT_ADMIN_ROLE","inputs":[],"outputs":[{"name":"","type":"bytes32","internalType":"bytes32"}],"stateMutability":"view"},{"type":"function","name":"ROYALTY_BPS","inputs":[],"outputs":[{"name":"","type":"uint96","internalType":"uint96"}],"stateMutability":"view"},{"type":"function","name":"VAULT_ROLE","inputs":[],"outputs":[{"name":"","type":"bytes32","internalType":"bytes32"}],"stateMutability":"view"},{"type":"function","name":"approve","inputs":[{"name":"to","type":"address","internalType":"address"},{"name":"tokenId","type":"uint256","internalType":"uint256"}],"outputs":[],"stateMutability":"nonpayable"},{"type":"function","name":"balanceOf","inputs":[{"name":"owner","type":"address","internalType":"address"}],"outputs":[{"name":"","type":"uint256","internalType":"uint256"}],"stateMutability":"view"},{"type":"function","name":"daysRemaining","inputs":[{"name":"tokenId","type":"uint256","internalType":"uint256"}],"outputs":[{"name":"","type":"uint256","internalType":"uint256"}],"stateMutability":"view"},{"type":"function","name":"getApproved","inputs":[{"name":"tokenId","type":"uint256","internalType":"uint256"}],"outputs":[{"name":"","type":"address","internalType":"address"}],"stateMutability":"view"},{"type":"function","name":"getRoleAdmin","inputs":[{"name":"role","type":"bytes32","internalType":"bytes32"}],"outputs":[{"name":"","type":"bytes32","internalType":"bytes32"}],"stateMutability":"view"},{"type":"function","name":"grantRole","inputs":[{"name":"role","type":"bytes32","internalType":"bytes32"},{"name":"account","type":"address","internalType":"address"}],"outputs":[],"stateMutability":"nonpayable"},{"type":"function","name":"hasRole","inputs":[{"name":"role","type":"bytes32","internalType":"bytes32"},{"name":"account","type":"address","internalType":"address"}],"outputs":[{"name":"","type":"bool","internalType":"bool"}],"stateMutability":"view"},{"type":"function","name":"isApprovedForAll","inputs":[{"name":"owner","type":"address","internalType":"address"},{"name":"operator","type":"address","internalType":"address"}],"outputs":[{"name":"","type":"bool","internalType":"bool"}],"stateMutability":"view"},{"type":"function","name":"isMatured","inputs":[{"name":"tokenId","type":"uint256","internalType":"uint256"}],"outputs":[{"name":"","type":"bool","internalType":"bool"}],"stateMutability":"view"},{"type":"function","name":"mint","inputs":[{"name":"to","type":"address","internalType":"address"},{"name":"lockedAmount","type":"uint128","internalType":"uint128"},{"name":"lockDuration","type":"uint64","internalType":"uint64"},{"name":"inflationBps","type":"uint32","internalType":"uint32"},{"name":"timeValue","type":"uint128","internalType":"uint128"}],"outputs":[{"name":"tokenId","type":"uint256","internalType":"uint256"}],"stateMutability":"nonpayable"},{"type":"function","name":"name","inputs":[],"outputs":[{"name":"","type":"string","internalType":"string"}],"stateMutability":"view"},{"type":"function","name":"ownerOf","inputs":[{"name":"tokenId","type":"uint256","internalType":"uint256"}],"outputs":[{"name":"","type":"address","internalType":"address"}],"stateMutability":"view"},{"type":"function","name":"positions","inputs":[{"name":"","type":"uint256","internalType":"uint256"}],"outputs":[{"name":"lockedAmount","type":"uint128","internalType":"uint128"},{"name":"timeValue","type":"uint128","internalType":"uint128"},{"name":"lockDuration","type":"uint64","internalType":"uint64"},{"name":"maturesAt","type":"uint64","internalType":"uint64"},{"name":"inflationBps","type":"uint32","internalType":"uint32"},{"name":"mintedAt","type":"uint32","internalType":"uint32"},{"name":"redeemed","type":"bool","internalType":"bool"}],"stateMutability":"view"},{"type":"function","name":"positionsOf","inputs":[{"name":"owner","type":"address","internalType":"address"}],"outputs":[{"name":"","type":"uint256[]","internalType":"uint256[]"}],"stateMutability":"view"},{"type":"function","name":"redeem","inputs":[{"name":"tokenId","type":"uint256","internalType":"uint256"},{"name":"owner","type":"address","internalType":"address"}],"outputs":[],"stateMutability":"nonpayable"},{"type":"function","name":"renounceRole","inputs":[{"name":"role","type":"bytes32","internalType":"bytes32"},{"name":"callerConfirmation","type":"address","internalType":"address"}],"outputs":[],"stateMutability":"nonpayable"},{"type":"function","name":"revokeRole","inputs":[{"name":"role","type":"bytes32","internalType":"bytes32"},{"name":"account","type":"address","internalType":"address"}],"outputs":[],"stateMutability":"nonpayable"},{"type":"function","name":"royaltyInfo","inputs":[{"name":"tokenId","type":"uint256","internalType":"uint256"},{"name":"salePrice","type":"uint256","internalType":"uint256"}],"outputs":[{"name":"","type":"address","internalType":"address"},{"name":"","type":"uint256","internalType":"uint256"}],"stateMutability":"view"},{"type":"function","name":"safeTransferFrom","inputs":[{"name":"from","type":"address","internalType":"address"},{"name":"to","type":"address","internalType":"address"},{"name":"tokenId","type":"uint256","internalType":"uint256"}],"outputs":[],"stateMutability":"nonpayable"},{"type":"function","name":"safeTransferFrom","inputs":[{"name":"from","type":"address","internalType":"address"},{"name":"to","type":"address","internalType":"address"},{"name":"tokenId","type":"uint256","internalType":"uint256"},{"name":"data","type":"bytes","internalType":"bytes"}],"outputs":[],"stateMutability":"nonpayable"},{"type":"function","name":"setApprovalForAll","inputs":[{"name":"operator","type":"address","internalType":"address"},{"name":"approved","type":"bool","internalType":"bool"}],"outputs":[],"stateMutability":"nonpayable"},{"type":"function","name":"supportsInterface","inputs":[{"name":"interfaceId","type":"bytes4","internalType":"bytes4"}],"outputs":[{"name":"","type":"bool","internalType":"bool"}],"stateMutability":"view"},{"type":"function","name":"symbol","inputs":[],"outputs":[{"name":"","type":"string","internalType":"string"}],"stateMutability":"view"},{"type":"function","name":"tokenByIndex","inputs":[{"name":"index","type":"uint256","internalType":"uint256"}],"outputs":[{"name":"","type":"uint256","internalType":"uint256"}],"stateMutability":"view"},{"type":"function","name":"tokenOfOwnerByIndex","inputs":[{"name":"owner","type":"address","internalType":"address"},{"name":"index","type":"uint256","internalType":"uint256"}],"outputs":[{"name":"","type":"uint256","internalType":"uint256"}],"stateMutability":"view"},{"type":"function","name":"tokenURI","inputs":[{"name":"tokenId","type":"uint256","internalType":"uint256"}],"outputs":[{"name":"","type":"string","internalType":"string"}],"stateMutability":"view"},{"type":"function","name":"totalMinted","inputs":[],"outputs":[{"name":"","type":"uint256","internalType":"uint256"}],"stateMutability":"view"},{"type":"function","name":"totalRedeemed","inputs":[],"outputs":[{"name":"","type":"uint256","internalType":"uint256"}],"stateMutability":"view"},{"type":"function","name":"totalSupply","inputs":[],"outputs":[{"name":"","type":"uint256","internalType":"uint256"}],"stateMutability":"view"},{"type":"function","name":"transferFrom","inputs":[{"name":"from","type":"address","internalType":"address"},{"name":"to","type":"address","internalType":"address"},{"name":"tokenId","type":"uint256","internalType":"uint256"}],"outputs":[],"stateMutability":"nonpayable"},{"type":"event","name":"Approval","inputs":[{"name":"owner","type":"address","indexed":true,"internalType":"address"},{"name":"approved","type":"address","indexed":true,"internalType":"address"},{"name":"tokenId","type":"uint256","indexed":true,"internalType":"uint256"}],"anonymous":false},{"type":"event","name":"ApprovalForAll","inputs":[{"name":"owner","type":"address","indexed":true,"internalType":"address"},{"name":"operator","type":"address","indexed":true,"internalType":"address"},{"name":"approved","type":"bool","indexed":false,"internalType":"bool"}],"anonymous":false},{"type":"event","name":"PositionMinted","inputs":[{"name":"tokenId","type":"uint256","indexed":true,"internalType":"uint256"},{"name":"to","type":"address","indexed":true,"internalType":"address"},{"name":"lockedAmount","type":"uint128","indexed":false,"internalType":"uint128"},{"name":"lockDuration","type":"uint64","indexed":false,"internalType":"uint64"},{"name":"inflationBps","type":"uint32","indexed":false,"internalType":"uint32"},{"name":"timeValue","type":"uint128","indexed":false,"internalType":"uint128"},{"name":"maturesAt","type":"uint64","indexed":false,"internalType":"uint64"}],"anonymous":false},{"type":"event","name":"PositionRedeemed","inputs":[{"name":"tokenId","type":"uint256","indexed":true,"internalType":"uint256"},{"name":"by","type":"address","indexed":true,"internalType":"address"}],"anonymous":false},{"type":"event","name":"RoleAdminChanged","inputs":[{"name":"role","type":"bytes32","indexed":true,"internalType":"bytes32"},{"name":"previousAdminRole","type":"bytes32","indexed":true,"internalType":"bytes32"},{"name":"newAdminRole","type":"bytes32","indexed":true,"internalType":"bytes32"}],"anonymous":false},{"type":"event","name":"RoleGranted","inputs":[{"name":"role","type":"bytes32","indexed":true,"internalType":"bytes32"},{"name":"account","type":"address","indexed":true,"internalType":"address"},{"name":"sender","type":"address","indexed":true,"internalType":"address"}],"anonymous":false},{"type":"event","name":"RoleRevoked","inputs":[{"name":"role","type":"bytes32","indexed":true,"internalType":"bytes32"},{"name":"account","type":"address","indexed":true,"internalType":"address"},{"name":"sender","type":"address","indexed":true,"internalType":"address"}],"anonymous":false},{"type":"event","name":"Transfer","inputs":[{"name":"from","type":"address","indexed":true,"internalType":"address"},{"name":"to","type":"address","indexed":true,"internalType":"address"},{"name":"tokenId","type":"uint256","indexed":true,"internalType":"uint256"}],"anonymous":false},{"type":"error","name":"AccessControlBadConfirmation","inputs":[]},{"type":"error","name":"AccessControlUnauthorizedAccount","inputs":[{"name":"account","type":"address","internalType":"address"},{"name":"neededRole","type":"bytes32","internalType":"bytes32"}]},{"type":"error","name":"AlreadyRedeemed","inputs":[{"name":"tokenId","type":"uint256","internalType":"uint256"}]},{"type":"error","name":"ERC2981InvalidDefaultRoyalty","inputs":[{"name":"numerator","type":"uint256","internalType":"uint256"},{"name":"denominator","type":"uint256","internalType":"uint256"}]},{"type":"error","name":"ERC2981InvalidDefaultRoyaltyReceiver","inputs":[{"name":"receiver","type":"address","internalType":"address"}]},{"type":"error","name":"ERC2981InvalidTokenRoyalty","inputs":[{"name":"tokenId","type":"uint256","internalType":"uint256"},{"name":"numerator","type":"uint256","internalType":"uint256"},{"name":"denominator","type":"uint256","internalType":"uint256"}]},{"type":"error","name":"ERC2981InvalidTokenRoyaltyReceiver","inputs":[{"name":"tokenId","type":"uint256","internalType":"uint256"},{"name":"receiver","type":"address","internalType":"address"}]},{"type":"error","name":"ERC721EnumerableForbiddenBatchMint","inputs":[]},{"type":"error","name":"ERC721IncorrectOwner","inputs":[{"name":"sender","type":"address","internalType":"address"},{"name":"tokenId","type":"uint256","internalType":"uint256"},{"name":"owner","type":"address","internalType":"address"}]},{"type":"error","name":"ERC721InsufficientApproval","inputs":[{"name":"operator","type":"address","internalType":"address"},{"name":"tokenId","type":"uint256","internalType":"uint256"}]},{"type":"error","name":"ERC721InvalidApprover","inputs":[{"name":"approver","type":"address","internalType":"address"}]},{"type":"error","name":"ERC721InvalidOperator","inputs":[{"name":"operator","type":"address","internalType":"address"}]},{"type":"error","name":"ERC721InvalidOwner","inputs":[{"name":"owner","type":"address","internalType":"address"}]},{"type":"error","name":"ERC721InvalidReceiver","inputs":[{"name":"receiver","type":"address","internalType":"address"}]},{"type":"error","name":"ERC721InvalidSender","inputs":[{"name":"sender","type":"address","internalType":"address"}]},{"type":"error","name":"ERC721NonexistentToken","inputs":[{"name":"tokenId","type":"uint256","internalType":"uint256"}]},{"type":"error","name":"ERC721OutOfBoundsIndex","inputs":[{"name":"owner","type":"address","internalType":"address"},{"name":"index","type":"uint256","internalType":"uint256"}]},{"type":"error","name":"NotMatured","inputs":[{"name":"tokenId","type":"uint256","internalType":"uint256"},{"name":"maturesAt","type":"uint256","internalType":"uint256"},{"name":"currentTime","type":"uint256","internalType":"uint256"}]},{"type":"error","name":"OnlyVault","inputs":[]},{"type":"error","name":"TransferToZero","inputs":[]},{"type":"error","name":"ZeroAmount","inputs":[]}],"bytecode":{"object":"0x60806040526001600e55348015610014575f5ffd5b506040516174b93803806174b983398181016040528101906100369190610564565b6040518060400160405280601381526020017f54454d504f2054696d6520506f736974696f6e000000000000000000000000008152506040518060400160405280600581526020017f7454494d45000000000000000000000000000000000000000000000000000000815250815f90816100b091906107f0565b5080600190816100c091906107f0565b5050505f73ffffffffffffffffffffffffffffffffffffffff168273ffffffffffffffffffffffffffffffffffffffff1603610131576040517f08c379a000000000000000000000000000000000000000000000000000000000815260040161012890610919565b60405180910390fd5b5f73ffffffffffffffffffffffffffffffffffffffff168173ffffffffffffffffffffffffffffffffffffffff160361019f576040517f08c379a000000000000000000000000000000000000000000000000000000000815260040161019690610981565b60405180910390fd5b6101b15f5f1b836101fb60201b60201c565b506101e27f31e0210044b4f6757ce6aa31f9c6e8d4896d24a755014887391a926c5224d959836101fb60201b60201c565b506101f48160646102f160201b60201c565b5050610a44565b5f61020c838361049260201b60201c565b6102e7576001600c5f8581526020019081526020015f205f015f8473ffffffffffffffffffffffffffffffffffffffff1673ffffffffffffffffffffffffffffffffffffffff1681526020019081526020015f205f6101000a81548160ff0219169083151502179055506102846104f660201b60201c565b73ffffffffffffffffffffffffffffffffffffffff168273ffffffffffffffffffffffffffffffffffffffff16847f2f8788117e7eff1d82e926ec794901d17c78024a50270940304540a733656f0d60405160405180910390a4600190506102eb565b5f90505b92915050565b5f6103006104fd60201b60201c565b6bffffffffffffffffffffffff16905080826bffffffffffffffffffffffff1611156103655781816040517f6f483d0900000000000000000000000000000000000000000000000000000000815260040161035c9291906109f5565b60405180910390fd5b5f73ffffffffffffffffffffffffffffffffffffffff168373ffffffffffffffffffffffffffffffffffffffff16036103d5575f6040517fb6d9900a0000000000000000000000000000000000000000000000000000000081526004016103cc9190610a2b565b60405180910390fd5b60405180604001604052808473ffffffffffffffffffffffffffffffffffffffff168152602001836bffffffffffffffffffffffff16815250600a5f820151815f015f6101000a81548173ffffffffffffffffffffffffffffffffffffffff021916908373ffffffffffffffffffffffffffffffffffffffff1602179055506020820151815f0160146101000a8154816bffffffffffffffffffffffff02191690836bffffffffffffffffffffffff160217905550905050505050565b5f600c5f8481526020019081526020015f205f015f8373ffffffffffffffffffffffffffffffffffffffff1673ffffffffffffffffffffffffffffffffffffffff1681526020019081526020015f205f9054906101000a900460ff16905092915050565b5f33905090565b5f612710905090565b5f5ffd5b5f73ffffffffffffffffffffffffffffffffffffffff82169050919050565b5f6105338261050a565b9050919050565b61054381610529565b811461054d575f5ffd5b50565b5f8151905061055e8161053a565b92915050565b5f5f6040838503121561057a57610579610506565b5b5f61058785828601610550565b925050602061059885828601610550565b9150509250929050565b5f81519050919050565b7f4e487b71000000000000000000000000000000000000000000000000000000005f52604160045260245ffd5b7f4e487b71000000000000000000000000000000000000000000000000000000005f52602260045260245ffd5b5f600282049050600182168061061d57607f821691505b6020821081036106305761062f6105d9565b5b50919050565b5f819050815f5260205f209050919050565b5f6020601f8301049050919050565b5f82821b905092915050565b5f600883026106927fffffffffffffffffffffffffffffffffffffffffffffffffffffffffffffffff82610657565b61069c8683610657565b95508019841693508086168417925050509392505050565b5f819050919050565b5f819050919050565b5f6106e06106db6106d6846106b4565b6106bd565b6106b4565b9050919050565b5f819050919050565b6106f9836106c6565b61070d610705826106e7565b848454610663565b825550505050565b5f5f905090565b610724610715565b61072f8184846106f0565b505050565b5f5b828110156107555761074a5f82840161071c565b600181019050610736565b505050565b601f8211156107a857828211156107a75761077481610636565b61077d83610648565b61078685610648565b6020861015610793575f90505b8083016107a282840382610734565b505050505b5b505050565b5f82821c905092915050565b5f6107c85f19846008026107ad565b1980831691505092915050565b5f6107e083836107b9565b9150826002028217905092915050565b6107f9826105a2565b67ffffffffffffffff811115610812576108116105ac565b5b61081c8254610606565b61082782828561075a565b5f60209050601f831160018114610858575f8415610846578287015190505b61085085826107d5565b8655506108b7565b601f19841661086686610636565b5f5b8281101561088d57848901518255600182019150602085019450602081019050610868565b868310156108aa57848901516108a6601f8916826107b9565b8355505b6001600288020188555050505b505050505050565b5f82825260208201905092915050565b7f54696d654e46543a207a65726f207661756c74000000000000000000000000005f82015250565b5f6109036013836108bf565b915061090e826108cf565b602082019050919050565b5f6020820190508181035f830152610930816108f7565b9050919050565b7f54696d654e46543a207a65726f206275726e526f7574657200000000000000005f82015250565b5f61096b6018836108bf565b915061097682610937565b602082019050919050565b5f6020820190508181035f8301526109988161095f565b9050919050565b5f6bffffffffffffffffffffffff82169050919050565b5f6109d06109cb6109c68461099f565b6106bd565b6106b4565b9050919050565b6109e0816109b6565b82525050565b6109ef816106b4565b82525050565b5f604082019050610a085f8301856109d7565b610a1560208301846109e6565b9392505050565b610a2581610529565b82525050565b5f602082019050610a3e5f830184610a1c565b92915050565b616a6880610a515f395ff3fe608060405234801561000f575f5ffd5b50600436106101f9575f3560e01c80636352211e11610118578063a22cb465116100ab578063d533a4b41161007a578063d533a4b414610626578063d547741f14610656578063e985e9c514610672578063f35dad40146106a2578063f867d46b146106c0576101f9565b8063a22cb465146105a0578063a2309ff8146105bc578063b88d4fde146105da578063c87b56dd146105f6576101f9565b806395d89b41116100e757806395d89b411461051057806398c4f1ac1461052e57806399fbab881461054c578063a217fddf14610582576101f9565b80636352211e1461046457806370a08231146104945780637bde82f2146104c457806391d14854146104e0576101f9565b80632a55205a1161019057806342842e0e1161015f57806342842e0e146103ca57806349c657db146103e65780634f6ccce7146104045780636310899014610434576101f9565b80632a55205a146103315780632f2ff15d146103625780632f745c591461037e57806336568abe146103ae576101f9565b806317c9769c116101cc57806317c9769c1461029757806318160ddd146102c757806323b872dd146102e5578063248a9ca314610301576101f9565b806301ffc9a7146101fd57806306fdde031461022d578063081812fc1461024b578063095ea7b31461027b575b5f5ffd5b610217600480360381019061021291906138b2565b6106f0565b60405161022491906138f7565b60405180910390f35b610235610701565b6040516102429190613980565b60405180910390f35b610265600480360381019061026091906139d3565b610790565b6040516102729190613a3d565b60405180910390f35b61029560048036038101906102909190613a80565b6107ab565b005b6102b160048036038101906102ac91906139d3565b6107c1565b6040516102be9190613acd565b60405180910390f35b6102cf61084f565b6040516102dc9190613acd565b60405180910390f35b6102ff60048036038101906102fa9190613ae6565b61085b565b005b61031b60048036038101906103169190613b69565b61095a565b6040516103289190613ba3565b60405180910390f35b61034b60048036038101906103469190613bbc565b610977565b604051610359929190613bfa565b60405180910390f35b61037c60048036038101906103779190613c21565b610b53565b005b61039860048036038101906103939190613a80565b610b75565b6040516103a59190613acd565b60405180910390f35b6103c860048036038101906103c39190613c21565b610c19565b005b6103e460048036038101906103df9190613ae6565b610c94565b005b6103ee610cb3565b6040516103fb9190613c85565b60405180910390f35b61041e600480360381019061041991906139d3565b610cb8565b60405161042b9190613acd565b60405180910390f35b61044e600480360381019061044991906139d3565b610d2a565b60405161045b91906138f7565b60405180910390f35b61047e600480360381019061047991906139d3565b610d93565b60405161048b9190613a3d565b60405180910390f35b6104ae60048036038101906104a99190613c9e565b610da4565b6040516104bb9190613acd565b60405180910390f35b6104de60048036038101906104d99190613cc9565b610e5a565b005b6104fa60048036038101906104f59190613c21565b611097565b60405161050791906138f7565b60405180910390f35b6105186110fb565b6040516105259190613980565b60405180910390f35b61053661118b565b6040516105439190613ba3565b60405180910390f35b610566600480360381019061056191906139d3565b6111af565b6040516105799796959493929190613d71565b60405180910390f35b61058a611277565b6040516105979190613ba3565b60405180910390f35b6105ba60048036038101906105b59190613e08565b61127d565b005b6105c4611293565b6040516105d19190613acd565b60405180910390f35b6105f460048036038101906105ef9190613f72565b611299565b005b610610600480360381019061060b91906139d3565b6112b6565b60405161061d9190613980565b60405180910390f35b610640600480360381019061063b9190614070565b611489565b60405161064d9190613acd565b60405180910390f35b610670600480360381019061066b9190613c21565b61177b565b005b61068c600480360381019061068791906140e7565b61179d565b60405161069991906138f7565b60405180910390f35b6106aa61182b565b6040516106b79190613acd565b60405180910390f35b6106da60048036038101906106d59190613c9e565b611831565b6040516106e791906141dc565b60405180910390f35b5f6106fa826118d9565b9050919050565b60605f805461070f90614229565b80601f016020809104026020016040519081016040528092919081815260200182805461073b90614229565b80156107865780601f1061075d57610100808354040283529160200191610786565b820191905f5260205f20905b81548152906001019060200180831161076957829003601f168201915b5050505050905090565b5f61079a82611952565b506107a4826119d8565b9050919050565b6107bd82826107b8611a11565b611a18565b5050565b5f5f600d5f8481526020019081526020015f2060010160089054906101000a900467ffffffffffffffff1690505f8167ffffffffffffffff1603610808575f91505061084a565b8067ffffffffffffffff164210610822575f91505061084a565b62015180428267ffffffffffffffff1661083c9190614286565b61084691906142e6565b9150505b919050565b5f600880549050905090565b5f73ffffffffffffffffffffffffffffffffffffffff168273ffffffffffffffffffffffffffffffffffffffff16036108cb575f6040517f64a0ae920000000000000000000000000000000000000000000000000000000081526004016108c29190613a3d565b60405180910390fd5b5f6108de83836108d9611a11565b611a2a565b90508373ffffffffffffffffffffffffffffffffffffffff168173ffffffffffffffffffffffffffffffffffffffff1614610954578382826040517f64283d7b00000000000000000000000000000000000000000000000000000000815260040161094b93929190614316565b60405180910390fd5b50505050565b5f600c5f8381526020019081526020015f20600101549050919050565b5f5f5f600b5f8681526020019081526020015f206040518060400160405290815f82015f9054906101000a900473ffffffffffffffffffffffffffffffffffffffff1673ffffffffffffffffffffffffffffffffffffffff1673ffffffffffffffffffffffffffffffffffffffff1681526020015f820160149054906101000a90046bffffffffffffffffffffffff166bffffffffffffffffffffffff166bffffffffffffffffffffffff168152505090505f73ffffffffffffffffffffffffffffffffffffffff16815f015173ffffffffffffffffffffffffffffffffffffffff1603610b0057600a6040518060400160405290815f82015f9054906101000a900473ffffffffffffffffffffffffffffffffffffffff1673ffffffffffffffffffffffffffffffffffffffff1673ffffffffffffffffffffffffffffffffffffffff1681526020015f820160149054906101000a90046bffffffffffffffffffffffff166bffffffffffffffffffffffff166bffffffffffffffffffffffff168152505090505b5f610b09611ad8565b6bffffffffffffffffffffffff1682602001516bffffffffffffffffffffffff1686610b35919061434b565b610b3f91906142e6565b9050815f0151819350935050509250929050565b610b5c8261095a565b610b6581611ae1565b610b6f8383611af5565b50505050565b5f610b7f83610da4565b8210610bc45782826040517fa57d13dc000000000000000000000000000000000000000000000000000000008152600401610bbb929190613bfa565b60405180910390fd5b60065f8473ffffffffffffffffffffffffffffffffffffffff1673ffffffffffffffffffffffffffffffffffffffff1681526020019081526020015f205f8381526020019081526020015f2054905092915050565b610c21611a11565b73ffffffffffffffffffffffffffffffffffffffff168173ffffffffffffffffffffffffffffffffffffffff1614610c85576040517f6697b23200000000000000000000000000000000000000000000000000000000815260040160405180910390fd5b610c8f8282611bdf565b505050565b610cae83838360405180602001604052805f815250611299565b505050565b606481565b5f610cc161084f565b8210610d06575f826040517fa57d13dc000000000000000000000000000000000000000000000000000000008152600401610cfd929190613bfa565b60405180910390fd5b60088281548110610d1a57610d1961438c565b5b905f5260205f2001549050919050565b5f600d5f8381526020019081526020015f2060010160089054906101000a900467ffffffffffffffff1667ffffffffffffffff164210158015610d8c5750600d5f8381526020019081526020015f2060010160189054906101000a900460ff16155b9050919050565b5f610d9d82611952565b9050919050565b5f5f73ffffffffffffffffffffffffffffffffffffffff168273ffffffffffffffffffffffffffffffffffffffff1603610e15575f6040517f89c62b64000000000000000000000000000000000000000000000000000000008152600401610e0c9190613a3d565b60405180910390fd5b60035f8373ffffffffffffffffffffffffffffffffffffffff1673ffffffffffffffffffffffffffffffffffffffff1681526020019081526020015f20549050919050565b7f31e0210044b4f6757ce6aa31f9c6e8d4896d24a755014887391a926c5224d959610e8481611ae1565b600d5f8481526020019081526020015f2060010160189054906101000a900460ff1615610ee857826040517fd36d946d000000000000000000000000000000000000000000000000000000008152600401610edf9190613acd565b60405180910390fd5b600d5f8481526020019081526020015f2060010160089054906101000a900467ffffffffffffffff1667ffffffffffffffff16421015610f8b5782600d5f8581526020019081526020015f2060010160089054906101000a900467ffffffffffffffff16426040517f16a6f6d9000000000000000000000000000000000000000000000000000000008152600401610f82939291906143f2565b60405180910390fd5b8173ffffffffffffffffffffffffffffffffffffffff16610fab84610d93565b73ffffffffffffffffffffffffffffffffffffffff1614611001576040517f08c379a0000000000000000000000000000000000000000000000000000000008152600401610ff890614471565b60405180910390fd5b6001600d5f8581526020019081526020015f2060010160186101000a81548160ff02191690831515021790555060105f8154809291906110409061448f565b919050555061104e83611cc9565b8173ffffffffffffffffffffffffffffffffffffffff16837f4a6ead20891c031e5f4f01b04e1be004378cce17267e742f13d3c82269dc7f2060405160405180910390a3505050565b5f600c5f8481526020019081526020015f205f015f8373ffffffffffffffffffffffffffffffffffffffff1673ffffffffffffffffffffffffffffffffffffffff1681526020019081526020015f205f9054906101000a900460ff16905092915050565b60606001805461110a90614229565b80601f016020809104026020016040519081016040528092919081815260200182805461113690614229565b80156111815780601f1061115857610100808354040283529160200191611181565b820191905f5260205f20905b81548152906001019060200180831161116457829003601f168201915b5050505050905090565b7f31e0210044b4f6757ce6aa31f9c6e8d4896d24a755014887391a926c5224d95981565b600d602052805f5260405f205f91509050805f015f9054906101000a90046fffffffffffffffffffffffffffffffff1690805f0160109054906101000a90046fffffffffffffffffffffffffffffffff1690806001015f9054906101000a900467ffffffffffffffff16908060010160089054906101000a900467ffffffffffffffff16908060010160109054906101000a900463ffffffff16908060010160149054906101000a900463ffffffff16908060010160189054906101000a900460ff16905087565b5f5f1b81565b61128f611288611a11565b8383611d4b565b5050565b600f5481565b6112a484848461085b565b6112b084848484611eb4565b50505050565b60606112c182611952565b505f600d5f8481526020019081526020015f206040518060e00160405290815f82015f9054906101000a90046fffffffffffffffffffffffffffffffff166fffffffffffffffffffffffffffffffff166fffffffffffffffffffffffffffffffff1681526020015f820160109054906101000a90046fffffffffffffffffffffffffffffffff166fffffffffffffffffffffffffffffffff166fffffffffffffffffffffffffffffffff168152602001600182015f9054906101000a900467ffffffffffffffff1667ffffffffffffffff1667ffffffffffffffff1681526020016001820160089054906101000a900467ffffffffffffffff1667ffffffffffffffff1667ffffffffffffffff1681526020016001820160109054906101000a900463ffffffff1663ffffffff1663ffffffff1681526020016001820160149054906101000a900463ffffffff1663ffffffff1663ffffffff1681526020016001820160189054906101000a900460ff16151515158152505090505f6114478483612066565b90505f6114558584846122b2565b90506114608161244e565b604051602001611470919061455a565b6040516020818303038152906040529350505050919050565b5f7f31e0210044b4f6757ce6aa31f9c6e8d4896d24a755014887391a926c5224d9596114b481611ae1565b5f866fffffffffffffffffffffffffffffffff16036114ff576040517f1f2a200500000000000000000000000000000000000000000000000000000000815260040160405180910390fd5b600e5f8154809291906115119061448f565b9190505591505f8542611524919061457b565b90506040518060e00160405280886fffffffffffffffffffffffffffffffff168152602001856fffffffffffffffffffffffffffffffff1681526020018767ffffffffffffffff1681526020018267ffffffffffffffff1681526020018663ffffffff1681526020014263ffffffff1681526020015f1515815250600d5f8581526020019081526020015f205f820151815f015f6101000a8154816fffffffffffffffffffffffffffffffff02191690836fffffffffffffffffffffffffffffffff1602179055506020820151815f0160106101000a8154816fffffffffffffffffffffffffffffffff02191690836fffffffffffffffffffffffffffffffff1602179055506040820151816001015f6101000a81548167ffffffffffffffff021916908367ffffffffffffffff16021790555060608201518160010160086101000a81548167ffffffffffffffff021916908367ffffffffffffffff16021790555060808201518160010160106101000a81548163ffffffff021916908363ffffffff16021790555060a08201518160010160146101000a81548163ffffffff021916908363ffffffff16021790555060c08201518160010160186101000a81548160ff021916908315150217905550905050600f5f81548092919061170a9061448f565b919050555061171988846125bb565b8773ffffffffffffffffffffffffffffffffffffffff16837f655ccd25608748852815cd0e93f756c74b61e98520c0bf426561b7dac5576f5389898989876040516117689594939291906145b6565b60405180910390a3505095945050505050565b6117848261095a565b61178d81611ae1565b6117978383611bdf565b50505050565b5f60055f8473ffffffffffffffffffffffffffffffffffffffff1673ffffffffffffffffffffffffffffffffffffffff1681526020019081526020015f205f8373ffffffffffffffffffffffffffffffffffffffff1673ffffffffffffffffffffffffffffffffffffffff1681526020019081526020015f205f9054906101000a900460ff16905092915050565b60105481565b60605f61183d83610da4565b90505f8167ffffffffffffffff81111561185a57611859613e4e565b5b6040519080825280602002602001820160405280156118885781602001602082028036833780820191505090505b5090505f5f90505b828110156118ce576118a28582610b75565b8282815181106118b5576118b461438c565b5b6020026020010181815250508080600101915050611890565b508092505050919050565b5f7f7965db0b000000000000000000000000000000000000000000000000000000007bffffffffffffffffffffffffffffffffffffffffffffffffffffffff1916827bffffffffffffffffffffffffffffffffffffffffffffffffffffffff1916148061194b575061194a826125d8565b5b9050919050565b5f5f61195d83612651565b90505f73ffffffffffffffffffffffffffffffffffffffff168173ffffffffffffffffffffffffffffffffffffffff16036119cf57826040517f7e2732890000000000000000000000000000000000000000000000000000000081526004016119c69190613acd565b60405180910390fd5b80915050919050565b5f60045f8381526020019081526020015f205f9054906101000a900473ffffffffffffffffffffffffffffffffffffffff169050919050565b5f33905090565b611a25838383600161268a565b505050565b5f5f73ffffffffffffffffffffffffffffffffffffffff168473ffffffffffffffffffffffffffffffffffffffff16148015611a8d5750611a8b7f31e0210044b4f6757ce6aa31f9c6e8d4896d24a755014887391a926c5224d95933611097565b155b15611ac4576040517fa38ca3d900000000000000000000000000000000000000000000000000000000815260040160405180910390fd5b611acf848484612849565b90509392505050565b5f612710905090565b611af281611aed611a11565b612963565b50565b5f611b008383611097565b611bd5576001600c5f8581526020019081526020015f205f015f8473ffffffffffffffffffffffffffffffffffffffff1673ffffffffffffffffffffffffffffffffffffffff1681526020019081526020015f205f6101000a81548160ff021916908315150217905550611b72611a11565b73ffffffffffffffffffffffffffffffffffffffff168273ffffffffffffffffffffffffffffffffffffffff16847f2f8788117e7eff1d82e926ec794901d17c78024a50270940304540a733656f0d60405160405180910390a460019050611bd9565b5f90505b92915050565b5f611bea8383611097565b15611cbf575f600c5f8581526020019081526020015f205f015f8473ffffffffffffffffffffffffffffffffffffffff1673ffffffffffffffffffffffffffffffffffffffff1681526020019081526020015f205f6101000a81548160ff021916908315150217905550611c5c611a11565b73ffffffffffffffffffffffffffffffffffffffff168273ffffffffffffffffffffffffffffffffffffffff16847ff6391f5c32d9c69d2a47ea670b442974b53935d1edc7fd64eb21e047a839171b60405160405180910390a460019050611cc3565b5f90505b92915050565b5f611cd55f835f611a2a565b90505f73ffffffffffffffffffffffffffffffffffffffff168173ffffffffffffffffffffffffffffffffffffffff1603611d4757816040517f7e273289000000000000000000000000000000000000000000000000000000008152600401611d3e9190613acd565b60405180910390fd5b5050565b5f73ffffffffffffffffffffffffffffffffffffffff168273ffffffffffffffffffffffffffffffffffffffff1603611dbb57816040517f5b08ba18000000000000000000000000000000000000000000000000000000008152600401611db29190613a3d565b60405180910390fd5b8060055f8573ffffffffffffffffffffffffffffffffffffffff1673ffffffffffffffffffffffffffffffffffffffff1681526020019081526020015f205f8473ffffffffffffffffffffffffffffffffffffffff1673ffffffffffffffffffffffffffffffffffffffff1681526020019081526020015f205f6101000a81548160ff0219169083151502179055508173ffffffffffffffffffffffffffffffffffffffff168373ffffffffffffffffffffffffffffffffffffffff167f17307eab39ab6107e8899845ad3d59bd9653f200f220920489ca2b5937696c3183604051611ea791906138f7565b60405180910390a3505050565b5f8373ffffffffffffffffffffffffffffffffffffffff163b1115612060578273ffffffffffffffffffffffffffffffffffffffff1663150b7a02611ef7611a11565b8685856040518563ffffffff1660e01b8152600401611f199493929190614659565b6020604051808303815f875af1925050508015611f5457506040513d601f19601f82011682018060405250810190611f5191906146b7565b60015b611fd5573d805f8114611f82576040519150601f19603f3d011682016040523d82523d5f602084013e611f87565b606091505b505f815103611fcd57836040517f64a0ae92000000000000000000000000000000000000000000000000000000008152600401611fc49190613a3d565b60405180910390fd5b805181602001fd5b63150b7a0260e01b7bffffffffffffffffffffffffffffffffffffffffffffffffffffffff1916817bffffffffffffffffffffffffffffffffffffffffffffffffffffffff19161461205e57836040517f64a0ae920000000000000000000000000000000000000000000000000000000081526004016120559190613a3d565b60405180910390fd5b505b50505050565b60608060608360c00151156120ea576040518060400160405280600881526020017f52454445454d454400000000000000000000000000000000000000000000000081525091506040518060400160405280600781526020017f2338453845393300000000000000000000000000000000000000000000000000815250905061220e565b836060015167ffffffffffffffff164267ffffffffffffffff161061217e576040518060400160405280600f81526020017f524541445920544f2052454445454d000000000000000000000000000000000081525091506040518060400160405280600781526020017f2333304431353800000000000000000000000000000000000000000000000000815250905061220d565b5f6201518042866060015161219391906146e2565b61219d919061471d565b67ffffffffffffffff1690506121b2816129b4565b6040516020016121c29190614797565b60405160208183030381529060405292506040518060400160405280600781526020017f23304138344646000000000000000000000000000000000000000000000000008152509150505b5b5f61221b855f0151612a7e565b90505f61222b8660800151612b2a565b90505f61223b8760200151612b93565b9050612246886129b4565b83828461226e620151808c6040015167ffffffffffffffff1661226991906142e6565b6129b4565b88898b61227e8f60600151612c34565b60405160200161229699989796959493929190615cc6565b6040516020818303038152906040529550505050505092915050565b60605f6122be8361244e565b6040516020016122ce9190615f7d565b60405160208183030381529060405290506122e8856129b4565b816122f5865f0151612a7e565b6123028760200151612b93565b612315886080015163ffffffff166129b4565b61233a620151808a6040015167ffffffffffffffff1661233591906142e6565b6129b4565b6123518a6060015167ffffffffffffffff166129b4565b8a60c001516123e7578a6060015167ffffffffffffffff164210156123ab576040518060400160405280600681526020017f4c6f636b656400000000000000000000000000000000000000000000000000008152506123e2565b6040518060400160405280600581526020017f52656164790000000000000000000000000000000000000000000000000000008152505b61241e565b6040518060400160405280600881526020017f52656465656d65640000000000000000000000000000000000000000000000008152505b604051602001612435989796959493929190616596565b6040516020818303038152906040529150509392505050565b60605f82510361246e5760405180602001604052805f81525090506125b6565b5f6040518060600160405280604081526020016169f36040913990505f60036002855161249b91906166d8565b6124a591906142e6565b60046124b1919061434b565b67ffffffffffffffff8111156124ca576124c9613e4e565b5b6040519080825280601f01601f1916602001820160405280156124fc5781602001600182028036833780820191505090505b509050600182016020820185865187016020810180515f82525b82841015612571576003840193508351603f8160121c168701518653600186019550603f81600c1c168701518653600186019550603f8160061c168701518653600186019550603f8116870151865360018601955050612516565b80825260038a51066001811461258e57600281146125a1576125a9565b603d6001870353603d60028703536125a9565b603d60018703535b5050505050505080925050505b919050565b6125d4828260405180602001604052805f815250612d7f565b5050565b5f7f2a55205a000000000000000000000000000000000000000000000000000000007bffffffffffffffffffffffffffffffffffffffffffffffffffffffff1916827bffffffffffffffffffffffffffffffffffffffffffffffffffffffff1916148061264a575061264982612d9a565b5b9050919050565b5f60025f8381526020019081526020015f205f9054906101000a900473ffffffffffffffffffffffffffffffffffffffff169050919050565b80806126c257505f73ffffffffffffffffffffffffffffffffffffffff168273ffffffffffffffffffffffffffffffffffffffff1614155b156127f4575f6126d184611952565b90505f73ffffffffffffffffffffffffffffffffffffffff168373ffffffffffffffffffffffffffffffffffffffff161415801561273b57508273ffffffffffffffffffffffffffffffffffffffff168173ffffffffffffffffffffffffffffffffffffffff1614155b801561274e575061274c818461179d565b155b1561279057826040517fa9fbf51f0000000000000000000000000000000000000000000000000000000081526004016127879190613a3d565b60405180910390fd5b81156127f257838573ffffffffffffffffffffffffffffffffffffffff168273ffffffffffffffffffffffffffffffffffffffff167f8c5be1e5ebec7d5bd14f71427d1e84f3dd0314c0f7b2291e5b200ac8c7c3b92560405160405180910390a45b505b8360045f8581526020019081526020015f205f6101000a81548173ffffffffffffffffffffffffffffffffffffffff021916908373ffffffffffffffffffffffffffffffffffffffff16021790555050505050565b5f5f612856858585612e13565b90505f73ffffffffffffffffffffffffffffffffffffffff168173ffffffffffffffffffffffffffffffffffffffff1603612899576128948461301e565b6128d8565b8473ffffffffffffffffffffffffffffffffffffffff168173ffffffffffffffffffffffffffffffffffffffff16146128d7576128d68185613062565b5b5b5f73ffffffffffffffffffffffffffffffffffffffff168573ffffffffffffffffffffffffffffffffffffffff160361291957612914846131ac565b612958565b8473ffffffffffffffffffffffffffffffffffffffff168173ffffffffffffffffffffffffffffffffffffffff161461295757612956858561326c565b5b5b809150509392505050565b61296d8282611097565b6129b05780826040517fe2517d3f0000000000000000000000000000000000000000000000000000000081526004016129a792919061670b565b60405180910390fd5b5050565b60605f60016129c2846132f0565b0190505f8167ffffffffffffffff8111156129e0576129df613e4e565b5b6040519080825280601f01601f191660200182016040528015612a125781602001600182028036833780820191505090505b5090505f82602001820190505b600115612a73578080600190039150507f3031323334353637383961626364656600000000000000000000000000000000600a86061a8153600a8581612a6857612a676142b9565b5b0494505f8503612a1f575b819350505050919050565b60605f620f424083612a909190616732565b6fffffffffffffffffffffffffffffffff1690505f612710620f424085612ab79190616762565b612ac19190616732565b6fffffffffffffffffffffffffffffffff1690505f8103612aee57612ae5826129b4565b92505050612b25565b612af7826129b4565b612b0082613441565b604051602001612b119291906167dc565b604051602081830303815290604052925050505b919050565b60605f606483612b3a919061680a565b63ffffffff1690505f606484612b50919061683a565b63ffffffff169050612b61826129b4565b612b6a82613441565b604051602001612b7b9291906167dc565b60405160208183030381529060405292505050919050565b60605f670de0b6b3a7640000836fffffffffffffffffffffffffffffffff16612bbc91906142e6565b90505f662386f26fc10000670de0b6b3a7640000856fffffffffffffffffffffffffffffffff16612bed919061686a565b612bf791906142e6565b9050612c02826129b4565b612c0b82613441565b604051602001612c1c9291906167dc565b60405160208183030381529060405292505050919050565b60605f6301e187e083612c47919061471d565b6107b2612c54919061457b565b67ffffffffffffffff1690505f6001622820a86301e187e086612c77919061689a565b612c81919061471d565b612c8b919061457b565b67ffffffffffffffff1690505f600162015180622820a887612cad919061689a565b612cb7919061471d565b612cc1919061457b565b67ffffffffffffffff169050612cd6836129b4565b600a8310612cec57612ce7836129b4565b612d15565b612cf5836129b4565b604051602001612d059190616914565b6040516020818303038152906040525b600a8310612d2b57612d26836129b4565b612d54565b612d34836129b4565b604051602001612d449190616914565b6040516020818303038152906040525b604051602001612d669392919061697f565b6040516020818303038152906040529350505050919050565b612d89838361348c565b612d955f848484611eb4565b505050565b5f7f780e9d63000000000000000000000000000000000000000000000000000000007bffffffffffffffffffffffffffffffffffffffffffffffffffffffff1916827bffffffffffffffffffffffffffffffffffffffffffffffffffffffff19161480612e0c5750612e0b8261357f565b5b9050919050565b5f5f612e1e84612651565b90505f73ffffffffffffffffffffffffffffffffffffffff168373ffffffffffffffffffffffffffffffffffffffff1614612e5f57612e5e818486613660565b5b5f73ffffffffffffffffffffffffffffffffffffffff168173ffffffffffffffffffffffffffffffffffffffff1614612eea57612e9e5f855f5f61268a565b600160035f8373ffffffffffffffffffffffffffffffffffffffff1673ffffffffffffffffffffffffffffffffffffffff1681526020019081526020015f205f82825403925050819055505b5f73ffffffffffffffffffffffffffffffffffffffff168573ffffffffffffffffffffffffffffffffffffffff1614612f6957600160035f8773ffffffffffffffffffffffffffffffffffffffff1673ffffffffffffffffffffffffffffffffffffffff1681526020019081526020015f205f82825401925050819055505b8460025f8681526020019081526020015f205f6101000a81548173ffffffffffffffffffffffffffffffffffffffff021916908373ffffffffffffffffffffffffffffffffffffffff160217905550838573ffffffffffffffffffffffffffffffffffffffff168273ffffffffffffffffffffffffffffffffffffffff167fddf252ad1be2c89b69c2b068fc378daa952ba7f163c4a11628f55a4df523b3ef60405160405180910390a4809150509392505050565b60088054905060095f8381526020019081526020015f2081905550600881908060018154018082558091505060019003905f5260205f20015f909190919091505550565b5f61306c83610da4565b90505f60075f8481526020019081526020015f20549050818114613143575f60065f8673ffffffffffffffffffffffffffffffffffffffff1673ffffffffffffffffffffffffffffffffffffffff1681526020019081526020015f205f8481526020019081526020015f205490508060065f8773ffffffffffffffffffffffffffffffffffffffff1673ffffffffffffffffffffffffffffffffffffffff1681526020019081526020015f205f8481526020019081526020015f20819055508160075f8381526020019081526020015f2081905550505b60075f8481526020019081526020015f205f905560065f8573ffffffffffffffffffffffffffffffffffffffff1673ffffffffffffffffffffffffffffffffffffffff1681526020019081526020015f205f8381526020019081526020015f205f905550505050565b5f60016008805490506131bf9190614286565b90505f60095f8481526020019081526020015f205490505f600883815481106131eb576131ea61438c565b5b905f5260205f2001549050806008838154811061320b5761320a61438c565b5b905f5260205f2001819055508160095f8381526020019081526020015f208190555060095f8581526020019081526020015f205f90556008805480613253576132526169c5565b5b600190038181905f5260205f20015f9055905550505050565b5f600161327884610da4565b6132829190614286565b90508160065f8573ffffffffffffffffffffffffffffffffffffffff1673ffffffffffffffffffffffffffffffffffffffff1681526020019081526020015f205f8381526020019081526020015f20819055508060075f8481526020019081526020015f2081905550505050565b5f5f5f90507a184f03e93ff9f4daa797ed6e38ed64bf6a1f010000000000000000831061334c577a184f03e93ff9f4daa797ed6e38ed64bf6a1f0100000000000000008381613342576133416142b9565b5b0492506040810190505b6d04ee2d6d415b85acef81000000008310613389576d04ee2d6d415b85acef8100000000838161337f5761337e6142b9565b5b0492506020810190505b662386f26fc1000083106133b857662386f26fc1000083816133ae576133ad6142b9565b5b0492506010810190505b6305f5e10083106133e1576305f5e10083816133d7576133d66142b9565b5b0492506008810190505b61271083106134065761271083816133fc576133fb6142b9565b5b0492506004810190505b60648310613429576064838161341f5761341e6142b9565b5b0492506002810190505b600a8310613438576001810190505b80915050919050565b6060600a82101561347b57613455826129b4565b6040516020016134659190616914565b6040516020818303038152906040529050613487565b613484826129b4565b90505b919050565b5f73ffffffffffffffffffffffffffffffffffffffff168273ffffffffffffffffffffffffffffffffffffffff16036134fc575f6040517f64a0ae920000000000000000000000000000000000000000000000000000000081526004016134f39190613a3d565b60405180910390fd5b5f61350883835f611a2a565b90505f73ffffffffffffffffffffffffffffffffffffffff168173ffffffffffffffffffffffffffffffffffffffff161461357a575f6040517f73c6ac6e0000000000000000000000000000000000000000000000000000000081526004016135719190613a3d565b60405180910390fd5b505050565b5f7f80ac58cd000000000000000000000000000000000000000000000000000000007bffffffffffffffffffffffffffffffffffffffffffffffffffffffff1916827bffffffffffffffffffffffffffffffffffffffffffffffffffffffff1916148061364957507f5b5e139f000000000000000000000000000000000000000000000000000000007bffffffffffffffffffffffffffffffffffffffffffffffffffffffff1916827bffffffffffffffffffffffffffffffffffffffffffffffffffffffff1916145b80613659575061365882613723565b5b9050919050565b61366b83838361378c565b61371e575f73ffffffffffffffffffffffffffffffffffffffff168373ffffffffffffffffffffffffffffffffffffffff16036136df57806040517f7e2732890000000000000000000000000000000000000000000000000000000081526004016136d69190613acd565b60405180910390fd5b81816040517f177e802f000000000000000000000000000000000000000000000000000000008152600401613715929190613bfa565b60405180910390fd5b505050565b5f7f01ffc9a7000000000000000000000000000000000000000000000000000000007bffffffffffffffffffffffffffffffffffffffffffffffffffffffff1916827bffffffffffffffffffffffffffffffffffffffffffffffffffffffff1916149050919050565b5f5f73ffffffffffffffffffffffffffffffffffffffff168373ffffffffffffffffffffffffffffffffffffffff161415801561384357508273ffffffffffffffffffffffffffffffffffffffff168473ffffffffffffffffffffffffffffffffffffffff1614806138045750613803848461179d565b5b8061384257508273ffffffffffffffffffffffffffffffffffffffff1661382a836119d8565b73ffffffffffffffffffffffffffffffffffffffff16145b5b90509392505050565b5f604051905090565b5f5ffd5b5f5ffd5b5f7fffffffff0000000000000000000000000000000000000000000000000000000082169050919050565b6138918161385d565b811461389b575f5ffd5b50565b5f813590506138ac81613888565b92915050565b5f602082840312156138c7576138c6613855565b5b5f6138d48482850161389e565b91505092915050565b5f8115159050919050565b6138f1816138dd565b82525050565b5f60208201905061390a5f8301846138e8565b92915050565b5f81519050919050565b5f82825260208201905092915050565b8281835e5f83830152505050565b5f601f19601f8301169050919050565b5f61395282613910565b61395c818561391a565b935061396c81856020860161392a565b61397581613938565b840191505092915050565b5f6020820190508181035f8301526139988184613948565b905092915050565b5f819050919050565b6139b2816139a0565b81146139bc575f5ffd5b50565b5f813590506139cd816139a9565b92915050565b5f602082840312156139e8576139e7613855565b5b5f6139f5848285016139bf565b91505092915050565b5f73ffffffffffffffffffffffffffffffffffffffff82169050919050565b5f613a27826139fe565b9050919050565b613a3781613a1d565b82525050565b5f602082019050613a505f830184613a2e565b92915050565b613a5f81613a1d565b8114613a69575f5ffd5b50565b5f81359050613a7a81613a56565b92915050565b5f5f60408385031215613a9657613a95613855565b5b5f613aa385828601613a6c565b9250506020613ab4858286016139bf565b9150509250929050565b613ac7816139a0565b82525050565b5f602082019050613ae05f830184613abe565b92915050565b5f5f5f60608486031215613afd57613afc613855565b5b5f613b0a86828701613a6c565b9350506020613b1b86828701613a6c565b9250506040613b2c868287016139bf565b9150509250925092565b5f819050919050565b613b4881613b36565b8114613b52575f5ffd5b50565b5f81359050613b6381613b3f565b92915050565b5f60208284031215613b7e57613b7d613855565b5b5f613b8b84828501613b55565b91505092915050565b613b9d81613b36565b82525050565b5f602082019050613bb65f830184613b94565b92915050565b5f5f60408385031215613bd257613bd1613855565b5b5f613bdf858286016139bf565b9250506020613bf0858286016139bf565b9150509250929050565b5f604082019050613c0d5f830185613a2e565b613c1a6020830184613abe565b9392505050565b5f5f60408385031215613c3757613c36613855565b5b5f613c4485828601613b55565b9250506020613c5585828601613a6c565b9150509250929050565b5f6bffffffffffffffffffffffff82169050919050565b613c7f81613c5f565b82525050565b5f602082019050613c985f830184613c76565b92915050565b5f60208284031215613cb357613cb2613855565b5b5f613cc084828501613a6c565b91505092915050565b5f5f60408385031215613cdf57613cde613855565b5b5f613cec858286016139bf565b9250506020613cfd85828601613a6c565b9150509250929050565b5f6fffffffffffffffffffffffffffffffff82169050919050565b613d2b81613d07565b82525050565b5f67ffffffffffffffff82169050919050565b613d4d81613d31565b82525050565b5f63ffffffff82169050919050565b613d6b81613d53565b82525050565b5f60e082019050613d845f83018a613d22565b613d916020830189613d22565b613d9e6040830188613d44565b613dab6060830187613d44565b613db86080830186613d62565b613dc560a0830185613d62565b613dd260c08301846138e8565b98975050505050505050565b613de7816138dd565b8114613df1575f5ffd5b50565b5f81359050613e0281613dde565b92915050565b5f5f60408385031215613e1e57613e1d613855565b5b5f613e2b85828601613a6c565b9250506020613e3c85828601613df4565b9150509250929050565b5f5ffd5b5f5ffd5b7f4e487b71000000000000000000000000000000000000000000000000000000005f52604160045260245ffd5b613e8482613938565b810181811067ffffffffffffffff82111715613ea357613ea2613e4e565b5b80604052505050565b5f613eb561384c565b9050613ec18282613e7b565b919050565b5f67ffffffffffffffff821115613ee057613edf613e4e565b5b613ee982613938565b9050602081019050919050565b828183375f83830152505050565b5f613f16613f1184613ec6565b613eac565b905082815260208101848484011115613f3257613f31613e4a565b5b613f3d848285613ef6565b509392505050565b5f82601f830112613f5957613f58613e46565b5b8135613f69848260208601613f04565b91505092915050565b5f5f5f5f60808587031215613f8a57613f89613855565b5b5f613f9787828801613a6c565b9450506020613fa887828801613a6c565b9350506040613fb9878288016139bf565b925050606085013567ffffffffffffffff811115613fda57613fd9613859565b5b613fe687828801613f45565b91505092959194509250565b613ffb81613d07565b8114614005575f5ffd5b50565b5f8135905061401681613ff2565b92915050565b61402581613d31565b811461402f575f5ffd5b50565b5f813590506140408161401c565b92915050565b61404f81613d53565b8114614059575f5ffd5b50565b5f8135905061406a81614046565b92915050565b5f5f5f5f5f60a0868803121561408957614088613855565b5b5f61409688828901613a6c565b95505060206140a788828901614008565b94505060406140b888828901614032565b93505060606140c98882890161405c565b92505060806140da88828901614008565b9150509295509295909350565b5f5f604083850312156140fd576140fc613855565b5b5f61410a85828601613a6c565b925050602061411b85828601613a6c565b9150509250929050565b5f81519050919050565b5f82825260208201905092915050565b5f819050602082019050919050565b614157816139a0565b82525050565b5f614168838361414e565b60208301905092915050565b5f602082019050919050565b5f61418a82614125565b614194818561412f565b935061419f8361413f565b805f5b838110156141cf5781516141b6888261415d565b97506141c183614174565b9250506001810190506141a2565b5085935050505092915050565b5f6020820190508181035f8301526141f48184614180565b905092915050565b7f4e487b71000000000000000000000000000000000000000000000000000000005f52602260045260245ffd5b5f600282049050600182168061424057607f821691505b602082108103614253576142526141fc565b5b50919050565b7f4e487b71000000000000000000000000000000000000000000000000000000005f52601160045260245ffd5b5f614290826139a0565b915061429b836139a0565b92508282039050818111156142b3576142b2614259565b5b92915050565b7f4e487b71000000000000000000000000000000000000000000000000000000005f52601260045260245ffd5b5f6142f0826139a0565b91506142fb836139a0565b92508261430b5761430a6142b9565b5b828204905092915050565b5f6060820190506143295f830186613a2e565b6143366020830185613abe565b6143436040830184613a2e565b949350505050565b5f614355826139a0565b9150614360836139a0565b925082820261436e816139a0565b9150828204841483151761438557614384614259565b5b5092915050565b7f4e487b71000000000000000000000000000000000000000000000000000000005f52603260045260245ffd5b5f819050919050565b5f6143dc6143d76143d284613d31565b6143b9565b6139a0565b9050919050565b6143ec816143c2565b82525050565b5f6060820190506144055f830186613abe565b61441260208301856143e3565b61441f6040830184613abe565b949350505050565b7f54696d654e46543a206e6f74206f776e657200000000000000000000000000005f82015250565b5f61445b60128361391a565b915061446682614427565b602082019050919050565b5f6020820190508181035f8301526144888161444f565b9050919050565b5f614499826139a0565b91507fffffffffffffffffffffffffffffffffffffffffffffffffffffffffffffffff82036144cb576144ca614259565b5b600182019050919050565b5f81905092915050565b7f646174613a6170706c69636174696f6e2f6a736f6e3b6261736536342c0000005f82015250565b5f614514601d836144d6565b915061451f826144e0565b601d82019050919050565b5f61453482613910565b61453e81856144d6565b935061454e81856020860161392a565b80840191505092915050565b5f61456482614508565b9150614570828461452a565b915081905092915050565b5f61458582613d31565b915061459083613d31565b9250828201905067ffffffffffffffff8111156145b0576145af614259565b5b92915050565b5f60a0820190506145c95f830188613d22565b6145d66020830187613d44565b6145e36040830186613d62565b6145f06060830185613d22565b6145fd6080830184613d44565b9695505050505050565b5f81519050919050565b5f82825260208201905092915050565b5f61462b82614607565b6146358185614611565b935061464581856020860161392a565b61464e81613938565b840191505092915050565b5f60808201905061466c5f830187613a2e565b6146796020830186613a2e565b6146866040830185613abe565b81810360608301526146988184614621565b905095945050505050565b5f815190506146b181613888565b92915050565b5f602082840312156146cc576146cb613855565b5b5f6146d9848285016146a3565b91505092915050565b5f6146ec82613d31565b91506146f783613d31565b9250828203905067ffffffffffffffff81111561471757614716614259565b5b92915050565b5f61472782613d31565b915061473283613d31565b925082614742576147416142b9565b5b828204905092915050565b7f2044415953204c454654000000000000000000000000000000000000000000005f82015250565b5f614781600a836144d6565b915061478c8261474d565b600a82019050919050565b5f6147a2828461452a565b91506147ad82614775565b915081905092915050565b7f3c73766720786d6c6e733d22687474703a2f2f7777772e77332e6f72672f32305f8201527f30302f737667222077696474683d2234303022206865696768743d223430302260208201527f2076696577426f783d223020302034303020343030223e000000000000000000604082015250565b5f6148386057836144d6565b9150614843826147b8565b605782019050919050565b7f3c646566733e00000000000000000000000000000000000000000000000000005f82015250565b5f6148826006836144d6565b915061488d8261484e565b600682019050919050565b7f3c6c696e6561724772616469656e742069643d226267222078313d22302522205f8201527f79313d223025222078323d2231303025222079323d2231303025223e00000000602082015250565b5f6148f2603c836144d6565b91506148fd82614898565b603c82019050919050565b7f3c73746f70206f66667365743d22302522207374796c653d2273746f702d636f5f8201527f6c6f723a23304130413041222f3e000000000000000000000000000000000000602082015250565b5f614962602e836144d6565b915061496d82614908565b602e82019050919050565b7f3c73746f70206f66667365743d223130302522207374796c653d2273746f702d5f8201527f636f6c6f723a23314331433145222f3e00000000000000000000000000000000602082015250565b5f6149d26030836144d6565b91506149dd82614978565b603082019050919050565b7f3c2f6c696e6561724772616469656e743e0000000000000000000000000000005f82015250565b5f614a1c6011836144d6565b9150614a27826149e8565b601182019050919050565b7f3c6c696e6561724772616469656e742069643d22676c6f77222078313d2230255f8201527f222079313d223025222078323d2231303025222079323d223025223e00000000602082015250565b5f614a8c603c836144d6565b9150614a9782614a32565b603c82019050919050565b7f3c73746f70206f66667365743d22302522207374796c653d2273746f702d636f5f8201527f6c6f723a233030423836423b73746f702d6f7061636974793a30222f3e000000602082015250565b5f614afc603d836144d6565b9150614b0782614aa2565b603d82019050919050565b7f3c73746f70206f66667365743d2235302522207374796c653d2273746f702d635f8201527f6f6c6f723a233030423836423b73746f702d6f7061636974793a302e36222f3e602082015250565b5f614b6c6040836144d6565b9150614b7782614b12565b604082019050919050565b7f3c73746f70206f66667365743d223130302522207374796c653d2273746f702d5f8201527f636f6c6f723a233030423836423b73746f702d6f7061636974793a30222f3e00602082015250565b5f614bdc603f836144d6565b9150614be782614b82565b603f82019050919050565b7f3c2f646566733e000000000000000000000000000000000000000000000000005f82015250565b5f614c266007836144d6565b9150614c3182614bf2565b600782019050919050565b7f3c726563742077696474683d2234303022206865696768743d223430302220665f8201527f696c6c3d2275726c2823626729222072783d223136222f3e0000000000000000602082015250565b5f614c966038836144d6565b9150614ca182614c3c565b603882019050919050565b7f3c7265637420783d22302220793d2230222077696474683d22343030222068655f8201527f696768743d2232222066696c6c3d2275726c2823676c6f7729222072783d223160208201527f222f3e0000000000000000000000000000000000000000000000000000000000604082015250565b5f614d2c6043836144d6565b9150614d3782614cac565b604382019050919050565b7f3c7465787420783d2232342220793d2234342220666f6e742d66616d696c793d5f8201527f226d6f6e6f73706163652220666f6e742d73697a653d2232302220666f6e742d60208201527f7765696768743d22626f6c64222066696c6c3d2223303042383642223e54454d60408201527f504f3c2f746578743e0000000000000000000000000000000000000000000000606082015250565b5f614de86069836144d6565b9150614df382614d42565b606982019050919050565b7f3c7465787420783d223130302220793d2234342220666f6e742d66616d696c795f8201527f3d226d6f6e6f73706163652220666f6e742d73697a653d223131222066696c6c60208201527f3d222333413341334322206c65747465722d73706163696e673d2232223e505260408201527f4f544f434f4c3c2f746578743e00000000000000000000000000000000000000606082015250565b5f614ea4606d836144d6565b9150614eaf82614dfe565b606d82019050919050565b7f3c7465787420783d223337362220793d2234342220666f6e742d66616d696c795f8201527f3d226d6f6e6f73706163652220666f6e742d73697a653d223131222066696c6c60208201527f3d22233341334133432220746578742d616e63686f723d22656e64223e230000604082015250565b5f614f3a605e836144d6565b9150614f4582614eba565b605e82019050919050565b7f3c2f746578743e000000000000000000000000000000000000000000000000005f82015250565b5f614f846007836144d6565b9150614f8f82614f50565b600782019050919050565b7f3c6c696e652078313d223234222079313d223630222078323d223337362220795f8201527f323d22363022207374726f6b653d222332413241324122207374726f6b652d7760208201527f696474683d22302e35222f3e0000000000000000000000000000000000000000604082015250565b5f61501a604c836144d6565b915061502582614f9a565b604c82019050919050565b7f3c7465787420783d2232342220793d223130342220666f6e742d66616d696c795f8201527f3d226d6f6e6f73706163652220666f6e742d73697a653d223130222066696c6c60208201527f3d222338453845393322206c65747465722d73706163696e673d2231223e4c4f60408201527f434b45443c2f746578743e000000000000000000000000000000000000000000606082015250565b5f6150d6606b836144d6565b91506150e182615030565b606b82019050919050565b7f3c7465787420783d2232342220793d223132382220666f6e742d66616d696c795f8201527f3d22417269616c2c73616e732d73657269662220666f6e742d73697a653d223360208201527f322220666f6e742d7765696768743d22626f6c64222066696c6c3d222346354660408201527f354637223e240000000000000000000000000000000000000000000000000000606082015250565b5f6151926066836144d6565b915061519d826150ec565b606682019050919050565b7f3c7465787420783d2232342220793d223134382220666f6e742d66616d696c795f8201527f3d226d6f6e6f73706163652220666f6e742d73697a653d223130222066696c6c60208201527f3d2223334133413343223e555344433c2f746578743e00000000000000000000604082015250565b5f6152286056836144d6565b9150615233826151a8565b605682019050919050565b7f3c7465787420783d2232342220793d223139322220666f6e742d66616d696c795f8201527f3d226d6f6e6f73706163652220666f6e742d73697a653d223130222066696c6c60208201527f3d222338453845393322206c65747465722d73706163696e673d2231223e544560408201527f4d504f52414c2056414c55453c2f746578743e00000000000000000000000000606082015250565b5f6152e46073836144d6565b91506152ef8261523e565b607382019050919050565b7f3c7465787420783d2232342220793d223231342220666f6e742d66616d696c795f8201527f3d22417269616c2c73616e732d73657269662220666f6e742d73697a653d223260208201527f322220666f6e742d7765696768743d22626f6c64222066696c6c3d222330304260408201527f383642223e000000000000000000000000000000000000000000000000000000606082015250565b5f6153a06065836144d6565b91506153ab826152fa565b606582019050919050565b7f2054494d453c2f746578743e00000000000000000000000000000000000000005f82015250565b5f6153ea600c836144d6565b91506153f5826153b6565b600c82019050919050565b7f3c7265637420783d2232342220793d22323430222077696474683d22313638225f8201527f206865696768743d223536222072783d2238222066696c6c3d2223314331433160208201527f4522207374726f6b653d222332413241324122207374726f6b652d776964746860408201527f3d22302e35222f3e000000000000000000000000000000000000000000000000606082015250565b5f6154a66068836144d6565b91506154b182615400565b606882019050919050565b7f3c7465787420783d2233362220793d223236302220666f6e742d66616d696c795f8201527f3d226d6f6e6f73706163652220666f6e742d73697a653d2239222066696c6c3d60208201527f2223384538453933223e494e464c4154494f4e20524154453c2f746578743e00604082015250565b5f61553c605f836144d6565b9150615547826154bc565b605f82019050919050565b7f3c7465787420783d2233362220793d223238302220666f6e742d66616d696c795f8201527f3d22417269616c2c73616e732d73657269662220666f6e742d73697a653d223160208201527f362220666f6e742d7765696768743d22626f6c64222066696c6c3d222346354660408201527f354637223e000000000000000000000000000000000000000000000000000000606082015250565b5f6155f86065836144d6565b915061560382615552565b606582019050919050565b7f253c2f746578743e0000000000000000000000000000000000000000000000005f82015250565b5f6156426008836144d6565b915061564d8261560e565b600882019050919050565b7f3c7265637420783d223230382220793d22323430222077696474683d223136385f8201527f22206865696768743d223536222072783d2238222066696c6c3d22233143314360208201527f314522207374726f6b653d222332413241324122207374726f6b652d7769647460408201527f683d22302e35222f3e0000000000000000000000000000000000000000000000606082015250565b5f6156fe6069836144d6565b915061570982615658565b606982019050919050565b7f3c7465787420783d223232302220793d223236302220666f6e742d66616d696c5f8201527f793d226d6f6e6f73706163652220666f6e742d73697a653d2239222066696c6c60208201527f3d2223384538453933223e4c4f434b204455524154494f4e3c2f746578743e00604082015250565b5f615794605f836144d6565b915061579f82615714565b605f82019050919050565b7f3c7465787420783d223232302220793d223238302220666f6e742d66616d696c5f8201527f793d22417269616c2c73616e732d73657269662220666f6e742d73697a653d2260208201527f31362220666f6e742d7765696768743d22626f6c64222066696c6c3d2223463560408201527f46354637223e0000000000000000000000000000000000000000000000000000606082015250565b5f6158506066836144d6565b915061585b826157aa565b606682019050919050565b7f20444159533c2f746578743e00000000000000000000000000000000000000005f82015250565b5f61589a600c836144d6565b91506158a582615866565b600c82019050919050565b7f3c7265637420783d2232342220793d22333136222077696474683d22333532225f8201527f206865696768743d223434222072783d2238222066696c6c3d2223304130413060208201527f4122207374726f6b653d222332413241324122207374726f6b652d776964746860408201527f3d22302e35222f3e000000000000000000000000000000000000000000000000606082015250565b5f6159566068836144d6565b9150615961826158b0565b606882019050919050565b7f3c636972636c652063783d223434222063793d223333382220723d22352220665f8201527f696c6c3d22000000000000000000000000000000000000000000000000000000602082015250565b5f6159c66025836144d6565b91506159d18261596c565b602582019050919050565b7f222f3e00000000000000000000000000000000000000000000000000000000005f82015250565b5f615a106003836144d6565b9150615a1b826159dc565b600382019050919050565b7f3c7465787420783d2235382220793d223334332220666f6e742d66616d696c795f8201527f3d226d6f6e6f73706163652220666f6e742d73697a653d2231312220666f6e7460208201527f2d7765696768743d22626f6c64222066696c6c3d220000000000000000000000604082015250565b5f615aa66055836144d6565b9150615ab182615a26565b605582019050919050565b7f223e0000000000000000000000000000000000000000000000000000000000005f82015250565b5f615af06002836144d6565b9150615afb82615abc565b600282019050919050565b7f3c7465787420783d2232342220793d223339302220666f6e742d66616d696c795f8201527f3d226d6f6e6f73706163652220666f6e742d73697a653d2239222066696c6c3d60208201527f2223334133413343223e74656d706f2e66696e616e63653c2f746578743e0000604082015250565b5f615b86605e836144d6565b9150615b9182615b06565b605e82019050919050565b7f3c7465787420783d223337362220793d223339302220666f6e742d66616d696c5f8201527f793d226d6f6e6f73706163652220666f6e742d73697a653d2239222066696c6c60208201527f3d22233341334133432220746578742d616e63686f723d22656e64223e000000604082015250565b5f615c1c605d836144d6565b9150615c2782615b9c565b605d82019050919050565b7f4d415455524553200000000000000000000000000000000000000000000000005f82015250565b5f615c666008836144d6565b9150615c7182615c32565b600882019050919050565b7f3c2f7376673e00000000000000000000000000000000000000000000000000005f82015250565b5f615cb06006836144d6565b9150615cbb82615c7c565b600682019050919050565b5f615cd08261482c565b9150615cdb82614876565b9150615ce6826148e6565b9150615cf182614956565b9150615cfc826149c6565b9150615d0782614a10565b9150615d1282614a80565b9150615d1d82614af0565b9150615d2882614b60565b9150615d3382614bd0565b9150615d3e82614a10565b9150615d4982614c1a565b9150615d5482614c8a565b9150615d5f82614d20565b9150615d6a82614ddc565b9150615d7582614e98565b9150615d8082614f2e565b9150615d8c828c61452a565b9150615d9782614f78565b9150615da28261500e565b9150615dad826150ca565b9150615db882615186565b9150615dc4828b61452a565b9150615dcf82614f78565b9150615dda8261521c565b9150615de5826152d8565b9150615df082615394565b9150615dfc828a61452a565b9150615e07826153de565b9150615e128261549a565b9150615e1d82615530565b9150615e28826155ec565b9150615e34828961452a565b9150615e3f82615636565b9150615e4a826156f2565b9150615e5582615788565b9150615e6082615844565b9150615e6c828861452a565b9150615e778261588e565b9150615e828261594a565b9150615e8d826159ba565b9150615e99828761452a565b9150615ea482615a04565b9150615eaf82615a9a565b9150615ebb828661452a565b9150615ec682615ae4565b9150615ed2828561452a565b9150615edd82614f78565b9150615ee882615b7a565b9150615ef382615c10565b9150615efe82615c5a565b9150615f0a828461452a565b9150615f1582614f78565b9150615f2082615ca4565b91508190509a9950505050505050505050565b7f646174613a696d6167652f7376672b786d6c3b6261736536342c0000000000005f82015250565b5f615f67601a836144d6565b9150615f7282615f33565b601a82019050919050565b5f615f8782615f5b565b9150615f93828461452a565b915081905092915050565b7f7b226e616d65223a2254454d504f20506f736974696f6e2023000000000000005f82015250565b5f615fd26019836144d6565b9150615fdd82615f9e565b601982019050919050565b7f222c0000000000000000000000000000000000000000000000000000000000005f82015250565b5f61601c6002836144d6565b915061602782615fe8565b600282019050919050565b7f226465736372697074696f6e223a22412054454d504f2050726f746f636f6c205f8201527f74696d6520706f736974696f6e2e2054686973204e465420726570726573656e60208201527f7473206c6f636b65642055534443206361706974616c2077686f73652072656160408201527f6c2074656d706f72616c2076616c756520686173206265656e20636f6d70757460608201527f656420616761696e7374206c69766520696e666c6174696f6e20646174612e2060808201527f54686520686f6c6465722063616e2072656465656d2074686520756e6465726c60a08201527f79696e672055534443206174206d617475726974792e222c000000000000000060c082015250565b5f61614a60d8836144d6565b915061615582616032565b60d882019050919050565b7f22696d616765223a2200000000000000000000000000000000000000000000005f82015250565b5f6161946009836144d6565b915061619f82616160565b600982019050919050565b7f2261747472696275746573223a5b0000000000000000000000000000000000005f82015250565b5f6161de600e836144d6565b91506161e9826161aa565b600e82019050919050565b7f7b2274726169745f74797065223a224c6f636b65642055534443222c2276616c5f8201527f7565223a22000000000000000000000000000000000000000000000000000000602082015250565b5f61624e6025836144d6565b9150616259826161f4565b602582019050919050565b7f227d2c00000000000000000000000000000000000000000000000000000000005f82015250565b5f6162986003836144d6565b91506162a382616264565b600382019050919050565b7f7b2274726169745f74797065223a2254656d706f72616c2056616c7565222c225f8201527f76616c7565223a22000000000000000000000000000000000000000000000000602082015250565b5f6163086028836144d6565b9150616313826162ae565b602882019050919050565b7f7b2274726169745f74797065223a22496e666c6174696f6e20526174652028425f8201527f505329222c2276616c7565223a00000000000000000000000000000000000000602082015250565b5f616378602d836144d6565b91506163838261631e565b602d82019050919050565b7f7d2c0000000000000000000000000000000000000000000000000000000000005f82015250565b5f6163c26002836144d6565b91506163cd8261638e565b600282019050919050565b7f7b2274726169745f74797065223a224c6f636b204475726174696f6e202864615f8201527f797329222c2276616c7565223a00000000000000000000000000000000000000602082015250565b5f616432602d836144d6565b915061643d826163d8565b602d82019050919050565b7f7b2274726169745f74797065223a224d617475726573204174222c2276616c755f8201527f65223a0000000000000000000000000000000000000000000000000000000000602082015250565b5f6164a26023836144d6565b91506164ad82616448565b602382019050919050565b7f7b2274726169745f74797065223a22537461747573222c2276616c7565223a225f82015250565b5f6164ec6020836144d6565b91506164f7826164b8565b602082019050919050565b7f227d0000000000000000000000000000000000000000000000000000000000005f82015250565b5f6165366002836144d6565b915061654182616502565b600282019050919050565b7f5d7d0000000000000000000000000000000000000000000000000000000000005f82015250565b5f6165806002836144d6565b915061658b8261654c565b600282019050919050565b5f6165a082615fc6565b91506165ac828b61452a565b91506165b782616010565b91506165c28261613e565b91506165cd82616188565b91506165d9828a61452a565b91506165e482616010565b91506165ef826161d2565b91506165fa82616242565b9150616606828961452a565b91506166118261628c565b915061661c826162fc565b9150616628828861452a565b91506166338261628c565b915061663e8261636c565b915061664a828761452a565b9150616655826163b6565b915061666082616426565b915061666c828661452a565b9150616677826163b6565b915061668282616496565b915061668e828561452a565b9150616699826163b6565b91506166a4826164e0565b91506166b0828461452a565b91506166bb8261652a565b91506166c682616574565b91508190509998505050505050505050565b5f6166e2826139a0565b91506166ed836139a0565b925082820190508082111561670557616704614259565b5b92915050565b5f60408201905061671e5f830185613a2e565b61672b6020830184613b94565b9392505050565b5f61673c82613d07565b915061674783613d07565b925082616757576167566142b9565b5b828204905092915050565b5f61676c82613d07565b915061677783613d07565b925082616787576167866142b9565b5b828206905092915050565b7f2e000000000000000000000000000000000000000000000000000000000000005f82015250565b5f6167c66001836144d6565b91506167d182616792565b600182019050919050565b5f6167e7828561452a565b91506167f2826167ba565b91506167fe828461452a565b91508190509392505050565b5f61681482613d53565b915061681f83613d53565b92508261682f5761682e6142b9565b5b828204905092915050565b5f61684482613d53565b915061684f83613d53565b92508261685f5761685e6142b9565b5b828206905092915050565b5f616874826139a0565b915061687f836139a0565b92508261688f5761688e6142b9565b5b828206905092915050565b5f6168a482613d31565b91506168af83613d31565b9250826168bf576168be6142b9565b5b828206905092915050565b7f30000000000000000000000000000000000000000000000000000000000000005f82015250565b5f6168fe6001836144d6565b9150616909826168ca565b600182019050919050565b5f61691e826168f2565b915061692a828461452a565b915081905092915050565b7f2d000000000000000000000000000000000000000000000000000000000000005f82015250565b5f6169696001836144d6565b915061697482616935565b600182019050919050565b5f61698a828661452a565b91506169958261695d565b91506169a1828561452a565b91506169ac8261695d565b91506169b8828461452a565b9150819050949350505050565b7f4e487b71000000000000000000000000000000000000000000000000000000005f52603160045260245ffdfe4142434445464748494a4b4c4d4e4f505152535455565758595a6162636465666768696a6b6c6d6e6f707172737475767778797a303132333435363738392b2fa26469706673582212205683df11ca2e204dc6d4a24a4de00406bf10ec3df4c613bc3964a1267dff14b764736f6c63430008230033","linkReferences":{}},"methodIdentifiers":{"DEFAULT_ADMIN_ROLE()":"a217fddf","ROYALTY_BPS()":"49c657db","VAULT_ROLE()":"98c4f1ac","approve(address,uint256)":"095ea7b3","balanceOf(address)":"70a08231","daysRemaining(uint256)":"17c9769c","getApproved(uint256)":"081812fc","getRoleAdmin(bytes32)":"248a9ca3","grantRole(bytes32,address)":"2f2ff15d","hasRole(bytes32,address)":"91d14854","isApprovedForAll(address,address)":"e985e9c5","isMatured(uint256)":"63108990","mint(address,uint128,uint64,uint32,uint128)":"d533a4b4","name()":"06fdde03","ownerOf(uint256)":"6352211e","positions(uint256)":"99fbab88","positionsOf(address)":"f867d46b","redeem(uint256,address)":"7bde82f2","renounceRole(bytes32,address)":"36568abe","revokeRole(bytes32,address)":"d547741f","royaltyInfo(uint256,uint256)":"2a55205a","safeTransferFrom(address,address,uint256)":"42842e0e","safeTransferFrom(address,address,uint256,bytes)":"b88d4fde","setApprovalForAll(address,bool)":"a22cb465","supportsInterface(bytes4)":"01ffc9a7","symbol()":"95d89b41","tokenByIndex(uint256)":"4f6ccce7","tokenOfOwnerByIndex(address,uint256)":"2f745c59","tokenURI(uint256)":"c87b56dd","totalMinted()":"a2309ff8","totalRedeemed()":"f35dad40","totalSupply()":"18160ddd","transferFrom(address,address,uint256)":"23b872dd"},"id":70}